{
  "_format": "hh-sol-artifact-1",
  "contractName": "QVote",
  "sourceName": "src/hardhat/contracts/Qvote.sol",
  "abi": [
    {
      "inputs": [],
      "stateMutability": "nonpayable",
      "type": "constructor"
    },
    {
      "anonymous": false,
      "inputs": [
        {
          "indexed": false,
          "internalType": "string",
          "name": "name",
          "type": "string"
        },
        {
          "indexed": false,
          "internalType": "address",
          "name": "creator",
          "type": "address"
        },
        {
          "indexed": false,
          "internalType": "uint256",
          "name": "organizationCount",
          "type": "uint256"
        },
        {
          "indexed": false,
          "internalType": "uint256",
          "name": "ownerind",
          "type": "uint256"
        },
        {
          "indexed": false,
          "internalType": "uint256",
          "name": "creditsPerVoter",
          "type": "uint256"
        }
      ],
      "name": "newOrganizationCreated",
      "type": "event"
    },
    {
      "anonymous": false,
      "inputs": [
        {
          "indexed": false,
          "internalType": "uint256",
          "name": "orgID",
          "type": "uint256"
        },
        {
          "indexed": false,
          "internalType": "string",
          "name": "title",
          "type": "string"
        },
        {
          "indexed": false,
          "internalType": "uint256",
          "name": "ProposalId",
          "type": "uint256"
        },
        {
          "indexed": false,
          "internalType": "address",
          "name": "creator",
          "type": "address"
        },
        {
          "indexed": false,
          "internalType": "uint256",
          "name": "duration",
          "type": "uint256"
        },
        {
          "indexed": false,
          "internalType": "string",
          "name": "description",
          "type": "string"
        }
      ],
      "name": "newProposalCreated",
      "type": "event"
    },
    {
      "inputs": [
        {
          "internalType": "uint256",
          "name": "",
          "type": "uint256"
        },
        {
          "internalType": "uint256",
          "name": "",
          "type": "uint256"
        }
      ],
      "name": "OrgUsers",
      "outputs": [
        {
          "internalType": "address",
          "name": "",
          "type": "address"
        }
      ],
      "stateMutability": "view",
      "type": "function"
    },
    {
      "inputs": [
        {
          "internalType": "address",
          "name": "",
          "type": "address"
        }
      ],
      "name": "OrganizationContracts",
      "outputs": [
        {
          "internalType": "bool",
          "name": "",
          "type": "bool"
        }
      ],
      "stateMutability": "view",
      "type": "function"
    },
    {
      "inputs": [
        {
          "internalType": "address",
          "name": "",
          "type": "address"
        }
      ],
      "name": "OrganizationOwners",
      "outputs": [
        {
          "internalType": "uint256",
          "name": "",
          "type": "uint256"
        }
      ],
      "stateMutability": "view",
      "type": "function"
    },
    {
      "inputs": [
        {
          "internalType": "uint256",
          "name": "",
          "type": "uint256"
        }
      ],
      "name": "allProposals",
      "outputs": [
        {
          "internalType": "address",
          "name": "creator",
          "type": "address"
        },
        {
          "internalType": "uint256",
          "name": "pid",
          "type": "uint256"
        },
        {
          "internalType": "string",
          "name": "title",
          "type": "string"
        },
        {
          "internalType": "uint256",
          "name": "upVotes",
          "type": "uint256"
        },
        {
          "internalType": "uint256",
          "name": "downVotes",
          "type": "uint256"
        },
        {
          "internalType": "uint256",
          "name": "creationTime",
          "type": "uint256"
        },
        {
          "internalType": "uint256",
          "name": "duration",
          "type": "uint256"
        },
        {
          "internalType": "string",
          "name": "description",
          "type": "string"
        }
      ],
      "stateMutability": "view",
      "type": "function"
    },
    {
      "inputs": [
        {
          "internalType": "uint256",
          "name": "_orgID",
          "type": "uint256"
        }
      ],
      "name": "allowMinting",
      "outputs": [],
      "stateMutability": "nonpayable",
      "type": "function"
    },
    {
      "inputs": [
        {
          "internalType": "uint256",
          "name": "_orgID",
          "type": "uint256"
        }
      ],
      "name": "blockMinting",
      "outputs": [],
      "stateMutability": "nonpayable",
      "type": "function"
    },
    {
      "inputs": [
        {
          "internalType": "uint256",
          "name": "",
          "type": "uint256"
        },
        {
          "internalType": "address",
          "name": "",
          "type": "address"
        }
      ],
      "name": "canMint",
      "outputs": [
        {
          "internalType": "bool",
          "name": "",
          "type": "bool"
        }
      ],
      "stateMutability": "view",
      "type": "function"
    },
    {
      "inputs": [
        {
          "internalType": "uint256",
          "name": "_orgID",
          "type": "uint256"
        },
        {
          "internalType": "uint256",
          "name": "_pID",
          "type": "uint256"
        },
        {
          "internalType": "uint256",
          "name": "vote",
          "type": "uint256"
        },
        {
          "internalType": "uint256",
          "name": "numVotes",
          "type": "uint256"
        }
      ],
      "name": "castVote",
      "outputs": [],
      "stateMutability": "nonpayable",
      "type": "function"
    },
    {
      "inputs": [
        {
          "internalType": "uint256",
          "name": "_cpv",
          "type": "uint256"
        }
      ],
      "name": "changeCreditsPerVote",
      "outputs": [
        {
          "internalType": "uint256",
          "name": "",
          "type": "uint256"
        }
      ],
      "stateMutability": "nonpayable",
      "type": "function"
    },
    {
      "inputs": [],
      "name": "checkOrgActive",
      "outputs": [
        {
          "internalType": "bool",
          "name": "",
          "type": "bool"
        }
      ],
      "stateMutability": "view",
      "type": "function"
    },
    {
      "inputs": [
        {
          "internalType": "uint256",
          "name": "_orgID",
          "type": "uint256"
        },
        {
          "internalType": "uint256",
          "name": "_pID",
          "type": "uint256"
        }
      ],
      "name": "checkProposalDuration",
      "outputs": [
        {
          "internalType": "uint256",
          "name": "",
          "type": "uint256"
        }
      ],
      "stateMutability": "view",
      "type": "function"
    },
    {
      "inputs": [
        {
          "internalType": "uint256",
          "name": "_orgID",
          "type": "uint256"
        }
      ],
      "name": "checkUserBalance",
      "outputs": [
        {
          "internalType": "uint256",
          "name": "",
          "type": "uint256"
        }
      ],
      "stateMutability": "view",
      "type": "function"
    },
    {
      "inputs": [
        {
          "internalType": "uint256",
          "name": "_orgID",
          "type": "uint256"
        }
      ],
      "name": "checkUserMintStatus",
      "outputs": [
        {
          "internalType": "bool",
          "name": "",
          "type": "bool"
        }
      ],
      "stateMutability": "view",
      "type": "function"
    },
    {
      "inputs": [
        {
          "internalType": "string",
          "name": "_name",
          "type": "string"
        },
        {
          "internalType": "uint256",
          "name": "_cpv",
          "type": "uint256"
        },
        {
          "internalType": "address",
          "name": "account",
          "type": "address"
        }
      ],
      "name": "createNewOrganization",
      "outputs": [],
      "stateMutability": "nonpayable",
      "type": "function"
    },
    {
      "inputs": [
        {
          "internalType": "uint256",
          "name": "_duration",
          "type": "uint256"
        },
        {
          "internalType": "string",
          "name": "_title",
          "type": "string"
        },
        {
          "internalType": "string",
          "name": "_desc",
          "type": "string"
        }
      ],
      "name": "createNewProposal",
      "outputs": [],
      "stateMutability": "nonpayable",
      "type": "function"
    },
    {
      "inputs": [],
      "name": "getAllOrganization",
      "outputs": [
        {
          "components": [
            {
              "internalType": "address",
              "name": "creator",
              "type": "address"
            },
            {
              "internalType": "address",
              "name": "contractAddress",
              "type": "address"
            },
            {
              "internalType": "uint256",
              "name": "oid",
              "type": "uint256"
            },
            {
              "internalType": "bool",
              "name": "isActive",
              "type": "bool"
            },
            {
              "internalType": "string",
              "name": "name",
              "type": "string"
            },
            {
              "internalType": "uint256",
              "name": "ProposalCount",
              "type": "uint256"
            },
            {
              "internalType": "uint256",
              "name": "creditsPerVoter",
              "type": "uint256"
            },
            {
              "internalType": "uint256",
              "name": "totalTokenSupply",
              "type": "uint256"
            }
          ],
          "internalType": "struct supportContract.Organization[]",
          "name": "",
          "type": "tuple[]"
        }
      ],
      "stateMutability": "view",
      "type": "function"
    },
    {
      "inputs": [],
      "name": "getAllProposals",
      "outputs": [
        {
          "components": [
            {
              "internalType": "address",
              "name": "creator",
              "type": "address"
            },
            {
              "internalType": "uint256",
              "name": "pid",
              "type": "uint256"
            },
            {
              "internalType": "string",
              "name": "title",
              "type": "string"
            },
            {
              "internalType": "address[]",
              "name": "voters",
              "type": "address[]"
            },
            {
              "internalType": "uint256",
              "name": "upVotes",
              "type": "uint256"
            },
            {
              "internalType": "uint256",
              "name": "downVotes",
              "type": "uint256"
            },
            {
              "internalType": "uint256",
              "name": "creationTime",
              "type": "uint256"
            },
            {
              "internalType": "uint256",
              "name": "duration",
              "type": "uint256"
            },
            {
              "internalType": "string",
              "name": "description",
              "type": "string"
            }
          ],
          "internalType": "struct supportContract.Proposal[]",
          "name": "",
          "type": "tuple[]"
        }
      ],
      "stateMutability": "view",
      "type": "function"
    },
    {
      "inputs": [
        {
          "internalType": "uint256",
          "name": "_orgID",
          "type": "uint256"
        }
      ],
      "name": "getOrgMembers",
      "outputs": [
        {
          "internalType": "address[]",
          "name": "",
          "type": "address[]"
        }
      ],
      "stateMutability": "view",
      "type": "function"
    },
    {
      "inputs": [
        {
          "internalType": "uint256",
          "name": "_orgID",
          "type": "uint256"
        }
      ],
      "name": "getOrgMembersCount",
      "outputs": [
        {
          "internalType": "uint256",
          "name": "",
          "type": "uint256"
        }
      ],
      "stateMutability": "view",
      "type": "function"
    },
    {
      "inputs": [
        {
          "internalType": "uint256",
          "name": "orgID",
          "type": "uint256"
        }
      ],
      "name": "getOrgProposals",
      "outputs": [
        {
          "components": [
            {
              "internalType": "address",
              "name": "creator",
              "type": "address"
            },
            {
              "internalType": "uint256",
              "name": "pid",
              "type": "uint256"
            },
            {
              "internalType": "string",
              "name": "title",
              "type": "string"
            },
            {
              "internalType": "address[]",
              "name": "voters",
              "type": "address[]"
            },
            {
              "internalType": "uint256",
              "name": "upVotes",
              "type": "uint256"
            },
            {
              "internalType": "uint256",
              "name": "downVotes",
              "type": "uint256"
            },
            {
              "internalType": "uint256",
              "name": "creationTime",
              "type": "uint256"
            },
            {
              "internalType": "uint256",
              "name": "duration",
              "type": "uint256"
            },
            {
              "internalType": "string",
              "name": "description",
              "type": "string"
            }
          ],
          "internalType": "struct supportContract.Proposal[]",
          "name": "",
          "type": "tuple[]"
        }
      ],
      "stateMutability": "view",
      "type": "function"
    },
    {
      "inputs": [
        {
          "internalType": "uint256",
          "name": "_orgID",
          "type": "uint256"
        }
      ],
      "name": "getOrganization",
      "outputs": [
        {
          "components": [
            {
              "internalType": "address",
              "name": "creator",
              "type": "address"
            },
            {
              "internalType": "address",
              "name": "contractAddress",
              "type": "address"
            },
            {
              "internalType": "uint256",
              "name": "oid",
              "type": "uint256"
            },
            {
              "internalType": "bool",
              "name": "isActive",
              "type": "bool"
            },
            {
              "internalType": "string",
              "name": "name",
              "type": "string"
            },
            {
              "internalType": "uint256",
              "name": "ProposalCount",
              "type": "uint256"
            },
            {
              "internalType": "uint256",
              "name": "creditsPerVoter",
              "type": "uint256"
            },
            {
              "internalType": "uint256",
              "name": "totalTokenSupply",
              "type": "uint256"
            }
          ],
          "internalType": "struct supportContract.Organization",
          "name": "",
          "type": "tuple"
        }
      ],
      "stateMutability": "view",
      "type": "function"
    },
    {
      "inputs": [
        {
          "internalType": "uint256",
          "name": "_oID",
          "type": "uint256"
        }
      ],
      "name": "getUserOrganizationTokenSupply",
      "outputs": [
        {
          "internalType": "uint256",
          "name": "",
          "type": "uint256"
        }
      ],
      "stateMutability": "view",
      "type": "function"
    },
    {
      "inputs": [
        {
          "internalType": "uint256",
          "name": "",
          "type": "uint256"
        },
        {
          "internalType": "address",
          "name": "",
          "type": "address"
        }
      ],
      "name": "isMember",
      "outputs": [
        {
          "internalType": "bool",
          "name": "",
          "type": "bool"
        }
      ],
      "stateMutability": "view",
      "type": "function"
    },
    {
      "inputs": [
        {
          "internalType": "uint256",
          "name": "_orgID",
          "type": "uint256"
        }
      ],
      "name": "mint",
      "outputs": [],
      "stateMutability": "nonpayable",
      "type": "function"
    },
    {
      "inputs": [],
      "name": "organizationCount",
      "outputs": [
        {
          "internalType": "uint256",
          "name": "",
          "type": "uint256"
        }
      ],
      "stateMutability": "view",
      "type": "function"
    },
    {
      "inputs": [
        {
          "internalType": "uint256",
          "name": "",
          "type": "uint256"
        }
      ],
      "name": "organizations",
      "outputs": [
        {
          "internalType": "address",
          "name": "creator",
          "type": "address"
        },
        {
          "internalType": "address",
          "name": "contractAddress",
          "type": "address"
        },
        {
          "internalType": "uint256",
          "name": "oid",
          "type": "uint256"
        },
        {
          "internalType": "bool",
          "name": "isActive",
          "type": "bool"
        },
        {
          "internalType": "string",
          "name": "name",
          "type": "string"
        },
        {
          "internalType": "uint256",
          "name": "ProposalCount",
          "type": "uint256"
        },
        {
          "internalType": "uint256",
          "name": "creditsPerVoter",
          "type": "uint256"
        },
        {
          "internalType": "uint256",
          "name": "totalTokenSupply",
          "type": "uint256"
        }
      ],
      "stateMutability": "view",
      "type": "function"
    },
    {
      "inputs": [],
      "name": "owner",
      "outputs": [
        {
          "internalType": "address",
          "name": "",
          "type": "address"
        }
      ],
      "stateMutability": "view",
      "type": "function"
    },
    {
      "inputs": [
        {
          "internalType": "uint256",
          "name": "",
          "type": "uint256"
        },
        {
          "internalType": "uint256",
          "name": "",
          "type": "uint256"
        }
      ],
      "name": "proposalList",
      "outputs": [
        {
          "internalType": "address",
          "name": "creator",
          "type": "address"
        },
        {
          "internalType": "uint256",
          "name": "pid",
          "type": "uint256"
        },
        {
          "internalType": "string",
          "name": "title",
          "type": "string"
        },
        {
          "internalType": "uint256",
          "name": "upVotes",
          "type": "uint256"
        },
        {
          "internalType": "uint256",
          "name": "downVotes",
          "type": "uint256"
        },
        {
          "internalType": "uint256",
          "name": "creationTime",
          "type": "uint256"
        },
        {
          "internalType": "uint256",
          "name": "duration",
          "type": "uint256"
        },
        {
          "internalType": "string",
          "name": "description",
          "type": "string"
        }
      ],
      "stateMutability": "view",
      "type": "function"
    },
    {
      "inputs": [
        {
          "internalType": "uint256",
          "name": "_orgID",
          "type": "uint256"
        },
        {
          "internalType": "uint256",
          "name": "_pid",
          "type": "uint256"
        }
      ],
      "name": "totalVotes",
      "outputs": [
        {
          "internalType": "uint256",
          "name": "",
          "type": "uint256"
        },
        {
          "internalType": "uint256",
          "name": "",
          "type": "uint256"
        }
      ],
      "stateMutability": "view",
      "type": "function"
    },
    {
      "inputs": [
        {
          "internalType": "uint256",
          "name": "",
          "type": "uint256"
        },
        {
          "internalType": "address",
          "name": "",
          "type": "address"
        }
      ],
      "name": "userBalance",
      "outputs": [
        {
          "internalType": "uint256",
          "name": "",
          "type": "uint256"
        }
      ],
      "stateMutability": "view",
      "type": "function"
    }
  ],
  "bytecode": "0x6080604052600060025534801561001557600080fd5b50336000806101000a81548173ffffffffffffffffffffffffffffffffffffffff021916908373ffffffffffffffffffffffffffffffffffffffff1602179055506149f5806100656000396000f3fe608060405234801561001057600080fd5b50600436106101da5760003560e01c8063920be88811610104578063d13ae672116100a2578063f3970d7311610071578063f3970d7314610629578063fb7cc43b14610645578063fd3d3ff114610675578063ff435baa146106a5576101da565b8063d13ae67214610574578063de6124dd146105a4578063e792dd8a146105d4578063f1c621041461060b576101da565b8063ab53cf6b116100de578063ab53cf6b146104ec578063ad81c58314610508578063b11f644214610526578063cceb68f514610556576101da565b8063920be88814610469578063938351b814610499578063a0712d68146104d0576101da565b80636301f6911161017c578063851987051161014b57806385198705146103bb57806389572ff6146103eb5780638da5cb5b1461041b5780638f4e76b914610439576101da565b80636301f6911461030f57806363a56e7a1461032b57806373f37e381461035b5780637d9e10f51461038b576101da565b806324a9ed8e116101b857806324a9ed8e146102625780632fc256c31461029357806336a9dbb0146102c35780634526f690146102df576101da565b80631414982f146101df5780631c6fc8501461021657806323848f1714610232575b600080fd5b6101f960048036038101906101f4919061397f565b6106c3565b60405161020d989796959493929190614124565b60405180910390f35b610230600480360381019061022b91906139bb565b610858565b005b61024c60048036038101906102479190613891565b610cca565b60405161025991906143b3565b60405180910390f35b61027c6004803603810190610277919061397f565b610d22565b60405161028a9291906143ce565b60405180910390f35b6102ad60048036038101906102a8919061397f565b610df6565b6040516102ba91906143b3565b60405180910390f35b6102dd60048036038101906102d89190613891565b610f6e565b005b6102f960048036038101906102f49190613891565b61115e565b6040516103069190614391565b60405180910390f35b61032960048036038101906103249190613891565b6113e1565b005b61034560048036038101906103409190613891565b6115d1565b60405161035291906141f4565b60405180910390f35b61037560048036038101906103709190613891565b61190d565b60405161038291906143b3565b60405180910390f35b6103a560048036038101906103a091906138ba565b61199b565b6040516103b29190614216565b60405180910390f35b6103d560048036038101906103d091906138ba565b6119ca565b6040516103e291906143b3565b60405180910390f35b6104056004803603810190610400919061397f565b6119ef565b6040516104129190614084565b60405180910390f35b610423611a3d565b6040516104309190614084565b60405180910390f35b610453600480360381019061044e91906138ba565b611a61565b6040516104609190614216565b60405180910390f35b610483600480360381019061047e9190613891565b611a90565b60405161049091906143b3565b60405180910390f35b6104b360048036038101906104ae9190613891565b611c52565b6040516104c7989796959493929190614124565b60405180910390f35b6104ea60048036038101906104e59190613891565b611dda565b005b6105066004803603810190610501919061382a565b612272565b005b61051061254d565b60405161051d9190614216565b60405180910390f35b610540600480360381019061053b9190613801565b6126b5565b60405161054d91906143b3565b60405180910390f35b61055e6126cd565b60405161056b91906141f4565b60405180910390f35b61058e60048036038101906105899190613891565b612981565b60405161059b91906141b0565b60405180910390f35b6105be60048036038101906105b99190613801565b612a5d565b6040516105cb9190614216565b60405180910390f35b6105ee60048036038101906105e99190613891565b612a7d565b60405161060298979695949392919061409f565b60405180910390f35b610613612baa565b60405161062091906143b3565b60405180910390f35b610643600480360381019061063e91906138f6565b612bb0565b005b61065f600480360381019061065a9190613891565b6130d3565b60405161066c91906143b3565b60405180910390f35b61068f600480360381019061068a9190613891565b61319c565b60405161069c9190614216565b60405180910390f35b6106ad6132ae565b6040516106ba91906141d2565b60405180910390f35b600660205281600052604060002081815481106106df57600080fd5b9060005260206000209060090201600091509150508060000160009054906101000a900473ffffffffffffffffffffffffffffffffffffffff169080600101549080600201805461072f9061467b565b80601f016020809104026020016040519081016040528092919081815260200182805461075b9061467b565b80156107a85780601f1061077d576101008083540402835291602001916107a8565b820191906000526020600020905b81548152906001019060200180831161078b57829003601f168201915b5050505050908060040154908060050154908060060154908060070154908060080180546107d59061467b565b80601f01602080910402602001604051908101604052809291908181526020018280546108019061467b565b801561084e5780601f106108235761010080835404028352916020019161084e565b820191906000526020600020905b81548152906001019060200180831161083157829003601f168201915b5050505050905088565b836000811015801561086c57506002548111155b6108ab576040517f08c379a00000000000000000000000000000000000000000000000000000000081526004016108a290614231565b60405180910390fd5b8484600060056001846108be91906145bd565b815481106108f5577f4e487b7100000000000000000000000000000000000000000000000000000000600052603260045260246000fd5b90600052602060002090600802016005015490506000821015801561091a5750808211155b610959576040517f08c379a0000000000000000000000000000000000000000000000000000000008152600401610950906142f1565b60405180910390fd5b6000600660008a8152602001908152602001600020905061097a8989610df6565b8160018a61098891906145bd565b815481106109bf577f4e487b7100000000000000000000000000000000000000000000000000000000600052603260045260246000fd5b906000526020600020906009020160060154426109dc91906145bd565b10610a1c576040517f08c379a0000000000000000000000000000000000000000000000000000000008152600401610a1390614351565b60405180910390fd5b85610a268a6130d3565b1015610a67576040517f08c379a0000000000000000000000000000000000000000000000000000000008152600401610a5e90614271565b60405180910390fd5b85600760008b815260200190815260200160002060003373ffffffffffffffffffffffffffffffffffffffff1673ffffffffffffffffffffffffffffffffffffffff16815260200190815260200160002054610ac391906145bd565b600760008b815260200190815260200160002060003373ffffffffffffffffffffffffffffffffffffffff1673ffffffffffffffffffffffffffffffffffffffff168152602001908152602001600020819055506000610b22876134a9565b905060008260018b610b3491906145bd565b81548110610b6b577f4e487b7100000000000000000000000000000000000000000000000000000000600052603260045260246000fd5b906000526020600020906009020190506001891415610ba157818160040154610b949190614536565b8160040181905550610bba565b818160050154610bb19190614536565b81600501819055505b80600301339080600181540180825580915050600190039060005260206000200160009091909190916101000a81548173ffffffffffffffffffffffffffffffffffffffff021916908373ffffffffffffffffffffffffffffffffffffffff1602179055506000600860008d815260200190815260200160002060008c815260200190815260200160002060003373ffffffffffffffffffffffffffffffffffffffff1673ffffffffffffffffffffffffffffffffffffffff168152602001908152602001600020905060018160000160006101000a81548160ff02191690831515021790555082816001016000828254610cb59190614536565b92505081905550505050505050505050505050565b6000806005805490501480610cf5575060006009600084815260200190815260200160002080549050145b15610d035760009050610d1d565b600960008381526020019081526020016000208054905090505b919050565b600080600060066000868152602001908152602001600020905080600185610d4a91906145bd565b81548110610d81577f4e487b7100000000000000000000000000000000000000000000000000000000600052603260045260246000fd5b90600052602060002090600902016004015481600186610da191906145bd565b81548110610dd8577f4e487b7100000000000000000000000000000000000000000000000000000000600052603260045260246000fd5b90600052602060002090600902016005015492509250509250929050565b60008260008110158015610e0c57506002548111155b610e4b576040517f08c379a0000000000000000000000000000000000000000000000000000000008152600401610e4290614231565b60405180910390fd5b838360006005600184610e5e91906145bd565b81548110610e95577f4e487b7100000000000000000000000000000000000000000000000000000000600052603260045260246000fd5b906000526020600020906008020160050154905060008210158015610eba5750808211155b610ef9576040517f08c379a0000000000000000000000000000000000000000000000000000000008152600401610ef0906142f1565b60405180910390fd5b60066000888152602001908152602001600020600187610f1991906145bd565b81548110610f50577f4e487b7100000000000000000000000000000000000000000000000000000000600052603260045260246000fd5b90600052602060002090600902016007015494505050505092915050565b80600360003373ffffffffffffffffffffffffffffffffffffffff1673ffffffffffffffffffffffffffffffffffffffff1681526020019081526020016000205414610fef576040517f08c379a0000000000000000000000000000000000000000000000000000000008152600401610fe690614311565b60405180910390fd5b60006009600083815260200190815260200160002080548060200260200160405190810160405280929190818152602001828054801561108457602002820191906000526020600020905b8160009054906101000a900473ffffffffffffffffffffffffffffffffffffffff1673ffffffffffffffffffffffffffffffffffffffff168152602001906001019080831161103a575b5050505050905060005b81518110156111595760008282815181106110d2577f4e487b7100000000000000000000000000000000000000000000000000000000600052603260045260246000fd5b602002602001015190506000600a600086815260200190815260200160002060008373ffffffffffffffffffffffffffffffffffffffff1673ffffffffffffffffffffffffffffffffffffffff16815260200190815260200160002060006101000a81548160ff021916908315150217905550508080611151906146de565b91505061108e565b505050565b611166613523565b600060058054905014806111e2575060001515600560018461118891906145bd565b815481106111bf577f4e487b7100000000000000000000000000000000000000000000000000000000600052603260045260246000fd5b906000526020600020906008020160030160009054906101000a900460ff161515145b156111f8576111ef613523565b809150506113dc565b600560018361120791906145bd565b8154811061123e577f4e487b7100000000000000000000000000000000000000000000000000000000600052603260045260246000fd5b9060005260206000209060080201604051806101000160405290816000820160009054906101000a900473ffffffffffffffffffffffffffffffffffffffff1673ffffffffffffffffffffffffffffffffffffffff1673ffffffffffffffffffffffffffffffffffffffff1681526020016001820160009054906101000a900473ffffffffffffffffffffffffffffffffffffffff1673ffffffffffffffffffffffffffffffffffffffff1673ffffffffffffffffffffffffffffffffffffffff168152602001600282015481526020016003820160009054906101000a900460ff161515151581526020016004820180546113399061467b565b80601f01602080910402602001604051908101604052809291908181526020018280546113659061467b565b80156113b25780601f10611387576101008083540402835291602001916113b2565b820191906000526020600020905b81548152906001019060200180831161139557829003601f168201915b50505050508152602001600582015481526020016006820154815260200160078201548152505090505b919050565b80600360003373ffffffffffffffffffffffffffffffffffffffff1673ffffffffffffffffffffffffffffffffffffffff1681526020019081526020016000205414611462576040517f08c379a000000000000000000000000000000000000000000000000000000000815260040161145990614311565b60405180910390fd5b6000600960008381526020019081526020016000208054806020026020016040519081016040528092919081815260200182805480156114f757602002820191906000526020600020905b8160009054906101000a900473ffffffffffffffffffffffffffffffffffffffff1673ffffffffffffffffffffffffffffffffffffffff16815260200190600101908083116114ad575b5050505050905060005b81518110156115cc576000828281518110611545577f4e487b7100000000000000000000000000000000000000000000000000000000600052603260045260246000fd5b602002602001015190506001600a600086815260200190815260200160002060008373ffffffffffffffffffffffffffffffffffffffff1673ffffffffffffffffffffffffffffffffffffffff16815260200190815260200160002060006101000a81548160ff0219169083151502179055505080806115c4906146de565b915050611501565b505050565b606081600081101580156115e757506002548111155b611626576040517f08c379a000000000000000000000000000000000000000000000000000000000815260040161161d90614231565b60405180910390fd5b60006005805490501480611650575060006006600085815260200190815260200160002080549050145b1561166057606080925050611907565b60066000848152602001908152602001600020805480602002602001604051908101604052809291908181526020016000905b828210156119005783829060005260206000209060090201604051806101200160405290816000820160009054906101000a900473ffffffffffffffffffffffffffffffffffffffff1673ffffffffffffffffffffffffffffffffffffffff1673ffffffffffffffffffffffffffffffffffffffff168152602001600182015481526020016002820180546117279061467b565b80601f01602080910402602001604051908101604052809291908181526020018280546117539061467b565b80156117a05780601f10611775576101008083540402835291602001916117a0565b820191906000526020600020905b81548152906001019060200180831161178357829003601f168201915b505050505081526020016003820180548060200260200160405190810160405280929190818152602001828054801561182e57602002820191906000526020600020905b8160009054906101000a900473ffffffffffffffffffffffffffffffffffffffff1673ffffffffffffffffffffffffffffffffffffffff16815260200190600101908083116117e4575b505050505081526020016004820154815260200160058201548152602001600682015481526020016007820154815260200160088201805461186f9061467b565b80601f016020809104026020016040519081016040528092919081815260200182805461189b9061467b565b80156118e85780601f106118bd576101008083540402835291602001916118e8565b820191906000526020600020905b8154815290600101906020018083116118cb57829003601f168201915b50505050508152505081526020019060010190611693565b5050505091505b50919050565b60008060058054905014156119255760009050611996565b60058054905082111561193b5760009050611996565b600560018361194a91906145bd565b81548110611981577f4e487b7100000000000000000000000000000000000000000000000000000000600052603260045260246000fd5b90600052602060002090600802016007015490505b919050565b600b6020528160005260406000206020528060005260406000206000915091509054906101000a900460ff1681565b6007602052816000526040600020602052806000526040600020600091509150505481565b60096020528160005260406000208181548110611a0b57600080fd5b906000526020600020016000915091509054906101000a900473ffffffffffffffffffffffffffffffffffffffff1681565b60008054906101000a900473ffffffffffffffffffffffffffffffffffffffff1681565b600a6020528160005260406000206020528060005260406000206000915091509054906101000a900460ff1681565b600080600360003373ffffffffffffffffffffffffffffffffffffffff1673ffffffffffffffffffffffffffffffffffffffff1681526020019081526020016000205411611b13576040517f08c379a0000000000000000000000000000000000000000000000000000000008152600401611b0a90614311565b60405180910390fd5b600060056001600360003373ffffffffffffffffffffffffffffffffffffffff1673ffffffffffffffffffffffffffffffffffffffff16815260200190815260200160002054611b6391906145bd565b81548110611b9a577f4e487b7100000000000000000000000000000000000000000000000000000000600052603260045260246000fd5b9060005260206000209060080201905082816006018190555060056001600360003373ffffffffffffffffffffffffffffffffffffffff1673ffffffffffffffffffffffffffffffffffffffff16815260200190815260200160002054611c0191906145bd565b81548110611c38577f4e487b7100000000000000000000000000000000000000000000000000000000600052603260045260246000fd5b906000526020600020906008020160060154915050919050565b60018181548110611c6257600080fd5b90600052602060002090600902016000915090508060000160009054906101000a900473ffffffffffffffffffffffffffffffffffffffff1690806001015490806002018054611cb19061467b565b80601f0160208091040260200160405190810160405280929190818152602001828054611cdd9061467b565b8015611d2a5780601f10611cff57610100808354040283529160200191611d2a565b820191906000526020600020905b815481529060010190602001808311611d0d57829003601f168201915b505050505090806004015490806005015490806006015490806007015490806008018054611d579061467b565b80601f0160208091040260200160405190810160405280929190818152602001828054611d839061467b565b8015611dd05780601f10611da557610100808354040283529160200191611dd0565b820191906000526020600020905b815481529060010190602001808311611db357829003601f168201915b5050505050905088565b600073ffffffffffffffffffffffffffffffffffffffff163373ffffffffffffffffffffffffffffffffffffffff161415611e4a576040517f08c379a0000000000000000000000000000000000000000000000000000000008152600401611e4190614371565b60405180910390fd5b60001515600b600083815260200190815260200160002060003373ffffffffffffffffffffffffffffffffffffffff1673ffffffffffffffffffffffffffffffffffffffff16815260200190815260200160002060009054906101000a900460ff1615151415611f96576001600b600083815260200190815260200160002060003373ffffffffffffffffffffffffffffffffffffffff1673ffffffffffffffffffffffffffffffffffffffff16815260200190815260200160002060006101000a81548160ff02191690831515021790555060096000828152602001908152602001600020339080600181540180825580915050600190039060005260206000200160009091909190916101000a81548173ffffffffffffffffffffffffffffffffffffffff021916908373ffffffffffffffffffffffffffffffffffffffff16021790555061203b565b60011515600a600083815260200190815260200160002060003373ffffffffffffffffffffffffffffffffffffffff1673ffffffffffffffffffffffffffffffffffffffff16815260200190815260200160002060009054906101000a900460ff1615151461203a576040517f08c379a000000000000000000000000000000000000000000000000000000000815260040161203190614251565b60405180910390fd5b5b6000600a600083815260200190815260200160002060003373ffffffffffffffffffffffffffffffffffffffff1673ffffffffffffffffffffffffffffffffffffffff16815260200190815260200160002060006101000a81548160ff021916908315150217905550600060056001836120b591906145bd565b815481106120ec577f4e487b7100000000000000000000000000000000000000000000000000000000600052603260045260246000fd5b9060005260206000209060080201600601549050806007600084815260200190815260200160002060003373ffffffffffffffffffffffffffffffffffffffff1673ffffffffffffffffffffffffffffffffffffffff1681526020019081526020016000205461215c9190614536565b6007600084815260200190815260200160002060003373ffffffffffffffffffffffffffffffffffffffff1673ffffffffffffffffffffffffffffffffffffffff168152602001908152602001600020819055508060056001846121c091906145bd565b815481106121f7577f4e487b7100000000000000000000000000000000000000000000000000000000600052603260045260246000fd5b9060005260206000209060080201600701546122139190614536565b600560018461222291906145bd565b81548110612259577f4e487b7100000000000000000000000000000000000000000000000000000000600052603260045260246000fd5b9060005260206000209060080201600701819055505050565b60001515600460008373ffffffffffffffffffffffffffffffffffffffff1673ffffffffffffffffffffffffffffffffffffffff16815260200190815260200160002060009054906101000a900460ff16151514612305576040517f08c379a00000000000000000000000000000000000000000000000000000000081526004016122fc906142b1565b60405180910390fd5b60026000815480929190612318906146de565b91905055506001600460008373ffffffffffffffffffffffffffffffffffffffff1673ffffffffffffffffffffffffffffffffffffffff16815260200190815260200160002060006101000a81548160ff021916908315150217905550600254600360003373ffffffffffffffffffffffffffffffffffffffff1673ffffffffffffffffffffffffffffffffffffffff1681526020019081526020016000208190555060056040518061010001604052803373ffffffffffffffffffffffffffffffffffffffff1681526020018373ffffffffffffffffffffffffffffffffffffffff1681526020016002548152602001600115158152602001858152602001600081526020018481526020016000815250908060018154018082558091505060019003906000526020600020906008020160009091909190915060008201518160000160006101000a81548173ffffffffffffffffffffffffffffffffffffffff021916908373ffffffffffffffffffffffffffffffffffffffff16021790555060208201518160010160006101000a81548173ffffffffffffffffffffffffffffffffffffffff021916908373ffffffffffffffffffffffffffffffffffffffff1602179055506040820151816002015560608201518160030160006101000a81548160ff0219169083151502179055506080820151816004019080519060200190612527929190613596565b5060a0820151816005015560c0820151816006015560e082015181600701555050505050565b600080600580549050141561256557600090506126b2565b600580549050600360003373ffffffffffffffffffffffffffffffffffffffff1673ffffffffffffffffffffffffffffffffffffffff1681526020019081526020016000205411806125f657506000600360003373ffffffffffffffffffffffffffffffffffffffff1673ffffffffffffffffffffffffffffffffffffffff16815260200190815260200160002054145b1561260457600090506126b2565b6001151560056001600360003373ffffffffffffffffffffffffffffffffffffffff1673ffffffffffffffffffffffffffffffffffffffff1681526020019081526020016000205461265691906145bd565b8154811061268d577f4e487b7100000000000000000000000000000000000000000000000000000000600052603260045260246000fd5b906000526020600020906008020160030160009054906101000a900460ff1615151490505b90565b60036020528060005260406000206000915090505481565b6060600060018054905014156126e85760608091505061297e565b6001805480602002602001604051908101604052809291908181526020016000905b828210156129775783829060005260206000209060090201604051806101200160405290816000820160009054906101000a900473ffffffffffffffffffffffffffffffffffffffff1673ffffffffffffffffffffffffffffffffffffffff1673ffffffffffffffffffffffffffffffffffffffff1681526020016001820154815260200160028201805461279e9061467b565b80601f01602080910402602001604051908101604052809291908181526020018280546127ca9061467b565b80156128175780601f106127ec57610100808354040283529160200191612817565b820191906000526020600020905b8154815290600101906020018083116127fa57829003601f168201915b50505050508152602001600382018054806020026020016040519081016040528092919081815260200182805480156128a557602002820191906000526020600020905b8160009054906101000a900473ffffffffffffffffffffffffffffffffffffffff1673ffffffffffffffffffffffffffffffffffffffff168152602001906001019080831161285b575b50505050508152602001600482015481526020016005820154815260200160068201548152602001600782015481526020016008820180546128e69061467b565b80601f01602080910402602001604051908101604052809291908181526020018280546129129061467b565b801561295f5780601f106129345761010080835404028352916020019161295f565b820191906000526020600020905b81548152906001019060200180831161294257829003601f168201915b5050505050815250508152602001906001019061270a565b5050505090505b90565b6060600060058054905014806129ad575060006009600084815260200190815260200160002080549050145b156129bd57606080915050612a58565b60096000838152602001908152602001600020805480602002602001604051908101604052809291908181526020018280548015612a5057602002820191906000526020600020905b8160009054906101000a900473ffffffffffffffffffffffffffffffffffffffff1673ffffffffffffffffffffffffffffffffffffffff1681526020019060010190808311612a06575b505050505090505b919050565b60046020528060005260406000206000915054906101000a900460ff1681565b60058181548110612a8d57600080fd5b90600052602060002090600802016000915090508060000160009054906101000a900473ffffffffffffffffffffffffffffffffffffffff16908060010160009054906101000a900473ffffffffffffffffffffffffffffffffffffffff16908060020154908060030160009054906101000a900460ff1690806004018054612b159061467b565b80601f0160208091040260200160405190810160405280929190818152602001828054612b419061467b565b8015612b8e5780601f10612b6357610100808354040283529160200191612b8e565b820191906000526020600020905b815481529060010190602001808311612b7157829003601f168201915b5050505050908060050154908060060154908060070154905088565b60025481565b60008511612bf3576040517f08c379a0000000000000000000000000000000000000000000000000000000008152600401612bea90614331565b60405180910390fd5b6000600360003373ffffffffffffffffffffffffffffffffffffffff1673ffffffffffffffffffffffffffffffffffffffff168152602001908152602001600020549050600115156005600183612c4a91906145bd565b81548110612c81577f4e487b7100000000000000000000000000000000000000000000000000000000600052603260045260246000fd5b906000526020600020906008020160030160009054906101000a900460ff16151514612ce2576040517f08c379a0000000000000000000000000000000000000000000000000000000008152600401612cd9906142d1565b60405180910390fd5b6005600182612cf191906145bd565b81548110612d28577f4e487b7100000000000000000000000000000000000000000000000000000000600052603260045260246000fd5b90600052602060002090600802016005016000815480929190612d4a906146de565b919050555060006005600183612d6091906145bd565b81548110612d97577f4e487b7100000000000000000000000000000000000000000000000000000000600052603260045260246000fd5b9060005260206000209060080201600501549050612db361361c565b86868080601f016020809104026020016040519081016040528093929190818152602001838380828437600081840152601f19601f8201169050808301925050505050505081604001819052508181602001818152505033816000019073ffffffffffffffffffffffffffffffffffffffff16908173ffffffffffffffffffffffffffffffffffffffff168152505084848080601f016020809104026020016040519081016040528093929190818152602001838380828437600081840152601f19601f82011690508083019250505050505050816101000181905250878160e0018181525050428160c0018181525050600081608001818152505060008160a00181815250506006600084815260200190815260200160002081908060018154018082558091505060019003906000526020600020906009020160009091909190915060008201518160000160006101000a81548173ffffffffffffffffffffffffffffffffffffffff021916908373ffffffffffffffffffffffffffffffffffffffff160217905550602082015181600101556040820151816002019080519060200190612f64929190613596565b506060820151816003019080519060200190612f8192919061367e565b506080820151816004015560a0820151816005015560c0820151816006015560e08201518160070155610100820151816008019080519060200190612fc7929190613596565b505050600181908060018154018082558091505060019003906000526020600020906009020160009091909190915060008201518160000160006101000a81548173ffffffffffffffffffffffffffffffffffffffff021916908373ffffffffffffffffffffffffffffffffffffffff160217905550602082015181600101556040820151816002019080519060200190613063929190613596565b50606082015181600301908051906020019061308092919061367e565b506080820151816004015560a0820151816005015560c0820151816006015560e082015181600701556101008201518160080190805190602001906130c6929190613596565b5050505050505050505050565b60008073ffffffffffffffffffffffffffffffffffffffff163373ffffffffffffffffffffffffffffffffffffffff161415613144576040517f08c379a000000000000000000000000000000000000000000000000000000000815260040161313b90614291565b60405180910390fd5b6007600083815260200190815260200160002060003373ffffffffffffffffffffffffffffffffffffffff1673ffffffffffffffffffffffffffffffffffffffff168152602001908152602001600020549050919050565b60008060058054905014806131c7575060006009600084815260200190815260200160002080549050145b156131d557600090506132a9565b60001515600b600084815260200190815260200160002060003373ffffffffffffffffffffffffffffffffffffffff1673ffffffffffffffffffffffffffffffffffffffff16815260200190815260200160002060009054906101000a900460ff161515141561324857600090506132a9565b600a600083815260200190815260200160002060003373ffffffffffffffffffffffffffffffffffffffff1673ffffffffffffffffffffffffffffffffffffffff16815260200190815260200160002060009054906101000a900460ff1690505b919050565b6060600060058054905014156132c9576060809150506134a6565b6005805480602002602001604051908101604052809291908181526020016000905b8282101561349f5783829060005260206000209060080201604051806101000160405290816000820160009054906101000a900473ffffffffffffffffffffffffffffffffffffffff1673ffffffffffffffffffffffffffffffffffffffff1673ffffffffffffffffffffffffffffffffffffffff1681526020016001820160009054906101000a900473ffffffffffffffffffffffffffffffffffffffff1673ffffffffffffffffffffffffffffffffffffffff1673ffffffffffffffffffffffffffffffffffffffff168152602001600282015481526020016003820160009054906101000a900460ff161515151581526020016004820180546133f09061467b565b80601f016020809104026020016040519081016040528092919081815260200182805461341c9061467b565b80156134695780601f1061343e57610100808354040283529160200191613469565b820191906000526020600020905b81548152906001019060200180831161344c57829003601f168201915b505050505081526020016005820154815260200160068201548152602001600782015481525050815260200190600101906132eb565b5050505090505b90565b6000600382111561351057819050600060016002846134c8919061458c565b6134d29190614536565b90505b8181101561350a5780915060028182856134ef919061458c565b6134f99190614536565b613503919061458c565b90506134d5565b5061351e565b6000821461351d57600190505b5b919050565b604051806101000160405280600073ffffffffffffffffffffffffffffffffffffffff168152602001600073ffffffffffffffffffffffffffffffffffffffff16815260200160008152602001600015158152602001606081526020016000815260200160008152602001600081525090565b8280546135a29061467b565b90600052602060002090601f0160209004810192826135c4576000855561360b565b82601f106135dd57805160ff191683800117855561360b565b8280016001018555821561360b579182015b8281111561360a5782518255916020019190600101906135ef565b5b5090506136189190613708565b5090565b604051806101200160405280600073ffffffffffffffffffffffffffffffffffffffff16815260200160008152602001606081526020016060815260200160008152602001600081526020016000815260200160008152602001606081525090565b8280548282559060005260206000209081019282156136f7579160200282015b828111156136f65782518260006101000a81548173ffffffffffffffffffffffffffffffffffffffff021916908373ffffffffffffffffffffffffffffffffffffffff1602179055509160200191906001019061369e565b5b5090506137049190613708565b5090565b5b80821115613721576000816000905550600101613709565b5090565b60006137386137338461441c565b6143f7565b90508281526020810184848401111561375057600080fd5b61375b848285614639565b509392505050565b60008135905061377281614991565b92915050565b60008083601f84011261378a57600080fd5b8235905067ffffffffffffffff8111156137a357600080fd5b6020830191508360018202830111156137bb57600080fd5b9250929050565b600082601f8301126137d357600080fd5b81356137e3848260208601613725565b91505092915050565b6000813590506137fb816149a8565b92915050565b60006020828403121561381357600080fd5b600061382184828501613763565b91505092915050565b60008060006060848603121561383f57600080fd5b600084013567ffffffffffffffff81111561385957600080fd5b613865868287016137c2565b9350506020613876868287016137ec565b925050604061388786828701613763565b9150509250925092565b6000602082840312156138a357600080fd5b60006138b1848285016137ec565b91505092915050565b600080604083850312156138cd57600080fd5b60006138db858286016137ec565b92505060206138ec85828601613763565b9150509250929050565b60008060008060006060868803121561390e57600080fd5b600061391c888289016137ec565b955050602086013567ffffffffffffffff81111561393957600080fd5b61394588828901613778565b9450945050604086013567ffffffffffffffff81111561396457600080fd5b61397088828901613778565b92509250509295509295909350565b6000806040838503121561399257600080fd5b60006139a0858286016137ec565b92505060206139b1858286016137ec565b9150509250929050565b600080600080608085870312156139d157600080fd5b60006139df878288016137ec565b94505060206139f0878288016137ec565b9350506040613a01878288016137ec565b9250506060613a12878288016137ec565b91505092959194509250565b6000613a2a8383613a5e565b60208301905092915050565b6000613a428383613e33565b905092915050565b6000613a568383613f93565b905092915050565b613a67816145f1565b82525050565b613a76816145f1565b82525050565b6000613a878261447d565b613a9181856144d0565b9350613a9c8361444d565b8060005b83811015613acd578151613ab48882613a1e565b9750613abf836144a9565b925050600181019050613aa0565b5085935050505092915050565b6000613ae58261447d565b613aef81856144e1565b9350613afa8361444d565b8060005b83811015613b2b578151613b128882613a1e565b9750613b1d836144a9565b925050600181019050613afe565b5085935050505092915050565b6000613b4382614488565b613b4d81856144f2565b935083602082028501613b5f8561445d565b8060005b85811015613b9b5784840389528151613b7c8582613a36565b9450613b87836144b6565b925060208a01995050600181019050613b63565b50829750879550505050505092915050565b6000613bb882614493565b613bc28185614503565b935083602082028501613bd48561446d565b8060005b85811015613c105784840389528151613bf18582613a4a565b9450613bfc836144c3565b925060208a01995050600181019050613bd8565b50829750879550505050505092915050565b613c2b81614603565b82525050565b613c3a81614603565b82525050565b6000613c4b8261449e565b613c558185614514565b9350613c65818560208601614648565b613c6e816147e3565b840191505092915050565b6000613c848261449e565b613c8e8185614525565b9350613c9e818560208601614648565b613ca7816147e3565b840191505092915050565b6000613cbf601783614525565b9150613cca826147f4565b602082019050919050565b6000613ce2601383614525565b9150613ced8261481d565b602082019050919050565b6000613d05601383614525565b9150613d1082614846565b602082019050919050565b6000613d28600b83614525565b9150613d338261486f565b602082019050919050565b6000613d4b601783614525565b9150613d5682614898565b602082019050919050565b6000613d6e601683614525565b9150613d79826148c1565b602082019050919050565b6000613d91601383614525565b9150613d9c826148ea565b602082019050919050565b6000613db4600c83614525565b9150613dbf82614913565b602082019050919050565b6000613dd7600e83614525565b9150613de28261493c565b602082019050919050565b6000613dfa601183614525565b9150613e0582614965565b602082019050919050565b6000613e1d600083614525565b9150613e288261498e565b600082019050919050565b600061010083016000830151613e4c6000860182613a5e565b506020830151613e5f6020860182613a5e565b506040830151613e726040860182614066565b506060830151613e856060860182613c22565b5060808301518482036080860152613e9d8282613c40565b91505060a0830151613eb260a0860182614066565b5060c0830151613ec560c0860182614066565b5060e0830151613ed860e0860182614066565b508091505092915050565b600061010083016000830151613efc6000860182613a5e565b506020830151613f0f6020860182613a5e565b506040830151613f226040860182614066565b506060830151613f356060860182613c22565b5060808301518482036080860152613f4d8282613c40565b91505060a0830151613f6260a0860182614066565b5060c0830151613f7560c0860182614066565b5060e0830151613f8860e0860182614066565b508091505092915050565b600061012083016000830151613fac6000860182613a5e565b506020830151613fbf6020860182614066565b5060408301518482036040860152613fd78282613c40565b91505060608301518482036060860152613ff18282613a7c565b91505060808301516140066080860182614066565b5060a083015161401960a0860182614066565b5060c083015161402c60c0860182614066565b5060e083015161403f60e0860182614066565b506101008301518482036101008601526140598282613c40565b9150508091505092915050565b61406f8161462f565b82525050565b61407e8161462f565b82525050565b60006020820190506140996000830184613a6d565b92915050565b6000610100820190506140b5600083018b613a6d565b6140c2602083018a613a6d565b6140cf6040830189614075565b6140dc6060830188613c31565b81810360808301526140ee8187613c79565b90506140fd60a0830186614075565b61410a60c0830185614075565b61411760e0830184614075565b9998505050505050505050565b60006101008201905061413a600083018b613a6d565b614147602083018a614075565b81810360408301526141598189613c79565b90506141686060830188614075565b6141756080830187614075565b61418260a0830186614075565b61418f60c0830185614075565b81810360e08301526141a18184613c79565b90509998505050505050505050565b600060208201905081810360008301526141ca8184613ada565b905092915050565b600060208201905081810360008301526141ec8184613b38565b905092915050565b6000602082019050818103600083015261420e8184613bad565b905092915050565b600060208201905061422b6000830184613c31565b92915050565b6000602082019050818103600083015261424a81613cb2565b9050919050565b6000602082019050818103600083015261426a81613cd5565b9050919050565b6000602082019050818103600083015261428a81613cf8565b9050919050565b600060208201905081810360008301526142aa81613d1b565b9050919050565b600060208201905081810360008301526142ca81613d3e565b9050919050565b600060208201905081810360008301526142ea81613d61565b9050919050565b6000602082019050818103600083015261430a81613d84565b9050919050565b6000602082019050818103600083015261432a81613da7565b9050919050565b6000602082019050818103600083015261434a81613dca565b9050919050565b6000602082019050818103600083015261436a81613ded565b9050919050565b6000602082019050818103600083015261438a81613e10565b9050919050565b600060208201905081810360008301526143ab8184613ee3565b905092915050565b60006020820190506143c86000830184614075565b92915050565b60006040820190506143e36000830185614075565b6143f06020830184614075565b9392505050565b6000614401614412565b905061440d82826146ad565b919050565b6000604051905090565b600067ffffffffffffffff821115614437576144366147b4565b5b614440826147e3565b9050602081019050919050565b6000819050602082019050919050565b6000819050602082019050919050565b6000819050602082019050919050565b600081519050919050565b600081519050919050565b600081519050919050565b600081519050919050565b6000602082019050919050565b6000602082019050919050565b6000602082019050919050565b600082825260208201905092915050565b600082825260208201905092915050565b600082825260208201905092915050565b600082825260208201905092915050565b600082825260208201905092915050565b600082825260208201905092915050565b60006145418261462f565b915061454c8361462f565b9250827fffffffffffffffffffffffffffffffffffffffffffffffffffffffffffffffff0382111561458157614580614727565b5b828201905092915050565b60006145978261462f565b91506145a28361462f565b9250826145b2576145b1614756565b5b828204905092915050565b60006145c88261462f565b91506145d38361462f565b9250828210156145e6576145e5614727565b5b828203905092915050565b60006145fc8261460f565b9050919050565b60008115159050919050565b600073ffffffffffffffffffffffffffffffffffffffff82169050919050565b6000819050919050565b82818337600083830152505050565b60005b8381101561466657808201518184015260208101905061464b565b83811115614675576000848401525b50505050565b6000600282049050600182168061469357607f821691505b602082108114156146a7576146a6614785565b5b50919050565b6146b6826147e3565b810181811067ffffffffffffffff821117156146d5576146d46147b4565b5b80604052505050565b60006146e98261462f565b91507fffffffffffffffffffffffffffffffffffffffffffffffffffffffffffffffff82141561471c5761471b614727565b5b600182019050919050565b7f4e487b7100000000000000000000000000000000000000000000000000000000600052601160045260246000fd5b7f4e487b7100000000000000000000000000000000000000000000000000000000600052601260045260246000fd5b7f4e487b7100000000000000000000000000000000000000000000000000000000600052602260045260246000fd5b7f4e487b7100000000000000000000000000000000000000000000000000000000600052604160045260246000fd5b6000601f19601f8301169050919050565b7f496e76616c6964206f7267616e697a6174696f6e204944000000000000000000600082015250565b7f4d696e74696e67204e6f7420416c6c6f77656400000000000000000000000000600082015250565b7f496e73756666696369656e7420546f6b656e7300000000000000000000000000600082015250565b7f696e76616c696420616363000000000000000000000000000000000000000000600082015250565b7f436f6e747261637420616c726561647920657869737473000000000000000000600082015250565b7f4e6f20616374697665206f7267616e697a6174696f6e00000000000000000000600082015250565b7f496e76616c69642050726f706f73616c20494400000000000000000000000000600082015250565b7f77726f6e67206f72672069640000000000000000000000000000000000000000600082015250565b7f57726f6e67204475726174696f6e000000000000000000000000000000000000600082015250565b7f766f74696e672068617320656e64656421000000000000000000000000000000600082015250565b50565b61499a816145f1565b81146149a557600080fd5b50565b6149b18161462f565b81146149bc57600080fd5b5056fea264697066735822122065f83f51743f38f8ca9396f9b682b44623903d248ec9d887f2d5890e825de60b64736f6c63430008040033",
  "linkReferences": {},
  "deployedLinkReferences": {}
}