{
  "_format": "hh-sol-artifact-1",
  "contractName": "QVote",
  "sourceName": "src/hardhat/contracts/Qvote.sol",
  "abi": [
    {
      "inputs": [],
      "stateMutability": "nonpayable",
      "type": "constructor"
    },
    {
      "anonymous": false,
      "inputs": [
        {
          "indexed": false,
          "internalType": "string",
          "name": "name",
          "type": "string"
        },
        {
          "indexed": false,
          "internalType": "address",
          "name": "creator",
          "type": "address"
        },
        {
          "indexed": false,
          "internalType": "uint256",
          "name": "organizationCount",
          "type": "uint256"
        },
        {
          "indexed": false,
          "internalType": "uint256",
          "name": "ownerind",
          "type": "uint256"
        },
        {
          "indexed": false,
          "internalType": "uint256",
          "name": "creditsPerVoter",
          "type": "uint256"
        }
      ],
      "name": "newOrganizationCreated",
      "type": "event"
    },
    {
      "anonymous": false,
      "inputs": [
        {
          "indexed": false,
          "internalType": "uint256",
          "name": "orgID",
          "type": "uint256"
        },
        {
          "indexed": false,
          "internalType": "string",
          "name": "title",
          "type": "string"
        },
        {
          "indexed": false,
          "internalType": "uint256",
          "name": "ProposalId",
          "type": "uint256"
        },
        {
          "indexed": false,
          "internalType": "address",
          "name": "creator",
          "type": "address"
        },
        {
          "indexed": false,
          "internalType": "uint256",
          "name": "duration",
          "type": "uint256"
        },
        {
          "indexed": false,
          "internalType": "string",
          "name": "description",
          "type": "string"
        }
      ],
      "name": "newProposalCreated",
      "type": "event"
    },
    {
      "inputs": [
        {
          "internalType": "uint256",
          "name": "",
          "type": "uint256"
        },
        {
          "internalType": "uint256",
          "name": "",
          "type": "uint256"
        }
      ],
      "name": "OrgUsers",
      "outputs": [
        {
          "internalType": "address",
          "name": "",
          "type": "address"
        }
      ],
      "stateMutability": "view",
      "type": "function"
    },
    {
      "inputs": [
        {
          "internalType": "address",
          "name": "",
          "type": "address"
        }
      ],
      "name": "OrganizationOwners",
      "outputs": [
        {
          "internalType": "uint256",
          "name": "",
          "type": "uint256"
        }
      ],
      "stateMutability": "view",
      "type": "function"
    },
    {
      "inputs": [
        {
          "internalType": "uint256",
          "name": "",
          "type": "uint256"
        }
      ],
      "name": "allProposals",
      "outputs": [
        {
          "internalType": "address",
          "name": "creator",
          "type": "address"
        },
        {
          "internalType": "uint256",
          "name": "pid",
          "type": "uint256"
        },
        {
          "internalType": "string",
          "name": "title",
          "type": "string"
        },
        {
          "internalType": "uint256",
          "name": "upVotes",
          "type": "uint256"
        },
        {
          "internalType": "uint256",
          "name": "downVotes",
          "type": "uint256"
        },
        {
          "internalType": "uint256",
          "name": "creationTime",
          "type": "uint256"
        },
        {
          "internalType": "uint256",
          "name": "duration",
          "type": "uint256"
        },
        {
          "internalType": "string",
          "name": "description",
          "type": "string"
        },
        {
          "internalType": "enum supportContract.ProposalStatus",
          "name": "status",
          "type": "uint8"
        }
      ],
      "stateMutability": "view",
      "type": "function"
    },
    {
      "inputs": [
        {
          "internalType": "uint256",
          "name": "_orgID",
          "type": "uint256"
        }
      ],
      "name": "allowMinting",
      "outputs": [],
      "stateMutability": "nonpayable",
      "type": "function"
    },
    {
      "inputs": [
        {
          "internalType": "uint256",
          "name": "_orgID",
          "type": "uint256"
        }
      ],
      "name": "blockMinting",
      "outputs": [],
      "stateMutability": "nonpayable",
      "type": "function"
    },
    {
      "inputs": [
        {
          "internalType": "uint256",
          "name": "",
          "type": "uint256"
        },
        {
          "internalType": "address",
          "name": "",
          "type": "address"
        }
      ],
      "name": "canMint",
      "outputs": [
        {
          "internalType": "bool",
          "name": "",
          "type": "bool"
        }
      ],
      "stateMutability": "view",
      "type": "function"
    },
    {
      "inputs": [
        {
          "internalType": "uint256",
          "name": "_orgID",
          "type": "uint256"
        },
        {
          "internalType": "uint256",
          "name": "_pID",
          "type": "uint256"
        },
        {
          "internalType": "uint256",
          "name": "vote",
          "type": "uint256"
        },
        {
          "internalType": "uint256",
          "name": "numVotes",
          "type": "uint256"
        }
      ],
      "name": "castVote",
      "outputs": [],
      "stateMutability": "nonpayable",
      "type": "function"
    },
    {
      "inputs": [
        {
          "internalType": "uint256",
          "name": "_cpv",
          "type": "uint256"
        }
      ],
      "name": "changeCreditsPerVote",
      "outputs": [
        {
          "internalType": "uint256",
          "name": "",
          "type": "uint256"
        }
      ],
      "stateMutability": "nonpayable",
      "type": "function"
    },
    {
      "inputs": [],
      "name": "checkOrgActive",
      "outputs": [
        {
          "internalType": "bool",
          "name": "",
          "type": "bool"
        }
      ],
      "stateMutability": "view",
      "type": "function"
    },
    {
      "inputs": [
        {
          "internalType": "uint256",
          "name": "_orgID",
          "type": "uint256"
        },
        {
          "internalType": "uint256",
          "name": "_pID",
          "type": "uint256"
        }
      ],
      "name": "checkProposalDuration",
      "outputs": [
        {
          "internalType": "uint256",
          "name": "",
          "type": "uint256"
        }
      ],
      "stateMutability": "view",
      "type": "function"
    },
    {
      "inputs": [
        {
          "internalType": "uint256",
          "name": "_orgID",
          "type": "uint256"
        },
        {
          "internalType": "uint256",
          "name": "_pID",
          "type": "uint256"
        }
      ],
      "name": "checkProposalStatus",
      "outputs": [
        {
          "internalType": "enum supportContract.ProposalStatus",
          "name": "",
          "type": "uint8"
        }
      ],
      "stateMutability": "view",
      "type": "function"
    },
    {
      "inputs": [
        {
          "internalType": "uint256",
          "name": "_orgID",
          "type": "uint256"
        }
      ],
      "name": "checkUserBalance",
      "outputs": [
        {
          "internalType": "uint256",
          "name": "",
          "type": "uint256"
        }
      ],
      "stateMutability": "view",
      "type": "function"
    },
    {
      "inputs": [
        {
          "internalType": "uint256",
          "name": "_orgID",
          "type": "uint256"
        }
      ],
      "name": "checkUserMintStatus",
      "outputs": [
        {
          "internalType": "bool",
          "name": "",
          "type": "bool"
        }
      ],
      "stateMutability": "view",
      "type": "function"
    },
    {
      "inputs": [
        {
          "internalType": "string",
          "name": "_name",
          "type": "string"
        },
        {
          "internalType": "uint256",
          "name": "_cpv",
          "type": "uint256"
        }
      ],
      "name": "createNewOrganization",
      "outputs": [],
      "stateMutability": "nonpayable",
      "type": "function"
    },
    {
      "inputs": [
        {
          "internalType": "string",
          "name": "_name",
          "type": "string"
        },
        {
          "internalType": "uint256",
          "name": "_cpv",
          "type": "uint256"
        },
        {
          "internalType": "address",
          "name": "account",
          "type": "address"
        }
      ],
      "name": "createNewOrganizationhelper",
      "outputs": [],
      "stateMutability": "nonpayable",
      "type": "function"
    },
    {
      "inputs": [
        {
          "internalType": "uint256",
          "name": "_duration",
          "type": "uint256"
        },
        {
          "internalType": "string",
          "name": "_title",
          "type": "string"
        },
        {
          "internalType": "string",
          "name": "_desc",
          "type": "string"
        }
      ],
      "name": "createNewProposal",
      "outputs": [],
      "stateMutability": "nonpayable",
      "type": "function"
    },
    {
      "inputs": [],
      "name": "getAllOrganization",
      "outputs": [
        {
          "components": [
            {
              "internalType": "address",
              "name": "creator",
              "type": "address"
            },
            {
              "internalType": "uint256",
              "name": "oid",
              "type": "uint256"
            },
            {
              "internalType": "bool",
              "name": "isActive",
              "type": "bool"
            },
            {
              "internalType": "string",
              "name": "name",
              "type": "string"
            },
            {
              "internalType": "uint256",
              "name": "ProposalCount",
              "type": "uint256"
            },
            {
              "internalType": "uint256",
              "name": "creditsPerVoter",
              "type": "uint256"
            },
            {
              "internalType": "uint256",
              "name": "totalTokenSupply",
              "type": "uint256"
            }
          ],
          "internalType": "struct supportContract.Organization[]",
          "name": "",
          "type": "tuple[]"
        }
      ],
      "stateMutability": "view",
      "type": "function"
    },
    {
      "inputs": [],
      "name": "getAllProposals",
      "outputs": [
        {
          "components": [
            {
              "internalType": "address",
              "name": "creator",
              "type": "address"
            },
            {
              "internalType": "uint256",
              "name": "pid",
              "type": "uint256"
            },
            {
              "internalType": "string",
              "name": "title",
              "type": "string"
            },
            {
              "internalType": "address[]",
              "name": "voters",
              "type": "address[]"
            },
            {
              "internalType": "uint256",
              "name": "upVotes",
              "type": "uint256"
            },
            {
              "internalType": "uint256",
              "name": "downVotes",
              "type": "uint256"
            },
            {
              "internalType": "uint256",
              "name": "creationTime",
              "type": "uint256"
            },
            {
              "internalType": "uint256",
              "name": "duration",
              "type": "uint256"
            },
            {
              "internalType": "string",
              "name": "description",
              "type": "string"
            },
            {
              "internalType": "enum supportContract.ProposalStatus",
              "name": "status",
              "type": "uint8"
            }
          ],
          "internalType": "struct supportContract.Proposal[]",
          "name": "",
          "type": "tuple[]"
        }
      ],
      "stateMutability": "view",
      "type": "function"
    },
    {
      "inputs": [],
      "name": "getMyOrganization",
      "outputs": [
        {
          "components": [
            {
              "internalType": "address",
              "name": "creator",
              "type": "address"
            },
            {
              "internalType": "uint256",
              "name": "oid",
              "type": "uint256"
            },
            {
              "internalType": "bool",
              "name": "isActive",
              "type": "bool"
            },
            {
              "internalType": "string",
              "name": "name",
              "type": "string"
            },
            {
              "internalType": "uint256",
              "name": "ProposalCount",
              "type": "uint256"
            },
            {
              "internalType": "uint256",
              "name": "creditsPerVoter",
              "type": "uint256"
            },
            {
              "internalType": "uint256",
              "name": "totalTokenSupply",
              "type": "uint256"
            }
          ],
          "internalType": "struct supportContract.Organization",
          "name": "",
          "type": "tuple"
        }
      ],
      "stateMutability": "view",
      "type": "function"
    },
    {
      "inputs": [
        {
          "internalType": "uint256",
          "name": "_orgID",
          "type": "uint256"
        }
      ],
      "name": "getOrgMembers",
      "outputs": [
        {
          "internalType": "address[]",
          "name": "",
          "type": "address[]"
        }
      ],
      "stateMutability": "view",
      "type": "function"
    },
    {
      "inputs": [
        {
          "internalType": "uint256",
          "name": "_orgID",
          "type": "uint256"
        }
      ],
      "name": "getOrgMembersCount",
      "outputs": [
        {
          "internalType": "uint256",
          "name": "",
          "type": "uint256"
        }
      ],
      "stateMutability": "view",
      "type": "function"
    },
    {
      "inputs": [
        {
          "internalType": "uint256",
          "name": "orgID",
          "type": "uint256"
        }
      ],
      "name": "getOrgProposals",
      "outputs": [
        {
          "components": [
            {
              "internalType": "address",
              "name": "creator",
              "type": "address"
            },
            {
              "internalType": "uint256",
              "name": "pid",
              "type": "uint256"
            },
            {
              "internalType": "string",
              "name": "title",
              "type": "string"
            },
            {
              "internalType": "address[]",
              "name": "voters",
              "type": "address[]"
            },
            {
              "internalType": "uint256",
              "name": "upVotes",
              "type": "uint256"
            },
            {
              "internalType": "uint256",
              "name": "downVotes",
              "type": "uint256"
            },
            {
              "internalType": "uint256",
              "name": "creationTime",
              "type": "uint256"
            },
            {
              "internalType": "uint256",
              "name": "duration",
              "type": "uint256"
            },
            {
              "internalType": "string",
              "name": "description",
              "type": "string"
            },
            {
              "internalType": "enum supportContract.ProposalStatus",
              "name": "status",
              "type": "uint8"
            }
          ],
          "internalType": "struct supportContract.Proposal[]",
          "name": "",
          "type": "tuple[]"
        }
      ],
      "stateMutability": "view",
      "type": "function"
    },
    {
      "inputs": [
        {
          "internalType": "uint256",
          "name": "_orgID",
          "type": "uint256"
        }
      ],
      "name": "getUserOrganization",
      "outputs": [
        {
          "components": [
            {
              "internalType": "address",
              "name": "creator",
              "type": "address"
            },
            {
              "internalType": "uint256",
              "name": "oid",
              "type": "uint256"
            },
            {
              "internalType": "bool",
              "name": "isActive",
              "type": "bool"
            },
            {
              "internalType": "string",
              "name": "name",
              "type": "string"
            },
            {
              "internalType": "uint256",
              "name": "ProposalCount",
              "type": "uint256"
            },
            {
              "internalType": "uint256",
              "name": "creditsPerVoter",
              "type": "uint256"
            },
            {
              "internalType": "uint256",
              "name": "totalTokenSupply",
              "type": "uint256"
            }
          ],
          "internalType": "struct supportContract.Organization",
          "name": "",
          "type": "tuple"
        }
      ],
      "stateMutability": "view",
      "type": "function"
    },
    {
      "inputs": [
        {
          "internalType": "uint256",
          "name": "_oID",
          "type": "uint256"
        }
      ],
      "name": "getUserOrganizationTokenSupply",
      "outputs": [
        {
          "internalType": "uint256",
          "name": "",
          "type": "uint256"
        }
      ],
      "stateMutability": "view",
      "type": "function"
    },
    {
      "inputs": [],
      "name": "getuserProposals",
      "outputs": [
        {
          "components": [
            {
              "internalType": "address",
              "name": "creator",
              "type": "address"
            },
            {
              "internalType": "uint256",
              "name": "pid",
              "type": "uint256"
            },
            {
              "internalType": "string",
              "name": "title",
              "type": "string"
            },
            {
              "internalType": "address[]",
              "name": "voters",
              "type": "address[]"
            },
            {
              "internalType": "uint256",
              "name": "upVotes",
              "type": "uint256"
            },
            {
              "internalType": "uint256",
              "name": "downVotes",
              "type": "uint256"
            },
            {
              "internalType": "uint256",
              "name": "creationTime",
              "type": "uint256"
            },
            {
              "internalType": "uint256",
              "name": "duration",
              "type": "uint256"
            },
            {
              "internalType": "string",
              "name": "description",
              "type": "string"
            },
            {
              "internalType": "enum supportContract.ProposalStatus",
              "name": "status",
              "type": "uint8"
            }
          ],
          "internalType": "struct supportContract.Proposal[]",
          "name": "",
          "type": "tuple[]"
        }
      ],
      "stateMutability": "view",
      "type": "function"
    },
    {
      "inputs": [
        {
          "internalType": "uint256",
          "name": "",
          "type": "uint256"
        },
        {
          "internalType": "address",
          "name": "",
          "type": "address"
        }
      ],
      "name": "isMember",
      "outputs": [
        {
          "internalType": "bool",
          "name": "",
          "type": "bool"
        }
      ],
      "stateMutability": "view",
      "type": "function"
    },
    {
      "inputs": [
        {
          "internalType": "uint256",
          "name": "_orgID",
          "type": "uint256"
        }
      ],
      "name": "mint",
      "outputs": [],
      "stateMutability": "nonpayable",
      "type": "function"
    },
    {
      "inputs": [],
      "name": "organizationCount",
      "outputs": [
        {
          "internalType": "uint256",
          "name": "",
          "type": "uint256"
        }
      ],
      "stateMutability": "view",
      "type": "function"
    },
    {
      "inputs": [
        {
          "internalType": "uint256",
          "name": "",
          "type": "uint256"
        }
      ],
      "name": "organizations",
      "outputs": [
        {
          "internalType": "address",
          "name": "creator",
          "type": "address"
        },
        {
          "internalType": "uint256",
          "name": "oid",
          "type": "uint256"
        },
        {
          "internalType": "bool",
          "name": "isActive",
          "type": "bool"
        },
        {
          "internalType": "string",
          "name": "name",
          "type": "string"
        },
        {
          "internalType": "uint256",
          "name": "ProposalCount",
          "type": "uint256"
        },
        {
          "internalType": "uint256",
          "name": "creditsPerVoter",
          "type": "uint256"
        },
        {
          "internalType": "uint256",
          "name": "totalTokenSupply",
          "type": "uint256"
        }
      ],
      "stateMutability": "view",
      "type": "function"
    },
    {
      "inputs": [],
      "name": "owner",
      "outputs": [
        {
          "internalType": "address",
          "name": "",
          "type": "address"
        }
      ],
      "stateMutability": "view",
      "type": "function"
    },
    {
      "inputs": [
        {
          "internalType": "uint256",
          "name": "",
          "type": "uint256"
        },
        {
          "internalType": "uint256",
          "name": "",
          "type": "uint256"
        }
      ],
      "name": "proposalList",
      "outputs": [
        {
          "internalType": "address",
          "name": "creator",
          "type": "address"
        },
        {
          "internalType": "uint256",
          "name": "pid",
          "type": "uint256"
        },
        {
          "internalType": "string",
          "name": "title",
          "type": "string"
        },
        {
          "internalType": "uint256",
          "name": "upVotes",
          "type": "uint256"
        },
        {
          "internalType": "uint256",
          "name": "downVotes",
          "type": "uint256"
        },
        {
          "internalType": "uint256",
          "name": "creationTime",
          "type": "uint256"
        },
        {
          "internalType": "uint256",
          "name": "duration",
          "type": "uint256"
        },
        {
          "internalType": "string",
          "name": "description",
          "type": "string"
        },
        {
          "internalType": "enum supportContract.ProposalStatus",
          "name": "status",
          "type": "uint8"
        }
      ],
      "stateMutability": "view",
      "type": "function"
    },
    {
      "inputs": [
        {
          "internalType": "uint256",
          "name": "_orgID",
          "type": "uint256"
        },
        {
          "internalType": "uint256",
          "name": "_pID",
          "type": "uint256"
        }
      ],
      "name": "setToEnded",
      "outputs": [],
      "stateMutability": "nonpayable",
      "type": "function"
    },
    {
      "inputs": [
        {
          "internalType": "uint256",
          "name": "_orgID",
          "type": "uint256"
        },
        {
          "internalType": "uint256",
          "name": "_pid",
          "type": "uint256"
        }
      ],
      "name": "totalVotes",
      "outputs": [
        {
          "internalType": "uint256",
          "name": "",
          "type": "uint256"
        },
        {
          "internalType": "uint256",
          "name": "",
          "type": "uint256"
        }
      ],
      "stateMutability": "view",
      "type": "function"
    },
    {
      "inputs": [
        {
          "internalType": "uint256",
          "name": "",
          "type": "uint256"
        },
        {
          "internalType": "address",
          "name": "",
          "type": "address"
        }
      ],
      "name": "userBalance",
      "outputs": [
        {
          "internalType": "uint256",
          "name": "",
          "type": "uint256"
        }
      ],
      "stateMutability": "view",
      "type": "function"
    }
  ],
  "bytecode": "0x6080604052600060025534801561001557600080fd5b50336000806101000a81548173ffffffffffffffffffffffffffffffffffffffff021916908373ffffffffffffffffffffffffffffffffffffffff160217905550615bdb80620000666000396000f3fe608060405234801561001057600080fd5b50600436106102065760003560e01c8063920be8881161011a578063ce22e862116100ad578063f33a07661161007c578063f33a0766146106ac578063f3970d73146106ca578063fb7cc43b146106e6578063fd3d3ff114610716578063ff435baa1461074657610206565b8063ce22e8621461060a578063d13ae67214610628578063e792dd8a14610658578063f1c621041461068e57610206565b8063b11f6442116100e9578063b11f644214610570578063b2e95da2146105a0578063b40955ee146105bc578063cceb68f5146105ec57610206565b8063920be888146104ce578063938351b8146104fe578063a0712d6814610536578063ad81c5831461055257610206565b8063636454311161019d578063851987051161016c578063851987051461040457806389572ff6146104345780638d982051146104645780638da5cb5b146104805780638f4e76b91461049e57610206565b8063636454311461034457806363a56e7a1461037457806373f37e38146103a45780637d9e10f5146103d457610206565b806324a9ed8e116101d957806324a9ed8e146102ab5780632fc256c3146102dc57806336a9dbb01461030c5780636301f6911461032857610206565b80631414982f1461020b5780631c6fc85014610243578063217950701461025f57806323848f171461027b575b600080fd5b610225600480360381019061022091906148fb565b610764565b60405161023a99989796959493929190615105565b60405180910390f35b61025d60048036038101906102589190614937565b61090c565b005b610279600480360381019061027491906148fb565b610e4c565b005b6102956004803603810190610290919061480d565b6111a3565b6040516102a2919061541e565b60405180910390f35b6102c560048036038101906102c091906148fb565b6111fb565b6040516102d3929190615439565b60405180910390f35b6102f660048036038101906102f191906148fb565b6112b7565b604051610303919061541e565b60405180910390f35b6103266004803603810190610321919061480d565b611415565b005b610342600480360381019061033d919061480d565b6115ee565b005b61035e600480360381019061035991906148fb565b6117c7565b60405161036b9190615221565b60405180910390f35b61038e6004803603810190610389919061480d565b611932565b60405161039b91906151e4565b60405180910390f35b6103be60048036038101906103b9919061480d565b611cf4565b6040516103cb919061541e565b60405180910390f35b6103ee60048036038101906103e99190614836565b611d76565b6040516103fb9190615206565b60405180910390f35b61041e60048036038101906104199190614836565b611da5565b60405161042b919061541e565b60405180910390f35b61044e600480360381019061044991906148fb565b611dca565b60405161045b9190615074565b60405180910390f35b61047e600480360381019061047991906147a6565b611e18565b005b610488612092565b6040516104959190615074565b60405180910390f35b6104b860048036038101906104b39190614836565b6120b6565b6040516104c59190615206565b60405180910390f35b6104e860048036038101906104e3919061480d565b6120e5565b6040516104f5919061541e565b60405180910390f35b6105186004803603810190610513919061480d565b61220d565b60405161052d99989796959493929190615105565b60405180910390f35b610550600480360381019061054b919061480d565b6123a8565b005b61055a61281c565b6040516105679190615206565b60405180910390f35b61058a60048036038101906105859190614729565b61292e565b604051610597919061541e565b60405180910390f35b6105ba60048036038101906105b59190614752565b612946565b005b6105d660048036038101906105d1919061480d565b612bbf565b6040516105e391906153fc565b60405180910390f35b6105f4612dd3565b60405161060191906151e4565b60405180910390f35b61061261310e565b60405161061f91906153fc565b60405180910390f35b610642600480360381019061063d919061480d565b61339e565b60405161064f91906151a0565b60405180910390f35b610672600480360381019061066d919061480d565b61347a565b604051610685979695949392919061508f565b60405180910390f35b610696613581565b6040516106a3919061541e565b60405180910390f35b6106b4613587565b6040516106c191906151e4565b60405180910390f35b6106e460048036038101906106df9190614872565b613972565b005b61070060048036038101906106fb919061480d565b613f9d565b60405161070d919061541e565b60405180910390f35b610730600480360381019061072b919061480d565b614066565b60405161073d9190615206565b60405180910390f35b61074e614178565b60405161075b91906151c2565b60405180910390f35b6005602052816000526040600020818154811061078057600080fd5b90600052602060002090600a0201600091509150508060000160009054906101000a900473ffffffffffffffffffffffffffffffffffffffff16908060010154908060020180546107d09061570b565b80601f01602080910402602001604051908101604052809291908181526020018280546107fc9061570b565b80156108495780601f1061081e57610100808354040283529160200191610849565b820191906000526020600020905b81548152906001019060200180831161082c57829003601f168201915b5050505050908060040154908060050154908060060154908060070154908060080180546108769061570b565b80601f01602080910402602001604051908101604052809291908181526020018280546108a29061570b565b80156108ef5780601f106108c4576101008083540402835291602001916108ef565b820191906000526020600020905b8154815290600101906020018083116108d257829003601f168201915b5050505050908060090160009054906101000a900460ff16905089565b836000811015801561091f575060025481105b61095e576040517f08c379a00000000000000000000000000000000000000000000000000000000081526004016109559061523c565b60405180910390fd5b848460006004838154811061099c577f4e487b7100000000000000000000000000000000000000000000000000000000600052603260045260246000fd5b9060005260206000209060070201600401549050600082101580156109c057508082105b6109ff576040517f08c379a00000000000000000000000000000000000000000000000000000000081526004016109f6906152fc565b60405180910390fd5b60006001811115610a39577f4e487b7100000000000000000000000000000000000000000000000000000000600052602160045260246000fd5b610a4389896117c7565b6001811115610a7b577f4e487b7100000000000000000000000000000000000000000000000000000000600052602160045260246000fd5b14610abb576040517f08c379a0000000000000000000000000000000000000000000000000000000008152600401610ab2906153dc565b60405180910390fd5b6000600560008a81526020019081526020016000209050610adc89896112b7565b818981548110610b15577f4e487b7100000000000000000000000000000000000000000000000000000000600052603260045260246000fd5b90600052602060002090600a02016006015442610b329190615628565b10610b72576040517f08c379a0000000000000000000000000000000000000000000000000000000008152600401610b699061531c565b60405180910390fd5b610b7d89893361431c565b610bbc576040517f08c379a0000000000000000000000000000000000000000000000000000000008152600401610bb39061539c565b60405180910390fd5b85610bc68a613f9d565b1015610c07576040517f08c379a0000000000000000000000000000000000000000000000000000000008152600401610bfe9061529c565b60405180910390fd5b85600660008b815260200190815260200160002060003373ffffffffffffffffffffffffffffffffffffffff1673ffffffffffffffffffffffffffffffffffffffff16815260200190815260200160002054610c639190615628565b600660008b815260200190815260200160002060003373ffffffffffffffffffffffffffffffffffffffff1673ffffffffffffffffffffffffffffffffffffffff168152602001908152602001600020819055506000610cc2876143b0565b90506000828a81548110610cff577f4e487b7100000000000000000000000000000000000000000000000000000000600052603260045260246000fd5b90600052602060002090600a020190506001891415610d3557818160040154610d2891906155a1565b8160040181905550610d4e565b818160050154610d4591906155a1565b81600501819055505b80600301339080600181540180825580915050600190039060005260206000200160009091909190916101000a81548173ffffffffffffffffffffffffffffffffffffffff021916908373ffffffffffffffffffffffffffffffffffffffff1602179055506000600760008d815260200190815260200160002060008c815260200190815260200160002060003373ffffffffffffffffffffffffffffffffffffffff1673ffffffffffffffffffffffffffffffffffffffff168152602001908152602001600020905060018160000160006101000a81548160ff021916908315150217905550828160010181905550505050505050505050505050565b8160008110158015610e5f575060025481105b610e9e576040517f08c379a0000000000000000000000000000000000000000000000000000000008152600401610e959061523c565b60405180910390fd5b8282600060048381548110610edc577f4e487b7100000000000000000000000000000000000000000000000000000000600052603260045260246000fd5b906000526020600020906007020160040154905060008210158015610f0057508082105b610f3f576040517f08c379a0000000000000000000000000000000000000000000000000000000008152600401610f36906152fc565b60405180910390fd5b600060056000888152602001908152602001600020905060006001811115610f90577f4e487b7100000000000000000000000000000000000000000000000000000000600052602160045260246000fd5b818781548110610fc9577f4e487b7100000000000000000000000000000000000000000000000000000000600052603260045260246000fd5b90600052602060002090600a020160090160009054906101000a900460ff166001811115611020577f4e487b7100000000000000000000000000000000000000000000000000000000600052602160045260246000fd5b14611060576040517f08c379a00000000000000000000000000000000000000000000000000000000081526004016110579061537c565b60405180910390fd5b61106a87876112b7565b8187815481106110a3577f4e487b7100000000000000000000000000000000000000000000000000000000600052603260045260246000fd5b90600052602060002090600a020160060154426110c09190615628565b1015611101576040517f08c379a00000000000000000000000000000000000000000000000000000000081526004016110f89061525c565b60405180910390fd5b600181878154811061113c577f4e487b7100000000000000000000000000000000000000000000000000000000600052603260045260246000fd5b90600052602060002090600a020160090160006101000a81548160ff02191690836001811115611195577f4e487b7100000000000000000000000000000000000000000000000000000000600052602160045260246000fd5b021790555050505050505050565b60008060048054905014806111ce575060006008600084815260200190815260200160002080549050145b156111dc57600090506111f6565b600860008381526020019081526020016000208054905090505b919050565b600080600060056000868152602001908152602001600020905080848154811061124e577f4e487b7100000000000000000000000000000000000000000000000000000000600052603260045260246000fd5b90600052602060002090600a020160040154818581548110611299577f4e487b7100000000000000000000000000000000000000000000000000000000600052603260045260246000fd5b90600052602060002090600a02016005015492509250509250929050565b600082600081101580156112cc575060025481105b61130b576040517f08c379a00000000000000000000000000000000000000000000000000000000081526004016113029061523c565b60405180910390fd5b8383600060048381548110611349577f4e487b7100000000000000000000000000000000000000000000000000000000600052603260045260246000fd5b90600052602060002090600702016004015490506000821015801561136d57508082105b6113ac576040517f08c379a00000000000000000000000000000000000000000000000000000000081526004016113a3906152fc565b60405180910390fd5b6005600088815260200190815260200160002086815481106113f7577f4e487b7100000000000000000000000000000000000000000000000000000000600052603260045260246000fd5b90600052602060002090600a02016007015494505050505092915050565b6000600480549050118015611440575060006008600083815260200190815260200160002080549050115b61147f576040517f08c379a00000000000000000000000000000000000000000000000000000000081526004016114769061535c565b60405180910390fd5b60006008600083815260200190815260200160002080548060200260200160405190810160405280929190818152602001828054801561151457602002820191906000526020600020905b8160009054906101000a900473ffffffffffffffffffffffffffffffffffffffff1673ffffffffffffffffffffffffffffffffffffffff16815260200190600101908083116114ca575b5050505050905060005b81518110156115e9576000828281518110611562577f4e487b7100000000000000000000000000000000000000000000000000000000600052603260045260246000fd5b6020026020010151905060006009600086815260200190815260200160002060008373ffffffffffffffffffffffffffffffffffffffff1673ffffffffffffffffffffffffffffffffffffffff16815260200190815260200160002060006101000a81548160ff0219169083151502179055505080806115e19061576e565b91505061151e565b505050565b6000600480549050118015611619575060006008600083815260200190815260200160002080549050115b611658576040517f08c379a000000000000000000000000000000000000000000000000000000000815260040161164f9061535c565b60405180910390fd5b6000600860008381526020019081526020016000208054806020026020016040519081016040528092919081815260200182805480156116ed57602002820191906000526020600020905b8160009054906101000a900473ffffffffffffffffffffffffffffffffffffffff1673ffffffffffffffffffffffffffffffffffffffff16815260200190600101908083116116a3575b5050505050905060005b81518110156117c257600082828151811061173b577f4e487b7100000000000000000000000000000000000000000000000000000000600052603260045260246000fd5b6020026020010151905060016009600086815260200190815260200160002060008373ffffffffffffffffffffffffffffffffffffffff1673ffffffffffffffffffffffffffffffffffffffff16815260200190815260200160002060006101000a81548160ff0219169083151502179055505080806117ba9061576e565b9150506116f7565b505050565b600082600081101580156117dc575060025481105b61181b576040517f08c379a00000000000000000000000000000000000000000000000000000000081526004016118129061523c565b60405180910390fd5b8383600060048381548110611859577f4e487b7100000000000000000000000000000000000000000000000000000000600052603260045260246000fd5b90600052602060002090600702016004015490506000821015801561187d57508082105b6118bc576040517f08c379a00000000000000000000000000000000000000000000000000000000081526004016118b3906152fc565b60405180910390fd5b600560008881526020019081526020016000208681548110611907577f4e487b7100000000000000000000000000000000000000000000000000000000600052603260045260246000fd5b90600052602060002090600a020160090160009054906101000a900460ff1694505050505092915050565b60608160008110158015611947575060025481105b611986576040517f08c379a000000000000000000000000000000000000000000000000000000000815260040161197d9061523c565b60405180910390fd5b600060048054905014806119b0575060006005600085815260200190815260200160002080549050145b156119c057606080925050611cee565b60056000848152602001908152602001600020805480602002602001604051908101604052809291908181526020016000905b82821015611ce757838290600052602060002090600a0201604051806101400160405290816000820160009054906101000a900473ffffffffffffffffffffffffffffffffffffffff1673ffffffffffffffffffffffffffffffffffffffff1673ffffffffffffffffffffffffffffffffffffffff16815260200160018201548152602001600282018054611a879061570b565b80601f0160208091040260200160405190810160405280929190818152602001828054611ab39061570b565b8015611b005780601f10611ad557610100808354040283529160200191611b00565b820191906000526020600020905b815481529060010190602001808311611ae357829003601f168201915b5050505050815260200160038201805480602002602001604051908101604052809291908181526020018280548015611b8e57602002820191906000526020600020905b8160009054906101000a900473ffffffffffffffffffffffffffffffffffffffff1673ffffffffffffffffffffffffffffffffffffffff1681526020019060010190808311611b44575b5050505050815260200160048201548152602001600582015481526020016006820154815260200160078201548152602001600882018054611bcf9061570b565b80601f0160208091040260200160405190810160405280929190818152602001828054611bfb9061570b565b8015611c485780601f10611c1d57610100808354040283529160200191611c48565b820191906000526020600020905b815481529060010190602001808311611c2b57829003601f168201915b505050505081526020016009820160009054906101000a900460ff166001811115611c9c577f4e487b7100000000000000000000000000000000000000000000000000000000600052602160045260246000fd5b6001811115611cd4577f4e487b7100000000000000000000000000000000000000000000000000000000600052602160045260246000fd5b81525050815260200190600101906119f3565b5050505091505b50919050565b6000806004805490501415611d0c5760009050611d71565b600480549050821115611d225760009050611d71565b60048281548110611d5c577f4e487b7100000000000000000000000000000000000000000000000000000000600052603260045260246000fd5b90600052602060002090600702016006015490505b919050565b600a6020528160005260406000206020528060005260406000206000915091509054906101000a900460ff1681565b6006602052816000526040600020602052806000526040600020600091509150505481565b60086020528160005260406000208181548110611de657600080fd5b906000526020600020016000915091509054906101000a900473ffffffffffffffffffffffffffffffffffffffff1681565b60006004805490501480611ec75750600015156004600360008473ffffffffffffffffffffffffffffffffffffffff1673ffffffffffffffffffffffffffffffffffffffff1681526020019081526020016000205481548110611ea4577f4e487b7100000000000000000000000000000000000000000000000000000000600052603260045260246000fd5b906000526020600020906007020160020160009054906101000a900460ff161515145b611f06576040517f08c379a0000000000000000000000000000000000000000000000000000000008152600401611efd9061533c565b60405180910390fd5b600254600360008373ffffffffffffffffffffffffffffffffffffffff1673ffffffffffffffffffffffffffffffffffffffff1681526020019081526020016000208190555060046040518060e001604052808373ffffffffffffffffffffffffffffffffffffffff1681526020016002548152602001600115158152602001858152602001600081526020018481526020016000815250908060018154018082558091505060019003906000526020600020906007020160009091909190915060008201518160000160006101000a81548173ffffffffffffffffffffffffffffffffffffffff021916908373ffffffffffffffffffffffffffffffffffffffff1602179055506020820151816001015560408201518160020160006101000a81548160ff021916908315150217905550606082015181600301908051906020019061205492919061442a565b506080820151816004015560a0820151816005015560c082015181600601555050600260008154809291906120889061576e565b9190505550505050565b60008054906101000a900473ffffffffffffffffffffffffffffffffffffffff1681565b60096020528160005260406000206020528060005260406000206000915091509054906101000a900460ff1681565b6000806004600360003373ffffffffffffffffffffffffffffffffffffffff1673ffffffffffffffffffffffffffffffffffffffff1681526020019081526020016000205481548110612161577f4e487b7100000000000000000000000000000000000000000000000000000000600052603260045260246000fd5b906000526020600020906007020190508281600501819055506004600360003373ffffffffffffffffffffffffffffffffffffffff1673ffffffffffffffffffffffffffffffffffffffff16815260200190815260200160002054815481106121f3577f4e487b7100000000000000000000000000000000000000000000000000000000600052603260045260246000fd5b906000526020600020906007020160050154915050919050565b6001818154811061221d57600080fd5b90600052602060002090600a02016000915090508060000160009054906101000a900473ffffffffffffffffffffffffffffffffffffffff169080600101549080600201805461226c9061570b565b80601f01602080910402602001604051908101604052809291908181526020018280546122989061570b565b80156122e55780601f106122ba576101008083540402835291602001916122e5565b820191906000526020600020905b8154815290600101906020018083116122c857829003601f168201915b5050505050908060040154908060050154908060060154908060070154908060080180546123129061570b565b80601f016020809104026020016040519081016040528092919081815260200182805461233e9061570b565b801561238b5780601f106123605761010080835404028352916020019161238b565b820191906000526020600020905b81548152906001019060200180831161236e57829003601f168201915b5050505050908060090160009054906101000a900460ff16905089565b600073ffffffffffffffffffffffffffffffffffffffff163373ffffffffffffffffffffffffffffffffffffffff161415612418576040517f08c379a000000000000000000000000000000000000000000000000000000000815260040161240f906153bc565b60405180910390fd5b60001515600a600083815260200190815260200160002060003373ffffffffffffffffffffffffffffffffffffffff1673ffffffffffffffffffffffffffffffffffffffff16815260200190815260200160002060009054906101000a900460ff1615151415612564576001600a600083815260200190815260200160002060003373ffffffffffffffffffffffffffffffffffffffff1673ffffffffffffffffffffffffffffffffffffffff16815260200190815260200160002060006101000a81548160ff02191690831515021790555060086000828152602001908152602001600020339080600181540180825580915050600190039060005260206000200160009091909190916101000a81548173ffffffffffffffffffffffffffffffffffffffff021916908373ffffffffffffffffffffffffffffffffffffffff160217905550612609565b600115156009600083815260200190815260200160002060003373ffffffffffffffffffffffffffffffffffffffff1673ffffffffffffffffffffffffffffffffffffffff16815260200190815260200160002060009054906101000a900460ff16151514612608576040517f08c379a00000000000000000000000000000000000000000000000000000000081526004016125ff9061527c565b60405180910390fd5b5b60006009600083815260200190815260200160002060003373ffffffffffffffffffffffffffffffffffffffff1673ffffffffffffffffffffffffffffffffffffffff16815260200190815260200160002060006101000a81548160ff0219169083151502179055506000600482815481106126ae577f4e487b7100000000000000000000000000000000000000000000000000000000600052603260045260246000fd5b9060005260206000209060070201600501549050806006600084815260200190815260200160002060003373ffffffffffffffffffffffffffffffffffffffff1673ffffffffffffffffffffffffffffffffffffffff1681526020019081526020016000205461271e91906155a1565b6006600084815260200190815260200160002060003373ffffffffffffffffffffffffffffffffffffffff1673ffffffffffffffffffffffffffffffffffffffff1681526020019081526020016000208190555080600483815481106127ad577f4e487b7100000000000000000000000000000000000000000000000000000000600052603260045260246000fd5b9060005260206000209060070201600601546127c991906155a1565b60048381548110612803577f4e487b7100000000000000000000000000000000000000000000000000000000600052603260045260246000fd5b9060005260206000209060070201600601819055505050565b6000806004805490501415612834576000905061292b565b600480549050600360003373ffffffffffffffffffffffffffffffffffffffff1673ffffffffffffffffffffffffffffffffffffffff168152602001908152602001600020541115612889576000905061292b565b600115156004600360003373ffffffffffffffffffffffffffffffffffffffff1673ffffffffffffffffffffffffffffffffffffffff1681526020019081526020016000205481548110612906577f4e487b7100000000000000000000000000000000000000000000000000000000600052603260045260246000fd5b906000526020600020906007020160020160009054906101000a900460ff1615151490505b90565b60036020528060005260406000206000915090505481565b600060048054905014806129f55750600015156004600360003373ffffffffffffffffffffffffffffffffffffffff1673ffffffffffffffffffffffffffffffffffffffff16815260200190815260200160002054815481106129d2577f4e487b7100000000000000000000000000000000000000000000000000000000600052603260045260246000fd5b906000526020600020906007020160020160009054906101000a900460ff161515145b612a34576040517f08c379a0000000000000000000000000000000000000000000000000000000008152600401612a2b9061533c565b60405180910390fd5b600254600360003373ffffffffffffffffffffffffffffffffffffffff1673ffffffffffffffffffffffffffffffffffffffff1681526020019081526020016000208190555060046040518060e001604052803373ffffffffffffffffffffffffffffffffffffffff1681526020016002548152602001600115158152602001848152602001600081526020018381526020016000815250908060018154018082558091505060019003906000526020600020906007020160009091909190915060008201518160000160006101000a81548173ffffffffffffffffffffffffffffffffffffffff021916908373ffffffffffffffffffffffffffffffffffffffff1602179055506020820151816001015560408201518160020160006101000a81548160ff0219169083151502179055506060820151816003019080519060200190612b8292919061442a565b506080820151816004015560a0820151816005015560c08201518160060155505060026000815480929190612bb69061576e565b91905055505050565b612bc76144b0565b60006004805490501480612c3757506000151560048381548110612c14577f4e487b7100000000000000000000000000000000000000000000000000000000600052603260045260246000fd5b906000526020600020906007020160020160009054906101000a900460ff161515145b15612c4d57612c446144b0565b80915050612dce565b60048281548110612c87577f4e487b7100000000000000000000000000000000000000000000000000000000600052603260045260246000fd5b90600052602060002090600702016040518060e00160405290816000820160009054906101000a900473ffffffffffffffffffffffffffffffffffffffff1673ffffffffffffffffffffffffffffffffffffffff1673ffffffffffffffffffffffffffffffffffffffff168152602001600182015481526020016002820160009054906101000a900460ff16151515158152602001600382018054612d2b9061570b565b80601f0160208091040260200160405190810160405280929190818152602001828054612d579061570b565b8015612da45780601f10612d7957610100808354040283529160200191612da4565b820191906000526020600020905b815481529060010190602001808311612d8757829003601f168201915b50505050508152602001600482015481526020016005820154815260200160068201548152505090505b919050565b606060006001805490501415612dee5760608091505061310b565b6001805480602002602001604051908101604052809291908181526020016000905b8282101561310457838290600052602060002090600a0201604051806101400160405290816000820160009054906101000a900473ffffffffffffffffffffffffffffffffffffffff1673ffffffffffffffffffffffffffffffffffffffff1673ffffffffffffffffffffffffffffffffffffffff16815260200160018201548152602001600282018054612ea49061570b565b80601f0160208091040260200160405190810160405280929190818152602001828054612ed09061570b565b8015612f1d5780601f10612ef257610100808354040283529160200191612f1d565b820191906000526020600020905b815481529060010190602001808311612f0057829003601f168201915b5050505050815260200160038201805480602002602001604051908101604052809291908181526020018280548015612fab57602002820191906000526020600020905b8160009054906101000a900473ffffffffffffffffffffffffffffffffffffffff1673ffffffffffffffffffffffffffffffffffffffff1681526020019060010190808311612f61575b5050505050815260200160048201548152602001600582015481526020016006820154815260200160078201548152602001600882018054612fec9061570b565b80601f01602080910402602001604051908101604052809291908181526020018280546130189061570b565b80156130655780601f1061303a57610100808354040283529160200191613065565b820191906000526020600020905b81548152906001019060200180831161304857829003601f168201915b505050505081526020016009820160009054906101000a900460ff1660018111156130b9577f4e487b7100000000000000000000000000000000000000000000000000000000600052602160045260246000fd5b60018111156130f1577f4e487b7100000000000000000000000000000000000000000000000000000000600052602160045260246000fd5b8152505081526020019060010190612e10565b5050505090505b90565b6131166144b0565b600060048054905014806131c55750600015156004600360003373ffffffffffffffffffffffffffffffffffffffff1673ffffffffffffffffffffffffffffffffffffffff16815260200190815260200160002054815481106131a2577f4e487b7100000000000000000000000000000000000000000000000000000000600052603260045260246000fd5b906000526020600020906007020160020160009054906101000a900460ff161515145b156131db576131d26144b0565b8091505061339b565b6004600360003373ffffffffffffffffffffffffffffffffffffffff1673ffffffffffffffffffffffffffffffffffffffff1681526020019081526020016000205481548110613254577f4e487b7100000000000000000000000000000000000000000000000000000000600052603260045260246000fd5b90600052602060002090600702016040518060e00160405290816000820160009054906101000a900473ffffffffffffffffffffffffffffffffffffffff1673ffffffffffffffffffffffffffffffffffffffff1673ffffffffffffffffffffffffffffffffffffffff168152602001600182015481526020016002820160009054906101000a900460ff161515151581526020016003820180546132f89061570b565b80601f01602080910402602001604051908101604052809291908181526020018280546133249061570b565b80156133715780601f1061334657610100808354040283529160200191613371565b820191906000526020600020905b81548152906001019060200180831161335457829003601f168201915b50505050508152602001600482015481526020016005820154815260200160068201548152505090505b90565b6060600060048054905014806133ca575060006008600084815260200190815260200160002080549050145b156133da57606080915050613475565b6008600083815260200190815260200160002080548060200260200160405190810160405280929190818152602001828054801561346d57602002820191906000526020600020905b8160009054906101000a900473ffffffffffffffffffffffffffffffffffffffff1673ffffffffffffffffffffffffffffffffffffffff1681526020019060010190808311613423575b505050505090505b919050565b6004818154811061348a57600080fd5b90600052602060002090600702016000915090508060000160009054906101000a900473ffffffffffffffffffffffffffffffffffffffff16908060010154908060020160009054906101000a900460ff16908060030180546134ec9061570b565b80601f01602080910402602001604051908101604052809291908181526020018280546135189061570b565b80156135655780601f1061353a57610100808354040283529160200191613565565b820191906000526020600020905b81548152906001019060200180831161354857829003601f168201915b5050505050908060040154908060050154908060060154905087565b60025481565b6060600060048054905014806135f25750600060056000600360003373ffffffffffffffffffffffffffffffffffffffff1673ffffffffffffffffffffffffffffffffffffffff16815260200190815260200160002054815260200190815260200160002080549050145b156136025760608091505061396f565b60056000600360003373ffffffffffffffffffffffffffffffffffffffff1673ffffffffffffffffffffffffffffffffffffffff168152602001908152602001600020548152602001908152602001600020805480602002602001604051908101604052809291908181526020016000905b8282101561396857838290600052602060002090600a0201604051806101400160405290816000820160009054906101000a900473ffffffffffffffffffffffffffffffffffffffff1673ffffffffffffffffffffffffffffffffffffffff1673ffffffffffffffffffffffffffffffffffffffff168152602001600182015481526020016002820180546137089061570b565b80601f01602080910402602001604051908101604052809291908181526020018280546137349061570b565b80156137815780601f1061375657610100808354040283529160200191613781565b820191906000526020600020905b81548152906001019060200180831161376457829003601f168201915b505050505081526020016003820180548060200260200160405190810160405280929190818152602001828054801561380f57602002820191906000526020600020905b8160009054906101000a900473ffffffffffffffffffffffffffffffffffffffff1673ffffffffffffffffffffffffffffffffffffffff16815260200190600101908083116137c5575b50505050508152602001600482015481526020016005820154815260200160068201548152602001600782015481526020016008820180546138509061570b565b80601f016020809104026020016040519081016040528092919081815260200182805461387c9061570b565b80156138c95780601f1061389e576101008083540402835291602001916138c9565b820191906000526020600020905b8154815290600101906020018083116138ac57829003601f168201915b505050505081526020016009820160009054906101000a900460ff16600181111561391d577f4e487b7100000000000000000000000000000000000000000000000000000000600052602160045260246000fd5b6001811115613955577f4e487b7100000000000000000000000000000000000000000000000000000000600052602160045260246000fd5b8152505081526020019060010190613674565b5050505090505b90565b600085116139b5576040517f08c379a00000000000000000000000000000000000000000000000000000000081526004016139ac906152bc565b60405180910390fd5b6000600360003373ffffffffffffffffffffffffffffffffffffffff1673ffffffffffffffffffffffffffffffffffffffff1681526020019081526020016000205490506001151560048281548110613a37577f4e487b7100000000000000000000000000000000000000000000000000000000600052603260045260246000fd5b906000526020600020906007020160020160009054906101000a900460ff16151514613a98576040517f08c379a0000000000000000000000000000000000000000000000000000000008152600401613a8f906152dc565b60405180910390fd5b600060048281548110613ad4577f4e487b7100000000000000000000000000000000000000000000000000000000600052603260045260246000fd5b9060005260206000209060070201600401549050613af0614505565b86868080601f016020809104026020016040519081016040528093929190818152602001838380828437600081840152601f19601f8201169050808301925050505050505081604001819052508181602001818152505033816000019073ffffffffffffffffffffffffffffffffffffffff16908173ffffffffffffffffffffffffffffffffffffffff168152505084848080601f016020809104026020016040519081016040528093929190818152602001838380828437600081840152601f19601f82011690508083019250505050505050816101000181905250878160e0018181525050428160c001818152505060008161012001906001811115613c21577f4e487b7100000000000000000000000000000000000000000000000000000000600052602160045260246000fd5b90816001811115613c5b577f4e487b7100000000000000000000000000000000000000000000000000000000600052602160045260246000fd5b81525050600081608001818152505060008160a0018181525050600560008481526020019081526020016000208190806001815401808255809150506001900390600052602060002090600a020160009091909190915060008201518160000160006101000a81548173ffffffffffffffffffffffffffffffffffffffff021916908373ffffffffffffffffffffffffffffffffffffffff160217905550602082015181600101556040820151816002019080519060200190613d1f92919061442a565b506060820151816003019080519060200190613d3c9291906145a6565b506080820151816004015560a0820151816005015560c0820151816006015560e08201518160070155610100820151816008019080519060200190613d8292919061442a565b506101208201518160090160006101000a81548160ff02191690836001811115613dd5577f4e487b7100000000000000000000000000000000000000000000000000000000600052602160045260246000fd5b0217905550505060018190806001815401808255809150506001900390600052602060002090600a020160009091909190915060008201518160000160006101000a81548173ffffffffffffffffffffffffffffffffffffffff021916908373ffffffffffffffffffffffffffffffffffffffff160217905550602082015181600101556040820151816002019080519060200190613e7592919061442a565b506060820151816003019080519060200190613e929291906145a6565b506080820151816004015560a0820151816005015560c0820151816006015560e08201518160070155610100820151816008019080519060200190613ed892919061442a565b506101208201518160090160006101000a81548160ff02191690836001811115613f2b577f4e487b7100000000000000000000000000000000000000000000000000000000600052602160045260246000fd5b0217905550505060048381548110613f6c577f4e487b7100000000000000000000000000000000000000000000000000000000600052603260045260246000fd5b90600052602060002090600702016004016000815480929190613f8e9061576e565b91905055505050505050505050565b60008073ffffffffffffffffffffffffffffffffffffffff163373ffffffffffffffffffffffffffffffffffffffff16141561400e576040517f08c379a0000000000000000000000000000000000000000000000000000000008152600401614005906153bc565b60405180910390fd5b6006600083815260200190815260200160002060003373ffffffffffffffffffffffffffffffffffffffff1673ffffffffffffffffffffffffffffffffffffffff168152602001908152602001600020549050919050565b6000806004805490501480614091575060006008600084815260200190815260200160002080549050145b1561409f5760009050614173565b60001515600a600084815260200190815260200160002060003373ffffffffffffffffffffffffffffffffffffffff1673ffffffffffffffffffffffffffffffffffffffff16815260200190815260200160002060009054906101000a900460ff16151514156141125760009050614173565b6009600083815260200190815260200160002060003373ffffffffffffffffffffffffffffffffffffffff1673ffffffffffffffffffffffffffffffffffffffff16815260200190815260200160002060009054906101000a900460ff1690505b919050565b60606000600480549050141561419357606080915050614319565b6004805480602002602001604051908101604052809291908181526020016000905b8282101561431257838290600052602060002090600702016040518060e00160405290816000820160009054906101000a900473ffffffffffffffffffffffffffffffffffffffff1673ffffffffffffffffffffffffffffffffffffffff1673ffffffffffffffffffffffffffffffffffffffff168152602001600182015481526020016002820160009054906101000a900460ff161515151581526020016003820180546142639061570b565b80601f016020809104026020016040519081016040528092919081815260200182805461428f9061570b565b80156142dc5780601f106142b1576101008083540402835291602001916142dc565b820191906000526020600020905b8154815290600101906020018083116142bf57829003601f168201915b505050505081526020016004820154815260200160058201548152602001600682015481525050815260200190600101906141b5565b5050505090505b90565b600080151560076000868152602001908152602001600020600085815260200190815260200160002060008473ffffffffffffffffffffffffffffffffffffffff1673ffffffffffffffffffffffffffffffffffffffff16815260200190815260200160002060000160009054906101000a900460ff16151514156143a457600190506143a9565b600090505b9392505050565b6000600382111561441757819050600060016002846143cf91906155f7565b6143d991906155a1565b90505b818110156144115780915060028182856143f691906155f7565b61440091906155a1565b61440a91906155f7565b90506143dc565b50614425565b6000821461442457600190505b5b919050565b8280546144369061570b565b90600052602060002090601f016020900481019282614458576000855561449f565b82601f1061447157805160ff191683800117855561449f565b8280016001018555821561449f579182015b8281111561449e578251825591602001919060010190614483565b5b5090506144ac9190614630565b5090565b6040518060e00160405280600073ffffffffffffffffffffffffffffffffffffffff16815260200160008152602001600015158152602001606081526020016000815260200160008152602001600081525090565b604051806101400160405280600073ffffffffffffffffffffffffffffffffffffffff1681526020016000815260200160608152602001606081526020016000815260200160008152602001600081526020016000815260200160608152602001600060018111156145a0577f4e487b7100000000000000000000000000000000000000000000000000000000600052602160045260246000fd5b81525090565b82805482825590600052602060002090810192821561461f579160200282015b8281111561461e5782518260006101000a81548173ffffffffffffffffffffffffffffffffffffffff021916908373ffffffffffffffffffffffffffffffffffffffff160217905550916020019190600101906145c6565b5b50905061462c9190614630565b5090565b5b80821115614649576000816000905550600101614631565b5090565b600061466061465b84615487565b615462565b90508281526020810184848401111561467857600080fd5b6146838482856156c9565b509392505050565b60008135905061469a81615b77565b92915050565b60008083601f8401126146b257600080fd5b8235905067ffffffffffffffff8111156146cb57600080fd5b6020830191508360018202830111156146e357600080fd5b9250929050565b600082601f8301126146fb57600080fd5b813561470b84826020860161464d565b91505092915050565b60008135905061472381615b8e565b92915050565b60006020828403121561473b57600080fd5b60006147498482850161468b565b91505092915050565b6000806040838503121561476557600080fd5b600083013567ffffffffffffffff81111561477f57600080fd5b61478b858286016146ea565b925050602061479c85828601614714565b9150509250929050565b6000806000606084860312156147bb57600080fd5b600084013567ffffffffffffffff8111156147d557600080fd5b6147e1868287016146ea565b93505060206147f286828701614714565b92505060406148038682870161468b565b9150509250925092565b60006020828403121561481f57600080fd5b600061482d84828501614714565b91505092915050565b6000806040838503121561484957600080fd5b600061485785828601614714565b92505060206148688582860161468b565b9150509250929050565b60008060008060006060868803121561488a57600080fd5b600061489888828901614714565b955050602086013567ffffffffffffffff8111156148b557600080fd5b6148c1888289016146a0565b9450945050604086013567ffffffffffffffff8111156148e057600080fd5b6148ec888289016146a0565b92509250509295509295909350565b6000806040838503121561490e57600080fd5b600061491c85828601614714565b925050602061492d85828601614714565b9150509250929050565b6000806000806080858703121561494d57600080fd5b600061495b87828801614714565b945050602061496c87828801614714565b935050604061497d87828801614714565b925050606061498e87828801614714565b91505092959194509250565b60006149a683836149da565b60208301905092915050565b60006149be8383614e36565b905092915050565b60006149d28383614f6e565b905092915050565b6149e38161565c565b82525050565b6149f28161565c565b82525050565b6000614a03826154e8565b614a0d818561553b565b9350614a18836154b8565b8060005b83811015614a49578151614a30888261499a565b9750614a3b83615514565b925050600181019050614a1c565b5085935050505092915050565b6000614a61826154e8565b614a6b818561554c565b9350614a76836154b8565b8060005b83811015614aa7578151614a8e888261499a565b9750614a9983615514565b925050600181019050614a7a565b5085935050505092915050565b6000614abf826154f3565b614ac9818561555d565b935083602082028501614adb856154c8565b8060005b85811015614b175784840389528151614af885826149b2565b9450614b0383615521565b925060208a01995050600181019050614adf565b50829750879550505050505092915050565b6000614b34826154fe565b614b3e818561556e565b935083602082028501614b50856154d8565b8060005b85811015614b8c5784840389528151614b6d85826149c6565b9450614b788361552e565b925060208a01995050600181019050614b54565b50829750879550505050505092915050565b614ba78161566e565b82525050565b614bb68161566e565b82525050565b614bc5816156b7565b82525050565b614bd4816156b7565b82525050565b6000614be582615509565b614bef818561557f565b9350614bff8185602086016156d8565b614c08816158a2565b840191505092915050565b6000614c1e82615509565b614c288185615590565b9350614c388185602086016156d8565b614c41816158a2565b840191505092915050565b6000614c59601783615590565b9150614c64826158b3565b602082019050919050565b6000614c7c601883615590565b9150614c87826158dc565b602082019050919050565b6000614c9f602483615590565b9150614caa82615905565b604082019050919050565b6000614cc2601383615590565b9150614ccd82615954565b602082019050919050565b6000614ce5601e83615590565b9150614cf08261597d565b602082019050919050565b6000614d08602c83615590565b9150614d13826159a6565b604082019050919050565b6000614d2b601383615590565b9150614d36826159f5565b602082019050919050565b6000614d4e601183615590565b9150614d5982615a1e565b602082019050919050565b6000614d71603183615590565b9150614d7c82615a47565b604082019050919050565b6000614d94601683615590565b9150614d9f82615a96565b602082019050919050565b6000614db7601583615590565b9150614dc282615abf565b602082019050919050565b6000614dda601883615590565b9150614de582615ae8565b602082019050919050565b6000614dfd600f83615590565b9150614e0882615b11565b602082019050919050565b6000614e20601483615590565b9150614e2b82615b3a565b602082019050919050565b600060e083016000830151614e4e60008601826149da565b506020830151614e616020860182615056565b506040830151614e746040860182614b9e565b5060608301518482036060860152614e8c8282614bda565b9150506080830151614ea16080860182615056565b5060a0830151614eb460a0860182615056565b5060c0830151614ec760c0860182615056565b508091505092915050565b600060e083016000830151614eea60008601826149da565b506020830151614efd6020860182615056565b506040830151614f106040860182614b9e565b5060608301518482036060860152614f288282614bda565b9150506080830151614f3d6080860182615056565b5060a0830151614f5060a0860182615056565b5060c0830151614f6360c0860182615056565b508091505092915050565b600061014083016000830151614f8760008601826149da565b506020830151614f9a6020860182615056565b5060408301518482036040860152614fb28282614bda565b91505060608301518482036060860152614fcc82826149f8565b9150506080830151614fe16080860182615056565b5060a0830151614ff460a0860182615056565b5060c083015161500760c0860182615056565b5060e083015161501a60e0860182615056565b506101008301518482036101008601526150348282614bda565b91505061012083015161504b610120860182614bbc565b508091505092915050565b61505f816156ad565b82525050565b61506e816156ad565b82525050565b600060208201905061508960008301846149e9565b92915050565b600060e0820190506150a4600083018a6149e9565b6150b16020830189615065565b6150be6040830188614bad565b81810360608301526150d08187614c13565b90506150df6080830186615065565b6150ec60a0830185615065565b6150f960c0830184615065565b98975050505050505050565b60006101208201905061511b600083018c6149e9565b615128602083018b615065565b818103604083015261513a818a614c13565b90506151496060830189615065565b6151566080830188615065565b61516360a0830187615065565b61517060c0830186615065565b81810360e08301526151828185614c13565b9050615192610100830184614bcb565b9a9950505050505050505050565b600060208201905081810360008301526151ba8184614a56565b905092915050565b600060208201905081810360008301526151dc8184614ab4565b905092915050565b600060208201905081810360008301526151fe8184614b29565b905092915050565b600060208201905061521b6000830184614bad565b92915050565b60006020820190506152366000830184614bcb565b92915050565b6000602082019050818103600083015261525581614c4c565b9050919050565b6000602082019050818103600083015261527581614c6f565b9050919050565b6000602082019050818103600083015261529581614c92565b9050919050565b600060208201905081810360008301526152b581614cb5565b9050919050565b600060208201905081810360008301526152d581614cd8565b9050919050565b600060208201905081810360008301526152f581614cfb565b9050919050565b6000602082019050818103600083015261531581614d1e565b9050919050565b6000602082019050818103600083015261533581614d41565b9050919050565b6000602082019050818103600083015261535581614d64565b9050919050565b6000602082019050818103600083015261537581614d87565b9050919050565b6000602082019050818103600083015261539581614daa565b9050919050565b600060208201905081810360008301526153b581614dcd565b9050919050565b600060208201905081810360008301526153d581614df0565b9050919050565b600060208201905081810360008301526153f581614e13565b9050919050565b600060208201905081810360008301526154168184614ed2565b905092915050565b60006020820190506154336000830184615065565b92915050565b600060408201905061544e6000830185615065565b61545b6020830184615065565b9392505050565b600061546c61547d565b9050615478828261573d565b919050565b6000604051905090565b600067ffffffffffffffff8211156154a2576154a1615873565b5b6154ab826158a2565b9050602081019050919050565b6000819050602082019050919050565b6000819050602082019050919050565b6000819050602082019050919050565b600081519050919050565b600081519050919050565b600081519050919050565b600081519050919050565b6000602082019050919050565b6000602082019050919050565b6000602082019050919050565b600082825260208201905092915050565b600082825260208201905092915050565b600082825260208201905092915050565b600082825260208201905092915050565b600082825260208201905092915050565b600082825260208201905092915050565b60006155ac826156ad565b91506155b7836156ad565b9250827fffffffffffffffffffffffffffffffffffffffffffffffffffffffffffffffff038211156155ec576155eb6157b7565b5b828201905092915050565b6000615602826156ad565b915061560d836156ad565b92508261561d5761561c6157e6565b5b828204905092915050565b6000615633826156ad565b915061563e836156ad565b925082821015615651576156506157b7565b5b828203905092915050565b60006156678261568d565b9050919050565b60008115159050919050565b600081905061568882615b63565b919050565b600073ffffffffffffffffffffffffffffffffffffffff82169050919050565b6000819050919050565b60006156c28261567a565b9050919050565b82818337600083830152505050565b60005b838110156156f65780820151818401526020810190506156db565b83811115615705576000848401525b50505050565b6000600282049050600182168061572357607f821691505b6020821081141561573757615736615844565b5b50919050565b615746826158a2565b810181811067ffffffffffffffff8211171561576557615764615873565b5b80604052505050565b6000615779826156ad565b91507fffffffffffffffffffffffffffffffffffffffffffffffffffffffffffffffff8214156157ac576157ab6157b7565b5b600182019050919050565b7f4e487b7100000000000000000000000000000000000000000000000000000000600052601160045260246000fd5b7f4e487b7100000000000000000000000000000000000000000000000000000000600052601260045260246000fd5b7f4e487b7100000000000000000000000000000000000000000000000000000000600052602160045260246000fd5b7f4e487b7100000000000000000000000000000000000000000000000000000000600052602260045260246000fd5b7f4e487b7100000000000000000000000000000000000000000000000000000000600052604160045260246000fd5b6000601f19601f8301169050919050565b7f496e76616c6964206f7267616e697a6174696f6e204944000000000000000000600082015250565b7f766f74696e6720686176656e7420656e64656420796574210000000000000000600082015250565b7f4d696e74696e67204e6f7420416c6c6f77656420666f7220746869732061646460008201527f7265737300000000000000000000000000000000000000000000000000000000602082015250565b7f496e73756666696369656e7420546f6b656e7300000000000000000000000000600082015250565b7f4475726174696f6e2073686f756c64206265206d6f7265207468616e20300000600082015250565b7f4e6f20616374697665206f7267616e697a6174696f6e2077697468206375727260008201527f656e742061646472657373210000000000000000000000000000000000000000602082015250565b7f496e76616c69642050726f706f73616c20494400000000000000000000000000600082015250565b7f766f74696e672068617320656e64656421000000000000000000000000000000600082015250565b7f416e206f7267616e697a6174696f6e207769746820746869732061646472657360008201527f7320616c72656164792065786973747321000000000000000000000000000000602082015250565b7f4e6f206f7267616e697a6174696f6e2065786973747300000000000000000000600082015250565b7f566f74696e672069736e2774206f6e676f696e67210000000000000000000000600082015250565b7f566f746572206861766520616c726561647920766f7465640000000000000000600082015250565b7f696e76616c6964206163636f756e740000000000000000000000000000000000600082015250565b7f766f74696e672069736e2774206f6e676f696e67000000000000000000000000600082015250565b60028110615b7457615b73615815565b5b50565b615b808161565c565b8114615b8b57600080fd5b50565b615b97816156ad565b8114615ba257600080fd5b5056fea264697066735822122072477b8e7b86ada255418b98302099fa8bfbb71ee376f5495c00f7205c9be37a64736f6c63430008040033",
  "linkReferences": {},
  "deployedLinkReferences": {}
}