{
  "_format": "hh-sol-artifact-1",
  "contractName": "QVote",
  "sourceName": "src/hardhat/contracts/QVote.sol",
  "abi": [
    {
      "anonymous": false,
      "inputs": [
        {
          "indexed": true,
          "internalType": "address",
          "name": "previousOwner",
          "type": "address"
        },
        {
          "indexed": true,
          "internalType": "address",
          "name": "newOwner",
          "type": "address"
        }
      ],
      "name": "OwnershipTransferred",
      "type": "event"
    },
    {
      "anonymous": false,
      "inputs": [
        {
          "indexed": false,
          "internalType": "string",
          "name": "name",
          "type": "string"
        },
        {
          "indexed": false,
          "internalType": "address",
          "name": "creator",
          "type": "address"
        },
        {
          "indexed": false,
          "internalType": "uint256",
          "name": "organizationId",
          "type": "uint256"
        },
        {
          "indexed": false,
          "internalType": "uint256",
          "name": "creditsPerVoter",
          "type": "uint256"
        }
      ],
      "name": "newOrganizationCreated",
      "type": "event"
    },
    {
      "anonymous": false,
      "inputs": [
        {
          "indexed": false,
          "internalType": "uint256",
          "name": "orgID",
          "type": "uint256"
        },
        {
          "indexed": false,
          "internalType": "uint256",
          "name": "ProposalId",
          "type": "uint256"
        },
        {
          "indexed": false,
          "internalType": "address",
          "name": "creator",
          "type": "address"
        },
        {
          "indexed": false,
          "internalType": "uint256",
          "name": "duration",
          "type": "uint256"
        },
        {
          "indexed": false,
          "internalType": "string",
          "name": "description",
          "type": "string"
        }
      ],
      "name": "newProposalCreated",
      "type": "event"
    },
    {
      "inputs": [
        {
          "internalType": "address",
          "name": "",
          "type": "address"
        }
      ],
      "name": "OrganizationOwners",
      "outputs": [
        {
          "internalType": "uint256",
          "name": "",
          "type": "uint256"
        }
      ],
      "stateMutability": "view",
      "type": "function"
    },
    {
      "inputs": [
        {
          "internalType": "uint256",
          "name": "_orgID",
          "type": "uint256"
        },
        {
          "internalType": "uint256",
          "name": "_pID",
          "type": "uint256"
        },
        {
          "internalType": "uint256",
          "name": "vote",
          "type": "uint256"
        },
        {
          "internalType": "uint256",
          "name": "numVotes",
          "type": "uint256"
        }
      ],
      "name": "castVote",
      "outputs": [],
      "stateMutability": "nonpayable",
      "type": "function"
    },
    {
      "inputs": [
        {
          "internalType": "uint256",
          "name": "_orgID",
          "type": "uint256"
        },
        {
          "internalType": "uint256",
          "name": "_pID",
          "type": "uint256"
        }
      ],
      "name": "checkProposalDuration",
      "outputs": [
        {
          "internalType": "uint256",
          "name": "",
          "type": "uint256"
        }
      ],
      "stateMutability": "view",
      "type": "function"
    },
    {
      "inputs": [
        {
          "internalType": "uint256",
          "name": "_orgID",
          "type": "uint256"
        },
        {
          "internalType": "uint256",
          "name": "_pID",
          "type": "uint256"
        }
      ],
      "name": "checkProposalStatus",
      "outputs": [
        {
          "internalType": "enum QVote.ProposalStatus",
          "name": "",
          "type": "uint8"
        }
      ],
      "stateMutability": "view",
      "type": "function"
    },
    {
      "inputs": [
        {
          "internalType": "uint256",
          "name": "_orgID",
          "type": "uint256"
        }
      ],
      "name": "checkUserBalance",
      "outputs": [
        {
          "internalType": "uint256",
          "name": "",
          "type": "uint256"
        }
      ],
      "stateMutability": "view",
      "type": "function"
    },
    {
      "inputs": [
        {
          "internalType": "string",
          "name": "_name",
          "type": "string"
        },
        {
          "internalType": "uint256",
          "name": "_cpv",
          "type": "uint256"
        }
      ],
      "name": "createNewOrganization",
      "outputs": [],
      "stateMutability": "nonpayable",
      "type": "function"
    },
    {
      "inputs": [
        {
          "internalType": "uint256",
          "name": "_duration",
          "type": "uint256"
        },
        {
          "internalType": "string",
          "name": "_desc",
          "type": "string"
        }
      ],
      "name": "createNewProposal",
      "outputs": [],
      "stateMutability": "nonpayable",
      "type": "function"
    },
    {
      "inputs": [
        {
          "internalType": "uint256",
          "name": "_orgID",
          "type": "uint256"
        },
        {
          "internalType": "address",
          "name": "account",
          "type": "address"
        },
        {
          "internalType": "uint256",
          "name": "amount",
          "type": "uint256"
        }
      ],
      "name": "mint",
      "outputs": [],
      "stateMutability": "nonpayable",
      "type": "function"
    },
    {
      "inputs": [
        {
          "internalType": "uint256",
          "name": "",
          "type": "uint256"
        }
      ],
      "name": "organizations",
      "outputs": [
        {
          "internalType": "address",
          "name": "creator",
          "type": "address"
        },
        {
          "internalType": "bool",
          "name": "isActive",
          "type": "bool"
        },
        {
          "internalType": "string",
          "name": "name",
          "type": "string"
        },
        {
          "internalType": "uint256",
          "name": "ProposalCount",
          "type": "uint256"
        },
        {
          "internalType": "uint256",
          "name": "creditsPerVoter",
          "type": "uint256"
        }
      ],
      "stateMutability": "view",
      "type": "function"
    },
    {
      "inputs": [],
      "name": "owner",
      "outputs": [
        {
          "internalType": "address",
          "name": "",
          "type": "address"
        }
      ],
      "stateMutability": "view",
      "type": "function"
    },
    {
      "inputs": [],
      "name": "renounceOwnership",
      "outputs": [],
      "stateMutability": "nonpayable",
      "type": "function"
    },
    {
      "inputs": [
        {
          "internalType": "uint256",
          "name": "_orgID",
          "type": "uint256"
        },
        {
          "internalType": "uint256",
          "name": "_pID",
          "type": "uint256"
        }
      ],
      "name": "setToEnded",
      "outputs": [],
      "stateMutability": "nonpayable",
      "type": "function"
    },
    {
      "inputs": [
        {
          "internalType": "uint256",
          "name": "_orgID",
          "type": "uint256"
        },
        {
          "internalType": "uint256",
          "name": "_pID",
          "type": "uint256"
        }
      ],
      "name": "setToTally",
      "outputs": [],
      "stateMutability": "nonpayable",
      "type": "function"
    },
    {
      "inputs": [
        {
          "internalType": "uint256",
          "name": "_orgID",
          "type": "uint256"
        },
        {
          "internalType": "uint256",
          "name": "_pid",
          "type": "uint256"
        }
      ],
      "name": "totalVotes",
      "outputs": [
        {
          "internalType": "uint256",
          "name": "",
          "type": "uint256"
        },
        {
          "internalType": "uint256",
          "name": "",
          "type": "uint256"
        }
      ],
      "stateMutability": "view",
      "type": "function"
    },
    {
      "inputs": [
        {
          "internalType": "address",
          "name": "newOwner",
          "type": "address"
        }
      ],
      "name": "transferOwnership",
      "outputs": [],
      "stateMutability": "nonpayable",
      "type": "function"
    }
  ],
  "bytecode": "0x60806040523480156200001157600080fd5b5062000032620000266200003860201b60201c565b6200004060201b60201c565b62000104565b600033905090565b60008060009054906101000a900473ffffffffffffffffffffffffffffffffffffffff169050816000806101000a81548173ffffffffffffffffffffffffffffffffffffffff021916908373ffffffffffffffffffffffffffffffffffffffff1602179055508173ffffffffffffffffffffffffffffffffffffffff168173ffffffffffffffffffffffffffffffffffffffff167f8be0079c531659141344cd1fd0a4f28419497f9722a3daafe3b4186f6b6457e060405160405180910390a35050565b612e1880620001146000396000f3fe608060405234801561001057600080fd5b50600436106100f55760003560e01c8063836a104011610097578063b2e95da211610066578063b2e95da21461026f578063e792dd8a1461028b578063f2fde38b146102bf578063fb7cc43b146102db576100f5565b8063836a1040146101e95780638da5cb5b14610205578063b11f644214610223578063b242c4c014610253576100f5565b806324a9ed8e116100d357806324a9ed8e1461014e5780632fc256c31461017f57806363645431146101af578063715018a6146101df576100f5565b80631c6fc850146100fa578063217950701461011657806324077b8714610132575b600080fd5b610114600480360381019061010f9190612040565b61030b565b005b610130600480360381019061012b9190612004565b6107c4565b005b61014c60048036038101906101479190611fac565b610ac6565b005b61016860048036038101906101639190612004565b610dbe565b6040516101769291906126a9565b60405180910390f35b61019960048036038101906101949190612004565b610e13565b6040516101a6919061268e565b60405180910390f35b6101c960048036038101906101c49190612004565b610f0a565b6040516101d69190612447565b60405180910390f35b6101e761100e565b005b61020360048036038101906101fe9190611f5d565b611096565b005b61020d611238565b60405161021a91906123d2565b60405180910390f35b61023d60048036038101906102389190611eb7565b611261565b60405161024a919061268e565b60405180910390f35b61026d60048036038101906102689190612004565b611279565b005b61028960048036038101906102849190611ee0565b61157b565b005b6102a560048036038101906102a09190611f34565b611808565b6040516102b69594939291906123ed565b60405180910390f35b6102d960048036038101906102d49190611eb7565b6118f3565b005b6102f560048036038101906102f09190611f34565b6119eb565b604051610302919061268e565b60405180910390f35b8360008111801561031e57506001548111155b61035d576040517f08c379a0000000000000000000000000000000000000000000000000000000008152600401610354906124ae565b60405180910390fd5b848460006003600084815260200190815260200160002060020154905060008211801561038a5750808211155b6103c9576040517f08c379a00000000000000000000000000000000000000000000000000000000081526004016103c09061258e565b60405180910390fd5b60006002811115610403577f4e487b7100000000000000000000000000000000000000000000000000000000600052602160045260246000fd5b61040d8989610f0a565b6002811115610445577f4e487b7100000000000000000000000000000000000000000000000000000000600052602160045260246000fd5b14610485576040517f08c379a000000000000000000000000000000000000000000000000000000000815260040161047c9061266e565b60405180910390fd5b6000600360008a815260200190815260200160002060050190506104a98989610e13565b8160008a815260200190815260200160002060040154426104ca919061283c565b1061050a576040517f08c379a0000000000000000000000000000000000000000000000000000000008152600401610501906125ce565b60405180910390fd5b610515898933611ab7565b610554576040517f08c379a000000000000000000000000000000000000000000000000000000000815260040161054b9061262e565b60405180910390fd5b8561055e8a6119eb565b101561059f576040517f08c379a00000000000000000000000000000000000000000000000000000000081526004016105969061250e565b60405180910390fd5b61060586600360008c815260200190815260200160002060040160003373ffffffffffffffffffffffffffffffffffffffff1673ffffffffffffffffffffffffffffffffffffffff16815260200190815260200160002054611b4090919063ffffffff16565b600360008b815260200190815260200160002060040160003373ffffffffffffffffffffffffffffffffffffffff1673ffffffffffffffffffffffffffffffffffffffff16815260200190815260200160002081905550600061066787611b56565b905060008260008b8152602001908152602001600020905060018914156106ac5761069f828260020154611bd090919063ffffffff16565b81600201819055506106cc565b6106c3828260030154611bd090919063ffffffff16565b81600301819055505b80600101339080600181540180825580915050600190039060005260206000200160009091909190916101000a81548173ffffffffffffffffffffffffffffffffffffffff021916908373ffffffffffffffffffffffffffffffffffffffff1602179055506040518060400160405280600115158152602001838152508160080160003373ffffffffffffffffffffffffffffffffffffffff1673ffffffffffffffffffffffffffffffffffffffff16815260200190815260200160002060008201518160000160006101000a81548160ff021916908315150217905550602082015181600101559050505050505050505050505050565b816000811180156107d757506001548111155b610816576040517f08c379a000000000000000000000000000000000000000000000000000000000815260040161080d906124ae565b60405180910390fd5b82826000600360008481526020019081526020016000206002015490506000821180156108435750808211155b610882576040517f08c379a00000000000000000000000000000000000000000000000000000000081526004016108799061258e565b60405180910390fd5b61088a611be6565b73ffffffffffffffffffffffffffffffffffffffff166108a8611238565b73ffffffffffffffffffffffffffffffffffffffff16146108fe576040517f08c379a00000000000000000000000000000000000000000000000000000000081526004016108f5906125ae565b60405180910390fd5b600060036000888152602001908152602001600020600501905060016002811115610952577f4e487b7100000000000000000000000000000000000000000000000000000000600052602160045260246000fd5b81600088815260200190815260200160002060070160009054906101000a900460ff1660028111156109ad577f4e487b7100000000000000000000000000000000000000000000000000000000600052602160045260246000fd5b146109ed576040517f08c379a00000000000000000000000000000000000000000000000000000000081526004016109e49061254e565b60405180910390fd5b6109f78787610e13565b8160008881526020019081526020016000206004015442610a18919061283c565b1015610a59576040517f08c379a0000000000000000000000000000000000000000000000000000000008152600401610a50906124ee565b60405180910390fd5b600281600088815260200190815260200160002060070160006101000a81548160ff02191690836002811115610ab8577f4e487b7100000000000000000000000000000000000000000000000000000000600052602160045260246000fd5b021790555050505050505050565b610ace611be6565b73ffffffffffffffffffffffffffffffffffffffff16610aec611238565b73ffffffffffffffffffffffffffffffffffffffff1614610b42576040517f08c379a0000000000000000000000000000000000000000000000000000000008152600401610b39906125ae565b60405180910390fd5b60008311610b85576040517f08c379a0000000000000000000000000000000000000000000000000000000008152600401610b7c9061252e565b60405180910390fd5b6000600260003373ffffffffffffffffffffffffffffffffffffffff1673ffffffffffffffffffffffffffffffffffffffff168152602001908152602001600020549050600115156003600083815260200190815260200160002060000160149054906101000a900460ff16151514610c33576040517f08c379a0000000000000000000000000000000000000000000000000000000008152600401610c2a9061256e565b60405180910390fd5b600360008281526020019081526020016000206002016000815480929190610c5a90612982565b919050555060006003600083815260200190815260200160002060020154905060006003600084815260200190815260200160002060050160008381526020019081526020016000209050338160000160006101000a81548173ffffffffffffffffffffffffffffffffffffffff021916908373ffffffffffffffffffffffffffffffffffffffff1602179055508484826006019190610cfb929190611cb2565b5085816005018190555042816004018190555060008160070160006101000a81548160ff02191690836002811115610d5c577f4e487b7100000000000000000000000000000000000000000000000000000000600052602160045260246000fd5b021790555060008160020181905550600081600301819055507f7220750673011f23ee3479464b1b18166fc740ed5fc50eedc5679287c654af9e838333898989604051610dae969594939291906126d2565b60405180910390a1505050505050565b6000806000600360008681526020019081526020016000206005019050806000858152602001908152602001600020600201548160008681526020019081526020016000206003015492509250509250929050565b600082600081118015610e2857506001548111155b610e67576040517f08c379a0000000000000000000000000000000000000000000000000000000008152600401610e5e906124ae565b60405180910390fd5b8383600060036000848152602001908152602001600020600201549050600082118015610e945750808211155b610ed3576040517f08c379a0000000000000000000000000000000000000000000000000000000008152600401610eca9061258e565b60405180910390fd5b6003600088815260200190815260200160002060050160008781526020019081526020016000206005015494505050505092915050565b600082600081118015610f1f57506001548111155b610f5e576040517f08c379a0000000000000000000000000000000000000000000000000000000008152600401610f55906124ae565b60405180910390fd5b8383600060036000848152602001908152602001600020600201549050600082118015610f8b5750808211155b610fca576040517f08c379a0000000000000000000000000000000000000000000000000000000008152600401610fc19061258e565b60405180910390fd5b60036000888152602001908152602001600020600501600087815260200190815260200160002060070160009054906101000a900460ff1694505050505092915050565b611016611be6565b73ffffffffffffffffffffffffffffffffffffffff16611034611238565b73ffffffffffffffffffffffffffffffffffffffff161461108a576040517f08c379a0000000000000000000000000000000000000000000000000000000008152600401611081906125ae565b60405180910390fd5b6110946000611bee565b565b61109e611be6565b73ffffffffffffffffffffffffffffffffffffffff166110bc611238565b73ffffffffffffffffffffffffffffffffffffffff1614611112576040517f08c379a0000000000000000000000000000000000000000000000000000000008152600401611109906125ae565b60405180910390fd5b600073ffffffffffffffffffffffffffffffffffffffff168273ffffffffffffffffffffffffffffffffffffffff161415611182576040517f08c379a00000000000000000000000000000000000000000000000000000000081526004016111799061264e565b60405180910390fd5b60006003600085815260200190815260200160002090506111ed828260040160008673ffffffffffffffffffffffffffffffffffffffff1673ffffffffffffffffffffffffffffffffffffffff16815260200190815260200160002054611bd090919063ffffffff16565b8160040160008573ffffffffffffffffffffffffffffffffffffffff1673ffffffffffffffffffffffffffffffffffffffff1681526020019081526020016000208190555050505050565b60008060009054906101000a900473ffffffffffffffffffffffffffffffffffffffff16905090565b60026020528060005260406000206000915090505481565b8160008111801561128c57506001548111155b6112cb576040517f08c379a00000000000000000000000000000000000000000000000000000000081526004016112c2906124ae565b60405180910390fd5b82826000600360008481526020019081526020016000206002015490506000821180156112f85750808211155b611337576040517f08c379a000000000000000000000000000000000000000000000000000000000815260040161132e9061258e565b60405180910390fd5b61133f611be6565b73ffffffffffffffffffffffffffffffffffffffff1661135d611238565b73ffffffffffffffffffffffffffffffffffffffff16146113b3576040517f08c379a00000000000000000000000000000000000000000000000000000000081526004016113aa906125ae565b60405180910390fd5b600060036000888152602001908152602001600020600501905060006002811115611407577f4e487b7100000000000000000000000000000000000000000000000000000000600052602160045260246000fd5b81600088815260200190815260200160002060070160009054906101000a900460ff166002811115611462577f4e487b7100000000000000000000000000000000000000000000000000000000600052602160045260246000fd5b146114a2576040517f08c379a00000000000000000000000000000000000000000000000000000000081526004016114999061260e565b60405180910390fd5b6114ac8787610e13565b81600088815260200190815260200160002060040154426114cd919061283c565b101561150e576040517f08c379a0000000000000000000000000000000000000000000000000000000008152600401611505906124ee565b60405180910390fd5b600181600088815260200190815260200160002060070160006101000a81548160ff0219169083600281111561156d577f4e487b7100000000000000000000000000000000000000000000000000000000600052602160045260246000fd5b021790555050505050505050565b611583611be6565b73ffffffffffffffffffffffffffffffffffffffff166115a1611238565b73ffffffffffffffffffffffffffffffffffffffff16146115f7576040517f08c379a00000000000000000000000000000000000000000000000000000000081526004016115ee906125ae565b60405180910390fd5b6000151560036000600260003373ffffffffffffffffffffffffffffffffffffffff1673ffffffffffffffffffffffffffffffffffffffff16815260200190815260200160002054815260200190815260200160002060000160149054906101000a900460ff161515146116a0576040517f08c379a0000000000000000000000000000000000000000000000000000000008152600401611697906125ee565b60405180910390fd5b600160008154809291906116b390612982565b919050555060006003600060015481526020019081526020016000209050600154600260003373ffffffffffffffffffffffffffffffffffffffff1673ffffffffffffffffffffffffffffffffffffffff16815260200190815260200160002081905550338160000160006101000a81548173ffffffffffffffffffffffffffffffffffffffff021916908373ffffffffffffffffffffffffffffffffffffffff16021790555060018160000160146101000a81548160ff0219169083151502179055508281600101908051906020019061178f929190611d38565b508181600301819055507f937f2b54dd963e42446345dae3f5b6d4e6157e1b329836d3850f429673b993eb816001018260000160009054906101000a900473ffffffffffffffffffffffffffffffffffffffff1660015484600301546040516117fb9493929190612462565b60405180910390a1505050565b60036020528060005260406000206000915090508060000160009054906101000a900473ffffffffffffffffffffffffffffffffffffffff16908060000160149054906101000a900460ff16908060010180546118649061291f565b80601f01602080910402602001604051908101604052809291908181526020018280546118909061291f565b80156118dd5780601f106118b2576101008083540402835291602001916118dd565b820191906000526020600020905b8154815290600101906020018083116118c057829003601f168201915b5050505050908060020154908060030154905085565b6118fb611be6565b73ffffffffffffffffffffffffffffffffffffffff16611919611238565b73ffffffffffffffffffffffffffffffffffffffff161461196f576040517f08c379a0000000000000000000000000000000000000000000000000000000008152600401611966906125ae565b60405180910390fd5b600073ffffffffffffffffffffffffffffffffffffffff168173ffffffffffffffffffffffffffffffffffffffff1614156119df576040517f08c379a00000000000000000000000000000000000000000000000000000000081526004016119d6906124ce565b60405180910390fd5b6119e881611bee565b50565b60008073ffffffffffffffffffffffffffffffffffffffff163373ffffffffffffffffffffffffffffffffffffffff161415611a5c576040517f08c379a0000000000000000000000000000000000000000000000000000000008152600401611a539061264e565b60405180910390fd5b6003600083815260200190815260200160002060040160003373ffffffffffffffffffffffffffffffffffffffff1673ffffffffffffffffffffffffffffffffffffffff168152602001908152602001600020549050919050565b600080151560036000868152602001908152602001600020600501600085815260200190815260200160002060080160008473ffffffffffffffffffffffffffffffffffffffff1673ffffffffffffffffffffffffffffffffffffffff16815260200190815260200160002060000160009054906101000a900460ff1615151490509392505050565b60008183611b4e919061283c565b905092915050565b60006003821115611bbd5781905060006001600284611b75919061280b565b611b7f91906127b5565b90505b81811015611bb7578091506002818285611b9c919061280b565b611ba691906127b5565b611bb0919061280b565b9050611b82565b50611bcb565b60008214611bca57600190505b5b919050565b60008183611bde91906127b5565b905092915050565b600033905090565b60008060009054906101000a900473ffffffffffffffffffffffffffffffffffffffff169050816000806101000a81548173ffffffffffffffffffffffffffffffffffffffff021916908373ffffffffffffffffffffffffffffffffffffffff1602179055508173ffffffffffffffffffffffffffffffffffffffff168173ffffffffffffffffffffffffffffffffffffffff167f8be0079c531659141344cd1fd0a4f28419497f9722a3daafe3b4186f6b6457e060405160405180910390a35050565b828054611cbe9061291f565b90600052602060002090601f016020900481019282611ce05760008555611d27565b82601f10611cf957803560ff1916838001178555611d27565b82800160010185558215611d27579182015b82811115611d26578235825591602001919060010190611d0b565b5b509050611d349190611dbe565b5090565b828054611d449061291f565b90600052602060002090601f016020900481019282611d665760008555611dad565b82601f10611d7f57805160ff1916838001178555611dad565b82800160010185558215611dad579182015b82811115611dac578251825591602001919060010190611d91565b5b509050611dba9190611dbe565b5090565b5b80821115611dd7576000816000905550600101611dbf565b5090565b6000611dee611de984612753565b61272e565b905082815260208101848484011115611e0657600080fd5b611e118482856128dd565b509392505050565b600081359050611e2881612db4565b92915050565b60008083601f840112611e4057600080fd5b8235905067ffffffffffffffff811115611e5957600080fd5b602083019150836001820283011115611e7157600080fd5b9250929050565b600082601f830112611e8957600080fd5b8135611e99848260208601611ddb565b91505092915050565b600081359050611eb181612dcb565b92915050565b600060208284031215611ec957600080fd5b6000611ed784828501611e19565b91505092915050565b60008060408385031215611ef357600080fd5b600083013567ffffffffffffffff811115611f0d57600080fd5b611f1985828601611e78565b9250506020611f2a85828601611ea2565b9150509250929050565b600060208284031215611f4657600080fd5b6000611f5484828501611ea2565b91505092915050565b600080600060608486031215611f7257600080fd5b6000611f8086828701611ea2565b9350506020611f9186828701611e19565b9250506040611fa286828701611ea2565b9150509250925092565b600080600060408486031215611fc157600080fd5b6000611fcf86828701611ea2565b935050602084013567ffffffffffffffff811115611fec57600080fd5b611ff886828701611e2e565b92509250509250925092565b6000806040838503121561201757600080fd5b600061202585828601611ea2565b925050602061203685828601611ea2565b9150509250929050565b6000806000806080858703121561205657600080fd5b600061206487828801611ea2565b945050602061207587828801611ea2565b935050604061208687828801611ea2565b925050606061209787828801611ea2565b91505092959194509250565b6120ac81612870565b82525050565b6120bb81612882565b82525050565b6120ca816128cb565b82525050565b60006120dc83856127a4565b93506120e98385846128dd565b6120f283612ab6565b840190509392505050565b600061210882612799565b61211281856127a4565b93506121228185602086016128ec565b61212b81612ab6565b840191505092915050565b600081546121438161291f565b61214d81866127a4565b94506001821660008114612168576001811461217a576121ad565b60ff19831686526020860193506121ad565b61218385612784565b60005b838110156121a557815481890152600182019150602081019050612186565b808801955050505b50505092915050565b60006121c36017836127a4565b91506121ce82612ac7565b602082019050919050565b60006121e66026836127a4565b91506121f182612af0565b604082019050919050565b60006122096018836127a4565b915061221482612b3f565b602082019050919050565b600061222c6013836127a4565b915061223782612b68565b602082019050919050565b600061224f601e836127a4565b915061225a82612b91565b602082019050919050565b6000612272601c836127a4565b915061227d82612bba565b602082019050919050565b6000612295602c836127a4565b91506122a082612be3565b604082019050919050565b60006122b86013836127a4565b91506122c382612c32565b602082019050919050565b60006122db6020836127a4565b91506122e682612c5b565b602082019050919050565b60006122fe6011836127a4565b915061230982612c84565b602082019050919050565b60006123216031836127a4565b915061232c82612cad565b604082019050919050565b60006123446015836127a4565b915061234f82612cfc565b602082019050919050565b60006123676018836127a4565b915061237282612d25565b602082019050919050565b600061238a600f836127a4565b915061239582612d4e565b602082019050919050565b60006123ad6014836127a4565b91506123b882612d77565b602082019050919050565b6123cc816128c1565b82525050565b60006020820190506123e760008301846120a3565b92915050565b600060a08201905061240260008301886120a3565b61240f60208301876120b2565b818103604083015261242181866120fd565b905061243060608301856123c3565b61243d60808301846123c3565b9695505050505050565b600060208201905061245c60008301846120c1565b92915050565b6000608082019050818103600083015261247c8187612136565b905061248b60208301866120a3565b61249860408301856123c3565b6124a560608301846123c3565b95945050505050565b600060208201905081810360008301526124c7816121b6565b9050919050565b600060208201905081810360008301526124e7816121d9565b9050919050565b60006020820190508181036000830152612507816121fc565b9050919050565b600060208201905081810360008301526125278161221f565b9050919050565b6000602082019050818103600083015261254781612242565b9050919050565b6000602082019050818103600083015261256781612265565b9050919050565b6000602082019050818103600083015261258781612288565b9050919050565b600060208201905081810360008301526125a7816122ab565b9050919050565b600060208201905081810360008301526125c7816122ce565b9050919050565b600060208201905081810360008301526125e7816122f1565b9050919050565b6000602082019050818103600083015261260781612314565b9050919050565b6000602082019050818103600083015261262781612337565b9050919050565b600060208201905081810360008301526126478161235a565b9050919050565b600060208201905081810360008301526126678161237d565b9050919050565b60006020820190508181036000830152612687816123a0565b9050919050565b60006020820190506126a360008301846123c3565b92915050565b60006040820190506126be60008301856123c3565b6126cb60208301846123c3565b9392505050565b600060a0820190506126e760008301896123c3565b6126f460208301886123c3565b61270160408301876120a3565b61270e60608301866123c3565b81810360808301526127218184866120d0565b9050979650505050505050565b6000612738612749565b90506127448282612951565b919050565b6000604051905090565b600067ffffffffffffffff82111561276e5761276d612a87565b5b61277782612ab6565b9050602081019050919050565b60008190508160005260206000209050919050565b600081519050919050565b600082825260208201905092915050565b60006127c0826128c1565b91506127cb836128c1565b9250827fffffffffffffffffffffffffffffffffffffffffffffffffffffffffffffffff03821115612800576127ff6129cb565b5b828201905092915050565b6000612816826128c1565b9150612821836128c1565b925082612831576128306129fa565b5b828204905092915050565b6000612847826128c1565b9150612852836128c1565b925082821015612865576128646129cb565b5b828203905092915050565b600061287b826128a1565b9050919050565b60008115159050919050565b600081905061289c82612da0565b919050565b600073ffffffffffffffffffffffffffffffffffffffff82169050919050565b6000819050919050565b60006128d68261288e565b9050919050565b82818337600083830152505050565b60005b8381101561290a5780820151818401526020810190506128ef565b83811115612919576000848401525b50505050565b6000600282049050600182168061293757607f821691505b6020821081141561294b5761294a612a58565b5b50919050565b61295a82612ab6565b810181811067ffffffffffffffff8211171561297957612978612a87565b5b80604052505050565b600061298d826128c1565b91507fffffffffffffffffffffffffffffffffffffffffffffffffffffffffffffffff8214156129c0576129bf6129cb565b5b600182019050919050565b7f4e487b7100000000000000000000000000000000000000000000000000000000600052601160045260246000fd5b7f4e487b7100000000000000000000000000000000000000000000000000000000600052601260045260246000fd5b7f4e487b7100000000000000000000000000000000000000000000000000000000600052602160045260246000fd5b7f4e487b7100000000000000000000000000000000000000000000000000000000600052602260045260246000fd5b7f4e487b7100000000000000000000000000000000000000000000000000000000600052604160045260246000fd5b6000601f19601f8301169050919050565b7f496e76616c6964206f7267616e697a6174696f6e204944000000000000000000600082015250565b7f4f776e61626c653a206e6577206f776e657220697320746865207a65726f206160008201527f6464726573730000000000000000000000000000000000000000000000000000602082015250565b7f766f74696e6720686176656e7420656e64656420796574210000000000000000600082015250565b7f496e73756666696369656e7420546f6b656e7300000000000000000000000000600082015250565b7f4475726174696f6e2073686f756c64206265206d6f7265207468616e20300000600082015250565b7f566f74696e672069736e277420696e2054616c6c792073746174652100000000600082015250565b7f4e6f20616374697665206f7267616e697a6174696f6e2077697468206375727260008201527f656e742061646472657373210000000000000000000000000000000000000000602082015250565b7f496e76616c69642050726f706f73616c20494400000000000000000000000000600082015250565b7f4f776e61626c653a2063616c6c6572206973206e6f7420746865206f776e6572600082015250565b7f766f74696e672068617320656e64656421000000000000000000000000000000600082015250565b7f416e206f7267616e697a6174696f6e207769746820746869732061646472657360008201527f7320616c72656164792065786973747321000000000000000000000000000000602082015250565b7f566f74696e672069736e2774206f6e676f696e67210000000000000000000000600082015250565b7f566f746572206861766520616c726561647920766f7465640000000000000000600082015250565b7f696e76616c6964206163636f756e740000000000000000000000000000000000600082015250565b7f766f74696e672069736e2774206f6e676f696e67000000000000000000000000600082015250565b60038110612db157612db0612a29565b5b50565b612dbd81612870565b8114612dc857600080fd5b50565b612dd4816128c1565b8114612ddf57600080fd5b5056fea26469706673582212206e9a67fae1ba8d8c35a7fdc73a31884883a53a7a4eecba5f7d43e85e30038e2264736f6c63430008040033",
  "linkReferences": {},
  "deployedLinkReferences": {}
}