{
  "_format": "hh-sol-artifact-1",
  "contractName": "QVote",
  "sourceName": "src/hardhat/contracts/Qvote.sol",
  "abi": [
    {
      "inputs": [],
      "stateMutability": "nonpayable",
      "type": "constructor"
    },
    {
      "anonymous": false,
      "inputs": [
        {
          "indexed": false,
          "internalType": "string",
          "name": "name",
          "type": "string"
        },
        {
          "indexed": false,
          "internalType": "address",
          "name": "creator",
          "type": "address"
        },
        {
          "indexed": false,
          "internalType": "uint256",
          "name": "organizationCount",
          "type": "uint256"
        },
        {
          "indexed": false,
          "internalType": "uint256",
          "name": "ownerind",
          "type": "uint256"
        },
        {
          "indexed": false,
          "internalType": "uint256",
          "name": "creditsPerVoter",
          "type": "uint256"
        }
      ],
      "name": "newOrganizationCreated",
      "type": "event"
    },
    {
      "anonymous": false,
      "inputs": [
        {
          "indexed": false,
          "internalType": "uint256",
          "name": "orgID",
          "type": "uint256"
        },
        {
          "indexed": false,
          "internalType": "string",
          "name": "title",
          "type": "string"
        },
        {
          "indexed": false,
          "internalType": "uint256",
          "name": "ProposalId",
          "type": "uint256"
        },
        {
          "indexed": false,
          "internalType": "address",
          "name": "creator",
          "type": "address"
        },
        {
          "indexed": false,
          "internalType": "uint256",
          "name": "duration",
          "type": "uint256"
        },
        {
          "indexed": false,
          "internalType": "string",
          "name": "description",
          "type": "string"
        }
      ],
      "name": "newProposalCreated",
      "type": "event"
    },
    {
      "inputs": [
        {
          "internalType": "uint256",
          "name": "",
          "type": "uint256"
        },
        {
          "internalType": "uint256",
          "name": "",
          "type": "uint256"
        }
      ],
      "name": "OrgUsers",
      "outputs": [
        {
          "internalType": "address",
          "name": "",
          "type": "address"
        }
      ],
      "stateMutability": "view",
      "type": "function"
    },
    {
      "inputs": [
        {
          "internalType": "address",
          "name": "",
          "type": "address"
        }
      ],
      "name": "OrganizationContracts",
      "outputs": [
        {
          "internalType": "bool",
          "name": "",
          "type": "bool"
        }
      ],
      "stateMutability": "view",
      "type": "function"
    },
    {
      "inputs": [
        {
          "internalType": "address",
          "name": "",
          "type": "address"
        }
      ],
      "name": "OrganizationOwners",
      "outputs": [
        {
          "internalType": "uint256",
          "name": "",
          "type": "uint256"
        }
      ],
      "stateMutability": "view",
      "type": "function"
    },
    {
      "inputs": [
        {
          "internalType": "uint256",
          "name": "",
          "type": "uint256"
        }
      ],
      "name": "allProposals",
      "outputs": [
        {
          "internalType": "address",
          "name": "creator",
          "type": "address"
        },
        {
          "internalType": "uint256",
          "name": "pid",
          "type": "uint256"
        },
        {
          "internalType": "string",
          "name": "title",
          "type": "string"
        },
        {
          "internalType": "uint256",
          "name": "upVotes",
          "type": "uint256"
        },
        {
          "internalType": "uint256",
          "name": "downVotes",
          "type": "uint256"
        },
        {
          "internalType": "uint256",
          "name": "creationTime",
          "type": "uint256"
        },
        {
          "internalType": "uint256",
          "name": "duration",
          "type": "uint256"
        },
        {
          "internalType": "string",
          "name": "description",
          "type": "string"
        }
      ],
      "stateMutability": "view",
      "type": "function"
    },
    {
      "inputs": [
        {
          "internalType": "uint256",
          "name": "_orgID",
          "type": "uint256"
        }
      ],
      "name": "allowMinting",
      "outputs": [],
      "stateMutability": "nonpayable",
      "type": "function"
    },
    {
      "inputs": [
        {
          "internalType": "uint256",
          "name": "_orgID",
          "type": "uint256"
        }
      ],
      "name": "blockMinting",
      "outputs": [],
      "stateMutability": "nonpayable",
      "type": "function"
    },
    {
      "inputs": [
        {
          "internalType": "uint256",
          "name": "",
          "type": "uint256"
        },
        {
          "internalType": "address",
          "name": "",
          "type": "address"
        }
      ],
      "name": "canMint",
      "outputs": [
        {
          "internalType": "bool",
          "name": "",
          "type": "bool"
        }
      ],
      "stateMutability": "view",
      "type": "function"
    },
    {
      "inputs": [
        {
          "internalType": "uint256",
          "name": "_orgID",
          "type": "uint256"
        },
        {
          "internalType": "uint256",
          "name": "_pID",
          "type": "uint256"
        },
        {
          "internalType": "uint256",
          "name": "vote",
          "type": "uint256"
        },
        {
          "internalType": "uint256",
          "name": "numVotes",
          "type": "uint256"
        }
      ],
      "name": "castVote",
      "outputs": [],
      "stateMutability": "nonpayable",
      "type": "function"
    },
    {
      "inputs": [
        {
          "internalType": "uint256",
          "name": "_cpv",
          "type": "uint256"
        }
      ],
      "name": "changeCreditsPerVote",
      "outputs": [
        {
          "internalType": "uint256",
          "name": "",
          "type": "uint256"
        }
      ],
      "stateMutability": "nonpayable",
      "type": "function"
    },
    {
      "inputs": [],
      "name": "checkOrgActive",
      "outputs": [
        {
          "internalType": "bool",
          "name": "",
          "type": "bool"
        }
      ],
      "stateMutability": "view",
      "type": "function"
    },
    {
      "inputs": [
        {
          "internalType": "uint256",
          "name": "_orgID",
          "type": "uint256"
        },
        {
          "internalType": "uint256",
          "name": "_pID",
          "type": "uint256"
        }
      ],
      "name": "checkProposalDuration",
      "outputs": [
        {
          "internalType": "uint256",
          "name": "",
          "type": "uint256"
        }
      ],
      "stateMutability": "view",
      "type": "function"
    },
    {
      "inputs": [
        {
          "internalType": "uint256",
          "name": "_orgID",
          "type": "uint256"
        }
      ],
      "name": "checkUserBalance",
      "outputs": [
        {
          "internalType": "uint256",
          "name": "",
          "type": "uint256"
        }
      ],
      "stateMutability": "view",
      "type": "function"
    },
    {
      "inputs": [
        {
          "internalType": "uint256",
          "name": "_orgID",
          "type": "uint256"
        }
      ],
      "name": "checkUserMintStatus",
      "outputs": [
        {
          "internalType": "bool",
          "name": "",
          "type": "bool"
        }
      ],
      "stateMutability": "view",
      "type": "function"
    },
    {
      "inputs": [
        {
          "internalType": "string",
          "name": "_name",
          "type": "string"
        },
        {
          "internalType": "uint256",
          "name": "_cpv",
          "type": "uint256"
        },
        {
          "internalType": "address",
          "name": "account",
          "type": "address"
        }
      ],
      "name": "createNewOrganization",
      "outputs": [],
      "stateMutability": "nonpayable",
      "type": "function"
    },
    {
      "inputs": [
        {
          "internalType": "uint256",
          "name": "_duration",
          "type": "uint256"
        },
        {
          "internalType": "string",
          "name": "_title",
          "type": "string"
        },
        {
          "internalType": "string",
          "name": "_desc",
          "type": "string"
        }
      ],
      "name": "createNewProposal",
      "outputs": [],
      "stateMutability": "nonpayable",
      "type": "function"
    },
    {
      "inputs": [],
      "name": "getAllOrganization",
      "outputs": [
        {
          "components": [
            {
              "internalType": "address",
              "name": "creator",
              "type": "address"
            },
            {
              "internalType": "address",
              "name": "contractAddress",
              "type": "address"
            },
            {
              "internalType": "uint256",
              "name": "oid",
              "type": "uint256"
            },
            {
              "internalType": "bool",
              "name": "isActive",
              "type": "bool"
            },
            {
              "internalType": "string",
              "name": "name",
              "type": "string"
            },
            {
              "internalType": "uint256",
              "name": "ProposalCount",
              "type": "uint256"
            },
            {
              "internalType": "uint256",
              "name": "creditsPerVoter",
              "type": "uint256"
            },
            {
              "internalType": "uint256",
              "name": "totalTokenSupply",
              "type": "uint256"
            }
          ],
          "internalType": "struct supportContract.Organization[]",
          "name": "",
          "type": "tuple[]"
        }
      ],
      "stateMutability": "view",
      "type": "function"
    },
    {
      "inputs": [],
      "name": "getAllProposals",
      "outputs": [
        {
          "components": [
            {
              "internalType": "address",
              "name": "creator",
              "type": "address"
            },
            {
              "internalType": "uint256",
              "name": "pid",
              "type": "uint256"
            },
            {
              "internalType": "string",
              "name": "title",
              "type": "string"
            },
            {
              "internalType": "address[]",
              "name": "voters",
              "type": "address[]"
            },
            {
              "internalType": "uint256",
              "name": "upVotes",
              "type": "uint256"
            },
            {
              "internalType": "uint256",
              "name": "downVotes",
              "type": "uint256"
            },
            {
              "internalType": "uint256",
              "name": "creationTime",
              "type": "uint256"
            },
            {
              "internalType": "uint256",
              "name": "duration",
              "type": "uint256"
            },
            {
              "internalType": "string",
              "name": "description",
              "type": "string"
            }
          ],
          "internalType": "struct supportContract.Proposal[]",
          "name": "",
          "type": "tuple[]"
        }
      ],
      "stateMutability": "view",
      "type": "function"
    },
    {
      "inputs": [],
      "name": "getMyOrganization",
      "outputs": [
        {
          "components": [
            {
              "internalType": "address",
              "name": "creator",
              "type": "address"
            },
            {
              "internalType": "address",
              "name": "contractAddress",
              "type": "address"
            },
            {
              "internalType": "uint256",
              "name": "oid",
              "type": "uint256"
            },
            {
              "internalType": "bool",
              "name": "isActive",
              "type": "bool"
            },
            {
              "internalType": "string",
              "name": "name",
              "type": "string"
            },
            {
              "internalType": "uint256",
              "name": "ProposalCount",
              "type": "uint256"
            },
            {
              "internalType": "uint256",
              "name": "creditsPerVoter",
              "type": "uint256"
            },
            {
              "internalType": "uint256",
              "name": "totalTokenSupply",
              "type": "uint256"
            }
          ],
          "internalType": "struct supportContract.Organization",
          "name": "",
          "type": "tuple"
        }
      ],
      "stateMutability": "view",
      "type": "function"
    },
    {
      "inputs": [
        {
          "internalType": "uint256",
          "name": "_orgID",
          "type": "uint256"
        }
      ],
      "name": "getOrgMembers",
      "outputs": [
        {
          "internalType": "address[]",
          "name": "",
          "type": "address[]"
        }
      ],
      "stateMutability": "view",
      "type": "function"
    },
    {
      "inputs": [
        {
          "internalType": "uint256",
          "name": "_orgID",
          "type": "uint256"
        }
      ],
      "name": "getOrgMembersCount",
      "outputs": [
        {
          "internalType": "uint256",
          "name": "",
          "type": "uint256"
        }
      ],
      "stateMutability": "view",
      "type": "function"
    },
    {
      "inputs": [
        {
          "internalType": "uint256",
          "name": "orgID",
          "type": "uint256"
        }
      ],
      "name": "getOrgProposals",
      "outputs": [
        {
          "components": [
            {
              "internalType": "address",
              "name": "creator",
              "type": "address"
            },
            {
              "internalType": "uint256",
              "name": "pid",
              "type": "uint256"
            },
            {
              "internalType": "string",
              "name": "title",
              "type": "string"
            },
            {
              "internalType": "address[]",
              "name": "voters",
              "type": "address[]"
            },
            {
              "internalType": "uint256",
              "name": "upVotes",
              "type": "uint256"
            },
            {
              "internalType": "uint256",
              "name": "downVotes",
              "type": "uint256"
            },
            {
              "internalType": "uint256",
              "name": "creationTime",
              "type": "uint256"
            },
            {
              "internalType": "uint256",
              "name": "duration",
              "type": "uint256"
            },
            {
              "internalType": "string",
              "name": "description",
              "type": "string"
            }
          ],
          "internalType": "struct supportContract.Proposal[]",
          "name": "",
          "type": "tuple[]"
        }
      ],
      "stateMutability": "view",
      "type": "function"
    },
    {
      "inputs": [
        {
          "internalType": "uint256",
          "name": "_orgID",
          "type": "uint256"
        }
      ],
      "name": "getUserOrganization",
      "outputs": [
        {
          "components": [
            {
              "internalType": "address",
              "name": "creator",
              "type": "address"
            },
            {
              "internalType": "address",
              "name": "contractAddress",
              "type": "address"
            },
            {
              "internalType": "uint256",
              "name": "oid",
              "type": "uint256"
            },
            {
              "internalType": "bool",
              "name": "isActive",
              "type": "bool"
            },
            {
              "internalType": "string",
              "name": "name",
              "type": "string"
            },
            {
              "internalType": "uint256",
              "name": "ProposalCount",
              "type": "uint256"
            },
            {
              "internalType": "uint256",
              "name": "creditsPerVoter",
              "type": "uint256"
            },
            {
              "internalType": "uint256",
              "name": "totalTokenSupply",
              "type": "uint256"
            }
          ],
          "internalType": "struct supportContract.Organization",
          "name": "",
          "type": "tuple"
        }
      ],
      "stateMutability": "view",
      "type": "function"
    },
    {
      "inputs": [
        {
          "internalType": "uint256",
          "name": "_oID",
          "type": "uint256"
        }
      ],
      "name": "getUserOrganizationTokenSupply",
      "outputs": [
        {
          "internalType": "uint256",
          "name": "",
          "type": "uint256"
        }
      ],
      "stateMutability": "view",
      "type": "function"
    },
    {
      "inputs": [],
      "name": "getuserProposals",
      "outputs": [
        {
          "components": [
            {
              "internalType": "address",
              "name": "creator",
              "type": "address"
            },
            {
              "internalType": "uint256",
              "name": "pid",
              "type": "uint256"
            },
            {
              "internalType": "string",
              "name": "title",
              "type": "string"
            },
            {
              "internalType": "address[]",
              "name": "voters",
              "type": "address[]"
            },
            {
              "internalType": "uint256",
              "name": "upVotes",
              "type": "uint256"
            },
            {
              "internalType": "uint256",
              "name": "downVotes",
              "type": "uint256"
            },
            {
              "internalType": "uint256",
              "name": "creationTime",
              "type": "uint256"
            },
            {
              "internalType": "uint256",
              "name": "duration",
              "type": "uint256"
            },
            {
              "internalType": "string",
              "name": "description",
              "type": "string"
            }
          ],
          "internalType": "struct supportContract.Proposal[]",
          "name": "",
          "type": "tuple[]"
        }
      ],
      "stateMutability": "view",
      "type": "function"
    },
    {
      "inputs": [
        {
          "internalType": "uint256",
          "name": "",
          "type": "uint256"
        },
        {
          "internalType": "address",
          "name": "",
          "type": "address"
        }
      ],
      "name": "isMember",
      "outputs": [
        {
          "internalType": "bool",
          "name": "",
          "type": "bool"
        }
      ],
      "stateMutability": "view",
      "type": "function"
    },
    {
      "inputs": [
        {
          "internalType": "uint256",
          "name": "_orgID",
          "type": "uint256"
        }
      ],
      "name": "mint",
      "outputs": [],
      "stateMutability": "nonpayable",
      "type": "function"
    },
    {
      "inputs": [],
      "name": "organizationCount",
      "outputs": [
        {
          "internalType": "uint256",
          "name": "",
          "type": "uint256"
        }
      ],
      "stateMutability": "view",
      "type": "function"
    },
    {
      "inputs": [
        {
          "internalType": "uint256",
          "name": "",
          "type": "uint256"
        }
      ],
      "name": "organizations",
      "outputs": [
        {
          "internalType": "address",
          "name": "creator",
          "type": "address"
        },
        {
          "internalType": "address",
          "name": "contractAddress",
          "type": "address"
        },
        {
          "internalType": "uint256",
          "name": "oid",
          "type": "uint256"
        },
        {
          "internalType": "bool",
          "name": "isActive",
          "type": "bool"
        },
        {
          "internalType": "string",
          "name": "name",
          "type": "string"
        },
        {
          "internalType": "uint256",
          "name": "ProposalCount",
          "type": "uint256"
        },
        {
          "internalType": "uint256",
          "name": "creditsPerVoter",
          "type": "uint256"
        },
        {
          "internalType": "uint256",
          "name": "totalTokenSupply",
          "type": "uint256"
        }
      ],
      "stateMutability": "view",
      "type": "function"
    },
    {
      "inputs": [],
      "name": "owner",
      "outputs": [
        {
          "internalType": "address",
          "name": "",
          "type": "address"
        }
      ],
      "stateMutability": "view",
      "type": "function"
    },
    {
      "inputs": [
        {
          "internalType": "uint256",
          "name": "",
          "type": "uint256"
        },
        {
          "internalType": "uint256",
          "name": "",
          "type": "uint256"
        }
      ],
      "name": "proposalList",
      "outputs": [
        {
          "internalType": "address",
          "name": "creator",
          "type": "address"
        },
        {
          "internalType": "uint256",
          "name": "pid",
          "type": "uint256"
        },
        {
          "internalType": "string",
          "name": "title",
          "type": "string"
        },
        {
          "internalType": "uint256",
          "name": "upVotes",
          "type": "uint256"
        },
        {
          "internalType": "uint256",
          "name": "downVotes",
          "type": "uint256"
        },
        {
          "internalType": "uint256",
          "name": "creationTime",
          "type": "uint256"
        },
        {
          "internalType": "uint256",
          "name": "duration",
          "type": "uint256"
        },
        {
          "internalType": "string",
          "name": "description",
          "type": "string"
        }
      ],
      "stateMutability": "view",
      "type": "function"
    },
    {
      "inputs": [
        {
          "internalType": "uint256",
          "name": "_orgID",
          "type": "uint256"
        },
        {
          "internalType": "uint256",
          "name": "_pid",
          "type": "uint256"
        }
      ],
      "name": "totalVotes",
      "outputs": [
        {
          "internalType": "uint256",
          "name": "",
          "type": "uint256"
        },
        {
          "internalType": "uint256",
          "name": "",
          "type": "uint256"
        }
      ],
      "stateMutability": "view",
      "type": "function"
    },
    {
      "inputs": [
        {
          "internalType": "uint256",
          "name": "",
          "type": "uint256"
        },
        {
          "internalType": "address",
          "name": "",
          "type": "address"
        }
      ],
      "name": "userBalance",
      "outputs": [
        {
          "internalType": "uint256",
          "name": "",
          "type": "uint256"
        }
      ],
      "stateMutability": "view",
      "type": "function"
    }
  ],
  "bytecode": "0x6080604052600060025534801561001557600080fd5b50336000806101000a81548173ffffffffffffffffffffffffffffffffffffffff021916908373ffffffffffffffffffffffffffffffffffffffff160217905550614ea7806100656000396000f3fe608060405234801561001057600080fd5b50600436106101f05760003560e01c8063a0712d681161010f578063de6124dd116100a2578063f3970d7311610071578063f3970d731461067b578063fb7cc43b14610697578063fd3d3ff1146106c7578063ff435baa146106f7576101f0565b8063de6124dd146105d8578063e792dd8a14610608578063f1c621041461063f578063f33a07661461065d576101f0565b8063b40955ee116100de578063b40955ee1461053c578063cceb68f51461056c578063ce22e8621461058a578063d13ae672146105a8576101f0565b8063a0712d68146104b6578063ab53cf6b146104d2578063ad81c583146104ee578063b11f64421461050c576101f0565b806373f37e38116101875780638da5cb5b116101565780638da5cb5b146104015780638f4e76b91461041f578063920be8881461044f578063938351b81461047f576101f0565b806373f37e38146103415780637d9e10f51461037157806385198705146103a157806389572ff6146103d1576101f0565b80632fc256c3116101c35780632fc256c3146102a957806336a9dbb0146102d95780636301f691146102f557806363a56e7a14610311576101f0565b80631414982f146101f55780631c6fc8501461022c57806323848f171461024857806324a9ed8e14610278575b600080fd5b61020f600480360381019061020a9190613e31565b610715565b6040516102239897969594939291906145d6565b60405180910390f35b61024660048036038101906102419190613e6d565b6108aa565b005b610262600480360381019061025d9190613d43565b610d2e565b60405161026f9190614865565b60405180910390f35b610292600480360381019061028d9190613e31565b610d86565b6040516102a0929190614880565b60405180910390f35b6102c360048036038101906102be9190613e31565b610e42565b6040516102d09190614865565b60405180910390f35b6102f360048036038101906102ee9190613d43565b610fa0565b005b61030f600480360381019061030a9190613d43565b61110f565b005b61032b60048036038101906103269190613d43565b61127e565b60405161033891906146a6565b60405180910390f35b61035b60048036038101906103569190613d43565b6115b9565b6040516103689190614865565b60405180910390f35b61038b60048036038101906103869190613d6c565b61163b565b60405161039891906146c8565b60405180910390f35b6103bb60048036038101906103b69190613d6c565b61166a565b6040516103c89190614865565b60405180910390f35b6103eb60048036038101906103e69190613e31565b61168f565b6040516103f89190614536565b60405180910390f35b6104096116dd565b6040516104169190614536565b60405180910390f35b61043960048036038101906104349190613d6c565b611701565b60405161044691906146c8565b60405180910390f35b61046960048036038101906104649190613d43565b611730565b6040516104769190614865565b60405180910390f35b61049960048036038101906104949190613d43565b611858565b6040516104ad9897969594939291906145d6565b60405180910390f35b6104d060048036038101906104cb9190613d43565b6119e0565b005b6104ec60048036038101906104e79190613cdc565b611e54565b005b6104f661212f565b60405161050391906146c8565b60405180910390f35b61052660048036038101906105219190613cb3565b612241565b6040516105339190614865565b60405180910390f35b61055660048036038101906105519190613d43565b612259565b6040516105639190614843565b60405180910390f35b6105746124c4565b60405161058191906146a6565b60405180910390f35b610592612778565b60405161059f9190614843565b60405180910390f35b6105c260048036038101906105bd9190613d43565b612a5f565b6040516105cf9190614662565b60405180910390f35b6105f260048036038101906105ed9190613cb3565b612b3b565b6040516105ff91906146c8565b60405180910390f35b610622600480360381019061061d9190613d43565b612b5b565b604051610636989796959493929190614551565b60405180910390f35b610647612c88565b6040516106549190614865565b60405180910390f35b610665612c8e565b60405161067291906146a6565b60405180910390f35b61069560048036038101906106909190613da8565b612ff2565b005b6106b160048036038101906106ac9190613d43565b6134f1565b6040516106be9190614865565b60405180910390f35b6106e160048036038101906106dc9190613d43565b6135ba565b6040516106ee91906146c8565b60405180910390f35b6106ff6136cc565b60405161070c9190614684565b60405180910390f35b6006602052816000526040600020818154811061073157600080fd5b9060005260206000209060090201600091509150508060000160009054906101000a900473ffffffffffffffffffffffffffffffffffffffff169080600101549080600201805461078190614b2d565b80601f01602080910402602001604051908101604052809291908181526020018280546107ad90614b2d565b80156107fa5780601f106107cf576101008083540402835291602001916107fa565b820191906000526020600020905b8154815290600101906020018083116107dd57829003601f168201915b50505050509080600401549080600501549080600601549080600701549080600801805461082790614b2d565b80601f016020809104026020016040519081016040528092919081815260200182805461085390614b2d565b80156108a05780601f10610875576101008083540402835291602001916108a0565b820191906000526020600020905b81548152906001019060200180831161088357829003601f168201915b5050505050905088565b83600081101580156108bd575060025481105b6108fc576040517f08c379a00000000000000000000000000000000000000000000000000000000081526004016108f3906146e3565b60405180910390fd5b848460006005838154811061093a577f4e487b7100000000000000000000000000000000000000000000000000000000600052603260045260246000fd5b90600052602060002090600802016005015490506000821015801561095e57508082105b61099d576040517f08c379a0000000000000000000000000000000000000000000000000000000008152600401610994906147a3565b60405180910390fd5b6000600660008a815260200190815260200160002090506109be8989610e42565b8189815481106109f7577f4e487b7100000000000000000000000000000000000000000000000000000000600052603260045260246000fd5b90600052602060002090600902016006015442610a149190614a6f565b10610a54576040517f08c379a0000000000000000000000000000000000000000000000000000000008152600401610a4b906147e3565b60405180910390fd5b610a5f8989336138c7565b610a9e576040517f08c379a0000000000000000000000000000000000000000000000000000000008152600401610a9590614823565b60405180910390fd5b85610aa88a6134f1565b1015610ae9576040517f08c379a0000000000000000000000000000000000000000000000000000000008152600401610ae090614723565b60405180910390fd5b85600760008b815260200190815260200160002060003373ffffffffffffffffffffffffffffffffffffffff1673ffffffffffffffffffffffffffffffffffffffff16815260200190815260200160002054610b459190614a6f565b600760008b815260200190815260200160002060003373ffffffffffffffffffffffffffffffffffffffff1673ffffffffffffffffffffffffffffffffffffffff168152602001908152602001600020819055506000610ba48761395b565b90506000828a81548110610be1577f4e487b7100000000000000000000000000000000000000000000000000000000600052603260045260246000fd5b906000526020600020906009020190506001891415610c1757818160040154610c0a91906149e8565b8160040181905550610c30565b818160050154610c2791906149e8565b81600501819055505b80600301339080600181540180825580915050600190039060005260206000200160009091909190916101000a81548173ffffffffffffffffffffffffffffffffffffffff021916908373ffffffffffffffffffffffffffffffffffffffff1602179055506000600860008d815260200190815260200160002060008c815260200190815260200160002060003373ffffffffffffffffffffffffffffffffffffffff1673ffffffffffffffffffffffffffffffffffffffff168152602001908152602001600020905060018160000160006101000a81548160ff021916908315150217905550828160010181905550505050505050505050505050565b6000806005805490501480610d59575060006009600084815260200190815260200160002080549050145b15610d675760009050610d81565b600960008381526020019081526020016000208054905090505b919050565b6000806000600660008681526020019081526020016000209050808481548110610dd9577f4e487b7100000000000000000000000000000000000000000000000000000000600052603260045260246000fd5b906000526020600020906009020160040154818581548110610e24577f4e487b7100000000000000000000000000000000000000000000000000000000600052603260045260246000fd5b90600052602060002090600902016005015492509250509250929050565b60008260008110158015610e57575060025481105b610e96576040517f08c379a0000000000000000000000000000000000000000000000000000000008152600401610e8d906146e3565b60405180910390fd5b8383600060058381548110610ed4577f4e487b7100000000000000000000000000000000000000000000000000000000600052603260045260246000fd5b906000526020600020906008020160050154905060008210158015610ef857508082105b610f37576040517f08c379a0000000000000000000000000000000000000000000000000000000008152600401610f2e906147a3565b60405180910390fd5b600660008881526020019081526020016000208681548110610f82577f4e487b7100000000000000000000000000000000000000000000000000000000600052603260045260246000fd5b90600052602060002090600902016007015494505050505092915050565b60006009600083815260200190815260200160002080548060200260200160405190810160405280929190818152602001828054801561103557602002820191906000526020600020905b8160009054906101000a900473ffffffffffffffffffffffffffffffffffffffff1673ffffffffffffffffffffffffffffffffffffffff1681526020019060010190808311610feb575b5050505050905060005b815181101561110a576000828281518110611083577f4e487b7100000000000000000000000000000000000000000000000000000000600052603260045260246000fd5b602002602001015190506000600a600086815260200190815260200160002060008373ffffffffffffffffffffffffffffffffffffffff1673ffffffffffffffffffffffffffffffffffffffff16815260200190815260200160002060006101000a81548160ff02191690831515021790555050808061110290614b90565b91505061103f565b505050565b6000600960008381526020019081526020016000208054806020026020016040519081016040528092919081815260200182805480156111a457602002820191906000526020600020905b8160009054906101000a900473ffffffffffffffffffffffffffffffffffffffff1673ffffffffffffffffffffffffffffffffffffffff168152602001906001019080831161115a575b5050505050905060005b81518110156112795760008282815181106111f2577f4e487b7100000000000000000000000000000000000000000000000000000000600052603260045260246000fd5b602002602001015190506001600a600086815260200190815260200160002060008373ffffffffffffffffffffffffffffffffffffffff1673ffffffffffffffffffffffffffffffffffffffff16815260200190815260200160002060006101000a81548160ff02191690831515021790555050808061127190614b90565b9150506111ae565b505050565b60608160008110158015611293575060025481105b6112d2576040517f08c379a00000000000000000000000000000000000000000000000000000000081526004016112c9906146e3565b60405180910390fd5b600060058054905014806112fc575060006006600085815260200190815260200160002080549050145b1561130c576060809250506115b3565b60066000848152602001908152602001600020805480602002602001604051908101604052809291908181526020016000905b828210156115ac5783829060005260206000209060090201604051806101200160405290816000820160009054906101000a900473ffffffffffffffffffffffffffffffffffffffff1673ffffffffffffffffffffffffffffffffffffffff1673ffffffffffffffffffffffffffffffffffffffff168152602001600182015481526020016002820180546113d390614b2d565b80601f01602080910402602001604051908101604052809291908181526020018280546113ff90614b2d565b801561144c5780601f106114215761010080835404028352916020019161144c565b820191906000526020600020905b81548152906001019060200180831161142f57829003601f168201915b50505050508152602001600382018054806020026020016040519081016040528092919081815260200182805480156114da57602002820191906000526020600020905b8160009054906101000a900473ffffffffffffffffffffffffffffffffffffffff1673ffffffffffffffffffffffffffffffffffffffff1681526020019060010190808311611490575b505050505081526020016004820154815260200160058201548152602001600682015481526020016007820154815260200160088201805461151b90614b2d565b80601f016020809104026020016040519081016040528092919081815260200182805461154790614b2d565b80156115945780601f1061156957610100808354040283529160200191611594565b820191906000526020600020905b81548152906001019060200180831161157757829003601f168201915b5050505050815250508152602001906001019061133f565b5050505091505b50919050565b60008060058054905014156115d15760009050611636565b6005805490508211156115e75760009050611636565b60058281548110611621577f4e487b7100000000000000000000000000000000000000000000000000000000600052603260045260246000fd5b90600052602060002090600802016007015490505b919050565b600b6020528160005260406000206020528060005260406000206000915091509054906101000a900460ff1681565b6007602052816000526040600020602052806000526040600020600091509150505481565b600960205281600052604060002081815481106116ab57600080fd5b906000526020600020016000915091509054906101000a900473ffffffffffffffffffffffffffffffffffffffff1681565b60008054906101000a900473ffffffffffffffffffffffffffffffffffffffff1681565b600a6020528160005260406000206020528060005260406000206000915091509054906101000a900460ff1681565b6000806005600360003373ffffffffffffffffffffffffffffffffffffffff1673ffffffffffffffffffffffffffffffffffffffff16815260200190815260200160002054815481106117ac577f4e487b7100000000000000000000000000000000000000000000000000000000600052603260045260246000fd5b906000526020600020906008020190508281600601819055506005600360003373ffffffffffffffffffffffffffffffffffffffff1673ffffffffffffffffffffffffffffffffffffffff168152602001908152602001600020548154811061183e577f4e487b7100000000000000000000000000000000000000000000000000000000600052603260045260246000fd5b906000526020600020906008020160060154915050919050565b6001818154811061186857600080fd5b90600052602060002090600902016000915090508060000160009054906101000a900473ffffffffffffffffffffffffffffffffffffffff16908060010154908060020180546118b790614b2d565b80601f01602080910402602001604051908101604052809291908181526020018280546118e390614b2d565b80156119305780601f1061190557610100808354040283529160200191611930565b820191906000526020600020905b81548152906001019060200180831161191357829003601f168201915b50505050509080600401549080600501549080600601549080600701549080600801805461195d90614b2d565b80601f016020809104026020016040519081016040528092919081815260200182805461198990614b2d565b80156119d65780601f106119ab576101008083540402835291602001916119d6565b820191906000526020600020905b8154815290600101906020018083116119b957829003601f168201915b5050505050905088565b600073ffffffffffffffffffffffffffffffffffffffff163373ffffffffffffffffffffffffffffffffffffffff161415611a50576040517f08c379a0000000000000000000000000000000000000000000000000000000008152600401611a4790614803565b60405180910390fd5b60001515600b600083815260200190815260200160002060003373ffffffffffffffffffffffffffffffffffffffff1673ffffffffffffffffffffffffffffffffffffffff16815260200190815260200160002060009054906101000a900460ff1615151415611b9c576001600b600083815260200190815260200160002060003373ffffffffffffffffffffffffffffffffffffffff1673ffffffffffffffffffffffffffffffffffffffff16815260200190815260200160002060006101000a81548160ff02191690831515021790555060096000828152602001908152602001600020339080600181540180825580915050600190039060005260206000200160009091909190916101000a81548173ffffffffffffffffffffffffffffffffffffffff021916908373ffffffffffffffffffffffffffffffffffffffff160217905550611c41565b60011515600a600083815260200190815260200160002060003373ffffffffffffffffffffffffffffffffffffffff1673ffffffffffffffffffffffffffffffffffffffff16815260200190815260200160002060009054906101000a900460ff16151514611c40576040517f08c379a0000000000000000000000000000000000000000000000000000000008152600401611c3790614703565b60405180910390fd5b5b6000600a600083815260200190815260200160002060003373ffffffffffffffffffffffffffffffffffffffff1673ffffffffffffffffffffffffffffffffffffffff16815260200190815260200160002060006101000a81548160ff021916908315150217905550600060058281548110611ce6577f4e487b7100000000000000000000000000000000000000000000000000000000600052603260045260246000fd5b9060005260206000209060080201600601549050806007600084815260200190815260200160002060003373ffffffffffffffffffffffffffffffffffffffff1673ffffffffffffffffffffffffffffffffffffffff16815260200190815260200160002054611d5691906149e8565b6007600084815260200190815260200160002060003373ffffffffffffffffffffffffffffffffffffffff1673ffffffffffffffffffffffffffffffffffffffff168152602001908152602001600020819055508060058381548110611de5577f4e487b7100000000000000000000000000000000000000000000000000000000600052603260045260246000fd5b906000526020600020906008020160070154611e0191906149e8565b60058381548110611e3b577f4e487b7100000000000000000000000000000000000000000000000000000000600052603260045260246000fd5b9060005260206000209060080201600701819055505050565b60001515600460008373ffffffffffffffffffffffffffffffffffffffff1673ffffffffffffffffffffffffffffffffffffffff16815260200190815260200160002060009054906101000a900460ff16151514611ee7576040517f08c379a0000000000000000000000000000000000000000000000000000000008152600401611ede90614763565b60405180910390fd5b6001600460008373ffffffffffffffffffffffffffffffffffffffff1673ffffffffffffffffffffffffffffffffffffffff16815260200190815260200160002060006101000a81548160ff021916908315150217905550600254600360003373ffffffffffffffffffffffffffffffffffffffff1673ffffffffffffffffffffffffffffffffffffffff1681526020019081526020016000208190555060056040518061010001604052803373ffffffffffffffffffffffffffffffffffffffff1681526020018373ffffffffffffffffffffffffffffffffffffffff1681526020016002548152602001600115158152602001858152602001600081526020018481526020016000815250908060018154018082558091505060019003906000526020600020906008020160009091909190915060008201518160000160006101000a81548173ffffffffffffffffffffffffffffffffffffffff021916908373ffffffffffffffffffffffffffffffffffffffff16021790555060208201518160010160006101000a81548173ffffffffffffffffffffffffffffffffffffffff021916908373ffffffffffffffffffffffffffffffffffffffff1602179055506040820151816002015560608201518160030160006101000a81548160ff02191690831515021790555060808201518160040190805190602001906120f19291906139d5565b5060a0820151816005015560c0820151816006015560e0820151816007015550506002600081548092919061212590614b90565b9190505550505050565b6000806005805490501415612147576000905061223e565b600580549050600360003373ffffffffffffffffffffffffffffffffffffffff1673ffffffffffffffffffffffffffffffffffffffff16815260200190815260200160002054111561219c576000905061223e565b600115156005600360003373ffffffffffffffffffffffffffffffffffffffff1673ffffffffffffffffffffffffffffffffffffffff1681526020019081526020016000205481548110612219577f4e487b7100000000000000000000000000000000000000000000000000000000600052603260045260246000fd5b906000526020600020906008020160030160009054906101000a900460ff1615151490505b90565b60036020528060005260406000206000915090505481565b612261613a5b565b600060058054905014806122d1575060001515600583815481106122ae577f4e487b7100000000000000000000000000000000000000000000000000000000600052603260045260246000fd5b906000526020600020906008020160030160009054906101000a900460ff161515145b156122e7576122de613a5b565b809150506124bf565b60058281548110612321577f4e487b7100000000000000000000000000000000000000000000000000000000600052603260045260246000fd5b9060005260206000209060080201604051806101000160405290816000820160009054906101000a900473ffffffffffffffffffffffffffffffffffffffff1673ffffffffffffffffffffffffffffffffffffffff1673ffffffffffffffffffffffffffffffffffffffff1681526020016001820160009054906101000a900473ffffffffffffffffffffffffffffffffffffffff1673ffffffffffffffffffffffffffffffffffffffff1673ffffffffffffffffffffffffffffffffffffffff168152602001600282015481526020016003820160009054906101000a900460ff1615151515815260200160048201805461241c90614b2d565b80601f016020809104026020016040519081016040528092919081815260200182805461244890614b2d565b80156124955780601f1061246a57610100808354040283529160200191612495565b820191906000526020600020905b81548152906001019060200180831161247857829003601f168201915b50505050508152602001600582015481526020016006820154815260200160078201548152505090505b919050565b6060600060018054905014156124df57606080915050612775565b6001805480602002602001604051908101604052809291908181526020016000905b8282101561276e5783829060005260206000209060090201604051806101200160405290816000820160009054906101000a900473ffffffffffffffffffffffffffffffffffffffff1673ffffffffffffffffffffffffffffffffffffffff1673ffffffffffffffffffffffffffffffffffffffff1681526020016001820154815260200160028201805461259590614b2d565b80601f01602080910402602001604051908101604052809291908181526020018280546125c190614b2d565b801561260e5780601f106125e35761010080835404028352916020019161260e565b820191906000526020600020905b8154815290600101906020018083116125f157829003601f168201915b505050505081526020016003820180548060200260200160405190810160405280929190818152602001828054801561269c57602002820191906000526020600020905b8160009054906101000a900473ffffffffffffffffffffffffffffffffffffffff1673ffffffffffffffffffffffffffffffffffffffff1681526020019060010190808311612652575b50505050508152602001600482015481526020016005820154815260200160068201548152602001600782015481526020016008820180546126dd90614b2d565b80601f016020809104026020016040519081016040528092919081815260200182805461270990614b2d565b80156127565780601f1061272b57610100808354040283529160200191612756565b820191906000526020600020905b81548152906001019060200180831161273957829003601f168201915b50505050508152505081526020019060010190612501565b5050505090505b90565b612780613a5b565b6000600580549050148061282f5750600015156005600360003373ffffffffffffffffffffffffffffffffffffffff1673ffffffffffffffffffffffffffffffffffffffff168152602001908152602001600020548154811061280c577f4e487b7100000000000000000000000000000000000000000000000000000000600052603260045260246000fd5b906000526020600020906008020160030160009054906101000a900460ff161515145b156128455761283c613a5b565b80915050612a5c565b6005600360003373ffffffffffffffffffffffffffffffffffffffff1673ffffffffffffffffffffffffffffffffffffffff16815260200190815260200160002054815481106128be577f4e487b7100000000000000000000000000000000000000000000000000000000600052603260045260246000fd5b9060005260206000209060080201604051806101000160405290816000820160009054906101000a900473ffffffffffffffffffffffffffffffffffffffff1673ffffffffffffffffffffffffffffffffffffffff1673ffffffffffffffffffffffffffffffffffffffff1681526020016001820160009054906101000a900473ffffffffffffffffffffffffffffffffffffffff1673ffffffffffffffffffffffffffffffffffffffff1673ffffffffffffffffffffffffffffffffffffffff168152602001600282015481526020016003820160009054906101000a900460ff161515151581526020016004820180546129b990614b2d565b80601f01602080910402602001604051908101604052809291908181526020018280546129e590614b2d565b8015612a325780601f10612a0757610100808354040283529160200191612a32565b820191906000526020600020905b815481529060010190602001808311612a1557829003601f168201915b50505050508152602001600582015481526020016006820154815260200160078201548152505090505b90565b606060006005805490501480612a8b575060006009600084815260200190815260200160002080549050145b15612a9b57606080915050612b36565b60096000838152602001908152602001600020805480602002602001604051908101604052809291908181526020018280548015612b2e57602002820191906000526020600020905b8160009054906101000a900473ffffffffffffffffffffffffffffffffffffffff1673ffffffffffffffffffffffffffffffffffffffff1681526020019060010190808311612ae4575b505050505090505b919050565b60046020528060005260406000206000915054906101000a900460ff1681565b60058181548110612b6b57600080fd5b90600052602060002090600802016000915090508060000160009054906101000a900473ffffffffffffffffffffffffffffffffffffffff16908060010160009054906101000a900473ffffffffffffffffffffffffffffffffffffffff16908060020154908060030160009054906101000a900460ff1690806004018054612bf390614b2d565b80601f0160208091040260200160405190810160405280929190818152602001828054612c1f90614b2d565b8015612c6c5780601f10612c4157610100808354040283529160200191612c6c565b820191906000526020600020905b815481529060010190602001808311612c4f57829003601f168201915b5050505050908060050154908060060154908060070154905088565b60025481565b606060006005805490501480612cf95750600060066000600360003373ffffffffffffffffffffffffffffffffffffffff1673ffffffffffffffffffffffffffffffffffffffff16815260200190815260200160002054815260200190815260200160002080549050145b15612d0957606080915050612fef565b60066000600360003373ffffffffffffffffffffffffffffffffffffffff1673ffffffffffffffffffffffffffffffffffffffff168152602001908152602001600020548152602001908152602001600020805480602002602001604051908101604052809291908181526020016000905b82821015612fe85783829060005260206000209060090201604051806101200160405290816000820160009054906101000a900473ffffffffffffffffffffffffffffffffffffffff1673ffffffffffffffffffffffffffffffffffffffff1673ffffffffffffffffffffffffffffffffffffffff16815260200160018201548152602001600282018054612e0f90614b2d565b80601f0160208091040260200160405190810160405280929190818152602001828054612e3b90614b2d565b8015612e885780601f10612e5d57610100808354040283529160200191612e88565b820191906000526020600020905b815481529060010190602001808311612e6b57829003601f168201915b5050505050815260200160038201805480602002602001604051908101604052809291908181526020018280548015612f1657602002820191906000526020600020905b8160009054906101000a900473ffffffffffffffffffffffffffffffffffffffff1673ffffffffffffffffffffffffffffffffffffffff1681526020019060010190808311612ecc575b5050505050815260200160048201548152602001600582015481526020016006820154815260200160078201548152602001600882018054612f5790614b2d565b80601f0160208091040260200160405190810160405280929190818152602001828054612f8390614b2d565b8015612fd05780601f10612fa557610100808354040283529160200191612fd0565b820191906000526020600020905b815481529060010190602001808311612fb357829003601f168201915b50505050508152505081526020019060010190612d7b565b5050505090505b90565b60008511613035576040517f08c379a000000000000000000000000000000000000000000000000000000000815260040161302c906147c3565b60405180910390fd5b6000600360003373ffffffffffffffffffffffffffffffffffffffff1673ffffffffffffffffffffffffffffffffffffffff16815260200190815260200160002054905060011515600582815481106130b7577f4e487b7100000000000000000000000000000000000000000000000000000000600052603260045260246000fd5b906000526020600020906008020160030160009054906101000a900460ff16151514613118576040517f08c379a000000000000000000000000000000000000000000000000000000000815260040161310f90614783565b60405180910390fd5b600060058281548110613154577f4e487b7100000000000000000000000000000000000000000000000000000000600052603260045260246000fd5b9060005260206000209060080201600501549050613170613ace565b86868080601f016020809104026020016040519081016040528093929190818152602001838380828437600081840152601f19601f8201169050808301925050505050505081604001819052508181602001818152505033816000019073ffffffffffffffffffffffffffffffffffffffff16908173ffffffffffffffffffffffffffffffffffffffff168152505084848080601f016020809104026020016040519081016040528093929190818152602001838380828437600081840152601f19601f82011690508083019250505050505050816101000181905250878160e0018181525050428160c0018181525050600081608001818152505060008160a00181815250506006600084815260200190815260200160002081908060018154018082558091505060019003906000526020600020906009020160009091909190915060008201518160000160006101000a81548173ffffffffffffffffffffffffffffffffffffffff021916908373ffffffffffffffffffffffffffffffffffffffff1602179055506020820151816001015560408201518160020190805190602001906133219291906139d5565b50606082015181600301908051906020019061333e929190613b30565b506080820151816004015560a0820151816005015560c0820151816006015560e082015181600701556101008201518160080190805190602001906133849291906139d5565b505050600181908060018154018082558091505060019003906000526020600020906009020160009091909190915060008201518160000160006101000a81548173ffffffffffffffffffffffffffffffffffffffff021916908373ffffffffffffffffffffffffffffffffffffffff1602179055506020820151816001015560408201518160020190805190602001906134209291906139d5565b50606082015181600301908051906020019061343d929190613b30565b506080820151816004015560a0820151816005015560c0820151816006015560e082015181600701556101008201518160080190805190602001906134839291906139d5565b505050600583815481106134c0577f4e487b7100000000000000000000000000000000000000000000000000000000600052603260045260246000fd5b906000526020600020906008020160050160008154809291906134e290614b90565b91905055505050505050505050565b60008073ffffffffffffffffffffffffffffffffffffffff163373ffffffffffffffffffffffffffffffffffffffff161415613562576040517f08c379a000000000000000000000000000000000000000000000000000000000815260040161355990614743565b60405180910390fd5b6007600083815260200190815260200160002060003373ffffffffffffffffffffffffffffffffffffffff1673ffffffffffffffffffffffffffffffffffffffff168152602001908152602001600020549050919050565b60008060058054905014806135e5575060006009600084815260200190815260200160002080549050145b156135f357600090506136c7565b60001515600b600084815260200190815260200160002060003373ffffffffffffffffffffffffffffffffffffffff1673ffffffffffffffffffffffffffffffffffffffff16815260200190815260200160002060009054906101000a900460ff161515141561366657600090506136c7565b600a600083815260200190815260200160002060003373ffffffffffffffffffffffffffffffffffffffff1673ffffffffffffffffffffffffffffffffffffffff16815260200190815260200160002060009054906101000a900460ff1690505b919050565b6060600060058054905014156136e7576060809150506138c4565b6005805480602002602001604051908101604052809291908181526020016000905b828210156138bd5783829060005260206000209060080201604051806101000160405290816000820160009054906101000a900473ffffffffffffffffffffffffffffffffffffffff1673ffffffffffffffffffffffffffffffffffffffff1673ffffffffffffffffffffffffffffffffffffffff1681526020016001820160009054906101000a900473ffffffffffffffffffffffffffffffffffffffff1673ffffffffffffffffffffffffffffffffffffffff1673ffffffffffffffffffffffffffffffffffffffff168152602001600282015481526020016003820160009054906101000a900460ff1615151515815260200160048201805461380e90614b2d565b80601f016020809104026020016040519081016040528092919081815260200182805461383a90614b2d565b80156138875780601f1061385c57610100808354040283529160200191613887565b820191906000526020600020905b81548152906001019060200180831161386a57829003601f168201915b50505050508152602001600582015481526020016006820154815260200160078201548152505081526020019060010190613709565b5050505090505b90565b600080151560086000868152602001908152602001600020600085815260200190815260200160002060008473ffffffffffffffffffffffffffffffffffffffff1673ffffffffffffffffffffffffffffffffffffffff16815260200190815260200160002060000160009054906101000a900460ff161515141561394f5760019050613954565b600090505b9392505050565b600060038211156139c2578190506000600160028461397a9190614a3e565b61398491906149e8565b90505b818110156139bc5780915060028182856139a19190614a3e565b6139ab91906149e8565b6139b59190614a3e565b9050613987565b506139d0565b600082146139cf57600190505b5b919050565b8280546139e190614b2d565b90600052602060002090601f016020900481019282613a035760008555613a4a565b82601f10613a1c57805160ff1916838001178555613a4a565b82800160010185558215613a4a579182015b82811115613a49578251825591602001919060010190613a2e565b5b509050613a579190613bba565b5090565b604051806101000160405280600073ffffffffffffffffffffffffffffffffffffffff168152602001600073ffffffffffffffffffffffffffffffffffffffff16815260200160008152602001600015158152602001606081526020016000815260200160008152602001600081525090565b604051806101200160405280600073ffffffffffffffffffffffffffffffffffffffff16815260200160008152602001606081526020016060815260200160008152602001600081526020016000815260200160008152602001606081525090565b828054828255906000526020600020908101928215613ba9579160200282015b82811115613ba85782518260006101000a81548173ffffffffffffffffffffffffffffffffffffffff021916908373ffffffffffffffffffffffffffffffffffffffff16021790555091602001919060010190613b50565b5b509050613bb69190613bba565b5090565b5b80821115613bd3576000816000905550600101613bbb565b5090565b6000613bea613be5846148ce565b6148a9565b905082815260208101848484011115613c0257600080fd5b613c0d848285614aeb565b509392505050565b600081359050613c2481614e43565b92915050565b60008083601f840112613c3c57600080fd5b8235905067ffffffffffffffff811115613c5557600080fd5b602083019150836001820283011115613c6d57600080fd5b9250929050565b600082601f830112613c8557600080fd5b8135613c95848260208601613bd7565b91505092915050565b600081359050613cad81614e5a565b92915050565b600060208284031215613cc557600080fd5b6000613cd384828501613c15565b91505092915050565b600080600060608486031215613cf157600080fd5b600084013567ffffffffffffffff811115613d0b57600080fd5b613d1786828701613c74565b9350506020613d2886828701613c9e565b9250506040613d3986828701613c15565b9150509250925092565b600060208284031215613d5557600080fd5b6000613d6384828501613c9e565b91505092915050565b60008060408385031215613d7f57600080fd5b6000613d8d85828601613c9e565b9250506020613d9e85828601613c15565b9150509250929050565b600080600080600060608688031215613dc057600080fd5b6000613dce88828901613c9e565b955050602086013567ffffffffffffffff811115613deb57600080fd5b613df788828901613c2a565b9450945050604086013567ffffffffffffffff811115613e1657600080fd5b613e2288828901613c2a565b92509250509295509295909350565b60008060408385031215613e4457600080fd5b6000613e5285828601613c9e565b9250506020613e6385828601613c9e565b9150509250929050565b60008060008060808587031215613e8357600080fd5b6000613e9187828801613c9e565b9450506020613ea287828801613c9e565b9350506040613eb387828801613c9e565b9250506060613ec487828801613c9e565b91505092959194509250565b6000613edc8383613f10565b60208301905092915050565b6000613ef483836142e5565b905092915050565b6000613f088383614445565b905092915050565b613f1981614aa3565b82525050565b613f2881614aa3565b82525050565b6000613f398261492f565b613f438185614982565b9350613f4e836148ff565b8060005b83811015613f7f578151613f668882613ed0565b9750613f718361495b565b925050600181019050613f52565b5085935050505092915050565b6000613f978261492f565b613fa18185614993565b9350613fac836148ff565b8060005b83811015613fdd578151613fc48882613ed0565b9750613fcf8361495b565b925050600181019050613fb0565b5085935050505092915050565b6000613ff58261493a565b613fff81856149a4565b9350836020820285016140118561490f565b8060005b8581101561404d578484038952815161402e8582613ee8565b945061403983614968565b925060208a01995050600181019050614015565b50829750879550505050505092915050565b600061406a82614945565b61407481856149b5565b9350836020820285016140868561491f565b8060005b858110156140c257848403895281516140a38582613efc565b94506140ae83614975565b925060208a0199505060018101905061408a565b50829750879550505050505092915050565b6140dd81614ab5565b82525050565b6140ec81614ab5565b82525050565b60006140fd82614950565b61410781856149c6565b9350614117818560208601614afa565b61412081614c95565b840191505092915050565b600061413682614950565b61414081856149d7565b9350614150818560208601614afa565b61415981614c95565b840191505092915050565b60006141716017836149d7565b915061417c82614ca6565b602082019050919050565b60006141946013836149d7565b915061419f82614ccf565b602082019050919050565b60006141b76013836149d7565b91506141c282614cf8565b602082019050919050565b60006141da600b836149d7565b91506141e582614d21565b602082019050919050565b60006141fd6017836149d7565b915061420882614d4a565b602082019050919050565b60006142206016836149d7565b915061422b82614d73565b602082019050919050565b60006142436013836149d7565b915061424e82614d9c565b602082019050919050565b6000614266600e836149d7565b915061427182614dc5565b602082019050919050565b60006142896011836149d7565b915061429482614dee565b602082019050919050565b60006142ac6000836149d7565b91506142b782614e17565b600082019050919050565b60006142cf6018836149d7565b91506142da82614e1a565b602082019050919050565b6000610100830160008301516142fe6000860182613f10565b5060208301516143116020860182613f10565b5060408301516143246040860182614518565b50606083015161433760608601826140d4565b506080830151848203608086015261434f82826140f2565b91505060a083015161436460a0860182614518565b5060c083015161437760c0860182614518565b5060e083015161438a60e0860182614518565b508091505092915050565b6000610100830160008301516143ae6000860182613f10565b5060208301516143c16020860182613f10565b5060408301516143d46040860182614518565b5060608301516143e760608601826140d4565b50608083015184820360808601526143ff82826140f2565b91505060a083015161441460a0860182614518565b5060c083015161442760c0860182614518565b5060e083015161443a60e0860182614518565b508091505092915050565b60006101208301600083015161445e6000860182613f10565b5060208301516144716020860182614518565b506040830151848203604086015261448982826140f2565b915050606083015184820360608601526144a38282613f2e565b91505060808301516144b86080860182614518565b5060a08301516144cb60a0860182614518565b5060c08301516144de60c0860182614518565b5060e08301516144f160e0860182614518565b5061010083015184820361010086015261450b82826140f2565b9150508091505092915050565b61452181614ae1565b82525050565b61453081614ae1565b82525050565b600060208201905061454b6000830184613f1f565b92915050565b600061010082019050614567600083018b613f1f565b614574602083018a613f1f565b6145816040830189614527565b61458e60608301886140e3565b81810360808301526145a0818761412b565b90506145af60a0830186614527565b6145bc60c0830185614527565b6145c960e0830184614527565b9998505050505050505050565b6000610100820190506145ec600083018b613f1f565b6145f9602083018a614527565b818103604083015261460b818961412b565b905061461a6060830188614527565b6146276080830187614527565b61463460a0830186614527565b61464160c0830185614527565b81810360e0830152614653818461412b565b90509998505050505050505050565b6000602082019050818103600083015261467c8184613f8c565b905092915050565b6000602082019050818103600083015261469e8184613fea565b905092915050565b600060208201905081810360008301526146c0818461405f565b905092915050565b60006020820190506146dd60008301846140e3565b92915050565b600060208201905081810360008301526146fc81614164565b9050919050565b6000602082019050818103600083015261471c81614187565b9050919050565b6000602082019050818103600083015261473c816141aa565b9050919050565b6000602082019050818103600083015261475c816141cd565b9050919050565b6000602082019050818103600083015261477c816141f0565b9050919050565b6000602082019050818103600083015261479c81614213565b9050919050565b600060208201905081810360008301526147bc81614236565b9050919050565b600060208201905081810360008301526147dc81614259565b9050919050565b600060208201905081810360008301526147fc8161427c565b9050919050565b6000602082019050818103600083015261481c8161429f565b9050919050565b6000602082019050818103600083015261483c816142c2565b9050919050565b6000602082019050818103600083015261485d8184614395565b905092915050565b600060208201905061487a6000830184614527565b92915050565b60006040820190506148956000830185614527565b6148a26020830184614527565b9392505050565b60006148b36148c4565b90506148bf8282614b5f565b919050565b6000604051905090565b600067ffffffffffffffff8211156148e9576148e8614c66565b5b6148f282614c95565b9050602081019050919050565b6000819050602082019050919050565b6000819050602082019050919050565b6000819050602082019050919050565b600081519050919050565b600081519050919050565b600081519050919050565b600081519050919050565b6000602082019050919050565b6000602082019050919050565b6000602082019050919050565b600082825260208201905092915050565b600082825260208201905092915050565b600082825260208201905092915050565b600082825260208201905092915050565b600082825260208201905092915050565b600082825260208201905092915050565b60006149f382614ae1565b91506149fe83614ae1565b9250827fffffffffffffffffffffffffffffffffffffffffffffffffffffffffffffffff03821115614a3357614a32614bd9565b5b828201905092915050565b6000614a4982614ae1565b9150614a5483614ae1565b925082614a6457614a63614c08565b5b828204905092915050565b6000614a7a82614ae1565b9150614a8583614ae1565b925082821015614a9857614a97614bd9565b5b828203905092915050565b6000614aae82614ac1565b9050919050565b60008115159050919050565b600073ffffffffffffffffffffffffffffffffffffffff82169050919050565b6000819050919050565b82818337600083830152505050565b60005b83811015614b18578082015181840152602081019050614afd565b83811115614b27576000848401525b50505050565b60006002820490506001821680614b4557607f821691505b60208210811415614b5957614b58614c37565b5b50919050565b614b6882614c95565b810181811067ffffffffffffffff82111715614b8757614b86614c66565b5b80604052505050565b6000614b9b82614ae1565b91507fffffffffffffffffffffffffffffffffffffffffffffffffffffffffffffffff821415614bce57614bcd614bd9565b5b600182019050919050565b7f4e487b7100000000000000000000000000000000000000000000000000000000600052601160045260246000fd5b7f4e487b7100000000000000000000000000000000000000000000000000000000600052601260045260246000fd5b7f4e487b7100000000000000000000000000000000000000000000000000000000600052602260045260246000fd5b7f4e487b7100000000000000000000000000000000000000000000000000000000600052604160045260246000fd5b6000601f19601f8301169050919050565b7f496e76616c6964206f7267616e697a6174696f6e204944000000000000000000600082015250565b7f4d696e74696e67204e6f7420416c6c6f77656400000000000000000000000000600082015250565b7f496e73756666696369656e7420546f6b656e7300000000000000000000000000600082015250565b7f696e76616c696420616363000000000000000000000000000000000000000000600082015250565b7f436f6e747261637420616c726561647920657869737473000000000000000000600082015250565b7f4e6f20616374697665206f7267616e697a6174696f6e00000000000000000000600082015250565b7f496e76616c69642050726f706f73616c20494400000000000000000000000000600082015250565b7f57726f6e67204475726174696f6e000000000000000000000000000000000000600082015250565b7f766f74696e672068617320656e64656421000000000000000000000000000000600082015250565b50565b7f566f746572206861766520616c726561647920766f7465640000000000000000600082015250565b614e4c81614aa3565b8114614e5757600080fd5b50565b614e6381614ae1565b8114614e6e57600080fd5b5056fea2646970667358221220ea6c40f5dcbbd9893a0e9df963014a3af68a073ebf8f99d07c8b474527b3635064736f6c63430008040033",
  "linkReferences": {},
  "deployedLinkReferences": {}
}