{
  "_format": "hh-sol-artifact-1",
  "contractName": "QVote",
  "sourceName": "src/hardhat/contracts/QVote.sol",
  "abi": [
    {
      "anonymous": false,
      "inputs": [
        {
          "indexed": true,
          "internalType": "address",
          "name": "previousOwner",
          "type": "address"
        },
        {
          "indexed": true,
          "internalType": "address",
          "name": "newOwner",
          "type": "address"
        }
      ],
      "name": "OwnershipTransferred",
      "type": "event"
    },
    {
      "anonymous": false,
      "inputs": [
        {
          "indexed": false,
          "internalType": "string",
          "name": "name",
          "type": "string"
        },
        {
          "indexed": false,
          "internalType": "address",
          "name": "creator",
          "type": "address"
        },
        {
          "indexed": false,
          "internalType": "uint256",
          "name": "organizationId",
          "type": "uint256"
        },
        {
          "indexed": false,
          "internalType": "uint256",
          "name": "creditsPerVoter",
          "type": "uint256"
        }
      ],
      "name": "newOrganizationCreated",
      "type": "event"
    },
    {
      "anonymous": false,
      "inputs": [
        {
          "indexed": false,
          "internalType": "uint256",
          "name": "orgID",
          "type": "uint256"
        },
        {
          "indexed": false,
          "internalType": "uint256",
          "name": "ProposalId",
          "type": "uint256"
        },
        {
          "indexed": false,
          "internalType": "address",
          "name": "creator",
          "type": "address"
        },
        {
          "indexed": false,
          "internalType": "uint256",
          "name": "duration",
          "type": "uint256"
        },
        {
          "indexed": false,
          "internalType": "string",
          "name": "description",
          "type": "string"
        }
      ],
      "name": "newProposalCreated",
      "type": "event"
    },
    {
      "inputs": [
        {
          "internalType": "address",
          "name": "",
          "type": "address"
        }
      ],
      "name": "OrganizationOwners",
      "outputs": [
        {
          "internalType": "uint256",
          "name": "",
          "type": "uint256"
        }
      ],
      "stateMutability": "view",
      "type": "function"
    },
    {
      "inputs": [
        {
          "internalType": "uint256",
          "name": "_orgID",
          "type": "uint256"
        },
        {
          "internalType": "uint256",
          "name": "_pID",
          "type": "uint256"
        },
        {
          "internalType": "uint256",
          "name": "vote",
          "type": "uint256"
        },
        {
          "internalType": "uint256",
          "name": "numVotes",
          "type": "uint256"
        }
      ],
      "name": "castVote",
      "outputs": [],
      "stateMutability": "nonpayable",
      "type": "function"
    },
    {
      "inputs": [
        {
          "internalType": "uint256",
          "name": "_orgID",
          "type": "uint256"
        },
        {
          "internalType": "uint256",
          "name": "_pID",
          "type": "uint256"
        }
      ],
      "name": "checkProposalDuration",
      "outputs": [
        {
          "internalType": "uint256",
          "name": "",
          "type": "uint256"
        }
      ],
      "stateMutability": "view",
      "type": "function"
    },
    {
      "inputs": [
        {
          "internalType": "uint256",
          "name": "_orgID",
          "type": "uint256"
        },
        {
          "internalType": "uint256",
          "name": "_pID",
          "type": "uint256"
        }
      ],
      "name": "checkProposalStatus",
      "outputs": [
        {
          "internalType": "enum QVote.ProposalStatus",
          "name": "",
          "type": "uint8"
        }
      ],
      "stateMutability": "view",
      "type": "function"
    },
    {
      "inputs": [
        {
          "internalType": "uint256",
          "name": "_orgID",
          "type": "uint256"
        }
      ],
      "name": "checkUserBalance",
      "outputs": [
        {
          "internalType": "uint256",
          "name": "",
          "type": "uint256"
        }
      ],
      "stateMutability": "view",
      "type": "function"
    },
    {
      "inputs": [
        {
          "internalType": "string",
          "name": "_name",
          "type": "string"
        },
        {
          "internalType": "uint256",
          "name": "_cpv",
          "type": "uint256"
        }
      ],
      "name": "createNewOrganization",
      "outputs": [],
      "stateMutability": "nonpayable",
      "type": "function"
    },
    {
      "inputs": [
        {
          "internalType": "uint256",
          "name": "_duration",
          "type": "uint256"
        },
        {
          "internalType": "string",
          "name": "_desc",
          "type": "string"
        }
      ],
      "name": "createNewProposal",
      "outputs": [],
      "stateMutability": "nonpayable",
      "type": "function"
    },
    {
      "inputs": [
        {
          "internalType": "uint256",
          "name": "_orgID",
          "type": "uint256"
        },
        {
          "internalType": "address",
          "name": "account",
          "type": "address"
        },
        {
          "internalType": "uint256",
          "name": "amount",
          "type": "uint256"
        }
      ],
      "name": "mint",
      "outputs": [],
      "stateMutability": "nonpayable",
      "type": "function"
    },
    {
      "inputs": [
        {
          "internalType": "uint256",
          "name": "",
          "type": "uint256"
        }
      ],
      "name": "organizations",
      "outputs": [
        {
          "internalType": "address",
          "name": "creator",
          "type": "address"
        },
        {
          "internalType": "bool",
          "name": "isActive",
          "type": "bool"
        },
        {
          "internalType": "string",
          "name": "name",
          "type": "string"
        },
        {
          "internalType": "uint256",
          "name": "ProposalCount",
          "type": "uint256"
        },
        {
          "internalType": "uint256",
          "name": "creditsPerVoter",
          "type": "uint256"
        }
      ],
      "stateMutability": "view",
      "type": "function"
    },
    {
      "inputs": [],
      "name": "owner",
      "outputs": [
        {
          "internalType": "address",
          "name": "",
          "type": "address"
        }
      ],
      "stateMutability": "view",
      "type": "function"
    },
    {
      "inputs": [],
      "name": "renounceOwnership",
      "outputs": [],
      "stateMutability": "nonpayable",
      "type": "function"
    },
    {
      "inputs": [
        {
          "internalType": "uint256",
          "name": "_orgID",
          "type": "uint256"
        },
        {
          "internalType": "uint256",
          "name": "_pID",
          "type": "uint256"
        }
      ],
      "name": "setToEnded",
      "outputs": [],
      "stateMutability": "nonpayable",
      "type": "function"
    },
    {
      "inputs": [
        {
          "internalType": "uint256",
          "name": "_orgID",
          "type": "uint256"
        },
        {
          "internalType": "uint256",
          "name": "_pID",
          "type": "uint256"
        }
      ],
      "name": "setToTally",
      "outputs": [],
      "stateMutability": "nonpayable",
      "type": "function"
    },
    {
      "inputs": [
        {
          "internalType": "uint256",
          "name": "_orgID",
          "type": "uint256"
        },
        {
          "internalType": "uint256",
          "name": "_pid",
          "type": "uint256"
        }
      ],
      "name": "totalVotes",
      "outputs": [
        {
          "internalType": "uint256",
          "name": "",
          "type": "uint256"
        },
        {
          "internalType": "uint256",
          "name": "",
          "type": "uint256"
        }
      ],
      "stateMutability": "view",
      "type": "function"
    },
    {
      "inputs": [
        {
          "internalType": "address",
          "name": "newOwner",
          "type": "address"
        }
      ],
      "name": "transferOwnership",
      "outputs": [],
      "stateMutability": "nonpayable",
      "type": "function"
    }
  ],
  "bytecode": "0x60806040523480156200001157600080fd5b5062000032620000266200003860201b60201c565b6200004060201b60201c565b62000104565b600033905090565b60008060009054906101000a900473ffffffffffffffffffffffffffffffffffffffff169050816000806101000a81548173ffffffffffffffffffffffffffffffffffffffff021916908373ffffffffffffffffffffffffffffffffffffffff1602179055508173ffffffffffffffffffffffffffffffffffffffff168173ffffffffffffffffffffffffffffffffffffffff167f8be0079c531659141344cd1fd0a4f28419497f9722a3daafe3b4186f6b6457e060405160405180910390a35050565b612ca480620001146000396000f3fe608060405234801561001057600080fd5b50600436106100f55760003560e01c8063836a104011610097578063b2e95da211610066578063b2e95da21461026f578063e792dd8a1461028b578063f2fde38b146102bf578063fb7cc43b146102db576100f5565b8063836a1040146101e95780638da5cb5b14610205578063b11f644214610223578063b242c4c014610253576100f5565b806324a9ed8e116100d357806324a9ed8e1461014e5780632fc256c31461017f57806363645431146101af578063715018a6146101df576100f5565b80631c6fc850146100fa578063217950701461011657806324077b8714610132575b600080fd5b610114600480360381019061010f9190611ecc565b61030b565b005b610130600480360381019061012b9190611e90565b6107c4565b005b61014c60048036038101906101479190611e38565b610ac6565b005b61016860048036038101906101639190611e90565b610d42565b604051610176929190612535565b60405180910390f35b61019960048036038101906101949190611e90565b610d97565b6040516101a6919061251a565b60405180910390f35b6101c960048036038101906101c49190611e90565b610e8e565b6040516101d691906122d3565b60405180910390f35b6101e7610f92565b005b61020360048036038101906101fe9190611de9565b61101a565b005b61020d611140565b60405161021a919061225e565b60405180910390f35b61023d60048036038101906102389190611d43565b611169565b60405161024a919061251a565b60405180910390f35b61026d60048036038101906102689190611e90565b611181565b005b61028960048036038101906102849190611d6c565b611483565b005b6102a560048036038101906102a09190611dc0565b611694565b6040516102b6959493929190612279565b60405180910390f35b6102d960048036038101906102d49190611d43565b61177f565b005b6102f560048036038101906102f09190611dc0565b611877565b604051610302919061251a565b60405180910390f35b8360008111801561031e57506001548111155b61035d576040517f08c379a00000000000000000000000000000000000000000000000000000000081526004016103549061233a565b60405180910390fd5b848460006003600084815260200190815260200160002060020154905060008211801561038a5750808211155b6103c9576040517f08c379a00000000000000000000000000000000000000000000000000000000081526004016103c09061241a565b60405180910390fd5b60006002811115610403577f4e487b7100000000000000000000000000000000000000000000000000000000600052602160045260246000fd5b61040d8989610e8e565b6002811115610445577f4e487b7100000000000000000000000000000000000000000000000000000000600052602160045260246000fd5b14610485576040517f08c379a000000000000000000000000000000000000000000000000000000000815260040161047c906124fa565b60405180910390fd5b6000600360008a815260200190815260200160002060050190506104a98989610d97565b8160008a815260200190815260200160002060040154426104ca91906126c8565b1061050a576040517f08c379a00000000000000000000000000000000000000000000000000000000081526004016105019061245a565b60405180910390fd5b610515898933611943565b610554576040517f08c379a000000000000000000000000000000000000000000000000000000000815260040161054b906124ba565b60405180910390fd5b8561055e8a611877565b101561059f576040517f08c379a00000000000000000000000000000000000000000000000000000000081526004016105969061239a565b60405180910390fd5b61060586600360008c815260200190815260200160002060040160003373ffffffffffffffffffffffffffffffffffffffff1673ffffffffffffffffffffffffffffffffffffffff168152602001908152602001600020546119cc90919063ffffffff16565b600360008b815260200190815260200160002060040160003373ffffffffffffffffffffffffffffffffffffffff1673ffffffffffffffffffffffffffffffffffffffff168152602001908152602001600020819055506000610667876119e2565b905060008260008b8152602001908152602001600020905060018914156106ac5761069f828260020154611a5c90919063ffffffff16565b81600201819055506106cc565b6106c3828260030154611a5c90919063ffffffff16565b81600301819055505b80600101339080600181540180825580915050600190039060005260206000200160009091909190916101000a81548173ffffffffffffffffffffffffffffffffffffffff021916908373ffffffffffffffffffffffffffffffffffffffff1602179055506040518060400160405280600115158152602001838152508160080160003373ffffffffffffffffffffffffffffffffffffffff1673ffffffffffffffffffffffffffffffffffffffff16815260200190815260200160002060008201518160000160006101000a81548160ff021916908315150217905550602082015181600101559050505050505050505050505050565b816000811180156107d757506001548111155b610816576040517f08c379a000000000000000000000000000000000000000000000000000000000815260040161080d9061233a565b60405180910390fd5b82826000600360008481526020019081526020016000206002015490506000821180156108435750808211155b610882576040517f08c379a00000000000000000000000000000000000000000000000000000000081526004016108799061241a565b60405180910390fd5b61088a611a72565b73ffffffffffffffffffffffffffffffffffffffff166108a8611140565b73ffffffffffffffffffffffffffffffffffffffff16146108fe576040517f08c379a00000000000000000000000000000000000000000000000000000000081526004016108f59061243a565b60405180910390fd5b600060036000888152602001908152602001600020600501905060016002811115610952577f4e487b7100000000000000000000000000000000000000000000000000000000600052602160045260246000fd5b81600088815260200190815260200160002060070160009054906101000a900460ff1660028111156109ad577f4e487b7100000000000000000000000000000000000000000000000000000000600052602160045260246000fd5b146109ed576040517f08c379a00000000000000000000000000000000000000000000000000000000081526004016109e4906123da565b60405180910390fd5b6109f78787610d97565b8160008881526020019081526020016000206004015442610a1891906126c8565b1015610a59576040517f08c379a0000000000000000000000000000000000000000000000000000000008152600401610a509061237a565b60405180910390fd5b600281600088815260200190815260200160002060070160006101000a81548160ff02191690836002811115610ab8577f4e487b7100000000000000000000000000000000000000000000000000000000600052602160045260246000fd5b021790555050505050505050565b60008311610b09576040517f08c379a0000000000000000000000000000000000000000000000000000000008152600401610b00906123ba565b60405180910390fd5b6000600260003373ffffffffffffffffffffffffffffffffffffffff1673ffffffffffffffffffffffffffffffffffffffff168152602001908152602001600020549050600115156003600083815260200190815260200160002060000160149054906101000a900460ff16151514610bb7576040517f08c379a0000000000000000000000000000000000000000000000000000000008152600401610bae906123fa565b60405180910390fd5b600360008281526020019081526020016000206002016000815480929190610bde9061280e565b919050555060006003600083815260200190815260200160002060020154905060006003600084815260200190815260200160002060050160008381526020019081526020016000209050338160000160006101000a81548173ffffffffffffffffffffffffffffffffffffffff021916908373ffffffffffffffffffffffffffffffffffffffff1602179055508484826006019190610c7f929190611b3e565b5085816005018190555042816004018190555060008160070160006101000a81548160ff02191690836002811115610ce0577f4e487b7100000000000000000000000000000000000000000000000000000000600052602160045260246000fd5b021790555060008160020181905550600081600301819055507f7220750673011f23ee3479464b1b18166fc740ed5fc50eedc5679287c654af9e838333898989604051610d329695949392919061255e565b60405180910390a1505050505050565b6000806000600360008681526020019081526020016000206005019050806000858152602001908152602001600020600201548160008681526020019081526020016000206003015492509250509250929050565b600082600081118015610dac57506001548111155b610deb576040517f08c379a0000000000000000000000000000000000000000000000000000000008152600401610de29061233a565b60405180910390fd5b8383600060036000848152602001908152602001600020600201549050600082118015610e185750808211155b610e57576040517f08c379a0000000000000000000000000000000000000000000000000000000008152600401610e4e9061241a565b60405180910390fd5b6003600088815260200190815260200160002060050160008781526020019081526020016000206005015494505050505092915050565b600082600081118015610ea357506001548111155b610ee2576040517f08c379a0000000000000000000000000000000000000000000000000000000008152600401610ed99061233a565b60405180910390fd5b8383600060036000848152602001908152602001600020600201549050600082118015610f0f5750808211155b610f4e576040517f08c379a0000000000000000000000000000000000000000000000000000000008152600401610f459061241a565b60405180910390fd5b60036000888152602001908152602001600020600501600087815260200190815260200160002060070160009054906101000a900460ff1694505050505092915050565b610f9a611a72565b73ffffffffffffffffffffffffffffffffffffffff16610fb8611140565b73ffffffffffffffffffffffffffffffffffffffff161461100e576040517f08c379a00000000000000000000000000000000000000000000000000000000081526004016110059061243a565b60405180910390fd5b6110186000611a7a565b565b600073ffffffffffffffffffffffffffffffffffffffff168273ffffffffffffffffffffffffffffffffffffffff16141561108a576040517f08c379a0000000000000000000000000000000000000000000000000000000008152600401611081906124da565b60405180910390fd5b60006003600085815260200190815260200160002090506110f5828260040160008673ffffffffffffffffffffffffffffffffffffffff1673ffffffffffffffffffffffffffffffffffffffff16815260200190815260200160002054611a5c90919063ffffffff16565b8160040160008573ffffffffffffffffffffffffffffffffffffffff1673ffffffffffffffffffffffffffffffffffffffff1681526020019081526020016000208190555050505050565b60008060009054906101000a900473ffffffffffffffffffffffffffffffffffffffff16905090565b60026020528060005260406000206000915090505481565b8160008111801561119457506001548111155b6111d3576040517f08c379a00000000000000000000000000000000000000000000000000000000081526004016111ca9061233a565b60405180910390fd5b82826000600360008481526020019081526020016000206002015490506000821180156112005750808211155b61123f576040517f08c379a00000000000000000000000000000000000000000000000000000000081526004016112369061241a565b60405180910390fd5b611247611a72565b73ffffffffffffffffffffffffffffffffffffffff16611265611140565b73ffffffffffffffffffffffffffffffffffffffff16146112bb576040517f08c379a00000000000000000000000000000000000000000000000000000000081526004016112b29061243a565b60405180910390fd5b60006003600088815260200190815260200160002060050190506000600281111561130f577f4e487b7100000000000000000000000000000000000000000000000000000000600052602160045260246000fd5b81600088815260200190815260200160002060070160009054906101000a900460ff16600281111561136a577f4e487b7100000000000000000000000000000000000000000000000000000000600052602160045260246000fd5b146113aa576040517f08c379a00000000000000000000000000000000000000000000000000000000081526004016113a19061249a565b60405180910390fd5b6113b48787610d97565b81600088815260200190815260200160002060040154426113d591906126c8565b1015611416576040517f08c379a000000000000000000000000000000000000000000000000000000000815260040161140d9061237a565b60405180910390fd5b600181600088815260200190815260200160002060070160006101000a81548160ff02191690836002811115611475577f4e487b7100000000000000000000000000000000000000000000000000000000600052602160045260246000fd5b021790555050505050505050565b6000151560036000600260003373ffffffffffffffffffffffffffffffffffffffff1673ffffffffffffffffffffffffffffffffffffffff16815260200190815260200160002054815260200190815260200160002060000160149054906101000a900460ff1615151461152c576040517f08c379a00000000000000000000000000000000000000000000000000000000081526004016115239061247a565b60405180910390fd5b6001600081548092919061153f9061280e565b919050555060006003600060015481526020019081526020016000209050600154600260003373ffffffffffffffffffffffffffffffffffffffff1673ffffffffffffffffffffffffffffffffffffffff16815260200190815260200160002081905550338160000160006101000a81548173ffffffffffffffffffffffffffffffffffffffff021916908373ffffffffffffffffffffffffffffffffffffffff16021790555060018160000160146101000a81548160ff0219169083151502179055508281600101908051906020019061161b929190611bc4565b508181600301819055507f937f2b54dd963e42446345dae3f5b6d4e6157e1b329836d3850f429673b993eb816001018260000160009054906101000a900473ffffffffffffffffffffffffffffffffffffffff16600154846003015460405161168794939291906122ee565b60405180910390a1505050565b60036020528060005260406000206000915090508060000160009054906101000a900473ffffffffffffffffffffffffffffffffffffffff16908060000160149054906101000a900460ff16908060010180546116f0906127ab565b80601f016020809104026020016040519081016040528092919081815260200182805461171c906127ab565b80156117695780601f1061173e57610100808354040283529160200191611769565b820191906000526020600020905b81548152906001019060200180831161174c57829003601f168201915b5050505050908060020154908060030154905085565b611787611a72565b73ffffffffffffffffffffffffffffffffffffffff166117a5611140565b73ffffffffffffffffffffffffffffffffffffffff16146117fb576040517f08c379a00000000000000000000000000000000000000000000000000000000081526004016117f29061243a565b60405180910390fd5b600073ffffffffffffffffffffffffffffffffffffffff168173ffffffffffffffffffffffffffffffffffffffff16141561186b576040517f08c379a00000000000000000000000000000000000000000000000000000000081526004016118629061235a565b60405180910390fd5b61187481611a7a565b50565b60008073ffffffffffffffffffffffffffffffffffffffff163373ffffffffffffffffffffffffffffffffffffffff1614156118e8576040517f08c379a00000000000000000000000000000000000000000000000000000000081526004016118df906124da565b60405180910390fd5b6003600083815260200190815260200160002060040160003373ffffffffffffffffffffffffffffffffffffffff1673ffffffffffffffffffffffffffffffffffffffff168152602001908152602001600020549050919050565b600080151560036000868152602001908152602001600020600501600085815260200190815260200160002060080160008473ffffffffffffffffffffffffffffffffffffffff1673ffffffffffffffffffffffffffffffffffffffff16815260200190815260200160002060000160009054906101000a900460ff1615151490509392505050565b600081836119da91906126c8565b905092915050565b60006003821115611a495781905060006001600284611a019190612697565b611a0b9190612641565b90505b81811015611a43578091506002818285611a289190612697565b611a329190612641565b611a3c9190612697565b9050611a0e565b50611a57565b60008214611a5657600190505b5b919050565b60008183611a6a9190612641565b905092915050565b600033905090565b60008060009054906101000a900473ffffffffffffffffffffffffffffffffffffffff169050816000806101000a81548173ffffffffffffffffffffffffffffffffffffffff021916908373ffffffffffffffffffffffffffffffffffffffff1602179055508173ffffffffffffffffffffffffffffffffffffffff168173ffffffffffffffffffffffffffffffffffffffff167f8be0079c531659141344cd1fd0a4f28419497f9722a3daafe3b4186f6b6457e060405160405180910390a35050565b828054611b4a906127ab565b90600052602060002090601f016020900481019282611b6c5760008555611bb3565b82601f10611b8557803560ff1916838001178555611bb3565b82800160010185558215611bb3579182015b82811115611bb2578235825591602001919060010190611b97565b5b509050611bc09190611c4a565b5090565b828054611bd0906127ab565b90600052602060002090601f016020900481019282611bf25760008555611c39565b82601f10611c0b57805160ff1916838001178555611c39565b82800160010185558215611c39579182015b82811115611c38578251825591602001919060010190611c1d565b5b509050611c469190611c4a565b5090565b5b80821115611c63576000816000905550600101611c4b565b5090565b6000611c7a611c75846125df565b6125ba565b905082815260208101848484011115611c9257600080fd5b611c9d848285612769565b509392505050565b600081359050611cb481612c40565b92915050565b60008083601f840112611ccc57600080fd5b8235905067ffffffffffffffff811115611ce557600080fd5b602083019150836001820283011115611cfd57600080fd5b9250929050565b600082601f830112611d1557600080fd5b8135611d25848260208601611c67565b91505092915050565b600081359050611d3d81612c57565b92915050565b600060208284031215611d5557600080fd5b6000611d6384828501611ca5565b91505092915050565b60008060408385031215611d7f57600080fd5b600083013567ffffffffffffffff811115611d9957600080fd5b611da585828601611d04565b9250506020611db685828601611d2e565b9150509250929050565b600060208284031215611dd257600080fd5b6000611de084828501611d2e565b91505092915050565b600080600060608486031215611dfe57600080fd5b6000611e0c86828701611d2e565b9350506020611e1d86828701611ca5565b9250506040611e2e86828701611d2e565b9150509250925092565b600080600060408486031215611e4d57600080fd5b6000611e5b86828701611d2e565b935050602084013567ffffffffffffffff811115611e7857600080fd5b611e8486828701611cba565b92509250509250925092565b60008060408385031215611ea357600080fd5b6000611eb185828601611d2e565b9250506020611ec285828601611d2e565b9150509250929050565b60008060008060808587031215611ee257600080fd5b6000611ef087828801611d2e565b9450506020611f0187828801611d2e565b9350506040611f1287828801611d2e565b9250506060611f2387828801611d2e565b91505092959194509250565b611f38816126fc565b82525050565b611f478161270e565b82525050565b611f5681612757565b82525050565b6000611f688385612630565b9350611f75838584612769565b611f7e83612942565b840190509392505050565b6000611f9482612625565b611f9e8185612630565b9350611fae818560208601612778565b611fb781612942565b840191505092915050565b60008154611fcf816127ab565b611fd98186612630565b94506001821660008114611ff4576001811461200657612039565b60ff1983168652602086019350612039565b61200f85612610565b60005b8381101561203157815481890152600182019150602081019050612012565b808801955050505b50505092915050565b600061204f601783612630565b915061205a82612953565b602082019050919050565b6000612072602683612630565b915061207d8261297c565b604082019050919050565b6000612095601883612630565b91506120a0826129cb565b602082019050919050565b60006120b8601383612630565b91506120c3826129f4565b602082019050919050565b60006120db601e83612630565b91506120e682612a1d565b602082019050919050565b60006120fe601c83612630565b915061210982612a46565b602082019050919050565b6000612121602c83612630565b915061212c82612a6f565b604082019050919050565b6000612144601383612630565b915061214f82612abe565b602082019050919050565b6000612167602083612630565b915061217282612ae7565b602082019050919050565b600061218a601183612630565b915061219582612b10565b602082019050919050565b60006121ad603183612630565b91506121b882612b39565b604082019050919050565b60006121d0601583612630565b91506121db82612b88565b602082019050919050565b60006121f3601883612630565b91506121fe82612bb1565b602082019050919050565b6000612216600f83612630565b915061222182612bda565b602082019050919050565b6000612239601483612630565b915061224482612c03565b602082019050919050565b6122588161274d565b82525050565b60006020820190506122736000830184611f2f565b92915050565b600060a08201905061228e6000830188611f2f565b61229b6020830187611f3e565b81810360408301526122ad8186611f89565b90506122bc606083018561224f565b6122c9608083018461224f565b9695505050505050565b60006020820190506122e86000830184611f4d565b92915050565b600060808201905081810360008301526123088187611fc2565b90506123176020830186611f2f565b612324604083018561224f565b612331606083018461224f565b95945050505050565b6000602082019050818103600083015261235381612042565b9050919050565b6000602082019050818103600083015261237381612065565b9050919050565b6000602082019050818103600083015261239381612088565b9050919050565b600060208201905081810360008301526123b3816120ab565b9050919050565b600060208201905081810360008301526123d3816120ce565b9050919050565b600060208201905081810360008301526123f3816120f1565b9050919050565b6000602082019050818103600083015261241381612114565b9050919050565b6000602082019050818103600083015261243381612137565b9050919050565b600060208201905081810360008301526124538161215a565b9050919050565b600060208201905081810360008301526124738161217d565b9050919050565b60006020820190508181036000830152612493816121a0565b9050919050565b600060208201905081810360008301526124b3816121c3565b9050919050565b600060208201905081810360008301526124d3816121e6565b9050919050565b600060208201905081810360008301526124f381612209565b9050919050565b600060208201905081810360008301526125138161222c565b9050919050565b600060208201905061252f600083018461224f565b92915050565b600060408201905061254a600083018561224f565b612557602083018461224f565b9392505050565b600060a082019050612573600083018961224f565b612580602083018861224f565b61258d6040830187611f2f565b61259a606083018661224f565b81810360808301526125ad818486611f5c565b9050979650505050505050565b60006125c46125d5565b90506125d082826127dd565b919050565b6000604051905090565b600067ffffffffffffffff8211156125fa576125f9612913565b5b61260382612942565b9050602081019050919050565b60008190508160005260206000209050919050565b600081519050919050565b600082825260208201905092915050565b600061264c8261274d565b91506126578361274d565b9250827fffffffffffffffffffffffffffffffffffffffffffffffffffffffffffffffff0382111561268c5761268b612857565b5b828201905092915050565b60006126a28261274d565b91506126ad8361274d565b9250826126bd576126bc612886565b5b828204905092915050565b60006126d38261274d565b91506126de8361274d565b9250828210156126f1576126f0612857565b5b828203905092915050565b60006127078261272d565b9050919050565b60008115159050919050565b600081905061272882612c2c565b919050565b600073ffffffffffffffffffffffffffffffffffffffff82169050919050565b6000819050919050565b60006127628261271a565b9050919050565b82818337600083830152505050565b60005b8381101561279657808201518184015260208101905061277b565b838111156127a5576000848401525b50505050565b600060028204905060018216806127c357607f821691505b602082108114156127d7576127d66128e4565b5b50919050565b6127e682612942565b810181811067ffffffffffffffff8211171561280557612804612913565b5b80604052505050565b60006128198261274d565b91507fffffffffffffffffffffffffffffffffffffffffffffffffffffffffffffffff82141561284c5761284b612857565b5b600182019050919050565b7f4e487b7100000000000000000000000000000000000000000000000000000000600052601160045260246000fd5b7f4e487b7100000000000000000000000000000000000000000000000000000000600052601260045260246000fd5b7f4e487b7100000000000000000000000000000000000000000000000000000000600052602160045260246000fd5b7f4e487b7100000000000000000000000000000000000000000000000000000000600052602260045260246000fd5b7f4e487b7100000000000000000000000000000000000000000000000000000000600052604160045260246000fd5b6000601f19601f8301169050919050565b7f496e76616c6964206f7267616e697a6174696f6e204944000000000000000000600082015250565b7f4f776e61626c653a206e6577206f776e657220697320746865207a65726f206160008201527f6464726573730000000000000000000000000000000000000000000000000000602082015250565b7f766f74696e6720686176656e7420656e64656420796574210000000000000000600082015250565b7f496e73756666696369656e7420546f6b656e7300000000000000000000000000600082015250565b7f4475726174696f6e2073686f756c64206265206d6f7265207468616e20300000600082015250565b7f566f74696e672069736e277420696e2054616c6c792073746174652100000000600082015250565b7f4e6f20616374697665206f7267616e697a6174696f6e2077697468206375727260008201527f656e742061646472657373210000000000000000000000000000000000000000602082015250565b7f496e76616c69642050726f706f73616c20494400000000000000000000000000600082015250565b7f4f776e61626c653a2063616c6c6572206973206e6f7420746865206f776e6572600082015250565b7f766f74696e672068617320656e64656421000000000000000000000000000000600082015250565b7f416e206f7267616e697a6174696f6e207769746820746869732061646472657360008201527f7320616c72656164792065786973747321000000000000000000000000000000602082015250565b7f566f74696e672069736e2774206f6e676f696e67210000000000000000000000600082015250565b7f566f746572206861766520616c726561647920766f7465640000000000000000600082015250565b7f696e76616c6964206163636f756e740000000000000000000000000000000000600082015250565b7f766f74696e672069736e2774206f6e676f696e67000000000000000000000000600082015250565b60038110612c3d57612c3c6128b5565b5b50565b612c49816126fc565b8114612c5457600080fd5b50565b612c608161274d565b8114612c6b57600080fd5b5056fea2646970667358221220431df1338aa3296634b2aba1daa71c4428bd9d53edafae2c5ad6cf86c857ff0264736f6c63430008040033",
  "linkReferences": {},
  "deployedLinkReferences": {}
}