{
  "_format": "hh-sol-artifact-1",
  "contractName": "QVote",
  "sourceName": "src/hardhat/contracts/Qvote.sol",
  "abi": [
    {
      "inputs": [],
      "stateMutability": "nonpayable",
      "type": "constructor"
    },
    {
      "anonymous": false,
      "inputs": [
        {
          "indexed": false,
          "internalType": "string",
          "name": "name",
          "type": "string"
        },
        {
          "indexed": false,
          "internalType": "address",
          "name": "creator",
          "type": "address"
        },
        {
          "indexed": false,
          "internalType": "address",
          "name": "contractAddress",
          "type": "address"
        },
        {
          "indexed": false,
          "internalType": "uint256",
          "name": "organizationID",
          "type": "uint256"
        },
        {
          "indexed": false,
          "internalType": "uint256",
          "name": "creditsPerVoter",
          "type": "uint256"
        }
      ],
      "name": "newOrganizationCreated",
      "type": "event"
    },
    {
      "anonymous": false,
      "inputs": [
        {
          "indexed": false,
          "internalType": "uint256",
          "name": "orgID",
          "type": "uint256"
        },
        {
          "indexed": false,
          "internalType": "string",
          "name": "title",
          "type": "string"
        },
        {
          "indexed": false,
          "internalType": "uint256",
          "name": "ProposalId",
          "type": "uint256"
        },
        {
          "indexed": false,
          "internalType": "address",
          "name": "creator",
          "type": "address"
        },
        {
          "indexed": false,
          "internalType": "uint256",
          "name": "duration",
          "type": "uint256"
        },
        {
          "indexed": false,
          "internalType": "string",
          "name": "description",
          "type": "string"
        }
      ],
      "name": "newProposalCreated",
      "type": "event"
    },
    {
      "inputs": [
        {
          "internalType": "uint256",
          "name": "",
          "type": "uint256"
        },
        {
          "internalType": "uint256",
          "name": "",
          "type": "uint256"
        }
      ],
      "name": "OrgUsers",
      "outputs": [
        {
          "internalType": "address",
          "name": "",
          "type": "address"
        }
      ],
      "stateMutability": "view",
      "type": "function"
    },
    {
      "inputs": [
        {
          "internalType": "address",
          "name": "",
          "type": "address"
        }
      ],
      "name": "OrganizationContracts",
      "outputs": [
        {
          "internalType": "bool",
          "name": "",
          "type": "bool"
        }
      ],
      "stateMutability": "view",
      "type": "function"
    },
    {
      "inputs": [
        {
          "internalType": "address",
          "name": "",
          "type": "address"
        }
      ],
      "name": "OrganizationOwners",
      "outputs": [
        {
          "internalType": "uint256",
          "name": "",
          "type": "uint256"
        }
      ],
      "stateMutability": "view",
      "type": "function"
    },
    {
      "inputs": [
        {
          "internalType": "uint256",
          "name": "",
          "type": "uint256"
        }
      ],
      "name": "allProposals",
      "outputs": [
        {
          "internalType": "address",
          "name": "creator",
          "type": "address"
        },
        {
          "internalType": "uint256",
          "name": "pid",
          "type": "uint256"
        },
        {
          "internalType": "string",
          "name": "title",
          "type": "string"
        },
        {
          "internalType": "uint256",
          "name": "upVotes",
          "type": "uint256"
        },
        {
          "internalType": "uint256",
          "name": "downVotes",
          "type": "uint256"
        },
        {
          "internalType": "uint256",
          "name": "creationTime",
          "type": "uint256"
        },
        {
          "internalType": "uint256",
          "name": "duration",
          "type": "uint256"
        },
        {
          "internalType": "string",
          "name": "description",
          "type": "string"
        }
      ],
      "stateMutability": "view",
      "type": "function"
    },
    {
      "inputs": [
        {
          "internalType": "uint256",
          "name": "_orgID",
          "type": "uint256"
        }
      ],
      "name": "allowMinting",
      "outputs": [],
      "stateMutability": "nonpayable",
      "type": "function"
    },
    {
      "inputs": [
        {
          "internalType": "uint256",
          "name": "_orgID",
          "type": "uint256"
        }
      ],
      "name": "blockMinting",
      "outputs": [],
      "stateMutability": "nonpayable",
      "type": "function"
    },
    {
      "inputs": [
        {
          "internalType": "uint256",
          "name": "",
          "type": "uint256"
        },
        {
          "internalType": "address",
          "name": "",
          "type": "address"
        }
      ],
      "name": "canMint",
      "outputs": [
        {
          "internalType": "bool",
          "name": "",
          "type": "bool"
        }
      ],
      "stateMutability": "view",
      "type": "function"
    },
    {
      "inputs": [
        {
          "internalType": "uint256",
          "name": "_orgID",
          "type": "uint256"
        },
        {
          "internalType": "uint256",
          "name": "_pID",
          "type": "uint256"
        },
        {
          "internalType": "uint256",
          "name": "vote",
          "type": "uint256"
        },
        {
          "internalType": "uint256",
          "name": "numVotes",
          "type": "uint256"
        }
      ],
      "name": "castVote",
      "outputs": [],
      "stateMutability": "nonpayable",
      "type": "function"
    },
    {
      "inputs": [
        {
          "internalType": "uint256",
          "name": "_cpv",
          "type": "uint256"
        }
      ],
      "name": "changeCreditsPerVote",
      "outputs": [
        {
          "internalType": "uint256",
          "name": "",
          "type": "uint256"
        }
      ],
      "stateMutability": "nonpayable",
      "type": "function"
    },
    {
      "inputs": [],
      "name": "checkOrgActive",
      "outputs": [
        {
          "internalType": "bool",
          "name": "",
          "type": "bool"
        }
      ],
      "stateMutability": "view",
      "type": "function"
    },
    {
      "inputs": [
        {
          "internalType": "uint256",
          "name": "_orgID",
          "type": "uint256"
        },
        {
          "internalType": "uint256",
          "name": "_pID",
          "type": "uint256"
        }
      ],
      "name": "checkProposalDuration",
      "outputs": [
        {
          "internalType": "uint256",
          "name": "",
          "type": "uint256"
        }
      ],
      "stateMutability": "view",
      "type": "function"
    },
    {
      "inputs": [
        {
          "internalType": "uint256",
          "name": "_orgID",
          "type": "uint256"
        }
      ],
      "name": "checkUserBalance",
      "outputs": [
        {
          "internalType": "uint256",
          "name": "",
          "type": "uint256"
        }
      ],
      "stateMutability": "view",
      "type": "function"
    },
    {
      "inputs": [
        {
          "internalType": "uint256",
          "name": "_orgID",
          "type": "uint256"
        }
      ],
      "name": "checkUserMintStatus",
      "outputs": [
        {
          "internalType": "bool",
          "name": "",
          "type": "bool"
        }
      ],
      "stateMutability": "view",
      "type": "function"
    },
    {
      "inputs": [
        {
          "internalType": "string",
          "name": "_name",
          "type": "string"
        },
        {
          "internalType": "uint256",
          "name": "_cpv",
          "type": "uint256"
        },
        {
          "internalType": "address",
          "name": "account",
          "type": "address"
        }
      ],
      "name": "createNewOrganization",
      "outputs": [],
      "stateMutability": "nonpayable",
      "type": "function"
    },
    {
      "inputs": [
        {
          "internalType": "uint256",
          "name": "_duration",
          "type": "uint256"
        },
        {
          "internalType": "string",
          "name": "_title",
          "type": "string"
        },
        {
          "internalType": "string",
          "name": "_desc",
          "type": "string"
        }
      ],
      "name": "createNewProposal",
      "outputs": [],
      "stateMutability": "nonpayable",
      "type": "function"
    },
    {
      "inputs": [],
      "name": "getAllOrganization",
      "outputs": [
        {
          "components": [
            {
              "internalType": "address",
              "name": "creator",
              "type": "address"
            },
            {
              "internalType": "address",
              "name": "contractAddress",
              "type": "address"
            },
            {
              "internalType": "uint256",
              "name": "oid",
              "type": "uint256"
            },
            {
              "internalType": "bool",
              "name": "isActive",
              "type": "bool"
            },
            {
              "internalType": "string",
              "name": "name",
              "type": "string"
            },
            {
              "internalType": "uint256",
              "name": "ProposalCount",
              "type": "uint256"
            },
            {
              "internalType": "uint256",
              "name": "creditsPerVoter",
              "type": "uint256"
            },
            {
              "internalType": "uint256",
              "name": "totalTokenSupply",
              "type": "uint256"
            }
          ],
          "internalType": "struct supportContract.Organization[]",
          "name": "",
          "type": "tuple[]"
        }
      ],
      "stateMutability": "view",
      "type": "function"
    },
    {
      "inputs": [],
      "name": "getAllProposals",
      "outputs": [
        {
          "components": [
            {
              "internalType": "address",
              "name": "creator",
              "type": "address"
            },
            {
              "internalType": "uint256",
              "name": "pid",
              "type": "uint256"
            },
            {
              "internalType": "string",
              "name": "title",
              "type": "string"
            },
            {
              "internalType": "address[]",
              "name": "voters",
              "type": "address[]"
            },
            {
              "internalType": "uint256",
              "name": "upVotes",
              "type": "uint256"
            },
            {
              "internalType": "uint256",
              "name": "downVotes",
              "type": "uint256"
            },
            {
              "internalType": "uint256",
              "name": "creationTime",
              "type": "uint256"
            },
            {
              "internalType": "uint256",
              "name": "duration",
              "type": "uint256"
            },
            {
              "internalType": "string",
              "name": "description",
              "type": "string"
            }
          ],
          "internalType": "struct supportContract.Proposal[]",
          "name": "",
          "type": "tuple[]"
        }
      ],
      "stateMutability": "view",
      "type": "function"
    },
    {
      "inputs": [
        {
          "internalType": "uint256",
          "name": "_orgID",
          "type": "uint256"
        }
      ],
      "name": "getOrgMembers",
      "outputs": [
        {
          "internalType": "address[]",
          "name": "",
          "type": "address[]"
        }
      ],
      "stateMutability": "view",
      "type": "function"
    },
    {
      "inputs": [
        {
          "internalType": "uint256",
          "name": "_orgID",
          "type": "uint256"
        }
      ],
      "name": "getOrgMembersCount",
      "outputs": [
        {
          "internalType": "uint256",
          "name": "",
          "type": "uint256"
        }
      ],
      "stateMutability": "view",
      "type": "function"
    },
    {
      "inputs": [
        {
          "internalType": "uint256",
          "name": "orgID",
          "type": "uint256"
        }
      ],
      "name": "getOrgProposals",
      "outputs": [
        {
          "components": [
            {
              "internalType": "address",
              "name": "creator",
              "type": "address"
            },
            {
              "internalType": "uint256",
              "name": "pid",
              "type": "uint256"
            },
            {
              "internalType": "string",
              "name": "title",
              "type": "string"
            },
            {
              "internalType": "address[]",
              "name": "voters",
              "type": "address[]"
            },
            {
              "internalType": "uint256",
              "name": "upVotes",
              "type": "uint256"
            },
            {
              "internalType": "uint256",
              "name": "downVotes",
              "type": "uint256"
            },
            {
              "internalType": "uint256",
              "name": "creationTime",
              "type": "uint256"
            },
            {
              "internalType": "uint256",
              "name": "duration",
              "type": "uint256"
            },
            {
              "internalType": "string",
              "name": "description",
              "type": "string"
            }
          ],
          "internalType": "struct supportContract.Proposal[]",
          "name": "",
          "type": "tuple[]"
        }
      ],
      "stateMutability": "view",
      "type": "function"
    },
    {
      "inputs": [
        {
          "internalType": "uint256",
          "name": "_orgID",
          "type": "uint256"
        }
      ],
      "name": "getOrganization",
      "outputs": [
        {
          "components": [
            {
              "internalType": "address",
              "name": "creator",
              "type": "address"
            },
            {
              "internalType": "address",
              "name": "contractAddress",
              "type": "address"
            },
            {
              "internalType": "uint256",
              "name": "oid",
              "type": "uint256"
            },
            {
              "internalType": "bool",
              "name": "isActive",
              "type": "bool"
            },
            {
              "internalType": "string",
              "name": "name",
              "type": "string"
            },
            {
              "internalType": "uint256",
              "name": "ProposalCount",
              "type": "uint256"
            },
            {
              "internalType": "uint256",
              "name": "creditsPerVoter",
              "type": "uint256"
            },
            {
              "internalType": "uint256",
              "name": "totalTokenSupply",
              "type": "uint256"
            }
          ],
          "internalType": "struct supportContract.Organization",
          "name": "",
          "type": "tuple"
        }
      ],
      "stateMutability": "view",
      "type": "function"
    },
    {
      "inputs": [
        {
          "internalType": "uint256",
          "name": "_oID",
          "type": "uint256"
        }
      ],
      "name": "getUserOrganizationTokenSupply",
      "outputs": [
        {
          "internalType": "uint256",
          "name": "",
          "type": "uint256"
        }
      ],
      "stateMutability": "view",
      "type": "function"
    },
    {
      "inputs": [
        {
          "internalType": "uint256",
          "name": "",
          "type": "uint256"
        },
        {
          "internalType": "address",
          "name": "",
          "type": "address"
        }
      ],
      "name": "isMember",
      "outputs": [
        {
          "internalType": "bool",
          "name": "",
          "type": "bool"
        }
      ],
      "stateMutability": "view",
      "type": "function"
    },
    {
      "inputs": [
        {
          "internalType": "uint256",
          "name": "_orgID",
          "type": "uint256"
        }
      ],
      "name": "makeOrgInactive",
      "outputs": [],
      "stateMutability": "nonpayable",
      "type": "function"
    },
    {
      "inputs": [
        {
          "internalType": "uint256",
          "name": "_orgID",
          "type": "uint256"
        }
      ],
      "name": "mint",
      "outputs": [],
      "stateMutability": "nonpayable",
      "type": "function"
    },
    {
      "inputs": [],
      "name": "organizationCount",
      "outputs": [
        {
          "internalType": "uint256",
          "name": "",
          "type": "uint256"
        }
      ],
      "stateMutability": "view",
      "type": "function"
    },
    {
      "inputs": [
        {
          "internalType": "uint256",
          "name": "",
          "type": "uint256"
        }
      ],
      "name": "organizations",
      "outputs": [
        {
          "internalType": "address",
          "name": "creator",
          "type": "address"
        },
        {
          "internalType": "address",
          "name": "contractAddress",
          "type": "address"
        },
        {
          "internalType": "uint256",
          "name": "oid",
          "type": "uint256"
        },
        {
          "internalType": "bool",
          "name": "isActive",
          "type": "bool"
        },
        {
          "internalType": "string",
          "name": "name",
          "type": "string"
        },
        {
          "internalType": "uint256",
          "name": "ProposalCount",
          "type": "uint256"
        },
        {
          "internalType": "uint256",
          "name": "creditsPerVoter",
          "type": "uint256"
        },
        {
          "internalType": "uint256",
          "name": "totalTokenSupply",
          "type": "uint256"
        }
      ],
      "stateMutability": "view",
      "type": "function"
    },
    {
      "inputs": [],
      "name": "owner",
      "outputs": [
        {
          "internalType": "address",
          "name": "",
          "type": "address"
        }
      ],
      "stateMutability": "view",
      "type": "function"
    },
    {
      "inputs": [
        {
          "internalType": "uint256",
          "name": "",
          "type": "uint256"
        },
        {
          "internalType": "uint256",
          "name": "",
          "type": "uint256"
        }
      ],
      "name": "proposalList",
      "outputs": [
        {
          "internalType": "address",
          "name": "creator",
          "type": "address"
        },
        {
          "internalType": "uint256",
          "name": "pid",
          "type": "uint256"
        },
        {
          "internalType": "string",
          "name": "title",
          "type": "string"
        },
        {
          "internalType": "uint256",
          "name": "upVotes",
          "type": "uint256"
        },
        {
          "internalType": "uint256",
          "name": "downVotes",
          "type": "uint256"
        },
        {
          "internalType": "uint256",
          "name": "creationTime",
          "type": "uint256"
        },
        {
          "internalType": "uint256",
          "name": "duration",
          "type": "uint256"
        },
        {
          "internalType": "string",
          "name": "description",
          "type": "string"
        }
      ],
      "stateMutability": "view",
      "type": "function"
    },
    {
      "inputs": [
        {
          "internalType": "uint256",
          "name": "_orgID",
          "type": "uint256"
        },
        {
          "internalType": "uint256",
          "name": "_pid",
          "type": "uint256"
        }
      ],
      "name": "totalVotes",
      "outputs": [
        {
          "internalType": "uint256",
          "name": "",
          "type": "uint256"
        },
        {
          "internalType": "uint256",
          "name": "",
          "type": "uint256"
        }
      ],
      "stateMutability": "view",
      "type": "function"
    },
    {
      "inputs": [
        {
          "internalType": "uint256",
          "name": "",
          "type": "uint256"
        },
        {
          "internalType": "address",
          "name": "",
          "type": "address"
        }
      ],
      "name": "userBalance",
      "outputs": [
        {
          "internalType": "uint256",
          "name": "",
          "type": "uint256"
        }
      ],
      "stateMutability": "view",
      "type": "function"
    }
  ],
  "bytecode": "0x6080604052600060025534801561001557600080fd5b50336000806101000a81548173ffffffffffffffffffffffffffffffffffffffff021916908373ffffffffffffffffffffffffffffffffffffffff160217905550614e00806100656000396000f3fe608060405234801561001057600080fd5b50600436106101e55760003560e01c8063920be8881161010f578063d13ae672116100a2578063f3970d7311610071578063f3970d7314610650578063fb7cc43b1461066c578063fd3d3ff11461069c578063ff435baa146106cc576101e5565b8063d13ae6721461059b578063de6124dd146105cb578063e792dd8a146105fb578063f1c6210414610632576101e5565b8063abc85d56116100de578063abc85d5614610513578063ad81c5831461052f578063b11f64421461054d578063cceb68f51461057d576101e5565b8063920be88814610474578063938351b8146104a4578063a0712d68146104db578063ab53cf6b146104f7576101e5565b80636301f69111610187578063851987051161015657806385198705146103c657806389572ff6146103f65780638da5cb5b146104265780638f4e76b914610444576101e5565b80636301f6911461031a57806363a56e7a1461033657806373f37e38146103665780637d9e10f514610396576101e5565b806324a9ed8e116101c357806324a9ed8e1461026d5780632fc256c31461029e57806336a9dbb0146102ce5780634526f690146102ea576101e5565b80631414982f146101ea5780631c6fc8501461022157806323848f171461023d575b600080fd5b61020460048036038101906101ff9190613c24565b6106ea565b604051610218989796959493929190614419565b60405180910390f35b61023b60048036038101906102369190613c60565b61087f565b005b61025760048036038101906102529190613b36565b610cf1565b6040516102649190614722565b60405180910390f35b61028760048036038101906102829190613c24565b610d49565b6040516102959291906147b0565b60405180910390f35b6102b860048036038101906102b39190613c24565b610e1d565b6040516102c59190614722565b60405180910390f35b6102e860048036038101906102e39190613b36565b610f95565b005b61030460048036038101906102ff9190613b36565b611185565b6040516103119190614700565b60405180910390f35b610334600480360381019061032f9190613b36565b611408565b005b610350600480360381019061034b9190613b36565b6115f8565b60405161035d91906144e9565b60405180910390f35b610380600480360381019061037b9190613b36565b611934565b60405161038d9190614722565b60405180910390f35b6103b060048036038101906103ab9190613b5f565b6119c2565b6040516103bd919061450b565b60405180910390f35b6103e060048036038101906103db9190613b5f565b6119f1565b6040516103ed9190614722565b60405180910390f35b610410600480360381019061040b9190613c24565b611a16565b60405161041d9190614379565b60405180910390f35b61042e611a64565b60405161043b9190614379565b60405180910390f35b61045e60048036038101906104599190613b5f565b611a88565b60405161046b919061450b565b60405180910390f35b61048e60048036038101906104899190613b36565b611ab7565b60405161049b9190614722565b60405180910390f35b6104be60048036038101906104b99190613b36565b611c79565b6040516104d2989796959493929190614419565b60405180910390f35b6104f560048036038101906104f09190613b36565b611e01565b005b610511600480360381019061050c9190613acf565b612299565b005b61052d60048036038101906105289190613b36565b6125b5565b005b6105376127ad565b604051610544919061450b565b60405180910390f35b61056760048036038101906105629190613aa6565b612915565b6040516105749190614722565b60405180910390f35b61058561292d565b60405161059291906144e9565b60405180910390f35b6105b560048036038101906105b09190613b36565b612be1565b6040516105c291906144a5565b60405180910390f35b6105e560048036038101906105e09190613aa6565b612cbd565b6040516105f2919061450b565b60405180910390f35b61061560048036038101906106109190613b36565b612cdd565b604051610629989796959493929190614394565b60405180910390f35b61063a612e0a565b6040516106479190614722565b60405180910390f35b61066a60048036038101906106659190613b9b565b612e10565b005b61068660048036038101906106819190613b36565b613378565b6040516106939190614722565b60405180910390f35b6106b660048036038101906106b19190613b36565b613441565b6040516106c3919061450b565b60405180910390f35b6106d4613553565b6040516106e191906144c7565b60405180910390f35b6006602052816000526040600020818154811061070657600080fd5b9060005260206000209060090201600091509150508060000160009054906101000a900473ffffffffffffffffffffffffffffffffffffffff169080600101549080600201805461075690614a5d565b80601f016020809104026020016040519081016040528092919081815260200182805461078290614a5d565b80156107cf5780601f106107a4576101008083540402835291602001916107cf565b820191906000526020600020905b8154815290600101906020018083116107b257829003601f168201915b5050505050908060040154908060050154908060060154908060070154908060080180546107fc90614a5d565b80601f016020809104026020016040519081016040528092919081815260200182805461082890614a5d565b80156108755780601f1061084a57610100808354040283529160200191610875565b820191906000526020600020905b81548152906001019060200180831161085857829003601f168201915b5050505050905088565b836000811015801561089357506002548111155b6108d2576040517f08c379a00000000000000000000000000000000000000000000000000000000081526004016108c990614580565b60405180910390fd5b8484600060056001846108e5919061499f565b8154811061091c577f4e487b7100000000000000000000000000000000000000000000000000000000600052603260045260246000fd5b9060005260206000209060080201600501549050600082101580156109415750808211155b610980576040517f08c379a000000000000000000000000000000000000000000000000000000000815260040161097790614660565b60405180910390fd5b6000600660008a815260200190815260200160002090506109a18989610e1d565b8160018a6109af919061499f565b815481106109e6577f4e487b7100000000000000000000000000000000000000000000000000000000600052603260045260246000fd5b90600052602060002090600902016006015442610a03919061499f565b10610a43576040517f08c379a0000000000000000000000000000000000000000000000000000000008152600401610a3a906146c0565b60405180910390fd5b85610a4d8a613378565b1015610a8e576040517f08c379a0000000000000000000000000000000000000000000000000000000008152600401610a85906145c0565b60405180910390fd5b85600760008b815260200190815260200160002060003373ffffffffffffffffffffffffffffffffffffffff1673ffffffffffffffffffffffffffffffffffffffff16815260200190815260200160002054610aea919061499f565b600760008b815260200190815260200160002060003373ffffffffffffffffffffffffffffffffffffffff1673ffffffffffffffffffffffffffffffffffffffff168152602001908152602001600020819055506000610b498761374e565b905060008260018b610b5b919061499f565b81548110610b92577f4e487b7100000000000000000000000000000000000000000000000000000000600052603260045260246000fd5b906000526020600020906009020190506001891415610bc857818160040154610bbb9190614918565b8160040181905550610be1565b818160050154610bd89190614918565b81600501819055505b80600301339080600181540180825580915050600190039060005260206000200160009091909190916101000a81548173ffffffffffffffffffffffffffffffffffffffff021916908373ffffffffffffffffffffffffffffffffffffffff1602179055506000600860008d815260200190815260200160002060008c815260200190815260200160002060003373ffffffffffffffffffffffffffffffffffffffff1673ffffffffffffffffffffffffffffffffffffffff168152602001908152602001600020905060018160000160006101000a81548160ff02191690831515021790555082816001016000828254610cdc9190614918565b92505081905550505050505050505050505050565b6000806005805490501480610d1c575060006009600084815260200190815260200160002080549050145b15610d2a5760009050610d44565b600960008381526020019081526020016000208054905090505b919050565b600080600060066000868152602001908152602001600020905080600185610d71919061499f565b81548110610da8577f4e487b7100000000000000000000000000000000000000000000000000000000600052603260045260246000fd5b90600052602060002090600902016004015481600186610dc8919061499f565b81548110610dff577f4e487b7100000000000000000000000000000000000000000000000000000000600052603260045260246000fd5b90600052602060002090600902016005015492509250509250929050565b60008260008110158015610e3357506002548111155b610e72576040517f08c379a0000000000000000000000000000000000000000000000000000000008152600401610e6990614580565b60405180910390fd5b838360006005600184610e85919061499f565b81548110610ebc577f4e487b7100000000000000000000000000000000000000000000000000000000600052603260045260246000fd5b906000526020600020906008020160050154905060008210158015610ee15750808211155b610f20576040517f08c379a0000000000000000000000000000000000000000000000000000000008152600401610f1790614660565b60405180910390fd5b60066000888152602001908152602001600020600187610f40919061499f565b81548110610f77577f4e487b7100000000000000000000000000000000000000000000000000000000600052603260045260246000fd5b90600052602060002090600902016007015494505050505092915050565b80600360003373ffffffffffffffffffffffffffffffffffffffff1673ffffffffffffffffffffffffffffffffffffffff1681526020019081526020016000205414611016576040517f08c379a000000000000000000000000000000000000000000000000000000000815260040161100d90614680565b60405180910390fd5b6000600960008381526020019081526020016000208054806020026020016040519081016040528092919081815260200182805480156110ab57602002820191906000526020600020905b8160009054906101000a900473ffffffffffffffffffffffffffffffffffffffff1673ffffffffffffffffffffffffffffffffffffffff1681526020019060010190808311611061575b5050505050905060005b81518110156111805760008282815181106110f9577f4e487b7100000000000000000000000000000000000000000000000000000000600052603260045260246000fd5b602002602001015190506000600a600086815260200190815260200160002060008373ffffffffffffffffffffffffffffffffffffffff1673ffffffffffffffffffffffffffffffffffffffff16815260200190815260200160002060006101000a81548160ff02191690831515021790555050808061117890614ac0565b9150506110b5565b505050565b61118d6137c8565b6000600580549050148061120957506000151560056001846111af919061499f565b815481106111e6577f4e487b7100000000000000000000000000000000000000000000000000000000600052603260045260246000fd5b906000526020600020906008020160030160009054906101000a900460ff161515145b1561121f576112166137c8565b80915050611403565b600560018361122e919061499f565b81548110611265577f4e487b7100000000000000000000000000000000000000000000000000000000600052603260045260246000fd5b9060005260206000209060080201604051806101000160405290816000820160009054906101000a900473ffffffffffffffffffffffffffffffffffffffff1673ffffffffffffffffffffffffffffffffffffffff1673ffffffffffffffffffffffffffffffffffffffff1681526020016001820160009054906101000a900473ffffffffffffffffffffffffffffffffffffffff1673ffffffffffffffffffffffffffffffffffffffff1673ffffffffffffffffffffffffffffffffffffffff168152602001600282015481526020016003820160009054906101000a900460ff1615151515815260200160048201805461136090614a5d565b80601f016020809104026020016040519081016040528092919081815260200182805461138c90614a5d565b80156113d95780601f106113ae576101008083540402835291602001916113d9565b820191906000526020600020905b8154815290600101906020018083116113bc57829003601f168201915b50505050508152602001600582015481526020016006820154815260200160078201548152505090505b919050565b80600360003373ffffffffffffffffffffffffffffffffffffffff1673ffffffffffffffffffffffffffffffffffffffff1681526020019081526020016000205414611489576040517f08c379a000000000000000000000000000000000000000000000000000000000815260040161148090614680565b60405180910390fd5b60006009600083815260200190815260200160002080548060200260200160405190810160405280929190818152602001828054801561151e57602002820191906000526020600020905b8160009054906101000a900473ffffffffffffffffffffffffffffffffffffffff1673ffffffffffffffffffffffffffffffffffffffff16815260200190600101908083116114d4575b5050505050905060005b81518110156115f357600082828151811061156c577f4e487b7100000000000000000000000000000000000000000000000000000000600052603260045260246000fd5b602002602001015190506001600a600086815260200190815260200160002060008373ffffffffffffffffffffffffffffffffffffffff1673ffffffffffffffffffffffffffffffffffffffff16815260200190815260200160002060006101000a81548160ff0219169083151502179055505080806115eb90614ac0565b915050611528565b505050565b6060816000811015801561160e57506002548111155b61164d576040517f08c379a000000000000000000000000000000000000000000000000000000000815260040161164490614580565b60405180910390fd5b60006005805490501480611677575060006006600085815260200190815260200160002080549050145b156116875760608092505061192e565b60066000848152602001908152602001600020805480602002602001604051908101604052809291908181526020016000905b828210156119275783829060005260206000209060090201604051806101200160405290816000820160009054906101000a900473ffffffffffffffffffffffffffffffffffffffff1673ffffffffffffffffffffffffffffffffffffffff1673ffffffffffffffffffffffffffffffffffffffff1681526020016001820154815260200160028201805461174e90614a5d565b80601f016020809104026020016040519081016040528092919081815260200182805461177a90614a5d565b80156117c75780601f1061179c576101008083540402835291602001916117c7565b820191906000526020600020905b8154815290600101906020018083116117aa57829003601f168201915b505050505081526020016003820180548060200260200160405190810160405280929190818152602001828054801561185557602002820191906000526020600020905b8160009054906101000a900473ffffffffffffffffffffffffffffffffffffffff1673ffffffffffffffffffffffffffffffffffffffff168152602001906001019080831161180b575b505050505081526020016004820154815260200160058201548152602001600682015481526020016007820154815260200160088201805461189690614a5d565b80601f01602080910402602001604051908101604052809291908181526020018280546118c290614a5d565b801561190f5780601f106118e45761010080835404028352916020019161190f565b820191906000526020600020905b8154815290600101906020018083116118f257829003601f168201915b505050505081525050815260200190600101906116ba565b5050505091505b50919050565b600080600580549050141561194c57600090506119bd565b60058054905082111561196257600090506119bd565b6005600183611971919061499f565b815481106119a8577f4e487b7100000000000000000000000000000000000000000000000000000000600052603260045260246000fd5b90600052602060002090600802016007015490505b919050565b600b6020528160005260406000206020528060005260406000206000915091509054906101000a900460ff1681565b6007602052816000526040600020602052806000526040600020600091509150505481565b60096020528160005260406000208181548110611a3257600080fd5b906000526020600020016000915091509054906101000a900473ffffffffffffffffffffffffffffffffffffffff1681565b60008054906101000a900473ffffffffffffffffffffffffffffffffffffffff1681565b600a6020528160005260406000206020528060005260406000206000915091509054906101000a900460ff1681565b600080600360003373ffffffffffffffffffffffffffffffffffffffff1673ffffffffffffffffffffffffffffffffffffffff1681526020019081526020016000205411611b3a576040517f08c379a0000000000000000000000000000000000000000000000000000000008152600401611b3190614680565b60405180910390fd5b600060056001600360003373ffffffffffffffffffffffffffffffffffffffff1673ffffffffffffffffffffffffffffffffffffffff16815260200190815260200160002054611b8a919061499f565b81548110611bc1577f4e487b7100000000000000000000000000000000000000000000000000000000600052603260045260246000fd5b9060005260206000209060080201905082816006018190555060056001600360003373ffffffffffffffffffffffffffffffffffffffff1673ffffffffffffffffffffffffffffffffffffffff16815260200190815260200160002054611c28919061499f565b81548110611c5f577f4e487b7100000000000000000000000000000000000000000000000000000000600052603260045260246000fd5b906000526020600020906008020160060154915050919050565b60018181548110611c8957600080fd5b90600052602060002090600902016000915090508060000160009054906101000a900473ffffffffffffffffffffffffffffffffffffffff1690806001015490806002018054611cd890614a5d565b80601f0160208091040260200160405190810160405280929190818152602001828054611d0490614a5d565b8015611d515780601f10611d2657610100808354040283529160200191611d51565b820191906000526020600020905b815481529060010190602001808311611d3457829003601f168201915b505050505090806004015490806005015490806006015490806007015490806008018054611d7e90614a5d565b80601f0160208091040260200160405190810160405280929190818152602001828054611daa90614a5d565b8015611df75780601f10611dcc57610100808354040283529160200191611df7565b820191906000526020600020905b815481529060010190602001808311611dda57829003601f168201915b5050505050905088565b600073ffffffffffffffffffffffffffffffffffffffff163373ffffffffffffffffffffffffffffffffffffffff161415611e71576040517f08c379a0000000000000000000000000000000000000000000000000000000008152600401611e68906146e0565b60405180910390fd5b60001515600b600083815260200190815260200160002060003373ffffffffffffffffffffffffffffffffffffffff1673ffffffffffffffffffffffffffffffffffffffff16815260200190815260200160002060009054906101000a900460ff1615151415611fbd576001600b600083815260200190815260200160002060003373ffffffffffffffffffffffffffffffffffffffff1673ffffffffffffffffffffffffffffffffffffffff16815260200190815260200160002060006101000a81548160ff02191690831515021790555060096000828152602001908152602001600020339080600181540180825580915050600190039060005260206000200160009091909190916101000a81548173ffffffffffffffffffffffffffffffffffffffff021916908373ffffffffffffffffffffffffffffffffffffffff160217905550612062565b60011515600a600083815260200190815260200160002060003373ffffffffffffffffffffffffffffffffffffffff1673ffffffffffffffffffffffffffffffffffffffff16815260200190815260200160002060009054906101000a900460ff16151514612061576040517f08c379a0000000000000000000000000000000000000000000000000000000008152600401612058906145a0565b60405180910390fd5b5b6000600a600083815260200190815260200160002060003373ffffffffffffffffffffffffffffffffffffffff1673ffffffffffffffffffffffffffffffffffffffff16815260200190815260200160002060006101000a81548160ff021916908315150217905550600060056001836120dc919061499f565b81548110612113577f4e487b7100000000000000000000000000000000000000000000000000000000600052603260045260246000fd5b9060005260206000209060080201600601549050806007600084815260200190815260200160002060003373ffffffffffffffffffffffffffffffffffffffff1673ffffffffffffffffffffffffffffffffffffffff168152602001908152602001600020546121839190614918565b6007600084815260200190815260200160002060003373ffffffffffffffffffffffffffffffffffffffff1673ffffffffffffffffffffffffffffffffffffffff168152602001908152602001600020819055508060056001846121e7919061499f565b8154811061221e577f4e487b7100000000000000000000000000000000000000000000000000000000600052603260045260246000fd5b90600052602060002090600802016007015461223a9190614918565b6005600184612249919061499f565b81548110612280577f4e487b7100000000000000000000000000000000000000000000000000000000600052603260045260246000fd5b9060005260206000209060080201600701819055505050565b60001515600460008373ffffffffffffffffffffffffffffffffffffffff1673ffffffffffffffffffffffffffffffffffffffff16815260200190815260200160002060009054906101000a900460ff1615151461232c576040517f08c379a000000000000000000000000000000000000000000000000000000000815260040161232390614600565b60405180910390fd5b6002600081548092919061233f90614ac0565b91905055506001600460008373ffffffffffffffffffffffffffffffffffffffff1673ffffffffffffffffffffffffffffffffffffffff16815260200190815260200160002060006101000a81548160ff021916908315150217905550600254600360003373ffffffffffffffffffffffffffffffffffffffff1673ffffffffffffffffffffffffffffffffffffffff1681526020019081526020016000208190555060056040518061010001604052803373ffffffffffffffffffffffffffffffffffffffff1681526020018373ffffffffffffffffffffffffffffffffffffffff1681526020016002548152602001600115158152602001858152602001600081526020018481526020016000815250908060018154018082558091505060019003906000526020600020906008020160009091909190915060008201518160000160006101000a81548173ffffffffffffffffffffffffffffffffffffffff021916908373ffffffffffffffffffffffffffffffffffffffff16021790555060208201518160010160006101000a81548173ffffffffffffffffffffffffffffffffffffffff021916908373ffffffffffffffffffffffffffffffffffffffff1602179055506040820151816002015560608201518160030160006101000a81548160ff021916908315150217905550608082015181600401908051906020019061254e92919061383b565b5060a0820151816005015560c0820151816006015560e0820151816007015550507fd6b4f22e0c4ce9ef645a507190418f6c8189cf03abff45a5bb5a48619996b68d833383600254866040516125a8959493929190614526565b60405180910390a1505050565b60008054906101000a900473ffffffffffffffffffffffffffffffffffffffff1673ffffffffffffffffffffffffffffffffffffffff163373ffffffffffffffffffffffffffffffffffffffff1614612643576040517f08c379a000000000000000000000000000000000000000000000000000000000815260040161263a90614620565b60405180910390fd5b60006005600183612654919061499f565b8154811061268b577f4e487b7100000000000000000000000000000000000000000000000000000000600052603260045260246000fd5b9060005260206000209060080201905060008160000160009054906101000a900473ffffffffffffffffffffffffffffffffffffffff1690506000600360008373ffffffffffffffffffffffffffffffffffffffff1673ffffffffffffffffffffffffffffffffffffffff1681526020019081526020016000208190555060008260010160009054906101000a900473ffffffffffffffffffffffffffffffffffffffff1690506000600460008373ffffffffffffffffffffffffffffffffffffffff1673ffffffffffffffffffffffffffffffffffffffff16815260200190815260200160002060006101000a81548160ff02191690831515021790555060008360030160006101000a81548160ff02191690831515021790555050505050565b60008060058054905014156127c55760009050612912565b600580549050600360003373ffffffffffffffffffffffffffffffffffffffff1673ffffffffffffffffffffffffffffffffffffffff16815260200190815260200160002054118061285657506000600360003373ffffffffffffffffffffffffffffffffffffffff1673ffffffffffffffffffffffffffffffffffffffff16815260200190815260200160002054145b156128645760009050612912565b6001151560056001600360003373ffffffffffffffffffffffffffffffffffffffff1673ffffffffffffffffffffffffffffffffffffffff168152602001908152602001600020546128b6919061499f565b815481106128ed577f4e487b7100000000000000000000000000000000000000000000000000000000600052603260045260246000fd5b906000526020600020906008020160030160009054906101000a900460ff1615151490505b90565b60036020528060005260406000206000915090505481565b60606000600180549050141561294857606080915050612bde565b6001805480602002602001604051908101604052809291908181526020016000905b82821015612bd75783829060005260206000209060090201604051806101200160405290816000820160009054906101000a900473ffffffffffffffffffffffffffffffffffffffff1673ffffffffffffffffffffffffffffffffffffffff1673ffffffffffffffffffffffffffffffffffffffff168152602001600182015481526020016002820180546129fe90614a5d565b80601f0160208091040260200160405190810160405280929190818152602001828054612a2a90614a5d565b8015612a775780601f10612a4c57610100808354040283529160200191612a77565b820191906000526020600020905b815481529060010190602001808311612a5a57829003601f168201915b5050505050815260200160038201805480602002602001604051908101604052809291908181526020018280548015612b0557602002820191906000526020600020905b8160009054906101000a900473ffffffffffffffffffffffffffffffffffffffff1673ffffffffffffffffffffffffffffffffffffffff1681526020019060010190808311612abb575b5050505050815260200160048201548152602001600582015481526020016006820154815260200160078201548152602001600882018054612b4690614a5d565b80601f0160208091040260200160405190810160405280929190818152602001828054612b7290614a5d565b8015612bbf5780601f10612b9457610100808354040283529160200191612bbf565b820191906000526020600020905b815481529060010190602001808311612ba257829003601f168201915b5050505050815250508152602001906001019061296a565b5050505090505b90565b606060006005805490501480612c0d575060006009600084815260200190815260200160002080549050145b15612c1d57606080915050612cb8565b60096000838152602001908152602001600020805480602002602001604051908101604052809291908181526020018280548015612cb057602002820191906000526020600020905b8160009054906101000a900473ffffffffffffffffffffffffffffffffffffffff1673ffffffffffffffffffffffffffffffffffffffff1681526020019060010190808311612c66575b505050505090505b919050565b60046020528060005260406000206000915054906101000a900460ff1681565b60058181548110612ced57600080fd5b90600052602060002090600802016000915090508060000160009054906101000a900473ffffffffffffffffffffffffffffffffffffffff16908060010160009054906101000a900473ffffffffffffffffffffffffffffffffffffffff16908060020154908060030160009054906101000a900460ff1690806004018054612d7590614a5d565b80601f0160208091040260200160405190810160405280929190818152602001828054612da190614a5d565b8015612dee5780601f10612dc357610100808354040283529160200191612dee565b820191906000526020600020905b815481529060010190602001808311612dd157829003601f168201915b5050505050908060050154908060060154908060070154905088565b60025481565b60008511612e53576040517f08c379a0000000000000000000000000000000000000000000000000000000008152600401612e4a906146a0565b60405180910390fd5b6000600360003373ffffffffffffffffffffffffffffffffffffffff1673ffffffffffffffffffffffffffffffffffffffff168152602001908152602001600020549050600115156005600183612eaa919061499f565b81548110612ee1577f4e487b7100000000000000000000000000000000000000000000000000000000600052603260045260246000fd5b906000526020600020906008020160030160009054906101000a900460ff16151514612f42576040517f08c379a0000000000000000000000000000000000000000000000000000000008152600401612f3990614640565b60405180910390fd5b6005600182612f51919061499f565b81548110612f88577f4e487b7100000000000000000000000000000000000000000000000000000000600052603260045260246000fd5b90600052602060002090600802016005016000815480929190612faa90614ac0565b919050555060006005600183612fc0919061499f565b81548110612ff7577f4e487b7100000000000000000000000000000000000000000000000000000000600052603260045260246000fd5b90600052602060002090600802016005015490506130136138c1565b86868080601f016020809104026020016040519081016040528093929190818152602001838380828437600081840152601f19601f8201169050808301925050505050505081604001819052508181602001818152505033816000019073ffffffffffffffffffffffffffffffffffffffff16908173ffffffffffffffffffffffffffffffffffffffff168152505084848080601f016020809104026020016040519081016040528093929190818152602001838380828437600081840152601f19601f82011690508083019250505050505050816101000181905250878160e0018181525050428160c0018181525050600081608001818152505060008160a00181815250506006600084815260200190815260200160002081908060018154018082558091505060019003906000526020600020906009020160009091909190915060008201518160000160006101000a81548173ffffffffffffffffffffffffffffffffffffffff021916908373ffffffffffffffffffffffffffffffffffffffff1602179055506020820151816001015560408201518160020190805190602001906131c492919061383b565b5060608201518160030190805190602001906131e1929190613923565b506080820151816004015560a0820151816005015560c0820151816006015560e0820151816007015561010082015181600801908051906020019061322792919061383b565b505050600181908060018154018082558091505060019003906000526020600020906009020160009091909190915060008201518160000160006101000a81548173ffffffffffffffffffffffffffffffffffffffff021916908373ffffffffffffffffffffffffffffffffffffffff1602179055506020820151816001015560408201518160020190805190602001906132c392919061383b565b5060608201518160030190805190602001906132e0929190613923565b506080820151816004015560a0820151816005015560c0820151816006015560e0820151816007015561010082015181600801908051906020019061332692919061383b565b5050507ff53c86d23867defe5efadb4c8474b285930e5c754dc8019b734a5e4f69322edd83888885338d8b8b60405161336698979695949392919061473d565b60405180910390a15050505050505050565b60008073ffffffffffffffffffffffffffffffffffffffff163373ffffffffffffffffffffffffffffffffffffffff1614156133e9576040517f08c379a00000000000000000000000000000000000000000000000000000000081526004016133e0906145e0565b60405180910390fd5b6007600083815260200190815260200160002060003373ffffffffffffffffffffffffffffffffffffffff1673ffffffffffffffffffffffffffffffffffffffff168152602001908152602001600020549050919050565b600080600580549050148061346c575060006009600084815260200190815260200160002080549050145b1561347a576000905061354e565b60001515600b600084815260200190815260200160002060003373ffffffffffffffffffffffffffffffffffffffff1673ffffffffffffffffffffffffffffffffffffffff16815260200190815260200160002060009054906101000a900460ff16151514156134ed576000905061354e565b600a600083815260200190815260200160002060003373ffffffffffffffffffffffffffffffffffffffff1673ffffffffffffffffffffffffffffffffffffffff16815260200190815260200160002060009054906101000a900460ff1690505b919050565b60606000600580549050141561356e5760608091505061374b565b6005805480602002602001604051908101604052809291908181526020016000905b828210156137445783829060005260206000209060080201604051806101000160405290816000820160009054906101000a900473ffffffffffffffffffffffffffffffffffffffff1673ffffffffffffffffffffffffffffffffffffffff1673ffffffffffffffffffffffffffffffffffffffff1681526020016001820160009054906101000a900473ffffffffffffffffffffffffffffffffffffffff1673ffffffffffffffffffffffffffffffffffffffff1673ffffffffffffffffffffffffffffffffffffffff168152602001600282015481526020016003820160009054906101000a900460ff1615151515815260200160048201805461369590614a5d565b80601f01602080910402602001604051908101604052809291908181526020018280546136c190614a5d565b801561370e5780601f106136e35761010080835404028352916020019161370e565b820191906000526020600020905b8154815290600101906020018083116136f157829003601f168201915b50505050508152602001600582015481526020016006820154815260200160078201548152505081526020019060010190613590565b5050505090505b90565b600060038211156137b5578190506000600160028461376d919061496e565b6137779190614918565b90505b818110156137af578091506002818285613794919061496e565b61379e9190614918565b6137a8919061496e565b905061377a565b506137c3565b600082146137c257600190505b5b919050565b604051806101000160405280600073ffffffffffffffffffffffffffffffffffffffff168152602001600073ffffffffffffffffffffffffffffffffffffffff16815260200160008152602001600015158152602001606081526020016000815260200160008152602001600081525090565b82805461384790614a5d565b90600052602060002090601f01602090048101928261386957600085556138b0565b82601f1061388257805160ff19168380011785556138b0565b828001600101855582156138b0579182015b828111156138af578251825591602001919060010190613894565b5b5090506138bd91906139ad565b5090565b604051806101200160405280600073ffffffffffffffffffffffffffffffffffffffff16815260200160008152602001606081526020016060815260200160008152602001600081526020016000815260200160008152602001606081525090565b82805482825590600052602060002090810192821561399c579160200282015b8281111561399b5782518260006101000a81548173ffffffffffffffffffffffffffffffffffffffff021916908373ffffffffffffffffffffffffffffffffffffffff16021790555091602001919060010190613943565b5b5090506139a991906139ad565b5090565b5b808211156139c65760008160009055506001016139ae565b5090565b60006139dd6139d8846147fe565b6147d9565b9050828152602081018484840111156139f557600080fd5b613a00848285614a1b565b509392505050565b600081359050613a1781614d9c565b92915050565b60008083601f840112613a2f57600080fd5b8235905067ffffffffffffffff811115613a4857600080fd5b602083019150836001820283011115613a6057600080fd5b9250929050565b600082601f830112613a7857600080fd5b8135613a888482602086016139ca565b91505092915050565b600081359050613aa081614db3565b92915050565b600060208284031215613ab857600080fd5b6000613ac684828501613a08565b91505092915050565b600080600060608486031215613ae457600080fd5b600084013567ffffffffffffffff811115613afe57600080fd5b613b0a86828701613a67565b9350506020613b1b86828701613a91565b9250506040613b2c86828701613a08565b9150509250925092565b600060208284031215613b4857600080fd5b6000613b5684828501613a91565b91505092915050565b60008060408385031215613b7257600080fd5b6000613b8085828601613a91565b9250506020613b9185828601613a08565b9150509250929050565b600080600080600060608688031215613bb357600080fd5b6000613bc188828901613a91565b955050602086013567ffffffffffffffff811115613bde57600080fd5b613bea88828901613a1d565b9450945050604086013567ffffffffffffffff811115613c0957600080fd5b613c1588828901613a1d565b92509250509295509295909350565b60008060408385031215613c3757600080fd5b6000613c4585828601613a91565b9250506020613c5685828601613a91565b9150509250929050565b60008060008060808587031215613c7657600080fd5b6000613c8487828801613a91565b9450506020613c9587828801613a91565b9350506040613ca687828801613a91565b9250506060613cb787828801613a91565b91505092959194509250565b6000613ccf8383613d03565b60208301905092915050565b6000613ce78383614128565b905092915050565b6000613cfb8383614288565b905092915050565b613d0c816149d3565b82525050565b613d1b816149d3565b82525050565b6000613d2c8261485f565b613d3681856148b2565b9350613d418361482f565b8060005b83811015613d72578151613d598882613cc3565b9750613d648361488b565b925050600181019050613d45565b5085935050505092915050565b6000613d8a8261485f565b613d9481856148c3565b9350613d9f8361482f565b8060005b83811015613dd0578151613db78882613cc3565b9750613dc28361488b565b925050600181019050613da3565b5085935050505092915050565b6000613de88261486a565b613df281856148d4565b935083602082028501613e048561483f565b8060005b85811015613e405784840389528151613e218582613cdb565b9450613e2c83614898565b925060208a01995050600181019050613e08565b50829750879550505050505092915050565b6000613e5d82614875565b613e6781856148e5565b935083602082028501613e798561484f565b8060005b85811015613eb55784840389528151613e968582613cef565b9450613ea1836148a5565b925060208a01995050600181019050613e7d565b50829750879550505050505092915050565b613ed0816149e5565b82525050565b613edf816149e5565b82525050565b6000613ef18385614907565b9350613efe838584614a1b565b613f0783614bc5565b840190509392505050565b6000613f1d82614880565b613f2781856148f6565b9350613f37818560208601614a2a565b613f4081614bc5565b840191505092915050565b6000613f5682614880565b613f608185614907565b9350613f70818560208601614a2a565b613f7981614bc5565b840191505092915050565b6000613f91601783614907565b9150613f9c82614bd6565b602082019050919050565b6000613fb4601383614907565b9150613fbf82614bff565b602082019050919050565b6000613fd7601383614907565b9150613fe282614c28565b602082019050919050565b6000613ffa600b83614907565b915061400582614c51565b602082019050919050565b600061401d601783614907565b915061402882614c7a565b602082019050919050565b6000614040600b83614907565b915061404b82614ca3565b602082019050919050565b6000614063601683614907565b915061406e82614ccc565b602082019050919050565b6000614086601383614907565b915061409182614cf5565b602082019050919050565b60006140a9600c83614907565b91506140b482614d1e565b602082019050919050565b60006140cc600e83614907565b91506140d782614d47565b602082019050919050565b60006140ef601183614907565b91506140fa82614d70565b602082019050919050565b6000614112600083614907565b915061411d82614d99565b600082019050919050565b6000610100830160008301516141416000860182613d03565b5060208301516141546020860182613d03565b506040830151614167604086018261435b565b50606083015161417a6060860182613ec7565b50608083015184820360808601526141928282613f12565b91505060a08301516141a760a086018261435b565b5060c08301516141ba60c086018261435b565b5060e08301516141cd60e086018261435b565b508091505092915050565b6000610100830160008301516141f16000860182613d03565b5060208301516142046020860182613d03565b506040830151614217604086018261435b565b50606083015161422a6060860182613ec7565b50608083015184820360808601526142428282613f12565b91505060a083015161425760a086018261435b565b5060c083015161426a60c086018261435b565b5060e083015161427d60e086018261435b565b508091505092915050565b6000610120830160008301516142a16000860182613d03565b5060208301516142b4602086018261435b565b50604083015184820360408601526142cc8282613f12565b915050606083015184820360608601526142e68282613d21565b91505060808301516142fb608086018261435b565b5060a083015161430e60a086018261435b565b5060c083015161432160c086018261435b565b5060e083015161433460e086018261435b565b5061010083015184820361010086015261434e8282613f12565b9150508091505092915050565b61436481614a11565b82525050565b61437381614a11565b82525050565b600060208201905061438e6000830184613d12565b92915050565b6000610100820190506143aa600083018b613d12565b6143b7602083018a613d12565b6143c4604083018961436a565b6143d16060830188613ed6565b81810360808301526143e38187613f4b565b90506143f260a083018661436a565b6143ff60c083018561436a565b61440c60e083018461436a565b9998505050505050505050565b60006101008201905061442f600083018b613d12565b61443c602083018a61436a565b818103604083015261444e8189613f4b565b905061445d606083018861436a565b61446a608083018761436a565b61447760a083018661436a565b61448460c083018561436a565b81810360e08301526144968184613f4b565b90509998505050505050505050565b600060208201905081810360008301526144bf8184613d7f565b905092915050565b600060208201905081810360008301526144e18184613ddd565b905092915050565b600060208201905081810360008301526145038184613e52565b905092915050565b60006020820190506145206000830184613ed6565b92915050565b600060a08201905081810360008301526145408188613f4b565b905061454f6020830187613d12565b61455c6040830186613d12565b614569606083018561436a565b614576608083018461436a565b9695505050505050565b6000602082019050818103600083015261459981613f84565b9050919050565b600060208201905081810360008301526145b981613fa7565b9050919050565b600060208201905081810360008301526145d981613fca565b9050919050565b600060208201905081810360008301526145f981613fed565b9050919050565b6000602082019050818103600083015261461981614010565b9050919050565b6000602082019050818103600083015261463981614033565b9050919050565b6000602082019050818103600083015261465981614056565b9050919050565b6000602082019050818103600083015261467981614079565b9050919050565b600060208201905081810360008301526146998161409c565b9050919050565b600060208201905081810360008301526146b9816140bf565b9050919050565b600060208201905081810360008301526146d9816140e2565b9050919050565b600060208201905081810360008301526146f981614105565b9050919050565b6000602082019050818103600083015261471a81846141d8565b905092915050565b6000602082019050614737600083018461436a565b92915050565b600060c082019050614752600083018b61436a565b818103602083015261476581898b613ee5565b9050614774604083018861436a565b6147816060830187613d12565b61478e608083018661436a565b81810360a08301526147a1818486613ee5565b90509998505050505050505050565b60006040820190506147c5600083018561436a565b6147d2602083018461436a565b9392505050565b60006147e36147f4565b90506147ef8282614a8f565b919050565b6000604051905090565b600067ffffffffffffffff82111561481957614818614b96565b5b61482282614bc5565b9050602081019050919050565b6000819050602082019050919050565b6000819050602082019050919050565b6000819050602082019050919050565b600081519050919050565b600081519050919050565b600081519050919050565b600081519050919050565b6000602082019050919050565b6000602082019050919050565b6000602082019050919050565b600082825260208201905092915050565b600082825260208201905092915050565b600082825260208201905092915050565b600082825260208201905092915050565b600082825260208201905092915050565b600082825260208201905092915050565b600061492382614a11565b915061492e83614a11565b9250827fffffffffffffffffffffffffffffffffffffffffffffffffffffffffffffffff0382111561496357614962614b09565b5b828201905092915050565b600061497982614a11565b915061498483614a11565b92508261499457614993614b38565b5b828204905092915050565b60006149aa82614a11565b91506149b583614a11565b9250828210156149c8576149c7614b09565b5b828203905092915050565b60006149de826149f1565b9050919050565b60008115159050919050565b600073ffffffffffffffffffffffffffffffffffffffff82169050919050565b6000819050919050565b82818337600083830152505050565b60005b83811015614a48578082015181840152602081019050614a2d565b83811115614a57576000848401525b50505050565b60006002820490506001821680614a7557607f821691505b60208210811415614a8957614a88614b67565b5b50919050565b614a9882614bc5565b810181811067ffffffffffffffff82111715614ab757614ab6614b96565b5b80604052505050565b6000614acb82614a11565b91507fffffffffffffffffffffffffffffffffffffffffffffffffffffffffffffffff821415614afe57614afd614b09565b5b600182019050919050565b7f4e487b7100000000000000000000000000000000000000000000000000000000600052601160045260246000fd5b7f4e487b7100000000000000000000000000000000000000000000000000000000600052601260045260246000fd5b7f4e487b7100000000000000000000000000000000000000000000000000000000600052602260045260246000fd5b7f4e487b7100000000000000000000000000000000000000000000000000000000600052604160045260246000fd5b6000601f19601f8301169050919050565b7f496e76616c6964206f7267616e697a6174696f6e204944000000000000000000600082015250565b7f4d696e74696e67204e6f7420416c6c6f77656400000000000000000000000000600082015250565b7f496e73756666696369656e7420546f6b656e7300000000000000000000000000600082015250565b7f696e76616c696420616363000000000000000000000000000000000000000000600082015250565b7f436f6e747261637420616c726561647920657869737473000000000000000000600082015250565b7f6e6f7420616c6c6f776564000000000000000000000000000000000000000000600082015250565b7f4e6f20616374697665206f7267616e697a6174696f6e00000000000000000000600082015250565b7f496e76616c69642050726f706f73616c20494400000000000000000000000000600082015250565b7f77726f6e67206f72672069640000000000000000000000000000000000000000600082015250565b7f57726f6e67204475726174696f6e000000000000000000000000000000000000600082015250565b7f766f74696e672068617320656e64656421000000000000000000000000000000600082015250565b50565b614da5816149d3565b8114614db057600080fd5b50565b614dbc81614a11565b8114614dc757600080fd5b5056fea2646970667358221220bb160e180ea1c7c8c3a73d553f12ab8724cda7d9f20c735474747fc615ed3aee64736f6c63430008040033",
  "linkReferences": {},
  "deployedLinkReferences": {}
}