{
  "_format": "hh-sol-artifact-1",
  "contractName": "QVote",
  "sourceName": "src/hardhat/contracts/Qvote.sol",
  "abi": [
    {
      "inputs": [],
      "stateMutability": "nonpayable",
      "type": "constructor"
    },
    {
      "anonymous": false,
      "inputs": [
        {
          "indexed": false,
          "internalType": "string",
          "name": "name",
          "type": "string"
        },
        {
          "indexed": false,
          "internalType": "address",
          "name": "creator",
          "type": "address"
        },
        {
          "indexed": false,
          "internalType": "uint256",
          "name": "organizationCount",
          "type": "uint256"
        },
        {
          "indexed": false,
          "internalType": "uint256",
          "name": "ownerind",
          "type": "uint256"
        },
        {
          "indexed": false,
          "internalType": "uint256",
          "name": "creditsPerVoter",
          "type": "uint256"
        }
      ],
      "name": "newOrganizationCreated",
      "type": "event"
    },
    {
      "anonymous": false,
      "inputs": [
        {
          "indexed": false,
          "internalType": "uint256",
          "name": "orgID",
          "type": "uint256"
        },
        {
          "indexed": false,
          "internalType": "string",
          "name": "title",
          "type": "string"
        },
        {
          "indexed": false,
          "internalType": "uint256",
          "name": "ProposalId",
          "type": "uint256"
        },
        {
          "indexed": false,
          "internalType": "address",
          "name": "creator",
          "type": "address"
        },
        {
          "indexed": false,
          "internalType": "uint256",
          "name": "duration",
          "type": "uint256"
        },
        {
          "indexed": false,
          "internalType": "string",
          "name": "description",
          "type": "string"
        }
      ],
      "name": "newProposalCreated",
      "type": "event"
    },
    {
      "inputs": [
        {
          "internalType": "uint256",
          "name": "",
          "type": "uint256"
        },
        {
          "internalType": "uint256",
          "name": "",
          "type": "uint256"
        }
      ],
      "name": "OrgUsers",
      "outputs": [
        {
          "internalType": "address",
          "name": "",
          "type": "address"
        }
      ],
      "stateMutability": "view",
      "type": "function"
    },
    {
      "inputs": [
        {
          "internalType": "address",
          "name": "",
          "type": "address"
        }
      ],
      "name": "OrganizationContracts",
      "outputs": [
        {
          "internalType": "bool",
          "name": "",
          "type": "bool"
        }
      ],
      "stateMutability": "view",
      "type": "function"
    },
    {
      "inputs": [
        {
          "internalType": "address",
          "name": "",
          "type": "address"
        }
      ],
      "name": "OrganizationOwners",
      "outputs": [
        {
          "internalType": "uint256",
          "name": "",
          "type": "uint256"
        }
      ],
      "stateMutability": "view",
      "type": "function"
    },
    {
      "inputs": [
        {
          "internalType": "uint256",
          "name": "",
          "type": "uint256"
        }
      ],
      "name": "allProposals",
      "outputs": [
        {
          "internalType": "address",
          "name": "creator",
          "type": "address"
        },
        {
          "internalType": "uint256",
          "name": "pid",
          "type": "uint256"
        },
        {
          "internalType": "string",
          "name": "title",
          "type": "string"
        },
        {
          "internalType": "uint256",
          "name": "upVotes",
          "type": "uint256"
        },
        {
          "internalType": "uint256",
          "name": "downVotes",
          "type": "uint256"
        },
        {
          "internalType": "uint256",
          "name": "creationTime",
          "type": "uint256"
        },
        {
          "internalType": "uint256",
          "name": "duration",
          "type": "uint256"
        },
        {
          "internalType": "string",
          "name": "description",
          "type": "string"
        }
      ],
      "stateMutability": "view",
      "type": "function"
    },
    {
      "inputs": [
        {
          "internalType": "uint256",
          "name": "_orgID",
          "type": "uint256"
        }
      ],
      "name": "allowMinting",
      "outputs": [],
      "stateMutability": "nonpayable",
      "type": "function"
    },
    {
      "inputs": [
        {
          "internalType": "uint256",
          "name": "_orgID",
          "type": "uint256"
        }
      ],
      "name": "blockMinting",
      "outputs": [],
      "stateMutability": "nonpayable",
      "type": "function"
    },
    {
      "inputs": [
        {
          "internalType": "uint256",
          "name": "",
          "type": "uint256"
        },
        {
          "internalType": "address",
          "name": "",
          "type": "address"
        }
      ],
      "name": "canMint",
      "outputs": [
        {
          "internalType": "bool",
          "name": "",
          "type": "bool"
        }
      ],
      "stateMutability": "view",
      "type": "function"
    },
    {
      "inputs": [
        {
          "internalType": "uint256",
          "name": "_orgID",
          "type": "uint256"
        },
        {
          "internalType": "uint256",
          "name": "_pID",
          "type": "uint256"
        },
        {
          "internalType": "uint256",
          "name": "vote",
          "type": "uint256"
        },
        {
          "internalType": "uint256",
          "name": "numVotes",
          "type": "uint256"
        }
      ],
      "name": "castVote",
      "outputs": [],
      "stateMutability": "nonpayable",
      "type": "function"
    },
    {
      "inputs": [
        {
          "internalType": "uint256",
          "name": "_cpv",
          "type": "uint256"
        }
      ],
      "name": "changeCreditsPerVote",
      "outputs": [
        {
          "internalType": "uint256",
          "name": "",
          "type": "uint256"
        }
      ],
      "stateMutability": "nonpayable",
      "type": "function"
    },
    {
      "inputs": [],
      "name": "checkOrgActive",
      "outputs": [
        {
          "internalType": "bool",
          "name": "",
          "type": "bool"
        }
      ],
      "stateMutability": "view",
      "type": "function"
    },
    {
      "inputs": [
        {
          "internalType": "uint256",
          "name": "_orgID",
          "type": "uint256"
        },
        {
          "internalType": "uint256",
          "name": "_pID",
          "type": "uint256"
        }
      ],
      "name": "checkProposalDuration",
      "outputs": [
        {
          "internalType": "uint256",
          "name": "",
          "type": "uint256"
        }
      ],
      "stateMutability": "view",
      "type": "function"
    },
    {
      "inputs": [
        {
          "internalType": "uint256",
          "name": "_orgID",
          "type": "uint256"
        }
      ],
      "name": "checkUserBalance",
      "outputs": [
        {
          "internalType": "uint256",
          "name": "",
          "type": "uint256"
        }
      ],
      "stateMutability": "view",
      "type": "function"
    },
    {
      "inputs": [
        {
          "internalType": "uint256",
          "name": "_orgID",
          "type": "uint256"
        }
      ],
      "name": "checkUserMintStatus",
      "outputs": [
        {
          "internalType": "bool",
          "name": "",
          "type": "bool"
        }
      ],
      "stateMutability": "view",
      "type": "function"
    },
    {
      "inputs": [
        {
          "internalType": "string",
          "name": "_name",
          "type": "string"
        },
        {
          "internalType": "uint256",
          "name": "_cpv",
          "type": "uint256"
        },
        {
          "internalType": "address",
          "name": "account",
          "type": "address"
        }
      ],
      "name": "createNewOrganization",
      "outputs": [],
      "stateMutability": "nonpayable",
      "type": "function"
    },
    {
      "inputs": [
        {
          "internalType": "uint256",
          "name": "_duration",
          "type": "uint256"
        },
        {
          "internalType": "string",
          "name": "_title",
          "type": "string"
        },
        {
          "internalType": "string",
          "name": "_desc",
          "type": "string"
        }
      ],
      "name": "createNewProposal",
      "outputs": [],
      "stateMutability": "nonpayable",
      "type": "function"
    },
    {
      "inputs": [],
      "name": "getAllOrganization",
      "outputs": [
        {
          "components": [
            {
              "internalType": "address",
              "name": "creator",
              "type": "address"
            },
            {
              "internalType": "address",
              "name": "contractAddress",
              "type": "address"
            },
            {
              "internalType": "uint256",
              "name": "oid",
              "type": "uint256"
            },
            {
              "internalType": "bool",
              "name": "isActive",
              "type": "bool"
            },
            {
              "internalType": "string",
              "name": "name",
              "type": "string"
            },
            {
              "internalType": "uint256",
              "name": "ProposalCount",
              "type": "uint256"
            },
            {
              "internalType": "uint256",
              "name": "creditsPerVoter",
              "type": "uint256"
            },
            {
              "internalType": "uint256",
              "name": "totalTokenSupply",
              "type": "uint256"
            }
          ],
          "internalType": "struct supportContract.Organization[]",
          "name": "",
          "type": "tuple[]"
        }
      ],
      "stateMutability": "view",
      "type": "function"
    },
    {
      "inputs": [],
      "name": "getAllProposals",
      "outputs": [
        {
          "components": [
            {
              "internalType": "address",
              "name": "creator",
              "type": "address"
            },
            {
              "internalType": "uint256",
              "name": "pid",
              "type": "uint256"
            },
            {
              "internalType": "string",
              "name": "title",
              "type": "string"
            },
            {
              "internalType": "address[]",
              "name": "voters",
              "type": "address[]"
            },
            {
              "internalType": "uint256",
              "name": "upVotes",
              "type": "uint256"
            },
            {
              "internalType": "uint256",
              "name": "downVotes",
              "type": "uint256"
            },
            {
              "internalType": "uint256",
              "name": "creationTime",
              "type": "uint256"
            },
            {
              "internalType": "uint256",
              "name": "duration",
              "type": "uint256"
            },
            {
              "internalType": "string",
              "name": "description",
              "type": "string"
            }
          ],
          "internalType": "struct supportContract.Proposal[]",
          "name": "",
          "type": "tuple[]"
        }
      ],
      "stateMutability": "view",
      "type": "function"
    },
    {
      "inputs": [],
      "name": "getMyOrganization",
      "outputs": [
        {
          "components": [
            {
              "internalType": "address",
              "name": "creator",
              "type": "address"
            },
            {
              "internalType": "address",
              "name": "contractAddress",
              "type": "address"
            },
            {
              "internalType": "uint256",
              "name": "oid",
              "type": "uint256"
            },
            {
              "internalType": "bool",
              "name": "isActive",
              "type": "bool"
            },
            {
              "internalType": "string",
              "name": "name",
              "type": "string"
            },
            {
              "internalType": "uint256",
              "name": "ProposalCount",
              "type": "uint256"
            },
            {
              "internalType": "uint256",
              "name": "creditsPerVoter",
              "type": "uint256"
            },
            {
              "internalType": "uint256",
              "name": "totalTokenSupply",
              "type": "uint256"
            }
          ],
          "internalType": "struct supportContract.Organization",
          "name": "",
          "type": "tuple"
        }
      ],
      "stateMutability": "view",
      "type": "function"
    },
    {
      "inputs": [
        {
          "internalType": "uint256",
          "name": "_orgID",
          "type": "uint256"
        }
      ],
      "name": "getOrgMembers",
      "outputs": [
        {
          "internalType": "address[]",
          "name": "",
          "type": "address[]"
        }
      ],
      "stateMutability": "view",
      "type": "function"
    },
    {
      "inputs": [
        {
          "internalType": "uint256",
          "name": "_orgID",
          "type": "uint256"
        }
      ],
      "name": "getOrgMembersCount",
      "outputs": [
        {
          "internalType": "uint256",
          "name": "",
          "type": "uint256"
        }
      ],
      "stateMutability": "view",
      "type": "function"
    },
    {
      "inputs": [
        {
          "internalType": "uint256",
          "name": "orgID",
          "type": "uint256"
        }
      ],
      "name": "getOrgProposals",
      "outputs": [
        {
          "components": [
            {
              "internalType": "address",
              "name": "creator",
              "type": "address"
            },
            {
              "internalType": "uint256",
              "name": "pid",
              "type": "uint256"
            },
            {
              "internalType": "string",
              "name": "title",
              "type": "string"
            },
            {
              "internalType": "address[]",
              "name": "voters",
              "type": "address[]"
            },
            {
              "internalType": "uint256",
              "name": "upVotes",
              "type": "uint256"
            },
            {
              "internalType": "uint256",
              "name": "downVotes",
              "type": "uint256"
            },
            {
              "internalType": "uint256",
              "name": "creationTime",
              "type": "uint256"
            },
            {
              "internalType": "uint256",
              "name": "duration",
              "type": "uint256"
            },
            {
              "internalType": "string",
              "name": "description",
              "type": "string"
            }
          ],
          "internalType": "struct supportContract.Proposal[]",
          "name": "",
          "type": "tuple[]"
        }
      ],
      "stateMutability": "view",
      "type": "function"
    },
    {
      "inputs": [
        {
          "internalType": "uint256",
          "name": "_orgID",
          "type": "uint256"
        }
      ],
      "name": "getUserOrganization",
      "outputs": [
        {
          "components": [
            {
              "internalType": "address",
              "name": "creator",
              "type": "address"
            },
            {
              "internalType": "address",
              "name": "contractAddress",
              "type": "address"
            },
            {
              "internalType": "uint256",
              "name": "oid",
              "type": "uint256"
            },
            {
              "internalType": "bool",
              "name": "isActive",
              "type": "bool"
            },
            {
              "internalType": "string",
              "name": "name",
              "type": "string"
            },
            {
              "internalType": "uint256",
              "name": "ProposalCount",
              "type": "uint256"
            },
            {
              "internalType": "uint256",
              "name": "creditsPerVoter",
              "type": "uint256"
            },
            {
              "internalType": "uint256",
              "name": "totalTokenSupply",
              "type": "uint256"
            }
          ],
          "internalType": "struct supportContract.Organization",
          "name": "",
          "type": "tuple"
        }
      ],
      "stateMutability": "view",
      "type": "function"
    },
    {
      "inputs": [
        {
          "internalType": "uint256",
          "name": "_oID",
          "type": "uint256"
        }
      ],
      "name": "getUserOrganizationTokenSupply",
      "outputs": [
        {
          "internalType": "uint256",
          "name": "",
          "type": "uint256"
        }
      ],
      "stateMutability": "view",
      "type": "function"
    },
    {
      "inputs": [],
      "name": "getuserProposals",
      "outputs": [
        {
          "components": [
            {
              "internalType": "address",
              "name": "creator",
              "type": "address"
            },
            {
              "internalType": "uint256",
              "name": "pid",
              "type": "uint256"
            },
            {
              "internalType": "string",
              "name": "title",
              "type": "string"
            },
            {
              "internalType": "address[]",
              "name": "voters",
              "type": "address[]"
            },
            {
              "internalType": "uint256",
              "name": "upVotes",
              "type": "uint256"
            },
            {
              "internalType": "uint256",
              "name": "downVotes",
              "type": "uint256"
            },
            {
              "internalType": "uint256",
              "name": "creationTime",
              "type": "uint256"
            },
            {
              "internalType": "uint256",
              "name": "duration",
              "type": "uint256"
            },
            {
              "internalType": "string",
              "name": "description",
              "type": "string"
            }
          ],
          "internalType": "struct supportContract.Proposal[]",
          "name": "",
          "type": "tuple[]"
        }
      ],
      "stateMutability": "view",
      "type": "function"
    },
    {
      "inputs": [
        {
          "internalType": "uint256",
          "name": "",
          "type": "uint256"
        },
        {
          "internalType": "address",
          "name": "",
          "type": "address"
        }
      ],
      "name": "isMember",
      "outputs": [
        {
          "internalType": "bool",
          "name": "",
          "type": "bool"
        }
      ],
      "stateMutability": "view",
      "type": "function"
    },
    {
      "inputs": [
        {
          "internalType": "uint256",
          "name": "_orgID",
          "type": "uint256"
        }
      ],
      "name": "mint",
      "outputs": [],
      "stateMutability": "nonpayable",
      "type": "function"
    },
    {
      "inputs": [],
      "name": "organizationCount",
      "outputs": [
        {
          "internalType": "uint256",
          "name": "",
          "type": "uint256"
        }
      ],
      "stateMutability": "view",
      "type": "function"
    },
    {
      "inputs": [
        {
          "internalType": "uint256",
          "name": "",
          "type": "uint256"
        }
      ],
      "name": "organizations",
      "outputs": [
        {
          "internalType": "address",
          "name": "creator",
          "type": "address"
        },
        {
          "internalType": "address",
          "name": "contractAddress",
          "type": "address"
        },
        {
          "internalType": "uint256",
          "name": "oid",
          "type": "uint256"
        },
        {
          "internalType": "bool",
          "name": "isActive",
          "type": "bool"
        },
        {
          "internalType": "string",
          "name": "name",
          "type": "string"
        },
        {
          "internalType": "uint256",
          "name": "ProposalCount",
          "type": "uint256"
        },
        {
          "internalType": "uint256",
          "name": "creditsPerVoter",
          "type": "uint256"
        },
        {
          "internalType": "uint256",
          "name": "totalTokenSupply",
          "type": "uint256"
        }
      ],
      "stateMutability": "view",
      "type": "function"
    },
    {
      "inputs": [],
      "name": "owner",
      "outputs": [
        {
          "internalType": "address",
          "name": "",
          "type": "address"
        }
      ],
      "stateMutability": "view",
      "type": "function"
    },
    {
      "inputs": [
        {
          "internalType": "uint256",
          "name": "",
          "type": "uint256"
        },
        {
          "internalType": "uint256",
          "name": "",
          "type": "uint256"
        }
      ],
      "name": "proposalList",
      "outputs": [
        {
          "internalType": "address",
          "name": "creator",
          "type": "address"
        },
        {
          "internalType": "uint256",
          "name": "pid",
          "type": "uint256"
        },
        {
          "internalType": "string",
          "name": "title",
          "type": "string"
        },
        {
          "internalType": "uint256",
          "name": "upVotes",
          "type": "uint256"
        },
        {
          "internalType": "uint256",
          "name": "downVotes",
          "type": "uint256"
        },
        {
          "internalType": "uint256",
          "name": "creationTime",
          "type": "uint256"
        },
        {
          "internalType": "uint256",
          "name": "duration",
          "type": "uint256"
        },
        {
          "internalType": "string",
          "name": "description",
          "type": "string"
        }
      ],
      "stateMutability": "view",
      "type": "function"
    },
    {
      "inputs": [
        {
          "internalType": "uint256",
          "name": "_orgID",
          "type": "uint256"
        },
        {
          "internalType": "uint256",
          "name": "_pid",
          "type": "uint256"
        }
      ],
      "name": "totalVotes",
      "outputs": [
        {
          "internalType": "uint256",
          "name": "",
          "type": "uint256"
        },
        {
          "internalType": "uint256",
          "name": "",
          "type": "uint256"
        }
      ],
      "stateMutability": "view",
      "type": "function"
    },
    {
      "inputs": [
        {
          "internalType": "uint256",
          "name": "",
          "type": "uint256"
        },
        {
          "internalType": "address",
          "name": "",
          "type": "address"
        }
      ],
      "name": "userBalance",
      "outputs": [
        {
          "internalType": "uint256",
          "name": "",
          "type": "uint256"
        }
      ],
      "stateMutability": "view",
      "type": "function"
    }
  ],
  "bytecode": "0x6080604052600060025534801561001557600080fd5b50336000806101000a81548173ffffffffffffffffffffffffffffffffffffffff021916908373ffffffffffffffffffffffffffffffffffffffff16021790555061513e806100656000396000f3fe608060405234801561001057600080fd5b50600436106101f05760003560e01c8063a0712d681161010f578063de6124dd116100a2578063f3970d7311610071578063f3970d731461067b578063fb7cc43b14610697578063fd3d3ff1146106c7578063ff435baa146106f7576101f0565b8063de6124dd146105d8578063e792dd8a14610608578063f1c621041461063f578063f33a07661461065d576101f0565b8063b40955ee116100de578063b40955ee1461053c578063cceb68f51461056c578063ce22e8621461058a578063d13ae672146105a8576101f0565b8063a0712d68146104b6578063ab53cf6b146104d2578063ad81c583146104ee578063b11f64421461050c576101f0565b806373f37e38116101875780638da5cb5b116101565780638da5cb5b146104015780638f4e76b91461041f578063920be8881461044f578063938351b81461047f576101f0565b806373f37e38146103415780637d9e10f51461037157806385198705146103a157806389572ff6146103d1576101f0565b80632fc256c3116101c35780632fc256c3146102a957806336a9dbb0146102d95780636301f691146102f557806363a56e7a14610311576101f0565b80631414982f146101f55780631c6fc8501461022c57806323848f171461024857806324a9ed8e14610278575b600080fd5b61020f600480360381019061020a91906140c8565b610715565b60405161022398979695949392919061486d565b60405180910390f35b61024660048036038101906102419190614104565b6108aa565b005b610262600480360381019061025d9190613fda565b610d1c565b60405161026f9190614afc565b60405180910390f35b610292600480360381019061028d91906140c8565b610d74565b6040516102a0929190614b17565b60405180910390f35b6102c360048036038101906102be91906140c8565b610e48565b6040516102d09190614afc565b60405180910390f35b6102f360048036038101906102ee9190613fda565b610fc0565b005b61030f600480360381019061030a9190613fda565b6111b0565b005b61032b60048036038101906103269190613fda565b6113a0565b604051610338919061493d565b60405180910390f35b61035b60048036038101906103569190613fda565b6116dc565b6040516103689190614afc565b60405180910390f35b61038b60048036038101906103869190614003565b61176a565b604051610398919061495f565b60405180910390f35b6103bb60048036038101906103b69190614003565b611799565b6040516103c89190614afc565b60405180910390f35b6103eb60048036038101906103e691906140c8565b6117be565b6040516103f891906147cd565b60405180910390f35b61040961180c565b60405161041691906147cd565b60405180910390f35b61043960048036038101906104349190614003565b611830565b604051610446919061495f565b60405180910390f35b61046960048036038101906104649190613fda565b61185f565b6040516104769190614afc565b60405180910390f35b61049960048036038101906104949190613fda565b611a21565b6040516104ad98979695949392919061486d565b60405180910390f35b6104d060048036038101906104cb9190613fda565b611ba9565b005b6104ec60048036038101906104e79190613f73565b612041565b005b6104f661231c565b604051610503919061495f565b60405180910390f35b61052660048036038101906105219190613f4a565b612484565b6040516105339190614afc565b60405180910390f35b61055660048036038101906105519190613fda565b61249c565b6040516105639190614ada565b60405180910390f35b61057461271f565b604051610581919061493d565b60405180910390f35b6105926129d3565b60405161059f9190614ada565b60405180910390f35b6105c260048036038101906105bd9190613fda565b612d1c565b6040516105cf91906148f9565b60405180910390f35b6105f260048036038101906105ed9190613f4a565b612df8565b6040516105ff919061495f565b60405180910390f35b610622600480360381019061061d9190613fda565b612e18565b6040516106369897969594939291906147e8565b60405180910390f35b610647612f45565b6040516106549190614afc565b60405180910390f35b610665612f4b565b604051610672919061493d565b60405180910390f35b6106956004803603810190610690919061403f565b6132f9565b005b6106b160048036038101906106ac9190613fda565b61381c565b6040516106be9190614afc565b60405180910390f35b6106e160048036038101906106dc9190613fda565b6138e5565b6040516106ee919061495f565b60405180910390f35b6106ff6139f7565b60405161070c919061491b565b60405180910390f35b6006602052816000526040600020818154811061073157600080fd5b9060005260206000209060090201600091509150508060000160009054906101000a900473ffffffffffffffffffffffffffffffffffffffff169080600101549080600201805461078190614dc4565b80601f01602080910402602001604051908101604052809291908181526020018280546107ad90614dc4565b80156107fa5780601f106107cf576101008083540402835291602001916107fa565b820191906000526020600020905b8154815290600101906020018083116107dd57829003601f168201915b50505050509080600401549080600501549080600601549080600701549080600801805461082790614dc4565b80601f016020809104026020016040519081016040528092919081815260200182805461085390614dc4565b80156108a05780601f10610875576101008083540402835291602001916108a0565b820191906000526020600020905b81548152906001019060200180831161088357829003601f168201915b5050505050905088565b83600081101580156108be57506002548111155b6108fd576040517f08c379a00000000000000000000000000000000000000000000000000000000081526004016108f49061497a565b60405180910390fd5b8484600060056001846109109190614d06565b81548110610947577f4e487b7100000000000000000000000000000000000000000000000000000000600052603260045260246000fd5b90600052602060002090600802016005015490506000821015801561096c5750808211155b6109ab576040517f08c379a00000000000000000000000000000000000000000000000000000000081526004016109a290614a3a565b60405180910390fd5b6000600660008a815260200190815260200160002090506109cc8989610e48565b8160018a6109da9190614d06565b81548110610a11577f4e487b7100000000000000000000000000000000000000000000000000000000600052603260045260246000fd5b90600052602060002090600902016006015442610a2e9190614d06565b10610a6e576040517f08c379a0000000000000000000000000000000000000000000000000000000008152600401610a6590614a9a565b60405180910390fd5b85610a788a61381c565b1015610ab9576040517f08c379a0000000000000000000000000000000000000000000000000000000008152600401610ab0906149ba565b60405180910390fd5b85600760008b815260200190815260200160002060003373ffffffffffffffffffffffffffffffffffffffff1673ffffffffffffffffffffffffffffffffffffffff16815260200190815260200160002054610b159190614d06565b600760008b815260200190815260200160002060003373ffffffffffffffffffffffffffffffffffffffff1673ffffffffffffffffffffffffffffffffffffffff168152602001908152602001600020819055506000610b7487613bf2565b905060008260018b610b869190614d06565b81548110610bbd577f4e487b7100000000000000000000000000000000000000000000000000000000600052603260045260246000fd5b906000526020600020906009020190506001891415610bf357818160040154610be69190614c7f565b8160040181905550610c0c565b818160050154610c039190614c7f565b81600501819055505b80600301339080600181540180825580915050600190039060005260206000200160009091909190916101000a81548173ffffffffffffffffffffffffffffffffffffffff021916908373ffffffffffffffffffffffffffffffffffffffff1602179055506000600860008d815260200190815260200160002060008c815260200190815260200160002060003373ffffffffffffffffffffffffffffffffffffffff1673ffffffffffffffffffffffffffffffffffffffff168152602001908152602001600020905060018160000160006101000a81548160ff02191690831515021790555082816001016000828254610d079190614c7f565b92505081905550505050505050505050505050565b6000806005805490501480610d47575060006009600084815260200190815260200160002080549050145b15610d555760009050610d6f565b600960008381526020019081526020016000208054905090505b919050565b600080600060066000868152602001908152602001600020905080600185610d9c9190614d06565b81548110610dd3577f4e487b7100000000000000000000000000000000000000000000000000000000600052603260045260246000fd5b90600052602060002090600902016004015481600186610df39190614d06565b81548110610e2a577f4e487b7100000000000000000000000000000000000000000000000000000000600052603260045260246000fd5b90600052602060002090600902016005015492509250509250929050565b60008260008110158015610e5e57506002548111155b610e9d576040517f08c379a0000000000000000000000000000000000000000000000000000000008152600401610e949061497a565b60405180910390fd5b838360006005600184610eb09190614d06565b81548110610ee7577f4e487b7100000000000000000000000000000000000000000000000000000000600052603260045260246000fd5b906000526020600020906008020160050154905060008210158015610f0c5750808211155b610f4b576040517f08c379a0000000000000000000000000000000000000000000000000000000008152600401610f4290614a3a565b60405180910390fd5b60066000888152602001908152602001600020600187610f6b9190614d06565b81548110610fa2577f4e487b7100000000000000000000000000000000000000000000000000000000600052603260045260246000fd5b90600052602060002090600902016007015494505050505092915050565b80600360003373ffffffffffffffffffffffffffffffffffffffff1673ffffffffffffffffffffffffffffffffffffffff1681526020019081526020016000205414611041576040517f08c379a000000000000000000000000000000000000000000000000000000000815260040161103890614a5a565b60405180910390fd5b6000600960008381526020019081526020016000208054806020026020016040519081016040528092919081815260200182805480156110d657602002820191906000526020600020905b8160009054906101000a900473ffffffffffffffffffffffffffffffffffffffff1673ffffffffffffffffffffffffffffffffffffffff168152602001906001019080831161108c575b5050505050905060005b81518110156111ab576000828281518110611124577f4e487b7100000000000000000000000000000000000000000000000000000000600052603260045260246000fd5b602002602001015190506000600a600086815260200190815260200160002060008373ffffffffffffffffffffffffffffffffffffffff1673ffffffffffffffffffffffffffffffffffffffff16815260200190815260200160002060006101000a81548160ff0219169083151502179055505080806111a390614e27565b9150506110e0565b505050565b80600360003373ffffffffffffffffffffffffffffffffffffffff1673ffffffffffffffffffffffffffffffffffffffff1681526020019081526020016000205414611231576040517f08c379a000000000000000000000000000000000000000000000000000000000815260040161122890614a5a565b60405180910390fd5b6000600960008381526020019081526020016000208054806020026020016040519081016040528092919081815260200182805480156112c657602002820191906000526020600020905b8160009054906101000a900473ffffffffffffffffffffffffffffffffffffffff1673ffffffffffffffffffffffffffffffffffffffff168152602001906001019080831161127c575b5050505050905060005b815181101561139b576000828281518110611314577f4e487b7100000000000000000000000000000000000000000000000000000000600052603260045260246000fd5b602002602001015190506001600a600086815260200190815260200160002060008373ffffffffffffffffffffffffffffffffffffffff1673ffffffffffffffffffffffffffffffffffffffff16815260200190815260200160002060006101000a81548160ff02191690831515021790555050808061139390614e27565b9150506112d0565b505050565b606081600081101580156113b657506002548111155b6113f5576040517f08c379a00000000000000000000000000000000000000000000000000000000081526004016113ec9061497a565b60405180910390fd5b6000600580549050148061141f575060006006600085815260200190815260200160002080549050145b1561142f576060809250506116d6565b60066000848152602001908152602001600020805480602002602001604051908101604052809291908181526020016000905b828210156116cf5783829060005260206000209060090201604051806101200160405290816000820160009054906101000a900473ffffffffffffffffffffffffffffffffffffffff1673ffffffffffffffffffffffffffffffffffffffff1673ffffffffffffffffffffffffffffffffffffffff168152602001600182015481526020016002820180546114f690614dc4565b80601f016020809104026020016040519081016040528092919081815260200182805461152290614dc4565b801561156f5780601f106115445761010080835404028352916020019161156f565b820191906000526020600020905b81548152906001019060200180831161155257829003601f168201915b50505050508152602001600382018054806020026020016040519081016040528092919081815260200182805480156115fd57602002820191906000526020600020905b8160009054906101000a900473ffffffffffffffffffffffffffffffffffffffff1673ffffffffffffffffffffffffffffffffffffffff16815260200190600101908083116115b3575b505050505081526020016004820154815260200160058201548152602001600682015481526020016007820154815260200160088201805461163e90614dc4565b80601f016020809104026020016040519081016040528092919081815260200182805461166a90614dc4565b80156116b75780601f1061168c576101008083540402835291602001916116b7565b820191906000526020600020905b81548152906001019060200180831161169a57829003601f168201915b50505050508152505081526020019060010190611462565b5050505091505b50919050565b60008060058054905014156116f45760009050611765565b60058054905082111561170a5760009050611765565b60056001836117199190614d06565b81548110611750577f4e487b7100000000000000000000000000000000000000000000000000000000600052603260045260246000fd5b90600052602060002090600802016007015490505b919050565b600b6020528160005260406000206020528060005260406000206000915091509054906101000a900460ff1681565b6007602052816000526040600020602052806000526040600020600091509150505481565b600960205281600052604060002081815481106117da57600080fd5b906000526020600020016000915091509054906101000a900473ffffffffffffffffffffffffffffffffffffffff1681565b60008054906101000a900473ffffffffffffffffffffffffffffffffffffffff1681565b600a6020528160005260406000206020528060005260406000206000915091509054906101000a900460ff1681565b600080600360003373ffffffffffffffffffffffffffffffffffffffff1673ffffffffffffffffffffffffffffffffffffffff16815260200190815260200160002054116118e2576040517f08c379a00000000000000000000000000000000000000000000000000000000081526004016118d990614a5a565b60405180910390fd5b600060056001600360003373ffffffffffffffffffffffffffffffffffffffff1673ffffffffffffffffffffffffffffffffffffffff168152602001908152602001600020546119329190614d06565b81548110611969577f4e487b7100000000000000000000000000000000000000000000000000000000600052603260045260246000fd5b9060005260206000209060080201905082816006018190555060056001600360003373ffffffffffffffffffffffffffffffffffffffff1673ffffffffffffffffffffffffffffffffffffffff168152602001908152602001600020546119d09190614d06565b81548110611a07577f4e487b7100000000000000000000000000000000000000000000000000000000600052603260045260246000fd5b906000526020600020906008020160060154915050919050565b60018181548110611a3157600080fd5b90600052602060002090600902016000915090508060000160009054906101000a900473ffffffffffffffffffffffffffffffffffffffff1690806001015490806002018054611a8090614dc4565b80601f0160208091040260200160405190810160405280929190818152602001828054611aac90614dc4565b8015611af95780601f10611ace57610100808354040283529160200191611af9565b820191906000526020600020905b815481529060010190602001808311611adc57829003601f168201915b505050505090806004015490806005015490806006015490806007015490806008018054611b2690614dc4565b80601f0160208091040260200160405190810160405280929190818152602001828054611b5290614dc4565b8015611b9f5780601f10611b7457610100808354040283529160200191611b9f565b820191906000526020600020905b815481529060010190602001808311611b8257829003601f168201915b5050505050905088565b600073ffffffffffffffffffffffffffffffffffffffff163373ffffffffffffffffffffffffffffffffffffffff161415611c19576040517f08c379a0000000000000000000000000000000000000000000000000000000008152600401611c1090614aba565b60405180910390fd5b60001515600b600083815260200190815260200160002060003373ffffffffffffffffffffffffffffffffffffffff1673ffffffffffffffffffffffffffffffffffffffff16815260200190815260200160002060009054906101000a900460ff1615151415611d65576001600b600083815260200190815260200160002060003373ffffffffffffffffffffffffffffffffffffffff1673ffffffffffffffffffffffffffffffffffffffff16815260200190815260200160002060006101000a81548160ff02191690831515021790555060096000828152602001908152602001600020339080600181540180825580915050600190039060005260206000200160009091909190916101000a81548173ffffffffffffffffffffffffffffffffffffffff021916908373ffffffffffffffffffffffffffffffffffffffff160217905550611e0a565b60011515600a600083815260200190815260200160002060003373ffffffffffffffffffffffffffffffffffffffff1673ffffffffffffffffffffffffffffffffffffffff16815260200190815260200160002060009054906101000a900460ff16151514611e09576040517f08c379a0000000000000000000000000000000000000000000000000000000008152600401611e009061499a565b60405180910390fd5b5b6000600a600083815260200190815260200160002060003373ffffffffffffffffffffffffffffffffffffffff1673ffffffffffffffffffffffffffffffffffffffff16815260200190815260200160002060006101000a81548160ff02191690831515021790555060006005600183611e849190614d06565b81548110611ebb577f4e487b7100000000000000000000000000000000000000000000000000000000600052603260045260246000fd5b9060005260206000209060080201600601549050806007600084815260200190815260200160002060003373ffffffffffffffffffffffffffffffffffffffff1673ffffffffffffffffffffffffffffffffffffffff16815260200190815260200160002054611f2b9190614c7f565b6007600084815260200190815260200160002060003373ffffffffffffffffffffffffffffffffffffffff1673ffffffffffffffffffffffffffffffffffffffff16815260200190815260200160002081905550806005600184611f8f9190614d06565b81548110611fc6577f4e487b7100000000000000000000000000000000000000000000000000000000600052603260045260246000fd5b906000526020600020906008020160070154611fe29190614c7f565b6005600184611ff19190614d06565b81548110612028577f4e487b7100000000000000000000000000000000000000000000000000000000600052603260045260246000fd5b9060005260206000209060080201600701819055505050565b60001515600460008373ffffffffffffffffffffffffffffffffffffffff1673ffffffffffffffffffffffffffffffffffffffff16815260200190815260200160002060009054906101000a900460ff161515146120d4576040517f08c379a00000000000000000000000000000000000000000000000000000000081526004016120cb906149fa565b60405180910390fd5b600260008154809291906120e790614e27565b91905055506001600460008373ffffffffffffffffffffffffffffffffffffffff1673ffffffffffffffffffffffffffffffffffffffff16815260200190815260200160002060006101000a81548160ff021916908315150217905550600254600360003373ffffffffffffffffffffffffffffffffffffffff1673ffffffffffffffffffffffffffffffffffffffff1681526020019081526020016000208190555060056040518061010001604052803373ffffffffffffffffffffffffffffffffffffffff1681526020018373ffffffffffffffffffffffffffffffffffffffff1681526020016002548152602001600115158152602001858152602001600081526020018481526020016000815250908060018154018082558091505060019003906000526020600020906008020160009091909190915060008201518160000160006101000a81548173ffffffffffffffffffffffffffffffffffffffff021916908373ffffffffffffffffffffffffffffffffffffffff16021790555060208201518160010160006101000a81548173ffffffffffffffffffffffffffffffffffffffff021916908373ffffffffffffffffffffffffffffffffffffffff1602179055506040820151816002015560608201518160030160006101000a81548160ff02191690831515021790555060808201518160040190805190602001906122f6929190613c6c565b5060a0820151816005015560c0820151816006015560e082015181600701555050505050565b60008060058054905014156123345760009050612481565b600580549050600360003373ffffffffffffffffffffffffffffffffffffffff1673ffffffffffffffffffffffffffffffffffffffff1681526020019081526020016000205411806123c557506000600360003373ffffffffffffffffffffffffffffffffffffffff1673ffffffffffffffffffffffffffffffffffffffff16815260200190815260200160002054145b156123d35760009050612481565b6001151560056001600360003373ffffffffffffffffffffffffffffffffffffffff1673ffffffffffffffffffffffffffffffffffffffff168152602001908152602001600020546124259190614d06565b8154811061245c577f4e487b7100000000000000000000000000000000000000000000000000000000600052603260045260246000fd5b906000526020600020906008020160030160009054906101000a900460ff1615151490505b90565b60036020528060005260406000206000915090505481565b6124a4613cf2565b6000600580549050148061252057506000151560056001846124c69190614d06565b815481106124fd577f4e487b7100000000000000000000000000000000000000000000000000000000600052603260045260246000fd5b906000526020600020906008020160030160009054906101000a900460ff161515145b156125365761252d613cf2565b8091505061271a565b60056001836125459190614d06565b8154811061257c577f4e487b7100000000000000000000000000000000000000000000000000000000600052603260045260246000fd5b9060005260206000209060080201604051806101000160405290816000820160009054906101000a900473ffffffffffffffffffffffffffffffffffffffff1673ffffffffffffffffffffffffffffffffffffffff1673ffffffffffffffffffffffffffffffffffffffff1681526020016001820160009054906101000a900473ffffffffffffffffffffffffffffffffffffffff1673ffffffffffffffffffffffffffffffffffffffff1673ffffffffffffffffffffffffffffffffffffffff168152602001600282015481526020016003820160009054906101000a900460ff1615151515815260200160048201805461267790614dc4565b80601f01602080910402602001604051908101604052809291908181526020018280546126a390614dc4565b80156126f05780601f106126c5576101008083540402835291602001916126f0565b820191906000526020600020905b8154815290600101906020018083116126d357829003601f168201915b50505050508152602001600582015481526020016006820154815260200160078201548152505090505b919050565b60606000600180549050141561273a576060809150506129d0565b6001805480602002602001604051908101604052809291908181526020016000905b828210156129c95783829060005260206000209060090201604051806101200160405290816000820160009054906101000a900473ffffffffffffffffffffffffffffffffffffffff1673ffffffffffffffffffffffffffffffffffffffff1673ffffffffffffffffffffffffffffffffffffffff168152602001600182015481526020016002820180546127f090614dc4565b80601f016020809104026020016040519081016040528092919081815260200182805461281c90614dc4565b80156128695780601f1061283e57610100808354040283529160200191612869565b820191906000526020600020905b81548152906001019060200180831161284c57829003601f168201915b50505050508152602001600382018054806020026020016040519081016040528092919081815260200182805480156128f757602002820191906000526020600020905b8160009054906101000a900473ffffffffffffffffffffffffffffffffffffffff1673ffffffffffffffffffffffffffffffffffffffff16815260200190600101908083116128ad575b505050505081526020016004820154815260200160058201548152602001600682015481526020016007820154815260200160088201805461293890614dc4565b80601f016020809104026020016040519081016040528092919081815260200182805461296490614dc4565b80156129b15780601f10612986576101008083540402835291602001916129b1565b820191906000526020600020905b81548152906001019060200180831161299457829003601f168201915b5050505050815250508152602001906001019061275c565b5050505090505b90565b6129db613cf2565b60006005805490501480612a9657506000151560056001600360003373ffffffffffffffffffffffffffffffffffffffff1673ffffffffffffffffffffffffffffffffffffffff16815260200190815260200160002054612a3c9190614d06565b81548110612a73577f4e487b7100000000000000000000000000000000000000000000000000000000600052603260045260246000fd5b906000526020600020906008020160030160009054906101000a900460ff161515145b80612ae057506000600360003373ffffffffffffffffffffffffffffffffffffffff1673ffffffffffffffffffffffffffffffffffffffff16815260200190815260200160002054145b15612af657612aed613cf2565b80915050612d19565b60056001600360003373ffffffffffffffffffffffffffffffffffffffff1673ffffffffffffffffffffffffffffffffffffffff16815260200190815260200160002054612b449190614d06565b81548110612b7b577f4e487b7100000000000000000000000000000000000000000000000000000000600052603260045260246000fd5b9060005260206000209060080201604051806101000160405290816000820160009054906101000a900473ffffffffffffffffffffffffffffffffffffffff1673ffffffffffffffffffffffffffffffffffffffff1673ffffffffffffffffffffffffffffffffffffffff1681526020016001820160009054906101000a900473ffffffffffffffffffffffffffffffffffffffff1673ffffffffffffffffffffffffffffffffffffffff1673ffffffffffffffffffffffffffffffffffffffff168152602001600282015481526020016003820160009054906101000a900460ff16151515158152602001600482018054612c7690614dc4565b80601f0160208091040260200160405190810160405280929190818152602001828054612ca290614dc4565b8015612cef5780601f10612cc457610100808354040283529160200191612cef565b820191906000526020600020905b815481529060010190602001808311612cd257829003601f168201915b50505050508152602001600582015481526020016006820154815260200160078201548152505090505b90565b606060006005805490501480612d48575060006009600084815260200190815260200160002080549050145b15612d5857606080915050612df3565b60096000838152602001908152602001600020805480602002602001604051908101604052809291908181526020018280548015612deb57602002820191906000526020600020905b8160009054906101000a900473ffffffffffffffffffffffffffffffffffffffff1673ffffffffffffffffffffffffffffffffffffffff1681526020019060010190808311612da1575b505050505090505b919050565b60046020528060005260406000206000915054906101000a900460ff1681565b60058181548110612e2857600080fd5b90600052602060002090600802016000915090508060000160009054906101000a900473ffffffffffffffffffffffffffffffffffffffff16908060010160009054906101000a900473ffffffffffffffffffffffffffffffffffffffff16908060020154908060030160009054906101000a900460ff1690806004018054612eb090614dc4565b80601f0160208091040260200160405190810160405280929190818152602001828054612edc90614dc4565b8015612f295780601f10612efe57610100808354040283529160200191612f29565b820191906000526020600020905b815481529060010190602001808311612f0c57829003601f168201915b5050505050908060050154908060060154908060070154905088565b60025481565b606060006005805490501480612fb65750600060066000600360003373ffffffffffffffffffffffffffffffffffffffff1673ffffffffffffffffffffffffffffffffffffffff16815260200190815260200160002054815260200190815260200160002080549050145b8061300057506000600360003373ffffffffffffffffffffffffffffffffffffffff1673ffffffffffffffffffffffffffffffffffffffff16815260200190815260200160002054145b15613010576060809150506132f6565b60066000600360003373ffffffffffffffffffffffffffffffffffffffff1673ffffffffffffffffffffffffffffffffffffffff168152602001908152602001600020548152602001908152602001600020805480602002602001604051908101604052809291908181526020016000905b828210156132ef5783829060005260206000209060090201604051806101200160405290816000820160009054906101000a900473ffffffffffffffffffffffffffffffffffffffff1673ffffffffffffffffffffffffffffffffffffffff1673ffffffffffffffffffffffffffffffffffffffff1681526020016001820154815260200160028201805461311690614dc4565b80601f016020809104026020016040519081016040528092919081815260200182805461314290614dc4565b801561318f5780601f106131645761010080835404028352916020019161318f565b820191906000526020600020905b81548152906001019060200180831161317257829003601f168201915b505050505081526020016003820180548060200260200160405190810160405280929190818152602001828054801561321d57602002820191906000526020600020905b8160009054906101000a900473ffffffffffffffffffffffffffffffffffffffff1673ffffffffffffffffffffffffffffffffffffffff16815260200190600101908083116131d3575b505050505081526020016004820154815260200160058201548152602001600682015481526020016007820154815260200160088201805461325e90614dc4565b80601f016020809104026020016040519081016040528092919081815260200182805461328a90614dc4565b80156132d75780601f106132ac576101008083540402835291602001916132d7565b820191906000526020600020905b8154815290600101906020018083116132ba57829003601f168201915b50505050508152505081526020019060010190613082565b5050505090505b90565b6000851161333c576040517f08c379a000000000000000000000000000000000000000000000000000000000815260040161333390614a7a565b60405180910390fd5b6000600360003373ffffffffffffffffffffffffffffffffffffffff1673ffffffffffffffffffffffffffffffffffffffff1681526020019081526020016000205490506001151560056001836133939190614d06565b815481106133ca577f4e487b7100000000000000000000000000000000000000000000000000000000600052603260045260246000fd5b906000526020600020906008020160030160009054906101000a900460ff1615151461342b576040517f08c379a000000000000000000000000000000000000000000000000000000000815260040161342290614a1a565b60405180910390fd5b600560018261343a9190614d06565b81548110613471577f4e487b7100000000000000000000000000000000000000000000000000000000600052603260045260246000fd5b9060005260206000209060080201600501600081548092919061349390614e27565b9190505550600060056001836134a99190614d06565b815481106134e0577f4e487b7100000000000000000000000000000000000000000000000000000000600052603260045260246000fd5b90600052602060002090600802016005015490506134fc613d65565b86868080601f016020809104026020016040519081016040528093929190818152602001838380828437600081840152601f19601f8201169050808301925050505050505081604001819052508181602001818152505033816000019073ffffffffffffffffffffffffffffffffffffffff16908173ffffffffffffffffffffffffffffffffffffffff168152505084848080601f016020809104026020016040519081016040528093929190818152602001838380828437600081840152601f19601f82011690508083019250505050505050816101000181905250878160e0018181525050428160c0018181525050600081608001818152505060008160a00181815250506006600084815260200190815260200160002081908060018154018082558091505060019003906000526020600020906009020160009091909190915060008201518160000160006101000a81548173ffffffffffffffffffffffffffffffffffffffff021916908373ffffffffffffffffffffffffffffffffffffffff1602179055506020820151816001015560408201518160020190805190602001906136ad929190613c6c565b5060608201518160030190805190602001906136ca929190613dc7565b506080820151816004015560a0820151816005015560c0820151816006015560e08201518160070155610100820151816008019080519060200190613710929190613c6c565b505050600181908060018154018082558091505060019003906000526020600020906009020160009091909190915060008201518160000160006101000a81548173ffffffffffffffffffffffffffffffffffffffff021916908373ffffffffffffffffffffffffffffffffffffffff1602179055506020820151816001015560408201518160020190805190602001906137ac929190613c6c565b5060608201518160030190805190602001906137c9929190613dc7565b506080820151816004015560a0820151816005015560c0820151816006015560e0820151816007015561010082015181600801908051906020019061380f929190613c6c565b5050505050505050505050565b60008073ffffffffffffffffffffffffffffffffffffffff163373ffffffffffffffffffffffffffffffffffffffff16141561388d576040517f08c379a0000000000000000000000000000000000000000000000000000000008152600401613884906149da565b60405180910390fd5b6007600083815260200190815260200160002060003373ffffffffffffffffffffffffffffffffffffffff1673ffffffffffffffffffffffffffffffffffffffff168152602001908152602001600020549050919050565b6000806005805490501480613910575060006009600084815260200190815260200160002080549050145b1561391e57600090506139f2565b60001515600b600084815260200190815260200160002060003373ffffffffffffffffffffffffffffffffffffffff1673ffffffffffffffffffffffffffffffffffffffff16815260200190815260200160002060009054906101000a900460ff161515141561399157600090506139f2565b600a600083815260200190815260200160002060003373ffffffffffffffffffffffffffffffffffffffff1673ffffffffffffffffffffffffffffffffffffffff16815260200190815260200160002060009054906101000a900460ff1690505b919050565b606060006005805490501415613a1257606080915050613bef565b6005805480602002602001604051908101604052809291908181526020016000905b82821015613be85783829060005260206000209060080201604051806101000160405290816000820160009054906101000a900473ffffffffffffffffffffffffffffffffffffffff1673ffffffffffffffffffffffffffffffffffffffff1673ffffffffffffffffffffffffffffffffffffffff1681526020016001820160009054906101000a900473ffffffffffffffffffffffffffffffffffffffff1673ffffffffffffffffffffffffffffffffffffffff1673ffffffffffffffffffffffffffffffffffffffff168152602001600282015481526020016003820160009054906101000a900460ff16151515158152602001600482018054613b3990614dc4565b80601f0160208091040260200160405190810160405280929190818152602001828054613b6590614dc4565b8015613bb25780601f10613b8757610100808354040283529160200191613bb2565b820191906000526020600020905b815481529060010190602001808311613b9557829003601f168201915b50505050508152602001600582015481526020016006820154815260200160078201548152505081526020019060010190613a34565b5050505090505b90565b60006003821115613c595781905060006001600284613c119190614cd5565b613c1b9190614c7f565b90505b81811015613c53578091506002818285613c389190614cd5565b613c429190614c7f565b613c4c9190614cd5565b9050613c1e565b50613c67565b60008214613c6657600190505b5b919050565b828054613c7890614dc4565b90600052602060002090601f016020900481019282613c9a5760008555613ce1565b82601f10613cb357805160ff1916838001178555613ce1565b82800160010185558215613ce1579182015b82811115613ce0578251825591602001919060010190613cc5565b5b509050613cee9190613e51565b5090565b604051806101000160405280600073ffffffffffffffffffffffffffffffffffffffff168152602001600073ffffffffffffffffffffffffffffffffffffffff16815260200160008152602001600015158152602001606081526020016000815260200160008152602001600081525090565b604051806101200160405280600073ffffffffffffffffffffffffffffffffffffffff16815260200160008152602001606081526020016060815260200160008152602001600081526020016000815260200160008152602001606081525090565b828054828255906000526020600020908101928215613e40579160200282015b82811115613e3f5782518260006101000a81548173ffffffffffffffffffffffffffffffffffffffff021916908373ffffffffffffffffffffffffffffffffffffffff16021790555091602001919060010190613de7565b5b509050613e4d9190613e51565b5090565b5b80821115613e6a576000816000905550600101613e52565b5090565b6000613e81613e7c84614b65565b614b40565b905082815260208101848484011115613e9957600080fd5b613ea4848285614d82565b509392505050565b600081359050613ebb816150da565b92915050565b60008083601f840112613ed357600080fd5b8235905067ffffffffffffffff811115613eec57600080fd5b602083019150836001820283011115613f0457600080fd5b9250929050565b600082601f830112613f1c57600080fd5b8135613f2c848260208601613e6e565b91505092915050565b600081359050613f44816150f1565b92915050565b600060208284031215613f5c57600080fd5b6000613f6a84828501613eac565b91505092915050565b600080600060608486031215613f8857600080fd5b600084013567ffffffffffffffff811115613fa257600080fd5b613fae86828701613f0b565b9350506020613fbf86828701613f35565b9250506040613fd086828701613eac565b9150509250925092565b600060208284031215613fec57600080fd5b6000613ffa84828501613f35565b91505092915050565b6000806040838503121561401657600080fd5b600061402485828601613f35565b925050602061403585828601613eac565b9150509250929050565b60008060008060006060868803121561405757600080fd5b600061406588828901613f35565b955050602086013567ffffffffffffffff81111561408257600080fd5b61408e88828901613ec1565b9450945050604086013567ffffffffffffffff8111156140ad57600080fd5b6140b988828901613ec1565b92509250509295509295909350565b600080604083850312156140db57600080fd5b60006140e985828601613f35565b92505060206140fa85828601613f35565b9150509250929050565b6000806000806080858703121561411a57600080fd5b600061412887828801613f35565b945050602061413987828801613f35565b935050604061414a87828801613f35565b925050606061415b87828801613f35565b91505092959194509250565b600061417383836141a7565b60208301905092915050565b600061418b838361457c565b905092915050565b600061419f83836146dc565b905092915050565b6141b081614d3a565b82525050565b6141bf81614d3a565b82525050565b60006141d082614bc6565b6141da8185614c19565b93506141e583614b96565b8060005b838110156142165781516141fd8882614167565b975061420883614bf2565b9250506001810190506141e9565b5085935050505092915050565b600061422e82614bc6565b6142388185614c2a565b935061424383614b96565b8060005b8381101561427457815161425b8882614167565b975061426683614bf2565b925050600181019050614247565b5085935050505092915050565b600061428c82614bd1565b6142968185614c3b565b9350836020820285016142a885614ba6565b8060005b858110156142e457848403895281516142c5858261417f565b94506142d083614bff565b925060208a019950506001810190506142ac565b50829750879550505050505092915050565b600061430182614bdc565b61430b8185614c4c565b93508360208202850161431d85614bb6565b8060005b85811015614359578484038952815161433a8582614193565b945061434583614c0c565b925060208a01995050600181019050614321565b50829750879550505050505092915050565b61437481614d4c565b82525050565b61438381614d4c565b82525050565b600061439482614be7565b61439e8185614c5d565b93506143ae818560208601614d91565b6143b781614f2c565b840191505092915050565b60006143cd82614be7565b6143d78185614c6e565b93506143e7818560208601614d91565b6143f081614f2c565b840191505092915050565b6000614408601783614c6e565b915061441382614f3d565b602082019050919050565b600061442b601383614c6e565b915061443682614f66565b602082019050919050565b600061444e601383614c6e565b915061445982614f8f565b602082019050919050565b6000614471600b83614c6e565b915061447c82614fb8565b602082019050919050565b6000614494601783614c6e565b915061449f82614fe1565b602082019050919050565b60006144b7601683614c6e565b91506144c28261500a565b602082019050919050565b60006144da601383614c6e565b91506144e582615033565b602082019050919050565b60006144fd600c83614c6e565b91506145088261505c565b602082019050919050565b6000614520600e83614c6e565b915061452b82615085565b602082019050919050565b6000614543601183614c6e565b915061454e826150ae565b602082019050919050565b6000614566600083614c6e565b9150614571826150d7565b600082019050919050565b60006101008301600083015161459560008601826141a7565b5060208301516145a860208601826141a7565b5060408301516145bb60408601826147af565b5060608301516145ce606086018261436b565b50608083015184820360808601526145e68282614389565b91505060a08301516145fb60a08601826147af565b5060c083015161460e60c08601826147af565b5060e083015161462160e08601826147af565b508091505092915050565b60006101008301600083015161464560008601826141a7565b50602083015161465860208601826141a7565b50604083015161466b60408601826147af565b50606083015161467e606086018261436b565b50608083015184820360808601526146968282614389565b91505060a08301516146ab60a08601826147af565b5060c08301516146be60c08601826147af565b5060e08301516146d160e08601826147af565b508091505092915050565b6000610120830160008301516146f560008601826141a7565b50602083015161470860208601826147af565b50604083015184820360408601526147208282614389565b9150506060830151848203606086015261473a82826141c5565b915050608083015161474f60808601826147af565b5060a083015161476260a08601826147af565b5060c083015161477560c08601826147af565b5060e083015161478860e08601826147af565b506101008301518482036101008601526147a28282614389565b9150508091505092915050565b6147b881614d78565b82525050565b6147c781614d78565b82525050565b60006020820190506147e260008301846141b6565b92915050565b6000610100820190506147fe600083018b6141b6565b61480b602083018a6141b6565b61481860408301896147be565b614825606083018861437a565b818103608083015261483781876143c2565b905061484660a08301866147be565b61485360c08301856147be565b61486060e08301846147be565b9998505050505050505050565b600061010082019050614883600083018b6141b6565b614890602083018a6147be565b81810360408301526148a281896143c2565b90506148b160608301886147be565b6148be60808301876147be565b6148cb60a08301866147be565b6148d860c08301856147be565b81810360e08301526148ea81846143c2565b90509998505050505050505050565b600060208201905081810360008301526149138184614223565b905092915050565b600060208201905081810360008301526149358184614281565b905092915050565b6000602082019050818103600083015261495781846142f6565b905092915050565b6000602082019050614974600083018461437a565b92915050565b60006020820190508181036000830152614993816143fb565b9050919050565b600060208201905081810360008301526149b38161441e565b9050919050565b600060208201905081810360008301526149d381614441565b9050919050565b600060208201905081810360008301526149f381614464565b9050919050565b60006020820190508181036000830152614a1381614487565b9050919050565b60006020820190508181036000830152614a33816144aa565b9050919050565b60006020820190508181036000830152614a53816144cd565b9050919050565b60006020820190508181036000830152614a73816144f0565b9050919050565b60006020820190508181036000830152614a9381614513565b9050919050565b60006020820190508181036000830152614ab381614536565b9050919050565b60006020820190508181036000830152614ad381614559565b9050919050565b60006020820190508181036000830152614af4818461462c565b905092915050565b6000602082019050614b1160008301846147be565b92915050565b6000604082019050614b2c60008301856147be565b614b3960208301846147be565b9392505050565b6000614b4a614b5b565b9050614b568282614df6565b919050565b6000604051905090565b600067ffffffffffffffff821115614b8057614b7f614efd565b5b614b8982614f2c565b9050602081019050919050565b6000819050602082019050919050565b6000819050602082019050919050565b6000819050602082019050919050565b600081519050919050565b600081519050919050565b600081519050919050565b600081519050919050565b6000602082019050919050565b6000602082019050919050565b6000602082019050919050565b600082825260208201905092915050565b600082825260208201905092915050565b600082825260208201905092915050565b600082825260208201905092915050565b600082825260208201905092915050565b600082825260208201905092915050565b6000614c8a82614d78565b9150614c9583614d78565b9250827fffffffffffffffffffffffffffffffffffffffffffffffffffffffffffffffff03821115614cca57614cc9614e70565b5b828201905092915050565b6000614ce082614d78565b9150614ceb83614d78565b925082614cfb57614cfa614e9f565b5b828204905092915050565b6000614d1182614d78565b9150614d1c83614d78565b925082821015614d2f57614d2e614e70565b5b828203905092915050565b6000614d4582614d58565b9050919050565b60008115159050919050565b600073ffffffffffffffffffffffffffffffffffffffff82169050919050565b6000819050919050565b82818337600083830152505050565b60005b83811015614daf578082015181840152602081019050614d94565b83811115614dbe576000848401525b50505050565b60006002820490506001821680614ddc57607f821691505b60208210811415614df057614def614ece565b5b50919050565b614dff82614f2c565b810181811067ffffffffffffffff82111715614e1e57614e1d614efd565b5b80604052505050565b6000614e3282614d78565b91507fffffffffffffffffffffffffffffffffffffffffffffffffffffffffffffffff821415614e6557614e64614e70565b5b600182019050919050565b7f4e487b7100000000000000000000000000000000000000000000000000000000600052601160045260246000fd5b7f4e487b7100000000000000000000000000000000000000000000000000000000600052601260045260246000fd5b7f4e487b7100000000000000000000000000000000000000000000000000000000600052602260045260246000fd5b7f4e487b7100000000000000000000000000000000000000000000000000000000600052604160045260246000fd5b6000601f19601f8301169050919050565b7f496e76616c6964206f7267616e697a6174696f6e204944000000000000000000600082015250565b7f4d696e74696e67204e6f7420416c6c6f77656400000000000000000000000000600082015250565b7f496e73756666696369656e7420546f6b656e7300000000000000000000000000600082015250565b7f696e76616c696420616363000000000000000000000000000000000000000000600082015250565b7f436f6e747261637420616c726561647920657869737473000000000000000000600082015250565b7f4e6f20616374697665206f7267616e697a6174696f6e00000000000000000000600082015250565b7f496e76616c69642050726f706f73616c20494400000000000000000000000000600082015250565b7f77726f6e67206f72672069640000000000000000000000000000000000000000600082015250565b7f57726f6e67204475726174696f6e000000000000000000000000000000000000600082015250565b7f766f74696e672068617320656e64656421000000000000000000000000000000600082015250565b50565b6150e381614d3a565b81146150ee57600080fd5b50565b6150fa81614d78565b811461510557600080fd5b5056fea2646970667358221220bf811e142375c166405a1d0db3e3df76bbe0243d5be5bcca20232cd4de8a802d64736f6c63430008040033",
  "linkReferences": {},
  "deployedLinkReferences": {}
}