{
  "_format": "hh-sol-artifact-1",
  "contractName": "QVote",
  "sourceName": "src/hardhat/contracts/QVote.sol",
  "abi": [
    {
      "inputs": [],
      "stateMutability": "nonpayable",
      "type": "constructor"
    },
    {
      "anonymous": false,
      "inputs": [
        {
          "indexed": false,
          "internalType": "string",
          "name": "name",
          "type": "string"
        },
        {
          "indexed": false,
          "internalType": "address",
          "name": "creator",
          "type": "address"
        },
        {
          "indexed": false,
          "internalType": "uint256",
          "name": "organizationCount",
          "type": "uint256"
        },
        {
          "indexed": false,
          "internalType": "uint256",
          "name": "ownerind",
          "type": "uint256"
        },
        {
          "indexed": false,
          "internalType": "uint256",
          "name": "creditsPerVoter",
          "type": "uint256"
        }
      ],
      "name": "newOrganizationCreated",
      "type": "event"
    },
    {
      "anonymous": false,
      "inputs": [
        {
          "indexed": false,
          "internalType": "uint256",
          "name": "orgID",
          "type": "uint256"
        },
        {
          "indexed": false,
          "internalType": "string",
          "name": "title",
          "type": "string"
        },
        {
          "indexed": false,
          "internalType": "uint256",
          "name": "ProposalId",
          "type": "uint256"
        },
        {
          "indexed": false,
          "internalType": "address",
          "name": "creator",
          "type": "address"
        },
        {
          "indexed": false,
          "internalType": "uint256",
          "name": "duration",
          "type": "uint256"
        },
        {
          "indexed": false,
          "internalType": "string",
          "name": "description",
          "type": "string"
        }
      ],
      "name": "newProposalCreated",
      "type": "event"
    },
    {
      "inputs": [
        {
          "internalType": "address",
          "name": "",
          "type": "address"
        }
      ],
      "name": "OrganizationOwners",
      "outputs": [
        {
          "internalType": "uint256",
          "name": "",
          "type": "uint256"
        }
      ],
      "stateMutability": "view",
      "type": "function"
    },
    {
      "inputs": [
        {
          "internalType": "uint256",
          "name": "",
          "type": "uint256"
        }
      ],
      "name": "allProposals",
      "outputs": [
        {
          "internalType": "address",
          "name": "creator",
          "type": "address"
        },
        {
          "internalType": "uint256",
          "name": "pid",
          "type": "uint256"
        },
        {
          "internalType": "string",
          "name": "title",
          "type": "string"
        },
        {
          "internalType": "uint256",
          "name": "upVotes",
          "type": "uint256"
        },
        {
          "internalType": "uint256",
          "name": "downVotes",
          "type": "uint256"
        },
        {
          "internalType": "uint256",
          "name": "creationTime",
          "type": "uint256"
        },
        {
          "internalType": "uint256",
          "name": "duration",
          "type": "uint256"
        },
        {
          "internalType": "string",
          "name": "description",
          "type": "string"
        },
        {
          "internalType": "enum QVote.ProposalStatus",
          "name": "status",
          "type": "uint8"
        }
      ],
      "stateMutability": "view",
      "type": "function"
    },
    {
      "inputs": [
        {
          "internalType": "uint256",
          "name": "_orgID",
          "type": "uint256"
        },
        {
          "internalType": "uint256",
          "name": "_pID",
          "type": "uint256"
        },
        {
          "internalType": "uint256",
          "name": "vote",
          "type": "uint256"
        },
        {
          "internalType": "uint256",
          "name": "numVotes",
          "type": "uint256"
        }
      ],
      "name": "castVote",
      "outputs": [],
      "stateMutability": "nonpayable",
      "type": "function"
    },
    {
      "inputs": [
        {
          "internalType": "uint256",
          "name": "_cpv",
          "type": "uint256"
        }
      ],
      "name": "changeCreditsPerVote",
      "outputs": [
        {
          "internalType": "uint256",
          "name": "",
          "type": "uint256"
        }
      ],
      "stateMutability": "nonpayable",
      "type": "function"
    },
    {
      "inputs": [],
      "name": "checkOrgActive",
      "outputs": [
        {
          "internalType": "bool",
          "name": "",
          "type": "bool"
        }
      ],
      "stateMutability": "view",
      "type": "function"
    },
    {
      "inputs": [
        {
          "internalType": "uint256",
          "name": "_orgID",
          "type": "uint256"
        },
        {
          "internalType": "uint256",
          "name": "_pID",
          "type": "uint256"
        }
      ],
      "name": "checkProposalDuration",
      "outputs": [
        {
          "internalType": "uint256",
          "name": "",
          "type": "uint256"
        }
      ],
      "stateMutability": "view",
      "type": "function"
    },
    {
      "inputs": [
        {
          "internalType": "uint256",
          "name": "_orgID",
          "type": "uint256"
        },
        {
          "internalType": "uint256",
          "name": "_pID",
          "type": "uint256"
        }
      ],
      "name": "checkProposalStatus",
      "outputs": [
        {
          "internalType": "enum QVote.ProposalStatus",
          "name": "",
          "type": "uint8"
        }
      ],
      "stateMutability": "view",
      "type": "function"
    },
    {
      "inputs": [
        {
          "internalType": "uint256",
          "name": "_orgID",
          "type": "uint256"
        }
      ],
      "name": "checkUserBalance",
      "outputs": [
        {
          "internalType": "uint256",
          "name": "",
          "type": "uint256"
        }
      ],
      "stateMutability": "view",
      "type": "function"
    },
    {
      "inputs": [
        {
          "internalType": "string",
          "name": "_name",
          "type": "string"
        },
        {
          "internalType": "uint256",
          "name": "_cpv",
          "type": "uint256"
        }
      ],
      "name": "createNewOrganization",
      "outputs": [],
      "stateMutability": "nonpayable",
      "type": "function"
    },
    {
      "inputs": [
        {
          "internalType": "uint256",
          "name": "_duration",
          "type": "uint256"
        },
        {
          "internalType": "string",
          "name": "_title",
          "type": "string"
        },
        {
          "internalType": "string",
          "name": "_desc",
          "type": "string"
        }
      ],
      "name": "createNewProposal",
      "outputs": [],
      "stateMutability": "nonpayable",
      "type": "function"
    },
    {
      "inputs": [],
      "name": "getAllOrganization",
      "outputs": [
        {
          "components": [
            {
              "internalType": "address",
              "name": "creator",
              "type": "address"
            },
            {
              "internalType": "uint256",
              "name": "oid",
              "type": "uint256"
            },
            {
              "internalType": "bool",
              "name": "isActive",
              "type": "bool"
            },
            {
              "internalType": "string",
              "name": "name",
              "type": "string"
            },
            {
              "internalType": "uint256",
              "name": "ProposalCount",
              "type": "uint256"
            },
            {
              "internalType": "uint256",
              "name": "creditsPerVoter",
              "type": "uint256"
            },
            {
              "internalType": "uint256",
              "name": "totalTokenSupply",
              "type": "uint256"
            }
          ],
          "internalType": "struct QVote.Organization[]",
          "name": "",
          "type": "tuple[]"
        }
      ],
      "stateMutability": "view",
      "type": "function"
    },
    {
      "inputs": [],
      "name": "getAllProposals",
      "outputs": [
        {
          "components": [
            {
              "internalType": "address",
              "name": "creator",
              "type": "address"
            },
            {
              "internalType": "uint256",
              "name": "pid",
              "type": "uint256"
            },
            {
              "internalType": "string",
              "name": "title",
              "type": "string"
            },
            {
              "internalType": "address[]",
              "name": "voters",
              "type": "address[]"
            },
            {
              "internalType": "uint256",
              "name": "upVotes",
              "type": "uint256"
            },
            {
              "internalType": "uint256",
              "name": "downVotes",
              "type": "uint256"
            },
            {
              "internalType": "uint256",
              "name": "creationTime",
              "type": "uint256"
            },
            {
              "internalType": "uint256",
              "name": "duration",
              "type": "uint256"
            },
            {
              "internalType": "string",
              "name": "description",
              "type": "string"
            },
            {
              "internalType": "enum QVote.ProposalStatus",
              "name": "status",
              "type": "uint8"
            }
          ],
          "internalType": "struct QVote.Proposal[]",
          "name": "",
          "type": "tuple[]"
        }
      ],
      "stateMutability": "view",
      "type": "function"
    },
    {
      "inputs": [
        {
          "internalType": "uint256",
          "name": "orgID",
          "type": "uint256"
        }
      ],
      "name": "getOrgProposals",
      "outputs": [
        {
          "components": [
            {
              "internalType": "address",
              "name": "creator",
              "type": "address"
            },
            {
              "internalType": "uint256",
              "name": "pid",
              "type": "uint256"
            },
            {
              "internalType": "string",
              "name": "title",
              "type": "string"
            },
            {
              "internalType": "address[]",
              "name": "voters",
              "type": "address[]"
            },
            {
              "internalType": "uint256",
              "name": "upVotes",
              "type": "uint256"
            },
            {
              "internalType": "uint256",
              "name": "downVotes",
              "type": "uint256"
            },
            {
              "internalType": "uint256",
              "name": "creationTime",
              "type": "uint256"
            },
            {
              "internalType": "uint256",
              "name": "duration",
              "type": "uint256"
            },
            {
              "internalType": "string",
              "name": "description",
              "type": "string"
            },
            {
              "internalType": "enum QVote.ProposalStatus",
              "name": "status",
              "type": "uint8"
            }
          ],
          "internalType": "struct QVote.Proposal[]",
          "name": "",
          "type": "tuple[]"
        }
      ],
      "stateMutability": "view",
      "type": "function"
    },
    {
      "inputs": [],
      "name": "getTotalTokenSupply",
      "outputs": [
        {
          "internalType": "uint256",
          "name": "",
          "type": "uint256"
        }
      ],
      "stateMutability": "view",
      "type": "function"
    },
    {
      "inputs": [
        {
          "internalType": "address",
          "name": "_owner",
          "type": "address"
        }
      ],
      "name": "getUserOrganizationTokenSuppply",
      "outputs": [
        {
          "internalType": "uint256",
          "name": "",
          "type": "uint256"
        }
      ],
      "stateMutability": "view",
      "type": "function"
    },
    {
      "inputs": [],
      "name": "getuserProposals",
      "outputs": [
        {
          "components": [
            {
              "internalType": "address",
              "name": "creator",
              "type": "address"
            },
            {
              "internalType": "uint256",
              "name": "pid",
              "type": "uint256"
            },
            {
              "internalType": "string",
              "name": "title",
              "type": "string"
            },
            {
              "internalType": "address[]",
              "name": "voters",
              "type": "address[]"
            },
            {
              "internalType": "uint256",
              "name": "upVotes",
              "type": "uint256"
            },
            {
              "internalType": "uint256",
              "name": "downVotes",
              "type": "uint256"
            },
            {
              "internalType": "uint256",
              "name": "creationTime",
              "type": "uint256"
            },
            {
              "internalType": "uint256",
              "name": "duration",
              "type": "uint256"
            },
            {
              "internalType": "string",
              "name": "description",
              "type": "string"
            },
            {
              "internalType": "enum QVote.ProposalStatus",
              "name": "status",
              "type": "uint8"
            }
          ],
          "internalType": "struct QVote.Proposal[]",
          "name": "",
          "type": "tuple[]"
        }
      ],
      "stateMutability": "view",
      "type": "function"
    },
    {
      "inputs": [
        {
          "internalType": "uint256",
          "name": "_orgID",
          "type": "uint256"
        },
        {
          "internalType": "address",
          "name": "account",
          "type": "address"
        }
      ],
      "name": "mint",
      "outputs": [],
      "stateMutability": "nonpayable",
      "type": "function"
    },
    {
      "inputs": [],
      "name": "organizationCount",
      "outputs": [
        {
          "internalType": "uint256",
          "name": "",
          "type": "uint256"
        }
      ],
      "stateMutability": "view",
      "type": "function"
    },
    {
      "inputs": [
        {
          "internalType": "uint256",
          "name": "",
          "type": "uint256"
        }
      ],
      "name": "organizations",
      "outputs": [
        {
          "internalType": "address",
          "name": "creator",
          "type": "address"
        },
        {
          "internalType": "uint256",
          "name": "oid",
          "type": "uint256"
        },
        {
          "internalType": "bool",
          "name": "isActive",
          "type": "bool"
        },
        {
          "internalType": "string",
          "name": "name",
          "type": "string"
        },
        {
          "internalType": "uint256",
          "name": "ProposalCount",
          "type": "uint256"
        },
        {
          "internalType": "uint256",
          "name": "creditsPerVoter",
          "type": "uint256"
        },
        {
          "internalType": "uint256",
          "name": "totalTokenSupply",
          "type": "uint256"
        }
      ],
      "stateMutability": "view",
      "type": "function"
    },
    {
      "inputs": [],
      "name": "owner",
      "outputs": [
        {
          "internalType": "address",
          "name": "",
          "type": "address"
        }
      ],
      "stateMutability": "view",
      "type": "function"
    },
    {
      "inputs": [
        {
          "internalType": "uint256",
          "name": "",
          "type": "uint256"
        },
        {
          "internalType": "uint256",
          "name": "",
          "type": "uint256"
        }
      ],
      "name": "proposalList",
      "outputs": [
        {
          "internalType": "address",
          "name": "creator",
          "type": "address"
        },
        {
          "internalType": "uint256",
          "name": "pid",
          "type": "uint256"
        },
        {
          "internalType": "string",
          "name": "title",
          "type": "string"
        },
        {
          "internalType": "uint256",
          "name": "upVotes",
          "type": "uint256"
        },
        {
          "internalType": "uint256",
          "name": "downVotes",
          "type": "uint256"
        },
        {
          "internalType": "uint256",
          "name": "creationTime",
          "type": "uint256"
        },
        {
          "internalType": "uint256",
          "name": "duration",
          "type": "uint256"
        },
        {
          "internalType": "string",
          "name": "description",
          "type": "string"
        },
        {
          "internalType": "enum QVote.ProposalStatus",
          "name": "status",
          "type": "uint8"
        }
      ],
      "stateMutability": "view",
      "type": "function"
    },
    {
      "inputs": [
        {
          "internalType": "uint256",
          "name": "_orgID",
          "type": "uint256"
        },
        {
          "internalType": "uint256",
          "name": "_pID",
          "type": "uint256"
        }
      ],
      "name": "setToEnded",
      "outputs": [],
      "stateMutability": "nonpayable",
      "type": "function"
    },
    {
      "inputs": [
        {
          "internalType": "uint256",
          "name": "_orgID",
          "type": "uint256"
        },
        {
          "internalType": "uint256",
          "name": "_pID",
          "type": "uint256"
        }
      ],
      "name": "setToTally",
      "outputs": [],
      "stateMutability": "nonpayable",
      "type": "function"
    },
    {
      "inputs": [
        {
          "internalType": "uint256",
          "name": "_orgID",
          "type": "uint256"
        },
        {
          "internalType": "uint256",
          "name": "_pid",
          "type": "uint256"
        }
      ],
      "name": "totalVotes",
      "outputs": [
        {
          "internalType": "uint256",
          "name": "",
          "type": "uint256"
        },
        {
          "internalType": "uint256",
          "name": "",
          "type": "uint256"
        }
      ],
      "stateMutability": "view",
      "type": "function"
    },
    {
      "inputs": [
        {
          "internalType": "uint256",
          "name": "",
          "type": "uint256"
        },
        {
          "internalType": "address",
          "name": "",
          "type": "address"
        }
      ],
      "name": "userBalance",
      "outputs": [
        {
          "internalType": "uint256",
          "name": "",
          "type": "uint256"
        }
      ],
      "stateMutability": "view",
      "type": "function"
    }
  ],
  "bytecode": "0x6080604052600060025534801561001557600080fd5b50336000806101000a81548173ffffffffffffffffffffffffffffffffffffffff021916908373ffffffffffffffffffffffffffffffffffffffff1602179055506150bc806100656000396000f3fe608060405234801561001057600080fd5b50600436106101735760003560e01c8063938351b8116100de578063cceb68f511610097578063f33a076611610071578063f33a0766146104c1578063f3970d73146104df578063fb7cc43b146104fb578063ff435baa1461052b57610173565b8063cceb68f51461044f578063e792dd8a1461046d578063f1c62104146104a357610173565b8063938351b81461037557806394bf804d146103ad578063ad81c583146103c9578063b11f6442146103e7578063b242c4c014610417578063b2e95da21461043357610173565b80632fc256c3116101305780632fc256c314610267578063636454311461029757806363a56e7a146102c757806385198705146102f75780638da5cb5b14610327578063920be8881461034557610173565b8063047087cc146101785780631414982f146101965780631c6fc850146101ce57806321795070146101ea57806324a9ed8e1461020657806327f405ef14610237575b600080fd5b610180610549565b60405161018d9190614888565b60405180910390f35b6101b060048036038101906101ab9190613d9c565b610647565b6040516101c599989796959493929190614559565b60405180910390f35b6101e860048036038101906101e39190613dd8565b6107ef565b005b61020460048036038101906101ff9190613d9c565b610d44565b005b610220600480360381019061021b9190613d9c565b61109b565b60405161022e929190614916565b60405180910390f35b610251600480360381019061024c9190613c31565b611157565b60405161025e9190614888565b60405180910390f35b610281600480360381019061027c9190613d9c565b611257565b60405161028e9190614888565b60405180910390f35b6102b160048036038101906102ac9190613d9c565b6113b5565b6040516102be9190614653565b60405180910390f35b6102e160048036038101906102dc9190613cae565b611520565b6040516102ee9190614616565b60405180910390f35b610311600480360381019061030c9190613cd7565b6118e2565b60405161031e9190614888565b60405180910390f35b61032f611907565b60405161033c91906144c8565b60405180910390f35b61035f600480360381019061035a9190613cae565b61192b565b60405161036c9190614888565b60405180910390f35b61038f600480360381019061038a9190613cae565b611a53565b6040516103a499989796959493929190614559565b60405180910390f35b6103c760048036038101906103c29190613cd7565b611bee565b005b6103d1611eaa565b6040516103de9190614638565b60405180910390f35b61040160048036038101906103fc9190613c31565b611fbc565b60405161040e9190614888565b60405180910390f35b610431600480360381019061042c9190613d9c565b611fd4565b005b61044d60048036038101906104489190613c5a565b61232b565b005b61045761274e565b6040516104649190614616565b60405180910390f35b61048760048036038101906104829190613cae565b612a89565b60405161049a97969594939291906144e3565b60405180910390f35b6104ab612b90565b6040516104b89190614888565b60405180910390f35b6104c9612b96565b6040516104d69190614616565b60405180910390f35b6104f960048036038101906104f49190613d13565b612f81565b005b61051560048036038101906105109190613cae565b6135f1565b6040516105229190614888565b60405180910390f35b6105336136ba565b60405161054091906145f4565b60405180910390f35b60008060048054905014156105615760009050610644565b600480549050600360003373ffffffffffffffffffffffffffffffffffffffff1673ffffffffffffffffffffffffffffffffffffffff1681526020019081526020016000205411156105b65760009050610644565b6004600360003373ffffffffffffffffffffffffffffffffffffffff1673ffffffffffffffffffffffffffffffffffffffff168152602001908152602001600020548154811061062f577f4e487b7100000000000000000000000000000000000000000000000000000000600052603260045260246000fd5b90600052602060002090600702016006015490505b90565b6005602052816000526040600020818154811061066357600080fd5b90600052602060002090600a0201600091509150508060000160009054906101000a900473ffffffffffffffffffffffffffffffffffffffff16908060010154908060020180546106b390614bec565b80601f01602080910402602001604051908101604052809291908181526020018280546106df90614bec565b801561072c5780601f106107015761010080835404028352916020019161072c565b820191906000526020600020905b81548152906001019060200180831161070f57829003601f168201915b50505050509080600401549080600501549080600601549080600701549080600801805461075990614bec565b80601f016020809104026020016040519081016040528092919081815260200182805461078590614bec565b80156107d25780601f106107a7576101008083540402835291602001916107d2565b820191906000526020600020905b8154815290600101906020018083116107b557829003601f168201915b5050505050908060090160009054906101000a900460ff16905089565b8360008110158015610802575060025481105b610841576040517f08c379a0000000000000000000000000000000000000000000000000000000008152600401610838906146c8565b60405180910390fd5b848460006004838154811061087f577f4e487b7100000000000000000000000000000000000000000000000000000000600052603260045260246000fd5b9060005260206000209060070201600401549050600082101580156108a357508082105b6108e2576040517f08c379a00000000000000000000000000000000000000000000000000000000081526004016108d9906147a8565b60405180910390fd5b6000600281111561091c577f4e487b7100000000000000000000000000000000000000000000000000000000600052602160045260246000fd5b61092689896113b5565b600281111561095e577f4e487b7100000000000000000000000000000000000000000000000000000000600052602160045260246000fd5b1461099e576040517f08c379a000000000000000000000000000000000000000000000000000000000815260040161099590614868565b60405180910390fd5b6000600560008a815260200190815260200160002090506109bf8989611257565b8189815481106109f8577f4e487b7100000000000000000000000000000000000000000000000000000000600052603260045260246000fd5b90600052602060002090600a02016006015442610a159190614b09565b10610a55576040517f08c379a0000000000000000000000000000000000000000000000000000000008152600401610a4c906147c8565b60405180910390fd5b610a6089893361385e565b610a9f576040517f08c379a0000000000000000000000000000000000000000000000000000000008152600401610a9690614828565b60405180910390fd5b85610aa98a6135f1565b1015610aea576040517f08c379a0000000000000000000000000000000000000000000000000000000008152600401610ae190614708565b60405180910390fd5b610b4d86600660008c815260200190815260200160002060003373ffffffffffffffffffffffffffffffffffffffff1673ffffffffffffffffffffffffffffffffffffffff168152602001908152602001600020546138e190919063ffffffff16565b600660008b815260200190815260200160002060003373ffffffffffffffffffffffffffffffffffffffff1673ffffffffffffffffffffffffffffffffffffffff168152602001908152602001600020819055506000610bac876138f7565b90506000828a81548110610be9577f4e487b7100000000000000000000000000000000000000000000000000000000600052603260045260246000fd5b90600052602060002090600a020190506001891415610c2657610c1982826004015461397190919063ffffffff16565b8160040181905550610c46565b610c3d82826005015461397190919063ffffffff16565b81600501819055505b80600301339080600181540180825580915050600190039060005260206000200160009091909190916101000a81548173ffffffffffffffffffffffffffffffffffffffff021916908373ffffffffffffffffffffffffffffffffffffffff1602179055506000600760008d815260200190815260200160002060008c815260200190815260200160002060003373ffffffffffffffffffffffffffffffffffffffff1673ffffffffffffffffffffffffffffffffffffffff168152602001908152602001600020905060018160000160006101000a81548160ff021916908315150217905550828160010181905550505050505050505050505050565b8160008110158015610d57575060025481105b610d96576040517f08c379a0000000000000000000000000000000000000000000000000000000008152600401610d8d906146c8565b60405180910390fd5b8282600060048381548110610dd4577f4e487b7100000000000000000000000000000000000000000000000000000000600052603260045260246000fd5b906000526020600020906007020160040154905060008210158015610df857508082105b610e37576040517f08c379a0000000000000000000000000000000000000000000000000000000008152600401610e2e906147a8565b60405180910390fd5b600060056000888152602001908152602001600020905060016002811115610e88577f4e487b7100000000000000000000000000000000000000000000000000000000600052602160045260246000fd5b818781548110610ec1577f4e487b7100000000000000000000000000000000000000000000000000000000600052603260045260246000fd5b90600052602060002090600a020160090160009054906101000a900460ff166002811115610f18577f4e487b7100000000000000000000000000000000000000000000000000000000600052602160045260246000fd5b14610f58576040517f08c379a0000000000000000000000000000000000000000000000000000000008152600401610f4f90614748565b60405180910390fd5b610f628787611257565b818781548110610f9b577f4e487b7100000000000000000000000000000000000000000000000000000000600052603260045260246000fd5b90600052602060002090600a02016006015442610fb89190614b09565b1015610ff9576040517f08c379a0000000000000000000000000000000000000000000000000000000008152600401610ff0906146e8565b60405180910390fd5b6002818781548110611034577f4e487b7100000000000000000000000000000000000000000000000000000000600052603260045260246000fd5b90600052602060002090600a020160090160006101000a81548160ff0219169083600281111561108d577f4e487b7100000000000000000000000000000000000000000000000000000000600052602160045260246000fd5b021790555050505050505050565b60008060006005600086815260200190815260200160002090508084815481106110ee577f4e487b7100000000000000000000000000000000000000000000000000000000600052603260045260246000fd5b90600052602060002090600a020160040154818581548110611139577f4e487b7100000000000000000000000000000000000000000000000000000000600052603260045260246000fd5b90600052602060002090600a02016005015492509250509250929050565b600080600480549050141561116f5760009050611252565b600480549050600360008473ffffffffffffffffffffffffffffffffffffffff1673ffffffffffffffffffffffffffffffffffffffff1681526020019081526020016000205411156111c45760009050611252565b6004600360008473ffffffffffffffffffffffffffffffffffffffff1673ffffffffffffffffffffffffffffffffffffffff168152602001908152602001600020548154811061123d577f4e487b7100000000000000000000000000000000000000000000000000000000600052603260045260246000fd5b90600052602060002090600702016006015490505b919050565b6000826000811015801561126c575060025481105b6112ab576040517f08c379a00000000000000000000000000000000000000000000000000000000081526004016112a2906146c8565b60405180910390fd5b83836000600483815481106112e9577f4e487b7100000000000000000000000000000000000000000000000000000000600052603260045260246000fd5b90600052602060002090600702016004015490506000821015801561130d57508082105b61134c576040517f08c379a0000000000000000000000000000000000000000000000000000000008152600401611343906147a8565b60405180910390fd5b600560008881526020019081526020016000208681548110611397577f4e487b7100000000000000000000000000000000000000000000000000000000600052603260045260246000fd5b90600052602060002090600a02016007015494505050505092915050565b600082600081101580156113ca575060025481105b611409576040517f08c379a0000000000000000000000000000000000000000000000000000000008152600401611400906146c8565b60405180910390fd5b8383600060048381548110611447577f4e487b7100000000000000000000000000000000000000000000000000000000600052603260045260246000fd5b90600052602060002090600702016004015490506000821015801561146b57508082105b6114aa576040517f08c379a00000000000000000000000000000000000000000000000000000000081526004016114a1906147a8565b60405180910390fd5b6005600088815260200190815260200160002086815481106114f5577f4e487b7100000000000000000000000000000000000000000000000000000000600052603260045260246000fd5b90600052602060002090600a020160090160009054906101000a900460ff1694505050505092915050565b60608160008110158015611535575060025481105b611574576040517f08c379a000000000000000000000000000000000000000000000000000000000815260040161156b906146c8565b60405180910390fd5b6000600480549050148061159e575060006005600085815260200190815260200160002080549050145b156115ae576060809250506118dc565b60056000848152602001908152602001600020805480602002602001604051908101604052809291908181526020016000905b828210156118d557838290600052602060002090600a0201604051806101400160405290816000820160009054906101000a900473ffffffffffffffffffffffffffffffffffffffff1673ffffffffffffffffffffffffffffffffffffffff1673ffffffffffffffffffffffffffffffffffffffff1681526020016001820154815260200160028201805461167590614bec565b80601f01602080910402602001604051908101604052809291908181526020018280546116a190614bec565b80156116ee5780601f106116c3576101008083540402835291602001916116ee565b820191906000526020600020905b8154815290600101906020018083116116d157829003601f168201915b505050505081526020016003820180548060200260200160405190810160405280929190818152602001828054801561177c57602002820191906000526020600020905b8160009054906101000a900473ffffffffffffffffffffffffffffffffffffffff1673ffffffffffffffffffffffffffffffffffffffff1681526020019060010190808311611732575b50505050508152602001600482015481526020016005820154815260200160068201548152602001600782015481526020016008820180546117bd90614bec565b80601f01602080910402602001604051908101604052809291908181526020018280546117e990614bec565b80156118365780601f1061180b57610100808354040283529160200191611836565b820191906000526020600020905b81548152906001019060200180831161181957829003601f168201915b505050505081526020016009820160009054906101000a900460ff16600281111561188a577f4e487b7100000000000000000000000000000000000000000000000000000000600052602160045260246000fd5b60028111156118c2577f4e487b7100000000000000000000000000000000000000000000000000000000600052602160045260246000fd5b81525050815260200190600101906115e1565b5050505091505b50919050565b6006602052816000526040600020602052806000526040600020600091509150505481565b60008054906101000a900473ffffffffffffffffffffffffffffffffffffffff1681565b6000806004600360003373ffffffffffffffffffffffffffffffffffffffff1673ffffffffffffffffffffffffffffffffffffffff16815260200190815260200160002054815481106119a7577f4e487b7100000000000000000000000000000000000000000000000000000000600052603260045260246000fd5b906000526020600020906007020190508281600501819055506004600360003373ffffffffffffffffffffffffffffffffffffffff1673ffffffffffffffffffffffffffffffffffffffff1681526020019081526020016000205481548110611a39577f4e487b7100000000000000000000000000000000000000000000000000000000600052603260045260246000fd5b906000526020600020906007020160050154915050919050565b60018181548110611a6357600080fd5b90600052602060002090600a02016000915090508060000160009054906101000a900473ffffffffffffffffffffffffffffffffffffffff1690806001015490806002018054611ab290614bec565b80601f0160208091040260200160405190810160405280929190818152602001828054611ade90614bec565b8015611b2b5780601f10611b0057610100808354040283529160200191611b2b565b820191906000526020600020905b815481529060010190602001808311611b0e57829003601f168201915b505050505090806004015490806005015490806006015490806007015490806008018054611b5890614bec565b80601f0160208091040260200160405190810160405280929190818152602001828054611b8490614bec565b8015611bd15780601f10611ba657610100808354040283529160200191611bd1565b820191906000526020600020905b815481529060010190602001808311611bb457829003601f168201915b5050505050908060090160009054906101000a900460ff16905089565b600073ffffffffffffffffffffffffffffffffffffffff168173ffffffffffffffffffffffffffffffffffffffff161415611c5e576040517f08c379a0000000000000000000000000000000000000000000000000000000008152600401611c5590614848565b60405180910390fd5b60006006600084815260200190815260200160002060008373ffffffffffffffffffffffffffffffffffffffff1673ffffffffffffffffffffffffffffffffffffffff1681526020019081526020016000205414611cf1576040517f08c379a0000000000000000000000000000000000000000000000000000000008152600401611ce890614768565b60405180910390fd5b600060048381548110611d2d577f4e487b7100000000000000000000000000000000000000000000000000000000600052603260045260246000fd5b9060005260206000209060070201600501549050611da4816006600086815260200190815260200160002060008573ffffffffffffffffffffffffffffffffffffffff1673ffffffffffffffffffffffffffffffffffffffff1681526020019081526020016000205461397190919063ffffffff16565b6006600085815260200190815260200160002060008473ffffffffffffffffffffffffffffffffffffffff1673ffffffffffffffffffffffffffffffffffffffff16815260200190815260200160002081905550611e568160048581548110611e36577f4e487b7100000000000000000000000000000000000000000000000000000000600052603260045260246000fd5b90600052602060002090600702016006015461397190919063ffffffff16565b60048481548110611e90577f4e487b7100000000000000000000000000000000000000000000000000000000600052603260045260246000fd5b906000526020600020906007020160060181905550505050565b6000806004805490501415611ec25760009050611fb9565b600480549050600360003373ffffffffffffffffffffffffffffffffffffffff1673ffffffffffffffffffffffffffffffffffffffff168152602001908152602001600020541115611f175760009050611fb9565b600115156004600360003373ffffffffffffffffffffffffffffffffffffffff1673ffffffffffffffffffffffffffffffffffffffff1681526020019081526020016000205481548110611f94577f4e487b7100000000000000000000000000000000000000000000000000000000600052603260045260246000fd5b906000526020600020906007020160020160009054906101000a900460ff1615151490505b90565b60036020528060005260406000206000915090505481565b8160008110158015611fe7575060025481105b612026576040517f08c379a000000000000000000000000000000000000000000000000000000000815260040161201d906146c8565b60405180910390fd5b8282600060048381548110612064577f4e487b7100000000000000000000000000000000000000000000000000000000600052603260045260246000fd5b90600052602060002090600702016004015490506000821015801561208857508082105b6120c7576040517f08c379a00000000000000000000000000000000000000000000000000000000081526004016120be906147a8565b60405180910390fd5b600060056000888152602001908152602001600020905060006002811115612118577f4e487b7100000000000000000000000000000000000000000000000000000000600052602160045260246000fd5b818781548110612151577f4e487b7100000000000000000000000000000000000000000000000000000000600052603260045260246000fd5b90600052602060002090600a020160090160009054906101000a900460ff1660028111156121a8577f4e487b7100000000000000000000000000000000000000000000000000000000600052602160045260246000fd5b146121e8576040517f08c379a00000000000000000000000000000000000000000000000000000000081526004016121df90614808565b60405180910390fd5b6121f28787611257565b81878154811061222b577f4e487b7100000000000000000000000000000000000000000000000000000000600052603260045260246000fd5b90600052602060002090600a020160060154426122489190614b09565b1015612289576040517f08c379a0000000000000000000000000000000000000000000000000000000008152600401612280906146e8565b60405180910390fd5b60018187815481106122c4577f4e487b7100000000000000000000000000000000000000000000000000000000600052603260045260246000fd5b90600052602060002090600a020160090160006101000a81548160ff0219169083600281111561231d577f4e487b7100000000000000000000000000000000000000000000000000000000600052602160045260246000fd5b021790555050505050505050565b600060048054905014806123da5750600015156004600360003373ffffffffffffffffffffffffffffffffffffffff1673ffffffffffffffffffffffffffffffffffffffff16815260200190815260200160002054815481106123b7577f4e487b7100000000000000000000000000000000000000000000000000000000600052603260045260246000fd5b906000526020600020906007020160020160009054906101000a900460ff161515145b612419576040517f08c379a0000000000000000000000000000000000000000000000000000000008152600401612410906147e8565b60405180910390fd5b600254600360003373ffffffffffffffffffffffffffffffffffffffff1673ffffffffffffffffffffffffffffffffffffffff1681526020019081526020016000208190555060046040518060e001604052803373ffffffffffffffffffffffffffffffffffffffff1681526020016002548152602001600115158152602001848152602001600081526020018381526020016000815250908060018154018082558091505060019003906000526020600020906007020160009091909190915060008201518160000160006101000a81548173ffffffffffffffffffffffffffffffffffffffff021916908373ffffffffffffffffffffffffffffffffffffffff1602179055506020820151816001015560408201518160020160006101000a81548160ff0219169083151502179055506060820151816003019080519060200190612567929190613987565b506080820151816004015560a0820151816005015560c0820151816006015550506002600081548092919061259b90614c4f565b91905055507ff9fdfd659e85a8bcde8d6fdc3ffb9580866daefbaec8485e15fa8ffc21d8d7d5600460016002546125d29190614b09565b81548110612609577f4e487b7100000000000000000000000000000000000000000000000000000000600052603260045260246000fd5b90600052602060002090600702016003016004600160025461262b9190614b09565b81548110612662577f4e487b7100000000000000000000000000000000000000000000000000000000600052603260045260246000fd5b906000526020600020906007020160000160009054906101000a900473ffffffffffffffffffffffffffffffffffffffff16600254600360003373ffffffffffffffffffffffffffffffffffffffff1673ffffffffffffffffffffffffffffffffffffffff16815260200190815260200160002054600460016002546126e89190614b09565b8154811061271f577f4e487b7100000000000000000000000000000000000000000000000000000000600052603260045260246000fd5b90600052602060002090600702016005015460405161274295949392919061466e565b60405180910390a15050565b60606000600180549050141561276957606080915050612a86565b6001805480602002602001604051908101604052809291908181526020016000905b82821015612a7f57838290600052602060002090600a0201604051806101400160405290816000820160009054906101000a900473ffffffffffffffffffffffffffffffffffffffff1673ffffffffffffffffffffffffffffffffffffffff1673ffffffffffffffffffffffffffffffffffffffff1681526020016001820154815260200160028201805461281f90614bec565b80601f016020809104026020016040519081016040528092919081815260200182805461284b90614bec565b80156128985780601f1061286d57610100808354040283529160200191612898565b820191906000526020600020905b81548152906001019060200180831161287b57829003601f168201915b505050505081526020016003820180548060200260200160405190810160405280929190818152602001828054801561292657602002820191906000526020600020905b8160009054906101000a900473ffffffffffffffffffffffffffffffffffffffff1673ffffffffffffffffffffffffffffffffffffffff16815260200190600101908083116128dc575b505050505081526020016004820154815260200160058201548152602001600682015481526020016007820154815260200160088201805461296790614bec565b80601f016020809104026020016040519081016040528092919081815260200182805461299390614bec565b80156129e05780601f106129b5576101008083540402835291602001916129e0565b820191906000526020600020905b8154815290600101906020018083116129c357829003601f168201915b505050505081526020016009820160009054906101000a900460ff166002811115612a34577f4e487b7100000000000000000000000000000000000000000000000000000000600052602160045260246000fd5b6002811115612a6c577f4e487b7100000000000000000000000000000000000000000000000000000000600052602160045260246000fd5b815250508152602001906001019061278b565b5050505090505b90565b60048181548110612a9957600080fd5b90600052602060002090600702016000915090508060000160009054906101000a900473ffffffffffffffffffffffffffffffffffffffff16908060010154908060020160009054906101000a900460ff1690806003018054612afb90614bec565b80601f0160208091040260200160405190810160405280929190818152602001828054612b2790614bec565b8015612b745780601f10612b4957610100808354040283529160200191612b74565b820191906000526020600020905b815481529060010190602001808311612b5757829003601f168201915b5050505050908060040154908060050154908060060154905087565b60025481565b606060006004805490501480612c015750600060056000600360003373ffffffffffffffffffffffffffffffffffffffff1673ffffffffffffffffffffffffffffffffffffffff16815260200190815260200160002054815260200190815260200160002080549050145b15612c1157606080915050612f7e565b60056000600360003373ffffffffffffffffffffffffffffffffffffffff1673ffffffffffffffffffffffffffffffffffffffff168152602001908152602001600020548152602001908152602001600020805480602002602001604051908101604052809291908181526020016000905b82821015612f7757838290600052602060002090600a0201604051806101400160405290816000820160009054906101000a900473ffffffffffffffffffffffffffffffffffffffff1673ffffffffffffffffffffffffffffffffffffffff1673ffffffffffffffffffffffffffffffffffffffff16815260200160018201548152602001600282018054612d1790614bec565b80601f0160208091040260200160405190810160405280929190818152602001828054612d4390614bec565b8015612d905780601f10612d6557610100808354040283529160200191612d90565b820191906000526020600020905b815481529060010190602001808311612d7357829003601f168201915b5050505050815260200160038201805480602002602001604051908101604052809291908181526020018280548015612e1e57602002820191906000526020600020905b8160009054906101000a900473ffffffffffffffffffffffffffffffffffffffff1673ffffffffffffffffffffffffffffffffffffffff1681526020019060010190808311612dd4575b5050505050815260200160048201548152602001600582015481526020016006820154815260200160078201548152602001600882018054612e5f90614bec565b80601f0160208091040260200160405190810160405280929190818152602001828054612e8b90614bec565b8015612ed85780601f10612ead57610100808354040283529160200191612ed8565b820191906000526020600020905b815481529060010190602001808311612ebb57829003601f168201915b505050505081526020016009820160009054906101000a900460ff166002811115612f2c577f4e487b7100000000000000000000000000000000000000000000000000000000600052602160045260246000fd5b6002811115612f64577f4e487b7100000000000000000000000000000000000000000000000000000000600052602160045260246000fd5b8152505081526020019060010190612c83565b5050505090505b90565b60008511612fc4576040517f08c379a0000000000000000000000000000000000000000000000000000000008152600401612fbb90614728565b60405180910390fd5b6000600360003373ffffffffffffffffffffffffffffffffffffffff1673ffffffffffffffffffffffffffffffffffffffff1681526020019081526020016000205490506001151560048281548110613046577f4e487b7100000000000000000000000000000000000000000000000000000000600052603260045260246000fd5b906000526020600020906007020160020160009054906101000a900460ff161515146130a7576040517f08c379a000000000000000000000000000000000000000000000000000000000815260040161309e90614788565b60405180910390fd5b6000600482815481106130e3577f4e487b7100000000000000000000000000000000000000000000000000000000600052603260045260246000fd5b90600052602060002090600702016004015490506130ff613a0d565b86868080601f016020809104026020016040519081016040528093929190818152602001838380828437600081840152601f19601f8201169050808301925050505050505081604001819052508181602001818152505033816000019073ffffffffffffffffffffffffffffffffffffffff16908173ffffffffffffffffffffffffffffffffffffffff168152505084848080601f016020809104026020016040519081016040528093929190818152602001838380828437600081840152601f19601f82011690508083019250505050505050816101000181905250878160e0018181525050428160c001818152505060008161012001906002811115613230577f4e487b7100000000000000000000000000000000000000000000000000000000600052602160045260246000fd5b9081600281111561326a577f4e487b7100000000000000000000000000000000000000000000000000000000600052602160045260246000fd5b81525050600081608001818152505060008160a0018181525050600560008481526020019081526020016000208190806001815401808255809150506001900390600052602060002090600a020160009091909190915060008201518160000160006101000a81548173ffffffffffffffffffffffffffffffffffffffff021916908373ffffffffffffffffffffffffffffffffffffffff16021790555060208201518160010155604082015181600201908051906020019061332e929190613987565b50606082015181600301908051906020019061334b929190613aae565b506080820151816004015560a0820151816005015560c0820151816006015560e08201518160070155610100820151816008019080519060200190613391929190613987565b506101208201518160090160006101000a81548160ff021916908360028111156133e4577f4e487b7100000000000000000000000000000000000000000000000000000000600052602160045260246000fd5b0217905550505060018190806001815401808255809150506001900390600052602060002090600a020160009091909190915060008201518160000160006101000a81548173ffffffffffffffffffffffffffffffffffffffff021916908373ffffffffffffffffffffffffffffffffffffffff160217905550602082015181600101556040820151816002019080519060200190613484929190613987565b5060608201518160030190805190602001906134a1929190613aae565b506080820151816004015560a0820151816005015560c0820151816006015560e082015181600701556101008201518160080190805190602001906134e7929190613987565b506101208201518160090160006101000a81548160ff0219169083600281111561353a577f4e487b7100000000000000000000000000000000000000000000000000000000600052602160045260246000fd5b021790555050506004838154811061357b577f4e487b7100000000000000000000000000000000000000000000000000000000600052603260045260246000fd5b9060005260206000209060070201600401600081548092919061359d90614c4f565b91905055507ff53c86d23867defe5efadb4c8474b285930e5c754dc8019b734a5e4f69322edd83888885338d8b8b6040516135df9897969594939291906148a3565b60405180910390a15050505050505050565b60008073ffffffffffffffffffffffffffffffffffffffff163373ffffffffffffffffffffffffffffffffffffffff161415613662576040517f08c379a000000000000000000000000000000000000000000000000000000000815260040161365990614848565b60405180910390fd5b6006600083815260200190815260200160002060003373ffffffffffffffffffffffffffffffffffffffff1673ffffffffffffffffffffffffffffffffffffffff168152602001908152602001600020549050919050565b6060600060048054905014156136d55760608091505061385b565b6004805480602002602001604051908101604052809291908181526020016000905b8282101561385457838290600052602060002090600702016040518060e00160405290816000820160009054906101000a900473ffffffffffffffffffffffffffffffffffffffff1673ffffffffffffffffffffffffffffffffffffffff1673ffffffffffffffffffffffffffffffffffffffff168152602001600182015481526020016002820160009054906101000a900460ff161515151581526020016003820180546137a590614bec565b80601f01602080910402602001604051908101604052809291908181526020018280546137d190614bec565b801561381e5780601f106137f35761010080835404028352916020019161381e565b820191906000526020600020905b81548152906001019060200180831161380157829003601f168201915b505050505081526020016004820154815260200160058201548152602001600682015481525050815260200190600101906136f7565b5050505090505b90565b600080151560076000868152602001908152602001600020600085815260200190815260200160002060008473ffffffffffffffffffffffffffffffffffffffff1673ffffffffffffffffffffffffffffffffffffffff16815260200190815260200160002060000160009054906101000a900460ff1615151490509392505050565b600081836138ef9190614b09565b905092915050565b6000600382111561395e57819050600060016002846139169190614ad8565b6139209190614a82565b90505b8181101561395857809150600281828561393d9190614ad8565b6139479190614a82565b6139519190614ad8565b9050613923565b5061396c565b6000821461396b57600190505b5b919050565b6000818361397f9190614a82565b905092915050565b82805461399390614bec565b90600052602060002090601f0160209004810192826139b557600085556139fc565b82601f106139ce57805160ff19168380011785556139fc565b828001600101855582156139fc579182015b828111156139fb5782518255916020019190600101906139e0565b5b509050613a099190613b38565b5090565b604051806101400160405280600073ffffffffffffffffffffffffffffffffffffffff168152602001600081526020016060815260200160608152602001600081526020016000815260200160008152602001600081526020016060815260200160006002811115613aa8577f4e487b7100000000000000000000000000000000000000000000000000000000600052602160045260246000fd5b81525090565b828054828255906000526020600020908101928215613b27579160200282015b82811115613b265782518260006101000a81548173ffffffffffffffffffffffffffffffffffffffff021916908373ffffffffffffffffffffffffffffffffffffffff16021790555091602001919060010190613ace565b5b509050613b349190613b38565b5090565b5b80821115613b51576000816000905550600101613b39565b5090565b6000613b68613b6384614964565b61493f565b905082815260208101848484011115613b8057600080fd5b613b8b848285614baa565b509392505050565b600081359050613ba281615058565b92915050565b60008083601f840112613bba57600080fd5b8235905067ffffffffffffffff811115613bd357600080fd5b602083019150836001820283011115613beb57600080fd5b9250929050565b600082601f830112613c0357600080fd5b8135613c13848260208601613b55565b91505092915050565b600081359050613c2b8161506f565b92915050565b600060208284031215613c4357600080fd5b6000613c5184828501613b93565b91505092915050565b60008060408385031215613c6d57600080fd5b600083013567ffffffffffffffff811115613c8757600080fd5b613c9385828601613bf2565b9250506020613ca485828601613c1c565b9150509250929050565b600060208284031215613cc057600080fd5b6000613cce84828501613c1c565b91505092915050565b60008060408385031215613cea57600080fd5b6000613cf885828601613c1c565b9250506020613d0985828601613b93565b9150509250929050565b600080600080600060608688031215613d2b57600080fd5b6000613d3988828901613c1c565b955050602086013567ffffffffffffffff811115613d5657600080fd5b613d6288828901613ba8565b9450945050604086013567ffffffffffffffff811115613d8157600080fd5b613d8d88828901613ba8565b92509250509295509295909350565b60008060408385031215613daf57600080fd5b6000613dbd85828601613c1c565b9250506020613dce85828601613c1c565b9150509250929050565b60008060008060808587031215613dee57600080fd5b6000613dfc87828801613c1c565b9450506020613e0d87828801613c1c565b9350506040613e1e87828801613c1c565b9250506060613e2f87828801613c1c565b91505092959194509250565b6000613e478383613e7b565b60208301905092915050565b6000613e5f8383614326565b905092915050565b6000613e7383836143c2565b905092915050565b613e8481614b3d565b82525050565b613e9381614b3d565b82525050565b6000613ea4826149da565b613eae8185614a2d565b9350613eb983614995565b8060005b83811015613eea578151613ed18882613e3b565b9750613edc83614a06565b925050600181019050613ebd565b5085935050505092915050565b6000613f02826149e5565b613f0c8185614a3e565b935083602082028501613f1e856149a5565b8060005b85811015613f5a5784840389528151613f3b8582613e53565b9450613f4683614a13565b925060208a01995050600181019050613f22565b50829750879550505050505092915050565b6000613f77826149f0565b613f818185614a4f565b935083602082028501613f93856149b5565b8060005b85811015613fcf5784840389528151613fb08582613e67565b9450613fbb83614a20565b925060208a01995050600181019050613f97565b50829750879550505050505092915050565b613fea81614b4f565b82525050565b613ff981614b4f565b82525050565b61400881614b98565b82525050565b61401781614b98565b82525050565b60006140298385614a71565b9350614036838584614baa565b61403f83614d83565b840190509392505050565b6000614055826149fb565b61405f8185614a60565b935061406f818560208601614bb9565b61407881614d83565b840191505092915050565b600061408e826149fb565b6140988185614a71565b93506140a8818560208601614bb9565b6140b181614d83565b840191505092915050565b600081546140c981614bec565b6140d38186614a71565b945060018216600081146140ee576001811461410057614133565b60ff1983168652602086019350614133565b614109856149c5565b60005b8381101561412b5781548189015260018201915060208101905061410c565b808801955050505b50505092915050565b6000614149601783614a71565b915061415482614d94565b602082019050919050565b600061416c601883614a71565b915061417782614dbd565b602082019050919050565b600061418f601383614a71565b915061419a82614de6565b602082019050919050565b60006141b2601e83614a71565b91506141bd82614e0f565b602082019050919050565b60006141d5601c83614a71565b91506141e082614e38565b602082019050919050565b60006141f8602783614a71565b915061420382614e61565b604082019050919050565b600061421b602c83614a71565b915061422682614eb0565b604082019050919050565b600061423e601383614a71565b915061424982614eff565b602082019050919050565b6000614261601183614a71565b915061426c82614f28565b602082019050919050565b6000614284603183614a71565b915061428f82614f51565b604082019050919050565b60006142a7601583614a71565b91506142b282614fa0565b602082019050919050565b60006142ca601883614a71565b91506142d582614fc9565b602082019050919050565b60006142ed600f83614a71565b91506142f882614ff2565b602082019050919050565b6000614310601483614a71565b915061431b8261501b565b602082019050919050565b600060e08301600083015161433e6000860182613e7b565b50602083015161435160208601826144aa565b5060408301516143646040860182613fe1565b506060830151848203606086015261437c828261404a565b915050608083015161439160808601826144aa565b5060a08301516143a460a08601826144aa565b5060c08301516143b760c08601826144aa565b508091505092915050565b6000610140830160008301516143db6000860182613e7b565b5060208301516143ee60208601826144aa565b5060408301518482036040860152614406828261404a565b915050606083015184820360608601526144208282613e99565b915050608083015161443560808601826144aa565b5060a083015161444860a08601826144aa565b5060c083015161445b60c08601826144aa565b5060e083015161446e60e08601826144aa565b50610100830151848203610100860152614488828261404a565b91505061012083015161449f610120860182613fff565b508091505092915050565b6144b381614b8e565b82525050565b6144c281614b8e565b82525050565b60006020820190506144dd6000830184613e8a565b92915050565b600060e0820190506144f8600083018a613e8a565b61450560208301896144b9565b6145126040830188613ff0565b81810360608301526145248187614083565b905061453360808301866144b9565b61454060a08301856144b9565b61454d60c08301846144b9565b98975050505050505050565b60006101208201905061456f600083018c613e8a565b61457c602083018b6144b9565b818103604083015261458e818a614083565b905061459d60608301896144b9565b6145aa60808301886144b9565b6145b760a08301876144b9565b6145c460c08301866144b9565b81810360e08301526145d68185614083565b90506145e661010083018461400e565b9a9950505050505050505050565b6000602082019050818103600083015261460e8184613ef7565b905092915050565b600060208201905081810360008301526146308184613f6c565b905092915050565b600060208201905061464d6000830184613ff0565b92915050565b6000602082019050614668600083018461400e565b92915050565b600060a082019050818103600083015261468881886140bc565b90506146976020830187613e8a565b6146a460408301866144b9565b6146b160608301856144b9565b6146be60808301846144b9565b9695505050505050565b600060208201905081810360008301526146e18161413c565b9050919050565b600060208201905081810360008301526147018161415f565b9050919050565b6000602082019050818103600083015261472181614182565b9050919050565b60006020820190508181036000830152614741816141a5565b9050919050565b60006020820190508181036000830152614761816141c8565b9050919050565b60006020820190508181036000830152614781816141eb565b9050919050565b600060208201905081810360008301526147a18161420e565b9050919050565b600060208201905081810360008301526147c181614231565b9050919050565b600060208201905081810360008301526147e181614254565b9050919050565b6000602082019050818103600083015261480181614277565b9050919050565b600060208201905081810360008301526148218161429a565b9050919050565b60006020820190508181036000830152614841816142bd565b9050919050565b60006020820190508181036000830152614861816142e0565b9050919050565b6000602082019050818103600083015261488181614303565b9050919050565b600060208201905061489d60008301846144b9565b92915050565b600060c0820190506148b8600083018b6144b9565b81810360208301526148cb81898b61401d565b90506148da60408301886144b9565b6148e76060830187613e8a565b6148f460808301866144b9565b81810360a083015261490781848661401d565b90509998505050505050505050565b600060408201905061492b60008301856144b9565b61493860208301846144b9565b9392505050565b600061494961495a565b90506149558282614c1e565b919050565b6000604051905090565b600067ffffffffffffffff82111561497f5761497e614d54565b5b61498882614d83565b9050602081019050919050565b6000819050602082019050919050565b6000819050602082019050919050565b6000819050602082019050919050565b60008190508160005260206000209050919050565b600081519050919050565b600081519050919050565b600081519050919050565b600081519050919050565b6000602082019050919050565b6000602082019050919050565b6000602082019050919050565b600082825260208201905092915050565b600082825260208201905092915050565b600082825260208201905092915050565b600082825260208201905092915050565b600082825260208201905092915050565b6000614a8d82614b8e565b9150614a9883614b8e565b9250827fffffffffffffffffffffffffffffffffffffffffffffffffffffffffffffffff03821115614acd57614acc614c98565b5b828201905092915050565b6000614ae382614b8e565b9150614aee83614b8e565b925082614afe57614afd614cc7565b5b828204905092915050565b6000614b1482614b8e565b9150614b1f83614b8e565b925082821015614b3257614b31614c98565b5b828203905092915050565b6000614b4882614b6e565b9050919050565b60008115159050919050565b6000819050614b6982615044565b919050565b600073ffffffffffffffffffffffffffffffffffffffff82169050919050565b6000819050919050565b6000614ba382614b5b565b9050919050565b82818337600083830152505050565b60005b83811015614bd7578082015181840152602081019050614bbc565b83811115614be6576000848401525b50505050565b60006002820490506001821680614c0457607f821691505b60208210811415614c1857614c17614d25565b5b50919050565b614c2782614d83565b810181811067ffffffffffffffff82111715614c4657614c45614d54565b5b80604052505050565b6000614c5a82614b8e565b91507fffffffffffffffffffffffffffffffffffffffffffffffffffffffffffffffff821415614c8d57614c8c614c98565b5b600182019050919050565b7f4e487b7100000000000000000000000000000000000000000000000000000000600052601160045260246000fd5b7f4e487b7100000000000000000000000000000000000000000000000000000000600052601260045260246000fd5b7f4e487b7100000000000000000000000000000000000000000000000000000000600052602160045260246000fd5b7f4e487b7100000000000000000000000000000000000000000000000000000000600052602260045260246000fd5b7f4e487b7100000000000000000000000000000000000000000000000000000000600052604160045260246000fd5b6000601f19601f8301169050919050565b7f496e76616c6964206f7267616e697a6174696f6e204944000000000000000000600082015250565b7f766f74696e6720686176656e7420656e64656420796574210000000000000000600082015250565b7f496e73756666696369656e7420546f6b656e7300000000000000000000000000600082015250565b7f4475726174696f6e2073686f756c64206265206d6f7265207468616e20300000600082015250565b7f566f74696e672069736e277420696e2054616c6c792073746174652100000000600082015250565b7f63616e6e6f74206d696e7420746f6b656e2077697468206e6f6e207a65726f2060008201527f62616c616e636500000000000000000000000000000000000000000000000000602082015250565b7f4e6f20616374697665206f7267616e697a6174696f6e2077697468206375727260008201527f656e742061646472657373210000000000000000000000000000000000000000602082015250565b7f496e76616c69642050726f706f73616c20494400000000000000000000000000600082015250565b7f766f74696e672068617320656e64656421000000000000000000000000000000600082015250565b7f416e206f7267616e697a6174696f6e207769746820746869732061646472657360008201527f7320616c72656164792065786973747321000000000000000000000000000000602082015250565b7f566f74696e672069736e2774206f6e676f696e67210000000000000000000000600082015250565b7f566f746572206861766520616c726561647920766f7465640000000000000000600082015250565b7f696e76616c6964206163636f756e740000000000000000000000000000000000600082015250565b7f766f74696e672069736e2774206f6e676f696e67000000000000000000000000600082015250565b6003811061505557615054614cf6565b5b50565b61506181614b3d565b811461506c57600080fd5b50565b61507881614b8e565b811461508357600080fd5b5056fea2646970667358221220e06bacadfc3df81f1a12d4935288c2d23d3455e35427d936c618b44e8e20fad064736f6c63430008040033",
  "linkReferences": {},
  "deployedLinkReferences": {}
}